{
  "contractName": "ERC165Query",
  "abi": [
    {
      "constant": true,
      "inputs": [
        {
          "name": "interfaceId",
          "type": "bytes4"
        }
      ],
      "name": "supportsInterface",
      "outputs": [
        {
          "name": "",
          "type": "bool"
        }
      ],
      "payable": false,
      "stateMutability": "view",
      "type": "function"
    },
    {
      "inputs": [],
      "payable": false,
      "stateMutability": "nonpayable",
      "type": "constructor"
    },
    {
      "constant": true,
      "inputs": [
        {
          "name": "_contract",
          "type": "address"
        },
        {
          "name": "_interfaceId",
          "type": "bytes4"
        }
      ],
      "name": "doesContractImplementInterface",
      "outputs": [
        {
          "name": "",
          "type": "bool"
        }
      ],
      "payable": false,
      "stateMutability": "view",
      "type": "function"
    }
  ],
  "bytecode": "0x608060405234801561001057600080fd5b506100437f01ffc9a70000000000000000000000000000000000000000000000000000000064010000000061007a810204565b6100757fe9c543840000000000000000000000000000000000000000000000000000000064010000000061007a810204565b6100e6565b7fffffffff0000000000000000000000000000000000000000000000000000000080821614156100a957600080fd5b7fffffffff00000000000000000000000000000000000000000000000000000000166000908152602081905260409020805460ff19166001179055565b610248806100f56000396000f30060806040526004361061004b5763ffffffff7c010000000000000000000000000000000000000000000000000000000060003504166301ffc9a78114610050578063e9c5438414610086575b600080fd5b34801561005c57600080fd5b50610072600160e060020a0319600435166100c1565b604080519115158252519081900360200190f35b34801561009257600080fd5b5061007273ffffffffffffffffffffffffffffffffffffffff60043516600160e060020a0319602435166100e0565b600160e060020a03191660009081526020819052604090205460ff1690565b60006100ec83836100f3565b9392505050565b60006100fe8361010f565b80156100ec57506100ec838361015c565b600061013b827f01ffc9a70000000000000000000000000000000000000000000000000000000061015c565b8015610156575061015482600160e060020a031961015c565b155b92915050565b600080600061016b8585610182565b915091508180156101795750805b95945050505050565b60408051600160e060020a031983166024808301919091528251808303909101815260449091018252602081810180517bffffffffffffffffffffffffffffffffffffffffffffffffffffffff167f01ffc9a700000000000000000000000000000000000000000000000000000000178152825193516000808252948594939091908183858b617530fa90519098909750955050505050505600a165627a7a72305820ba2e8cef990b1a6d2ade0b1cc0f81911b318de2c913cfb18746274ded809ac1c0029",
  "source": "pragma solidity ^0.4.24;\n\nimport \"./interfaces/IERC165Query.sol\";\nimport \"openzeppelin-solidity/contracts/introspection/ERC165Checker.sol\";\nimport \"openzeppelin-solidity/contracts/introspection/ERC165.sol\";\n\n\ncontract ERC165Query is IERC165Query, ERC165 {\n\n    constructor() public {\n        _registerInterface(this.doesContractImplementInterface.selector);\n    }\n\n    function doesContractImplementInterface(address _contract, bytes4 _interfaceId) external view returns (bool) {\n        return ERC165Checker._supportsInterface(_contract, _interfaceId);\n    }\n}\n\n",
  "sourcePath": "/home/aznagy/work/secretstore/secretstore-contracts/contracts/ERC165Query.sol",
  "compiler": {
    "name": "solc",
    "version": "0.4.24+commit.e67f0147.Emscripten.clang"
  },
  "schemaVersion": "2.0.1",
  "updatedAt": "2019-01-04T14:19:13.099Z"
}