{
  "contractName": "OwnedKeyServerSetWithMigration",
  "abi": [
    {
      "anonymous": false,
      "inputs": [
        {
          "indexed": false,
          "internalType": "address",
          "name": "keyServer",
          "type": "address"
        }
      ],
      "name": "KeyServerAdded",
      "type": "event"
    },
    {
      "anonymous": false,
      "inputs": [
        {
          "indexed": false,
          "internalType": "address",
          "name": "keyServer",
          "type": "address"
        }
      ],
      "name": "KeyServerRemoved",
      "type": "event"
    },
    {
      "anonymous": false,
      "inputs": [],
      "name": "MigrationCompleted",
      "type": "event"
    },
    {
      "anonymous": false,
      "inputs": [],
      "name": "MigrationStarted",
      "type": "event"
    },
    {
      "anonymous": false,
      "inputs": [
        {
          "indexed": true,
          "internalType": "address",
          "name": "previousOwner",
          "type": "address"
        },
        {
          "indexed": true,
          "internalType": "address",
          "name": "newOwner",
          "type": "address"
        }
      ],
      "name": "OwnershipTransferred",
      "type": "event"
    },
    {
      "inputs": [],
      "name": "owner",
      "outputs": [
        {
          "internalType": "address",
          "name": "",
          "type": "address"
        }
      ],
      "stateMutability": "view",
      "type": "function"
    },
    {
      "inputs": [],
      "name": "renounceOwnership",
      "outputs": [],
      "stateMutability": "nonpayable",
      "type": "function"
    },
    {
      "inputs": [
        {
          "internalType": "address",
          "name": "newOwner",
          "type": "address"
        }
      ],
      "name": "transferOwnership",
      "outputs": [],
      "stateMutability": "nonpayable",
      "type": "function"
    },
    {
      "stateMutability": "payable",
      "type": "receive"
    },
    {
      "inputs": [],
      "name": "getCurrentLastChange",
      "outputs": [
        {
          "internalType": "uint256",
          "name": "",
          "type": "uint256"
        }
      ],
      "stateMutability": "view",
      "type": "function"
    },
    {
      "inputs": [
        {
          "internalType": "address",
          "name": "keyServer",
          "type": "address"
        }
      ],
      "name": "getCurrentKeyServerIndex",
      "outputs": [
        {
          "internalType": "uint8",
          "name": "",
          "type": "uint8"
        }
      ],
      "stateMutability": "view",
      "type": "function"
    },
    {
      "inputs": [],
      "name": "getCurrentKeyServersCount",
      "outputs": [
        {
          "internalType": "uint8",
          "name": "",
          "type": "uint8"
        }
      ],
      "stateMutability": "view",
      "type": "function"
    },
    {
      "inputs": [
        {
          "internalType": "uint8",
          "name": "index",
          "type": "uint8"
        }
      ],
      "name": "getCurrentKeyServer",
      "outputs": [
        {
          "internalType": "address",
          "name": "",
          "type": "address"
        }
      ],
      "stateMutability": "view",
      "type": "function"
    },
    {
      "inputs": [],
      "name": "getCurrentKeyServers",
      "outputs": [
        {
          "internalType": "address[]",
          "name": "",
          "type": "address[]"
        }
      ],
      "stateMutability": "view",
      "type": "function"
    },
    {
      "inputs": [
        {
          "internalType": "address",
          "name": "keyServer",
          "type": "address"
        }
      ],
      "name": "getCurrentKeyServerPublic",
      "outputs": [
        {
          "internalType": "bytes",
          "name": "",
          "type": "bytes"
        }
      ],
      "stateMutability": "view",
      "type": "function"
    },
    {
      "inputs": [
        {
          "internalType": "address",
          "name": "keyServer",
          "type": "address"
        }
      ],
      "name": "getCurrentKeyServerAddress",
      "outputs": [
        {
          "internalType": "string",
          "name": "",
          "type": "string"
        }
      ],
      "stateMutability": "view",
      "type": "function"
    },
    {
      "inputs": [],
      "name": "getMigrationKeyServers",
      "outputs": [
        {
          "internalType": "address[]",
          "name": "",
          "type": "address[]"
        }
      ],
      "stateMutability": "view",
      "type": "function"
    },
    {
      "inputs": [
        {
          "internalType": "address",
          "name": "keyServer",
          "type": "address"
        }
      ],
      "name": "getMigrationKeyServerPublic",
      "outputs": [
        {
          "internalType": "bytes",
          "name": "",
          "type": "bytes"
        }
      ],
      "stateMutability": "view",
      "type": "function"
    },
    {
      "inputs": [
        {
          "internalType": "address",
          "name": "keyServer",
          "type": "address"
        }
      ],
      "name": "getMigrationKeyServerAddress",
      "outputs": [
        {
          "internalType": "string",
          "name": "",
          "type": "string"
        }
      ],
      "stateMutability": "view",
      "type": "function"
    },
    {
      "inputs": [],
      "name": "getNewKeyServers",
      "outputs": [
        {
          "internalType": "address[]",
          "name": "",
          "type": "address[]"
        }
      ],
      "stateMutability": "view",
      "type": "function"
    },
    {
      "inputs": [
        {
          "internalType": "address",
          "name": "keyServer",
          "type": "address"
        }
      ],
      "name": "getNewKeyServerPublic",
      "outputs": [
        {
          "internalType": "bytes",
          "name": "",
          "type": "bytes"
        }
      ],
      "stateMutability": "view",
      "type": "function"
    },
    {
      "inputs": [
        {
          "internalType": "address",
          "name": "keyServer",
          "type": "address"
        }
      ],
      "name": "getNewKeyServerAddress",
      "outputs": [
        {
          "internalType": "string",
          "name": "",
          "type": "string"
        }
      ],
      "stateMutability": "view",
      "type": "function"
    },
    {
      "inputs": [],
      "name": "getMigrationId",
      "outputs": [
        {
          "internalType": "bytes32",
          "name": "",
          "type": "bytes32"
        }
      ],
      "stateMutability": "view",
      "type": "function"
    },
    {
      "inputs": [
        {
          "internalType": "bytes32",
          "name": "id",
          "type": "bytes32"
        }
      ],
      "name": "startMigration",
      "outputs": [],
      "stateMutability": "nonpayable",
      "type": "function"
    },
    {
      "inputs": [
        {
          "internalType": "bytes32",
          "name": "id",
          "type": "bytes32"
        }
      ],
      "name": "confirmMigration",
      "outputs": [],
      "stateMutability": "nonpayable",
      "type": "function"
    },
    {
      "inputs": [],
      "name": "getMigrationMaster",
      "outputs": [
        {
          "internalType": "address",
          "name": "",
          "type": "address"
        }
      ],
      "stateMutability": "view",
      "type": "function"
    },
    {
      "inputs": [
        {
          "internalType": "address",
          "name": "keyServer",
          "type": "address"
        }
      ],
      "name": "isMigrationConfirmed",
      "outputs": [
        {
          "internalType": "bool",
          "name": "",
          "type": "bool"
        }
      ],
      "stateMutability": "view",
      "type": "function"
    },
    {
      "inputs": [],
      "name": "completeInitialization",
      "outputs": [],
      "stateMutability": "nonpayable",
      "type": "function"
    },
    {
      "inputs": [
        {
          "internalType": "bytes",
          "name": "keyServerPublic",
          "type": "bytes"
        },
        {
          "internalType": "string",
          "name": "keyServerIp",
          "type": "string"
        }
      ],
      "name": "addKeyServer",
      "outputs": [],
      "stateMutability": "nonpayable",
      "type": "function"
    },
    {
      "inputs": [
        {
          "internalType": "address",
          "name": "keyServer",
          "type": "address"
        }
      ],
      "name": "removeKeyServer",
      "outputs": [],
      "stateMutability": "nonpayable",
      "type": "function"
    }
  ],
  "bytecode": "0x6080604052600062000016620000ba60201b60201c565b9050806000806101000a81548173ffffffffffffffffffffffffffffffffffffffff021916908373ffffffffffffffffffffffffffffffffffffffff1602179055508073ffffffffffffffffffffffffffffffffffffffff16600073ffffffffffffffffffffffffffffffffffffffff167f8be0079c531659141344cd1fd0a4f28419497f9722a3daafe3b4186f6b6457e060405160405180910390a350620000c2565b600033905090565b6143f180620000d26000396000f3fe60806040526004361061014f5760003560e01c80635e9f171d116100b6578063a86560be1161006f578063a86560be146108c3578063ab55cb481461098d578063c66198dc14610a57578063eaffb96514610ad5578063f2a2a90014610b26578063f2fde38b14610c85576101a5565b80635e9f171d1461062a5780636452e82114610696578063715018a6146106c157806375de2a06146106d85780638416e7c2146107a25780638da5cb5b1461086c576101a5565b8063362b282d11610108578063362b282d146104665780633a3f7201146104d2578063447f5b181461050d578063529377d0146105795780635560c965146105e25780635827b25014610613576101a5565b80630ec71f82146101aa5780631455eb9a146102015780631d7f7673146102cb578063287fb40c146103065780632ac4ecd8146103715780632b73af521461043b576101a5565b366101a5576040517f08c379a000000000000000000000000000000000000000000000000000000000815260040180806020018281038252602a815260200180614392602a913960400191505060405180910390fd5b600080fd5b3480156101b657600080fd5b506101bf610cd6565b604051808273ffffffffffffffffffffffffffffffffffffffff1673ffffffffffffffffffffffffffffffffffffffff16815260200191505060405180910390f35b34801561020d57600080fd5b506102506004803603602081101561022457600080fd5b81019080803573ffffffffffffffffffffffffffffffffffffffff169060200190929190505050610d00565b6040518080602001828103825283818151815260200191508051906020019080838360005b83811015610290578082015181840152602081019050610275565b50505050905090810190601f1680156102bd5780820380516001836020036101000a031916815260200191505b509250505060405180910390f35b3480156102d757600080fd5b50610304600480360360208110156102ee57600080fd5b8101908080359060200190929190505050610efe565b005b34801561031257600080fd5b506103556004803603602081101561032957600080fd5b81019080803573ffffffffffffffffffffffffffffffffffffffff16906020019092919050505061137d565b604051808260ff1660ff16815260200191505060405180910390f35b34801561037d57600080fd5b506103c06004803603602081101561039457600080fd5b81019080803573ffffffffffffffffffffffffffffffffffffffff1690602001909291905050506114cf565b6040518080602001828103825283818151815260200191508051906020019080838360005b838110156104005780820151818401526020810190506103e5565b50505050905090810190601f16801561042d5780820380516001836020036101000a031916815260200191505b509250505060405180910390f35b34801561044757600080fd5b506104506116cd565b6040518082815260200191505060405180910390f35b34801561047257600080fd5b5061047b611754565b6040518080602001828103825283818151815260200191508051906020019060200280838360005b838110156104be5780820151818401526020810190506104a3565b505050509050019250505060405180910390f35b3480156104de57600080fd5b5061050b600480360360208110156104f557600080fd5b81019080803590602001909291905050506117e5565b005b34801561051957600080fd5b50610522611cbb565b6040518080602001828103825283818151815260200191508051906020019060200280838360005b8381101561056557808201518184015260208101905061054a565b505050509050019250505060405180910390f35b34801561058557600080fd5b506105c86004803603602081101561059c57600080fd5b81019080803573ffffffffffffffffffffffffffffffffffffffff169060200190929190505050611d4c565b604051808215151515815260200191505060405180910390f35b3480156105ee57600080fd5b506105f7611f80565b604051808260ff1660ff16815260200191505060405180910390f35b34801561061f57600080fd5b50610628611f90565b005b34801561063657600080fd5b5061063f6120f9565b6040518080602001828103825283818151815260200191508051906020019060200280838360005b83811015610682578082015181840152602081019050610667565b505050509050019250505060405180910390f35b3480156106a257600080fd5b506106ab61218a565b6040518082815260200191505060405180910390f35b3480156106cd57600080fd5b506106d6612194565b005b3480156106e457600080fd5b50610727600480360360208110156106fb57600080fd5b81019080803573ffffffffffffffffffffffffffffffffffffffff16906020019092919050505061231c565b6040518080602001828103825283818151815260200191508051906020019080838360005b8381101561076757808201518184015260208101905061074c565b50505050905090810190601f1680156107945780820380516001836020036101000a031916815260200191505b509250505060405180910390f35b3480156107ae57600080fd5b506107f1600480360360208110156107c557600080fd5b81019080803573ffffffffffffffffffffffffffffffffffffffff16906020019092919050505061251a565b6040518080602001828103825283818151815260200191508051906020019080838360005b83811015610831578082015181840152602081019050610816565b50505050905090810190601f16801561085e5780820380516001836020036101000a031916815260200191505b509250505060405180910390f35b34801561087857600080fd5b50610881612735565b604051808273ffffffffffffffffffffffffffffffffffffffff1673ffffffffffffffffffffffffffffffffffffffff16815260200191505060405180910390f35b3480156108cf57600080fd5b50610912600480360360208110156108e657600080fd5b81019080803573ffffffffffffffffffffffffffffffffffffffff16906020019092919050505061275e565b6040518080602001828103825283818151815260200191508051906020019080838360005b83811015610952578082015181840152602081019050610937565b50505050905090810190601f16801561097f5780820380516001836020036101000a031916815260200191505b509250505060405180910390f35b34801561099957600080fd5b506109dc600480360360208110156109b057600080fd5b81019080803573ffffffffffffffffffffffffffffffffffffffff16906020019092919050505061295c565b6040518080602001828103825283818151815260200191508051906020019080838360005b83811015610a1c578082015181840152602081019050610a01565b50505050905090810190601f168015610a495780820380516001836020036101000a031916815260200191505b509250505060405180910390f35b348015610a6357600080fd5b50610a9360048036036020811015610a7a57600080fd5b81019080803560ff169060200190929190505050612b77565b604051808273ffffffffffffffffffffffffffffffffffffffff1673ffffffffffffffffffffffffffffffffffffffff16815260200191505060405180910390f35b348015610ae157600080fd5b50610b2460048036036020811015610af857600080fd5b81019080803573ffffffffffffffffffffffffffffffffffffffff169060200190929190505050612c3e565b005b348015610b3257600080fd5b50610c8360048036036040811015610b4957600080fd5b8101908080359060200190640100000000811115610b6657600080fd5b820183602082011115610b7857600080fd5b80359060200191846001830284011164010000000083111715610b9a57600080fd5b91908080601f016020809104026020016040519081016040528093929190818152602001838380828437600081840152601f19601f82011690508083019250505050505050919291929080359060200190640100000000811115610bfd57600080fd5b820183602082011115610c0f57600080fd5b80359060200191846001830284011164010000000083111715610c3157600080fd5b91908080601f016020809104026020016040519081016040528093929190818152602001838380828437600081840152601f19601f820116905080830192505050505050509192919290505050612ecc565b005b348015610c9157600080fd5b50610cd460048036036020811015610ca857600080fd5b81019080803573ffffffffffffffffffffffffffffffffffffffff169060200190929190505050613267565b005b6000600860009054906101000a900473ffffffffffffffffffffffffffffffffffffffff16905090565b6060816040518060000190506040518091039020600460010160008373ffffffffffffffffffffffffffffffffffffffff1673ffffffffffffffffffffffffffffffffffffffff1681526020019081526020016000206002016040518082805460018160011615610100020316600290048015610db45780601f10610d92576101008083540402835291820191610db4565b820191906000526020600020905b815481529060010190602001808311610da0575b505091505060405180910390201415610e18576040517f08c379a00000000000000000000000000000000000000000000000000000000081526004018080602001828103825260248152602001806143486024913960400191505060405180910390fd5b600460010160008473ffffffffffffffffffffffffffffffffffffffff1673ffffffffffffffffffffffffffffffffffffffff1681526020019081526020016000206001018054600181600116156101000203166002900480601f016020809104026020016040519081016040528092919081815260200182805460018160011615610100020316600290048015610ef15780601f10610ec657610100808354040283529160200191610ef1565b820191906000526020600020905b815481529060010190602001808311610ed457829003601f168201915b5050505050915050919050565b600073ffffffffffffffffffffffffffffffffffffffff16600860009054906101000a900473ffffffffffffffffffffffffffffffffffffffff1673ffffffffffffffffffffffffffffffffffffffff1614610fc2576040517f08c379a000000000000000000000000000000000000000000000000000000000815260040180806020018281038252601d8152602001807f546865726520697320616e20616374697665206d6967726174696f6e2e00000081525060200191505060405180910390fd5b806000801b81141561103c576040517f08c379a000000000000000000000000000000000000000000000000000000000815260040180806020018281038252601a8152602001807f4d6967726174696f6e206964206973206e6f742076616c69642e00000000000081525060200191505060405180910390fd5b61104860026006613474565b156110bb576040517f08c379a000000000000000000000000000000000000000000000000000000000815260040180806020018281038252601a8152602001807f4d6967726174696f6e206973206e6f742072657175697265642e00000000000081525060200191505060405180910390fd5b6040518060000190506040518091039020600260010160003373ffffffffffffffffffffffffffffffffffffffff1673ffffffffffffffffffffffffffffffffffffffff168152602001908152602001600020600201604051808280546001816001161561010002031660029004801561116c5780601f1061114a57610100808354040283529182019161116c565b820191906000526020600020905b815481529060010190602001808311611158575b5050915050604051809103902014158061124257506040518060000190506040518091039020600660010160003373ffffffffffffffffffffffffffffffffffffffff1673ffffffffffffffffffffffffffffffffffffffff16815260200190815260200160002060020160405180828054600181600116156101000203166002900480156112325780601f10611210576101008083540402835291820191611232565b820191906000526020600020905b81548152906001019060200180831161121e575b5050915050604051809103902014155b611297576040517f08c379a00000000000000000000000000000000000000000000000000000000081526004018080602001828103825260308152602001806142c76030913960400191505060405180910390fd5b600060066000018054905014156112f9576040517f08c379a000000000000000000000000000000000000000000000000000000000815260040180806020018281038252602581526020018061425b6025913960400191505060405180910390fd5b33600860006101000a81548173ffffffffffffffffffffffffffffffffffffffff021916908373ffffffffffffffffffffffffffffffffffffffff1602179055508160098190555061134d600460066136cf565b7f882ea0955bd5561a49a52ef27eb0a7b8263561bd890de2ccfbc107df7724f18860405160405180910390a15050565b600080600260010160008473ffffffffffffffffffffffffffffffffffffffff1673ffffffffffffffffffffffffffffffffffffffff168152602001908152602001600020905060405180600001905060405180910390208160020160405180828054600181600116156101000203166002900480156114345780601f10611412576101008083540402835291820191611434565b820191906000526020600020905b815481529060010190602001808311611420575b5050915050604051809103902014156114b5576040517f08c379a00000000000000000000000000000000000000000000000000000000081526004018080602001828103825260158152602001807f456e74727920646f6573206e6f742065786973742e000000000000000000000081525060200191505060405180910390fd5b8060000160009054906101000a900460ff16915050919050565b6060816040518060000190506040518091039020600460010160008373ffffffffffffffffffffffffffffffffffffffff1673ffffffffffffffffffffffffffffffffffffffff16815260200190815260200160002060020160405180828054600181600116156101000203166002900480156115835780601f10611561576101008083540402835291820191611583565b820191906000526020600020905b81548152906001019060200180831161156f575b5050915050604051809103902014156115e7576040517f08c379a00000000000000000000000000000000000000000000000000000000081526004018080602001828103825260248152602001806143486024913960400191505060405180910390fd5b600460010160008473ffffffffffffffffffffffffffffffffffffffff1673ffffffffffffffffffffffffffffffffffffffff1681526020019081526020016000206002018054600181600116156101000203166002900480601f0160208091040260200160405190810160405280929190818152602001828054600181600116156101000203166002900480156116c05780601f10611695576101008083540402835291602001916116c0565b820191906000526020600020905b8154815290600101906020018083116116a357829003601f168201915b5050505050915050919050565b60006009546000801b81141561174b576040517f08c379a000000000000000000000000000000000000000000000000000000000815260040180806020018281038252601a8152602001807f4d6967726174696f6e206964206973206e6f742076616c69642e00000000000081525060200191505060405180910390fd5b60095491505090565b606060066000018054806020026020016040519081016040528092919081815260200182805480156117db57602002820191906000526020600020905b8160009054906101000a900473ffffffffffffffffffffffffffffffffffffffff1673ffffffffffffffffffffffffffffffffffffffff1681526020019060010190808311611791575b5050505050905090565b806000801b81141561185f576040517f08c379a000000000000000000000000000000000000000000000000000000000815260040180806020018281038252601a8152602001807f4d6967726174696f6e206964206973206e6f742076616c69642e00000000000081525060200191505060405180910390fd5b8180600954146118ba576040517f08c379a000000000000000000000000000000000000000000000000000000000815260040180806020018281038252602681526020018061436c6026913960400191505060405180910390fd5b336040518060000190506040518091039020600460010160008373ffffffffffffffffffffffffffffffffffffffff1673ffffffffffffffffffffffffffffffffffffffff168152602001908152602001600020600201604051808280546001816001161561010002031660029004801561196c5780601f1061194a57610100808354040283529182019161196c565b820191906000526020600020905b815481529060010190602001808311611958575b5050915050604051809103902014156119d0576040517f08c379a00000000000000000000000000000000000000000000000000000000081526004018080602001828103825260248152602001806143486024913960400191505060405180910390fd5b600a60003373ffffffffffffffffffffffffffffffffffffffff1673ffffffffffffffffffffffffffffffffffffffff16815260200190815260200160002060009054906101000a900460ff1615611a90576040517f08c379a000000000000000000000000000000000000000000000000000000000815260040180806020018281038252601f8152602001807f4d6967726174696f6e20697320616c726561647920636f6e6669726d65642e0081525060200191505060405180910390fd5b6001600a60003373ffffffffffffffffffffffffffffffffffffffff1673ffffffffffffffffffffffffffffffffffffffff16815260200190815260200160002060006101000a81548160ff02191690831515021790555060008090505b600460000180549050811015611b9a57600a600060046000018381548110611b1257fe5b9060005260206000200160009054906101000a900473ffffffffffffffffffffffffffffffffffffffff1673ffffffffffffffffffffffffffffffffffffffff1673ffffffffffffffffffffffffffffffffffffffff16815260200190815260200160002060009054906101000a900460ff16611b8f5750611cb5565b806001019050611aee565b5060008090505b600460000180549050811015611c4557600a600060046000018381548110611bc557fe5b9060005260206000200160009054906101000a900473ffffffffffffffffffffffffffffffffffffffff1673ffffffffffffffffffffffffffffffffffffffff1673ffffffffffffffffffffffffffffffffffffffff16815260200190815260200160002060006101000a81549060ff0219169055806001019050611ba1565b50600860006101000a81549073ffffffffffffffffffffffffffffffffffffffff0219169055611c77600260046136cf565b611c816004613952565b7fd54b6ad1fb1b396d056c6d670ae90d40d49ad3253a6387dc5120c45bfc51453460405160405180910390a1436001819055505b50505050565b60606004600001805480602002602001604051908101604052809291908181526020018280548015611d4257602002820191906000526020600020905b8160009054906101000a900473ffffffffffffffffffffffffffffffffffffffff1673ffffffffffffffffffffffffffffffffffffffff1681526020019060010190808311611cf8575b5050505050905090565b6000816040518060000190506040518091039020600260010160008373ffffffffffffffffffffffffffffffffffffffff1673ffffffffffffffffffffffffffffffffffffffff1681526020019081526020016000206002016040518082805460018160011615610100020316600290048015611e005780601f10611dde576101008083540402835291820191611e00565b820191906000526020600020905b815481529060010190602001808311611dec575b50509150506040518091039020141580611ed657506040518060000190506040518091039020600460010160008373ffffffffffffffffffffffffffffffffffffffff1673ffffffffffffffffffffffffffffffffffffffff1681526020019081526020016000206002016040518082805460018160011615610100020316600290048015611ec65780601f10611ea4576101008083540402835291820191611ec6565b820191906000526020600020905b815481529060010190602001808311611eb2575b5050915050604051809103902014155b611f2b576040517f08c379a00000000000000000000000000000000000000000000000000000000081526004018080602001828103825260268152602001806142f76026913960400191505060405180910390fd5b600a60008473ffffffffffffffffffffffffffffffffffffffff1673ffffffffffffffffffffffffffffffffffffffff16815260200190815260200160002060009054906101000a900460ff16915050919050565b6000600260000180549050905090565b611f98613a6e565b73ffffffffffffffffffffffffffffffffffffffff166000809054906101000a900473ffffffffffffffffffffffffffffffffffffffff1673ffffffffffffffffffffffffffffffffffffffff1614612059576040517f08c379a00000000000000000000000000000000000000000000000000000000081526004018080602001828103825260208152602001807f4f776e61626c653a2063616c6c6572206973206e6f7420746865206f776e657281525060200191505060405180910390fd5b600060149054906101000a900460ff16156120dc576040517f08c379a00000000000000000000000000000000000000000000000000000000081526004018080602001828103825260108152602001807f4e6f7420696e697469616c697a6564210000000000000000000000000000000081525060200191505060405180910390fd5b6001600060146101000a81548160ff021916908315150217905550565b6060600260000180548060200260200160405190810160405280929190818152602001828054801561218057602002820191906000526020600020905b8160009054906101000a900473ffffffffffffffffffffffffffffffffffffffff1673ffffffffffffffffffffffffffffffffffffffff1681526020019060010190808311612136575b5050505050905090565b6000600154905090565b61219c613a6e565b73ffffffffffffffffffffffffffffffffffffffff166000809054906101000a900473ffffffffffffffffffffffffffffffffffffffff1673ffffffffffffffffffffffffffffffffffffffff161461225d576040517f08c379a00000000000000000000000000000000000000000000000000000000081526004018080602001828103825260208152602001807f4f776e61626c653a2063616c6c6572206973206e6f7420746865206f776e657281525060200191505060405180910390fd5b600073ffffffffffffffffffffffffffffffffffffffff166000809054906101000a900473ffffffffffffffffffffffffffffffffffffffff1673ffffffffffffffffffffffffffffffffffffffff167f8be0079c531659141344cd1fd0a4f28419497f9722a3daafe3b4186f6b6457e060405160405180910390a360008060006101000a81548173ffffffffffffffffffffffffffffffffffffffff021916908373ffffffffffffffffffffffffffffffffffffffff160217905550565b6060816040518060000190506040518091039020600260010160008373ffffffffffffffffffffffffffffffffffffffff1673ffffffffffffffffffffffffffffffffffffffff16815260200190815260200160002060020160405180828054600181600116156101000203166002900480156123d05780601f106123ae5761010080835404028352918201916123d0565b820191906000526020600020905b8154815290600101906020018083116123bc575b505091505060405180910390201415612434576040517f08c379a00000000000000000000000000000000000000000000000000000000081526004018080602001828103825260218152602001806142a66021913960400191505060405180910390fd5b600260010160008473ffffffffffffffffffffffffffffffffffffffff1673ffffffffffffffffffffffffffffffffffffffff1681526020019081526020016000206001018054600181600116156101000203166002900480601f01602080910402602001604051908101604052809291908181526020018280546001816001161561010002031660029004801561250d5780601f106124e25761010080835404028352916020019161250d565b820191906000526020600020905b8154815290600101906020018083116124f057829003601f168201915b5050505050915050919050565b6060816040518060000190506040518091039020600660010160008373ffffffffffffffffffffffffffffffffffffffff1673ffffffffffffffffffffffffffffffffffffffff16815260200190815260200160002060020160405180828054600181600116156101000203166002900480156125ce5780601f106125ac5761010080835404028352918201916125ce565b820191906000526020600020905b8154815290600101906020018083116125ba575b50509150506040518091039020141561264f576040517f08c379a000000000000000000000000000000000000000000000000000000000815260040180806020018281038252601d8152602001807f536572766572206973206e6f7420696e20746865206e6577207365742e00000081525060200191505060405180910390fd5b600660010160008473ffffffffffffffffffffffffffffffffffffffff1673ffffffffffffffffffffffffffffffffffffffff1681526020019081526020016000206002018054600181600116156101000203166002900480601f0160208091040260200160405190810160405280929190818152602001828054600181600116156101000203166002900480156127285780601f106126fd57610100808354040283529160200191612728565b820191906000526020600020905b81548152906001019060200180831161270b57829003601f168201915b5050505050915050919050565b60008060009054906101000a900473ffffffffffffffffffffffffffffffffffffffff16905090565b6060816040518060000190506040518091039020600260010160008373ffffffffffffffffffffffffffffffffffffffff1673ffffffffffffffffffffffffffffffffffffffff16815260200190815260200160002060020160405180828054600181600116156101000203166002900480156128125780601f106127f0576101008083540402835291820191612812565b820191906000526020600020905b8154815290600101906020018083116127fe575b505091505060405180910390201415612876576040517f08c379a00000000000000000000000000000000000000000000000000000000081526004018080602001828103825260218152602001806142a66021913960400191505060405180910390fd5b600260010160008473ffffffffffffffffffffffffffffffffffffffff1673ffffffffffffffffffffffffffffffffffffffff1681526020019081526020016000206002018054600181600116156101000203166002900480601f01602080910402602001604051908101604052809291908181526020018280546001816001161561010002031660029004801561294f5780601f106129245761010080835404028352916020019161294f565b820191906000526020600020905b81548152906001019060200180831161293257829003601f168201915b5050505050915050919050565b6060816040518060000190506040518091039020600660010160008373ffffffffffffffffffffffffffffffffffffffff1673ffffffffffffffffffffffffffffffffffffffff1681526020019081526020016000206002016040518082805460018160011615610100020316600290048015612a105780601f106129ee576101008083540402835291820191612a10565b820191906000526020600020905b8154815290600101906020018083116129fc575b505091505060405180910390201415612a91576040517f08c379a000000000000000000000000000000000000000000000000000000000815260040180806020018281038252601d8152602001807f536572766572206973206e6f7420696e20746865206e6577207365742e00000081525060200191505060405180910390fd5b600660010160008473ffffffffffffffffffffffffffffffffffffffff1673ffffffffffffffffffffffffffffffffffffffff1681526020019081526020016000206001018054600181600116156101000203166002900480601f016020809104026020016040519081016040528092919081815260200182805460018160011615610100020316600290048015612b6a5780601f10612b3f57610100808354040283529160200191612b6a565b820191906000526020600020905b815481529060010190602001808311612b4d57829003601f168201915b5050505050915050919050565b60006002600001805490508260ff1610612bf9576040517f08c379a00000000000000000000000000000000000000000000000000000000081526004018080602001828103825260178152602001807f496e646578206973206f7574206f6620626f756e64732e00000000000000000081525060200191505060405180910390fd5b60026000018260ff1681548110612c0c57fe5b9060005260206000200160009054906101000a900473ffffffffffffffffffffffffffffffffffffffff169050919050565b612c46613a6e565b73ffffffffffffffffffffffffffffffffffffffff166000809054906101000a900473ffffffffffffffffffffffffffffffffffffffff1673ffffffffffffffffffffffffffffffffffffffff1614612d07576040517f08c379a00000000000000000000000000000000000000000000000000000000081526004018080602001828103825260208152602001807f4f776e61626c653a2063616c6c6572206973206e6f7420746865206f776e657281525060200191505060405180910390fd5b806040518060000190506040518091039020600660010160008373ffffffffffffffffffffffffffffffffffffffff1673ffffffffffffffffffffffffffffffffffffffff1681526020019081526020016000206002016040518082805460018160011615610100020316600290048015612db95780601f10612d97576101008083540402835291820191612db9565b820191906000526020600020905b815481529060010190602001808311612da5575b505091505060405180910390201415612e3a576040517f08c379a000000000000000000000000000000000000000000000000000000000815260040180806020018281038252601d8152602001807f536572766572206973206e6f7420696e20746865206e6577207365742e00000081525060200191505060405180910390fd5b612e45600683613a76565b600060149054906101000a900460ff16612e6557612e64600283613a76565b5b7f7af0e7a6072f80f6e718184ff67a09d85fb6855266e2317eccbafa9a7fd15b9382604051808273ffffffffffffffffffffffffffffffffffffffff1673ffffffffffffffffffffffffffffffffffffffff16815260200191505060405180910390a15050565b612ed4613a6e565b73ffffffffffffffffffffffffffffffffffffffff166000809054906101000a900473ffffffffffffffffffffffffffffffffffffffff1673ffffffffffffffffffffffffffffffffffffffff1614612f95576040517f08c379a00000000000000000000000000000000000000000000000000000000081526004018080602001828103825260208152602001807f4f776e61626c653a2063616c6c6572206973206e6f7420746865206f776e657281525060200191505060405180910390fd5b806060819050600081511415613013576040517f08c379a00000000000000000000000000000000000000000000000000000000081526004018080602001828103825260108152602001807f537472696e6720697320656d7074792e0000000000000000000000000000000081525060200191505060405180910390fd5b8361301d81613cd4565b61308f576040517f08c379a00000000000000000000000000000000000000000000000000000000081526004018080602001828103825260188152602001807f5075626c6963206b6579206973206e6f742076616c69642e000000000000000081525060200191505060405180910390fd5b61309885613ce2565b6040518060000190506040518091039020600660010160008373ffffffffffffffffffffffffffffffffffffffff1673ffffffffffffffffffffffffffffffffffffffff16815260200190815260200160002060020160405180828054600181600116156101000203166002900480156131495780601f10613127576101008083540402835291820191613149565b820191906000526020600020905b815481529060010190602001808311613135575b50509150506040518091039020146131c9576040517f08c379a00000000000000000000000000000000000000000000000000000000081526004018080602001828103825260198152602001807f53657276657220697320696e20746865206e6577207365742e0000000000000081525060200191505060405180910390fd5b60006131d760068888613d0c565b9050600060149054906101000a900460ff166131fb576131f960028888613d0c565b505b7ff7513afac0a2e66c205ba63d0a611b6ba60fbbc861693aa8c5e197aba23eb3e981604051808273ffffffffffffffffffffffffffffffffffffffff1673ffffffffffffffffffffffffffffffffffffffff16815260200191505060405180910390a150505050505050565b61326f613a6e565b73ffffffffffffffffffffffffffffffffffffffff166000809054906101000a900473ffffffffffffffffffffffffffffffffffffffff1673ffffffffffffffffffffffffffffffffffffffff1614613330576040517f08c379a00000000000000000000000000000000000000000000000000000000081526004018080602001828103825260208152602001807f4f776e61626c653a2063616c6c6572206973206e6f7420746865206f776e657281525060200191505060405180910390fd5b600073ffffffffffffffffffffffffffffffffffffffff168173ffffffffffffffffffffffffffffffffffffffff1614156133b6576040517f08c379a00000000000000000000000000000000000000000000000000000000081526004018080602001828103825260268152602001806142806026913960400191505060405180910390fd5b8073ffffffffffffffffffffffffffffffffffffffff166000809054906101000a900473ffffffffffffffffffffffffffffffffffffffff1673ffffffffffffffffffffffffffffffffffffffff167f8be0079c531659141344cd1fd0a4f28419497f9722a3daafe3b4186f6b6457e060405160405180910390a3806000806101000a81548173ffffffffffffffffffffffffffffffffffffffff021916908373ffffffffffffffffffffffffffffffffffffffff16021790555050565b600080600090505b836000018054905081101561359c5760405180600001905060405180910390208360010160008660000184815481106134b157fe5b9060005260206000200160009054906101000a900473ffffffffffffffffffffffffffffffffffffffff1673ffffffffffffffffffffffffffffffffffffffff1673ffffffffffffffffffffffffffffffffffffffff16815260200190815260200160002060020160405180828054600181600116156101000203166002900480156135745780601f10613552576101008083540402835291820191613574565b820191906000526020600020905b815481529060010190602001808311613560575b5050915050604051809103902014156135915760009150506136c9565b80600101905061347c565b5060008090505b82600001805490508110156136c35760405180600001905060405180910390208460010160008560000184815481106135d857fe5b9060005260206000200160009054906101000a900473ffffffffffffffffffffffffffffffffffffffff1673ffffffffffffffffffffffffffffffffffffffff1673ffffffffffffffffffffffffffffffffffffffff168152602001908152602001600020600201604051808280546001816001161561010002031660029004801561369b5780601f1061367957610100808354040283529182019161369b565b820191906000526020600020905b815481529060010190602001808311613687575b5050915050604051809103902014156136b85760009150506136c9565b8060010190506135a3565b50600190505b92915050565b60008090505b82600001805490508110156137a0578260010160008460000183815481106136f957fe5b9060005260206000200160009054906101000a900473ffffffffffffffffffffffffffffffffffffffff1673ffffffffffffffffffffffffffffffffffffffff1673ffffffffffffffffffffffffffffffffffffffff168152602001908152602001600020600080820160006101000a81549060ff02191690556001820160006137839190613f02565b6002820160006137939190613f4a565b50508060010190506136d5565b5080600001826000019080546137b7929190613f92565b5060008090505b826000018054905081101561394d578160010160008460000183815481106137e257fe5b9060005260206000200160009054906101000a900473ffffffffffffffffffffffffffffffffffffffff1673ffffffffffffffffffffffffffffffffffffffff1673ffffffffffffffffffffffffffffffffffffffff16815260200190815260200160002083600101600085600001848154811061385c57fe5b9060005260206000200160009054906101000a900473ffffffffffffffffffffffffffffffffffffffff1673ffffffffffffffffffffffffffffffffffffffff1673ffffffffffffffffffffffffffffffffffffffff1681526020019081526020016000206000820160009054906101000a900460ff168160000160006101000a81548160ff021916908360ff16021790555060018201816001019080546001816001161561010002031660029004613916929190613fe4565b506002820181600201908054600181600116156101000203166002900461393e92919061406b565b509050508060010190506137be565b505050565b5b600081600001805490501115613a6b5760008160000160018360000180549050038154811061397e57fe5b9060005260206000200160009054906101000a900473ffffffffffffffffffffffffffffffffffffffff1690508160010160008273ffffffffffffffffffffffffffffffffffffffff1673ffffffffffffffffffffffffffffffffffffffff168152602001908152602001600020600080820160006101000a81549060ff0219169055600182016000613a119190613f02565b600282016000613a219190613f4a565b505081600001805480613a3057fe5b6001900381819060005260206000200160006101000a81549073ffffffffffffffffffffffffffffffffffffffff0219169055905550613953565b50565b600033905090565b60008260010160008373ffffffffffffffffffffffffffffffffffffffff1673ffffffffffffffffffffffffffffffffffffffff16815260200190815260200160002060000160009054906101000a900460ff1690506000600184600001805490500390506000846000018260ff1681548110613aef57fe5b9060005260206000200160009054906101000a900473ffffffffffffffffffffffffffffffffffffffff16905080856000018460ff1681548110613b2f57fe5b9060005260206000200160006101000a81548173ffffffffffffffffffffffffffffffffffffffff021916908373ffffffffffffffffffffffffffffffffffffffff160217905550828560010160008373ffffffffffffffffffffffffffffffffffffffff1673ffffffffffffffffffffffffffffffffffffffff16815260200190815260200160002060000160006101000a81548160ff021916908360ff160217905550846000018260ff1681548110613be657fe5b9060005260206000200160006101000a81549073ffffffffffffffffffffffffffffffffffffffff02191690558460010160008573ffffffffffffffffffffffffffffffffffffffff1673ffffffffffffffffffffffffffffffffffffffff168152602001908152602001600020600080820160006101000a81549060ff0219169055600182016000613c799190613f02565b600282016000613c899190613f4a565b505084600001805480613c9857fe5b6001900381819060005260206000200160006101000a81549073ffffffffffffffffffffffffffffffffffffffff021916905590555050505050565b600060408251149050919050565b600073ffffffffffffffffffffffffffffffffffffffff828051906020012060001c169050919050565b6000610100846000018054905010613d6f576040517f08c379a000000000000000000000000000000000000000000000000000000000815260040180806020018281038252602b81526020018061431d602b913960400191505060405180910390fd5b6000613d7a84613ce2565b905084600001805490508560010160008373ffffffffffffffffffffffffffffffffffffffff1673ffffffffffffffffffffffffffffffffffffffff16815260200190815260200160002060000160006101000a81548160ff021916908360ff160217905550838560010160008373ffffffffffffffffffffffffffffffffffffffff1673ffffffffffffffffffffffffffffffffffffffff1681526020019081526020016000206001019080519060200190613e389291906140f2565b50828560010160008373ffffffffffffffffffffffffffffffffffffffff1673ffffffffffffffffffffffffffffffffffffffff1681526020019081526020016000206002019080519060200190613e91929190614172565b5084600001819080600181540180825580915050600190039060005260206000200160009091909190916101000a81548173ffffffffffffffffffffffffffffffffffffffff021916908373ffffffffffffffffffffffffffffffffffffffff160217905550809150509392505050565b50805460018160011615610100020316600290046000825580601f10613f285750613f47565b601f016020900490600052602060002090810190613f4691906141f2565b5b50565b50805460018160011615610100020316600290046000825580601f10613f705750613f8f565b601f016020900490600052602060002090810190613f8e91906141f2565b5b50565b828054828255906000526020600020908101928215613fd35760005260206000209182015b82811115613fd2578254825591600101919060010190613fb7565b5b509050613fe09190614217565b5090565b828054600181600116156101000203166002900490600052602060002090601f016020900481019282601f1061401d578054855561405a565b8280016001018555821561405a57600052602060002091601f016020900482015b8281111561405957825482559160010191906001019061403e565b5b50905061406791906141f2565b5090565b828054600181600116156101000203166002900490600052602060002090601f016020900481019282601f106140a457805485556140e1565b828001600101855582156140e157600052602060002091601f016020900482015b828111156140e05782548255916001019190600101906140c5565b5b5090506140ee91906141f2565b5090565b828054600181600116156101000203166002900490600052602060002090601f016020900481019282601f1061413357805160ff1916838001178555614161565b82800160010185558215614161579182015b82811115614160578251825591602001919060010190614145565b5b50905061416e91906141f2565b5090565b828054600181600116156101000203166002900490600052602060002090601f016020900481019282601f106141b357805160ff19168380011785556141e1565b828001600101855582156141e1579182015b828111156141e05782518255916020019190600101906141c5565b5b5090506141ee91906141f2565b5090565b61421491905b808211156142105760008160009055506001016141f8565b5090565b90565b61425791905b8082111561425357600081816101000a81549073ffffffffffffffffffffffffffffffffffffffff02191690555060010161421d565b5090565b9056fe4d6967726174696f6e20746f20656d7074792073657420697320696d706f737369626c652e4f776e61626c653a206e6577206f776e657220697320746865207a65726f2061646472657373536572766572206973206e6f7420696e207468652063757272656e74207365742e53656e646572206973206e6f74206120706f74656e7469616c206d6967726174696f6e207061727469636970616e742e536572766572206973206e6f742061206d6967726174696f6e207061727469636970616e742e4e756d626572206f662073657276657273206d75737420626520736d616c6c6572207468616e203235362e536572766572206973206e6f7420696e20746865206d6967726174696f6e73207365742e4d6967726174696f6e207769746820676976656e206964206973206e6f74206163746976652e436f6e747261637420646f6573206e6f7420737570706f727420646972656374207061796d656e74732ea2646970667358221220f71a5ff0e210fdd07a297f96231ec9c04a32aff707d8c5fd2d036b6e23f3ce8c64736f6c63430006050033",
  "source": "//! The KeyServerSet contract. Owned version with migration support.\n//!\n//! Copyright 2017 Svyatoslav Nikolsky, Parity Technologies Ltd.\n//!\n//! Licensed under the Apache License, Version 2.0 (the \"License\");\n//! you may not use this file except in compliance with the License.\n//! You may obtain a copy of the License at\n//!\n//!     http://www.apache.org/licenses/LICENSE-2.0\n//!\n//! Unless required by applicable law or agreed to in writing, software\n//! distributed under the License is distributed on an \"AS IS\" BASIS,\n//! WITHOUT WARRANTIES OR CONDITIONS OF ANY KIND, either express or implied.\n//! See the License for the specific language governing permissions and\n//! limitations under the License.\n\npragma solidity ^0.6.0;\n\nimport \"@openzeppelin/contracts/access/Ownable.sol\";\nimport \"../interfaces/KeyServerSet.sol\";\n\n\n/// Single-owned KeyServerSet with migration support.\ncontract OwnedKeyServerSetWithMigration is Ownable, KeyServerSetWithMigration {\n\n    struct KeyServer {\n        /// Index in the keyServersList.\n        uint8 index;\n        /// Public key of key server.\n        bytes publicKey;\n        /// IP address of key server.\n        string ip;\n    }\n\n    struct Set {\n        /// Public keys of all active key servers.\n        address[] list;\n        /// Mapping public key => server IP address.\n        mapping(address => KeyServer) map;\n    }\n\n    /// Is initialized.\n    bool isInitialized;\n    /// Block at which current\n    uint256 currentSetChangeBlock;\n    /// Current key servers set.\n    Set currentSet;\n    /// Migration key servers set.\n    Set migrationSet;\n    /// New key servers set.\n    Set newSet;\n    /// Migration master.\n    address migrationMaster;\n    /// Migration id.\n    bytes32 migrationId;\n    /// Required migration confirmations.\n    mapping(address => bool) migrationConfirmations;\n\n    modifier notAnEmptyString(string memory value) {\n        bytes memory castValue = bytes(value);\n        require(castValue.length != 0, \"String is empty.\");\n        _;\n    }\n\n    /// Only if valid public is passed\n    modifier isValidPublic(bytes memory keyServerPublic) {\n        require(checkPublic(keyServerPublic), \"Public key is not valid.\");\n        _;\n    }\n\n    /// Only run if server is currently on current set.\n    modifier isOnCurrentSet(address keyServer) {\n        require(\n            keccak256(bytes(currentSet.map[keyServer].ip)) != keccak256(\"\"),\n            \"Server is not in the current set.\"\n        );\n        _;\n    }\n\n    /// Only run if server is currently on migration set.\n    modifier isOnMigrationSet(address keyServer) {\n        require(\n            keccak256(bytes(migrationSet.map[keyServer].ip)) != keccak256(\"\"),\n            \"Server is not in the migrations set.\"\n        );\n        _;\n    }\n\n    /// Only run if server is currently on new set.\n    modifier isOnNewSet(address keyServer) {\n        require(\n            keccak256(bytes(newSet.map[keyServer].ip)) != keccak256(\"\"),\n            \"Server is not in the new set.\"\n        );\n        _;\n    }\n\n    /// Only run if server is currently on new set.\n    modifier isNotOnNewSet(address keyServer) {\n        require(\n            keccak256(bytes(newSet.map[keyServer].ip)) == keccak256(\"\"),\n            \"Server is in the new set.\"\n        );\n        _;\n    }\n\n    /// Only when no active migration process.\n    modifier noActiveMigration {\n        require(migrationMaster == address(0), \"There is an active migration.\");\n        _;\n    }\n\n    /// Only when migration with given id is in progress.\n    modifier isActiveMigration(bytes32 id) {\n        require(migrationId == id, \"Migration with given id is not active.\");\n        _;\n    }\n\n    /// Only when migration id is valid.\n    modifier isValidMigrationId(bytes32 id) {\n        require(id != bytes32(0), \"Migration id is not valid.\");\n        _;\n    }\n\n    /// Only when migration is required.\n    modifier whenMigrationRequired {\n        require(!areEqualSets(currentSet, newSet), \"Migration is not required.\");\n        _;\n    }\n\n    /// Only run when sender is potential participant of migration.\n    modifier isPossibleMigrationParticipant {\n        require(\n            keccak256(bytes(currentSet.map[msg.sender].ip)) != keccak256(\"\") ||\n            keccak256(bytes(newSet.map[msg.sender].ip)) != keccak256(\"\"),\n            \"Sender is not a potential migration participant.\");\n        _;\n    }\n\n    /// Only run when sender is participant of migration.\n    modifier isMigrationParticipant(address keyServer) {\n        require(\n            keccak256(bytes(currentSet.map[keyServer].ip)) != keccak256(\"\") ||\n            keccak256(bytes(migrationSet.map[keyServer].ip)) != keccak256(\"\"),\n            \"Server is not a migration participant.\");\n        _;\n    }\n\n    /// We do not support direct payments.\n    receive() external payable {\n        revert(\"Contract does not support direct payments.\");\n    }\n\n    /// Get number of block when current set has been changed last time.\n    function getCurrentLastChange()\n        external\n        view\n        override\n        returns (uint256)\n    {\n        return currentSetChangeBlock;\n    }\n\n    /// Get index of given key server in current set.\n    function getCurrentKeyServerIndex(address keyServer)\n        external\n        view\n        override\n        returns (uint8)\n    {\n        KeyServer storage entry = currentSet.map[keyServer];\n        require(keccak256(bytes(entry.ip)) != keccak256(\"\"), \"Entry does not exist.\");\n        return entry.index;\n    }\n\n    /// Get count of key servers in current set.\n    function getCurrentKeyServersCount()\n        external\n        view\n        override\n        returns (uint8)\n    {\n        return uint8(currentSet.list.length);\n    }\n\n    /// Get address of key server in current set.\n    function getCurrentKeyServer(uint8 index)\n        external\n        view\n        override\n        returns (address)\n    {\n        require(index < currentSet.list.length, \"Index is out of bounds.\");\n        return currentSet.list[index];\n    }\n\n    /// Get all current key servers.\n    function getCurrentKeyServers()\n        external\n        view\n        override\n        returns (address[] memory)\n    {\n        return currentSet.list;\n    }\n\n    /// Get current key server public key.\n    function getCurrentKeyServerPublic(address keyServer)\n        external\n        view\n        override\n        isOnCurrentSet(keyServer)\n        returns (bytes memory)\n    {\n        return currentSet.map[keyServer].publicKey;\n    }\n\n    /// Get current key server address.\n    function getCurrentKeyServerAddress(address keyServer)\n        external\n        view\n        override\n        isOnCurrentSet(keyServer)\n        returns (string memory)\n    {\n        return currentSet.map[keyServer].ip;\n    }\n\n    /// Get all migration key servers.\n    function getMigrationKeyServers()\n        external\n        view\n        override\n        returns (address[] memory)\n    {\n        return migrationSet.list;\n    }\n\n    /// Get migration key server public key.\n    function getMigrationKeyServerPublic(address keyServer)\n        external\n        view\n        override\n        isOnMigrationSet(keyServer)\n        returns (bytes memory)\n    {\n        return migrationSet.map[keyServer].publicKey;\n    }\n\n    /// Get migration key server address.\n    function getMigrationKeyServerAddress(address keyServer)\n        external\n        view\n        override\n        isOnMigrationSet(keyServer)\n        returns (string memory)\n    {\n        return migrationSet.map[keyServer].ip;\n    }\n\n    /// Get all new key servers.\n    function getNewKeyServers()\n        external\n        view\n        override\n        returns (address[] memory)\n    {\n        return newSet.list;\n    }\n\n    /// Get new key server public key.\n    function getNewKeyServerPublic(address keyServer)\n        external\n        view\n        override\n        isOnNewSet(keyServer)\n        returns (bytes memory)\n    {\n        return newSet.map[keyServer].publicKey;\n    }\n\n    /// Get new key server address.\n    function getNewKeyServerAddress(address keyServer)\n        external\n        view\n        override\n        isOnNewSet(keyServer)\n        returns (string memory)\n    {\n        return newSet.map[keyServer].ip;\n    }\n\n    /// Get migration id.\n    function getMigrationId()\n        external\n        view\n        override\n        isValidMigrationId(migrationId)\n        returns (bytes32)\n    {\n        return migrationId;\n    }\n\n    /// Start migration.\n    function startMigration(bytes32 id)\n        external\n        override\n        noActiveMigration\n        isValidMigrationId(id)\n        whenMigrationRequired\n        isPossibleMigrationParticipant\n    {\n        // migration to empty set is impossible\n        require (newSet.list.length != 0, \"Migration to empty set is impossible.\");\n\n        migrationMaster = msg.sender;\n        migrationId = id;\n        copySet(migrationSet, newSet);\n        emit MigrationStarted();\n    }\n\n    /// Confirm migration.\n    function confirmMigration(bytes32 id)\n        external\n        override\n        isValidMigrationId(id)\n        isActiveMigration(id)\n        isOnMigrationSet(msg.sender)\n    {\n        require(!migrationConfirmations[msg.sender], \"Migration is already confirmed.\");\n        migrationConfirmations[msg.sender] = true;\n\n        // check if migration is completed\n        for (uint j = 0; j < migrationSet.list.length; ++j) {\n            if (!migrationConfirmations[migrationSet.list[j]]) {\n                return;\n            }\n        }\n\n        // migration is completed => delete confirmations\n        for (uint m = 0; m < migrationSet.list.length; ++m) {\n            delete migrationConfirmations[migrationSet.list[m]];\n        }\n        delete migrationMaster;\n\n        // ...and copy migration set to current set\n        copySet(currentSet, migrationSet);\n\n        // ...and also delete entries from migration set\n        clearSet(migrationSet);\n\n        // ...and fire completion event\n        emit MigrationCompleted();\n\n        // ...and update current server set change block\n        currentSetChangeBlock = block.number;\n    }\n\n    /// Get migration master.\n    function getMigrationMaster()\n        external\n        view\n        override\n        returns (address)\n    {\n        return migrationMaster;\n    }\n\n    /// Is migration confirmed.\n    function isMigrationConfirmed(address keyServer)\n        external\n        view\n        override\n        isMigrationParticipant(keyServer)\n        returns (bool)\n    {\n        return migrationConfirmations[keyServer];\n    }\n\n    /// Complete initialization. Before this function is called, all calls to addKeyServer/removeKeyServer\n    /// affect both newSet and currentSet.\n    function completeInitialization()\n        public\n        onlyOwner\n    {\n        require(!isInitialized, \"Not initialized!\");\n        isInitialized = true;\n    }\n\n    /// Add new key server to set.\n    function addKeyServer(\n        bytes memory keyServerPublic,\n        string memory keyServerIp\n    )\n        public\n        onlyOwner\n        notAnEmptyString(keyServerIp)\n        isValidPublic(keyServerPublic)\n        isNotOnNewSet(computeAddress(keyServerPublic))\n    {\n        // append to the new set\n        address keyServer = appendToSet(newSet, keyServerPublic, keyServerIp);\n        // also append to current set\n        if (!isInitialized) {\n            appendToSet(currentSet, keyServerPublic, keyServerIp);\n        }\n        // fire event\n        emit KeyServerAdded(keyServer);\n    }\n\n    /// Remove key server from set.\n    function removeKeyServer(address keyServer)\n        public\n        onlyOwner\n        isOnNewSet(keyServer)\n    {\n        // remove element from the new set\n        removeFromSet(newSet, keyServer);\n        // also remove from the current set\n        if (!isInitialized) {\n            removeFromSet(currentSet, keyServer);\n        }\n        // fire event\n        emit KeyServerRemoved(keyServer);\n    }\n\n    /// Compute address from public key.\n    function computeAddress(bytes memory keyServerPublic)\n        private\n        pure\n        returns (address)\n    {\n        return address(uint(keccak256(keyServerPublic)) & 0x00FFFFFFFFFFFFFFFFFFFFFFFFFFFFFFFFFFFFFFFF);\n    }\n\n    /// 'Check' public key.\n    function checkPublic(bytes memory keyServerPublic)\n        private\n        pure\n        returns (bool)\n    {\n        return keyServerPublic.length == 64;\n    }\n\n    /// Copy set (assignment operator).\n    function copySet(Set storage set1, Set storage set2) private {\n        for (uint i = 0; i < set1.list.length; ++i) {\n            delete set1.map[set1.list[i]];\n        }\n\n        set1.list = set2.list;\n        for (uint j = 0; j < set1.list.length; ++j) {\n            set1.map[set1.list[j]] = set2.map[set1.list[j]];\n        }\n    }\n\n    /// Clear set.\n    function clearSet(Set storage set)\n        private\n    {\n        while (set.list.length > 0) {\n            address keyServer = set.list[set.list.length - 1];\n            delete set.map[keyServer];\n            set.list.pop();\n        }\n    }\n\n    /// Are two sets equal?\n    function areEqualSets(Set storage set1, Set storage set2)\n        private\n        view\n        returns (bool)\n    {\n        for (uint i = 0; i < set1.list.length; ++i) {\n            if (keccak256(bytes(set2.map[set1.list[i]].ip)) == keccak256(\"\")) {\n                return false;\n            }\n        }\n        for (uint j = 0; j < set2.list.length; ++j) {\n            if (keccak256(bytes(set1.map[set2.list[j]].ip)) == keccak256(\"\")) {\n                return false;\n            }\n        }\n        return true;\n    }\n\n    /// Append new key serer to set.\n    function appendToSet(\n        Set storage set,\n        bytes memory keyServerPublic,\n        string memory keyServerIp\n    )\n        private\n        returns (address)\n    {\n        // we do not support > 256 key servers in the list\n        require(set.list.length < 256, \"Number of servers must be smaller than 256.\");\n\n        address keyServer = computeAddress(keyServerPublic);\n        set.map[keyServer].index = uint8(set.list.length);\n        set.map[keyServer].publicKey = keyServerPublic;\n        set.map[keyServer].ip = keyServerIp;\n        set.list.push(keyServer);\n        return keyServer;\n    }\n\n    /// Remove existing key server set.\n    function removeFromSet(Set storage set, address keyServer) private {\n        // swap list elements (removedIndex, lastIndex)\n        uint8 removedIndex = uint8(set.map[keyServer].index);\n        uint8 lastIndex = uint8(set.list.length) - 1;\n        address lastKeyServer = set.list[lastIndex];\n        set.list[removedIndex] = lastKeyServer;\n        set.map[lastKeyServer].index = removedIndex;\n        // remove element from list and map\n        delete set.list[lastIndex];\n        delete set.map[keyServer];\n        set.list.pop();\n    }\n}\n",
  "sourcePath": "/home/aznagy/work/secretstore/secretstore-contracts/contracts/set/OwnedKeyServerSetWithMigration.sol",
  "compiler": {
    "name": "solc",
    "version": "0.6.5+commit.f956cc89.Emscripten.clang"
  },
  "schemaVersion": "3.0.23",
  "updatedAt": "2020-04-08T13:26:56.073Z",
  "devdoc": {
    "methods": {
      "owner()": {
        "details": "Returns the address of the current owner."
      },
      "renounceOwnership()": {
        "details": "Leaves the contract without owner. It will not be possible to call `onlyOwner` functions anymore. Can only be called by the current owner.     * NOTE: Renouncing ownership will leave the contract without an owner, thereby removing any functionality that is only available to the owner."
      },
      "transferOwnership(address)": {
        "details": "Transfers ownership of the contract to a new account (`newOwner`). Can only be called by the current owner."
      }
    }
  },
  "userdoc": {
    "methods": {
      "addKeyServer(bytes,string)": {
        "notice": "Add new key server to set."
      },
      "completeInitialization()": {
        "notice": "Complete initialization. Before this function is called, all calls to addKeyServer/removeKeyServer affect both newSet and currentSet."
      },
      "confirmMigration(bytes32)": {
        "notice": "Confirm migration."
      },
      "getCurrentKeyServer(uint8)": {
        "notice": "Get address of key server in current set."
      },
      "getCurrentKeyServerAddress(address)": {
        "notice": "Get current key server address."
      },
      "getCurrentKeyServerIndex(address)": {
        "notice": "Get index of given key server in current set."
      },
      "getCurrentKeyServerPublic(address)": {
        "notice": "Get current key server public key."
      },
      "getCurrentKeyServers()": {
        "notice": "Get all current key servers."
      },
      "getCurrentKeyServersCount()": {
        "notice": "Get count of key servers in current set."
      },
      "getCurrentLastChange()": {
        "notice": "Get number of block when current set has been changed last time."
      },
      "getMigrationId()": {
        "notice": "Get migration id."
      },
      "getMigrationKeyServerAddress(address)": {
        "notice": "Get migration key server address."
      },
      "getMigrationKeyServerPublic(address)": {
        "notice": "Get migration key server public key."
      },
      "getMigrationKeyServers()": {
        "notice": "Get all migration key servers."
      },
      "getMigrationMaster()": {
        "notice": "Get migration master."
      },
      "getNewKeyServerAddress(address)": {
        "notice": "Get new key server address."
      },
      "getNewKeyServerPublic(address)": {
        "notice": "Get new key server public key."
      },
      "getNewKeyServers()": {
        "notice": "Get all new key servers."
      },
      "isMigrationConfirmed(address)": {
        "notice": "Is migration confirmed."
      },
      "removeKeyServer(address)": {
        "notice": "Remove key server from set."
      },
      "startMigration(bytes32)": {
        "notice": "Start migration."
      }
    },
    "notice": "Single-owned KeyServerSet with migration support."
  }
}