{
  "contractName": "OwnedKeyServerSetWithMigration",
  "abi": [
    {
      "constant": false,
      "inputs": [],
      "name": "renounceOwnership",
      "outputs": [],
      "payable": false,
      "stateMutability": "nonpayable",
      "type": "function"
    },
    {
      "constant": true,
      "inputs": [],
      "name": "owner",
      "outputs": [
        {
          "name": "",
          "type": "address"
        }
      ],
      "payable": false,
      "stateMutability": "view",
      "type": "function"
    },
    {
      "constant": true,
      "inputs": [],
      "name": "isOwner",
      "outputs": [
        {
          "name": "",
          "type": "bool"
        }
      ],
      "payable": false,
      "stateMutability": "view",
      "type": "function"
    },
    {
      "constant": false,
      "inputs": [
        {
          "name": "newOwner",
          "type": "address"
        }
      ],
      "name": "transferOwnership",
      "outputs": [],
      "payable": false,
      "stateMutability": "nonpayable",
      "type": "function"
    },
    {
      "payable": true,
      "stateMutability": "payable",
      "type": "fallback"
    },
    {
      "anonymous": false,
      "inputs": [
        {
          "indexed": false,
          "name": "keyServer",
          "type": "address"
        }
      ],
      "name": "KeyServerAdded",
      "type": "event"
    },
    {
      "anonymous": false,
      "inputs": [
        {
          "indexed": false,
          "name": "keyServer",
          "type": "address"
        }
      ],
      "name": "KeyServerRemoved",
      "type": "event"
    },
    {
      "anonymous": false,
      "inputs": [],
      "name": "MigrationStarted",
      "type": "event"
    },
    {
      "anonymous": false,
      "inputs": [],
      "name": "MigrationCompleted",
      "type": "event"
    },
    {
      "anonymous": false,
      "inputs": [
        {
          "indexed": true,
          "name": "previousOwner",
          "type": "address"
        },
        {
          "indexed": true,
          "name": "newOwner",
          "type": "address"
        }
      ],
      "name": "OwnershipTransferred",
      "type": "event"
    },
    {
      "constant": true,
      "inputs": [],
      "name": "getCurrentLastChange",
      "outputs": [
        {
          "name": "",
          "type": "uint256"
        }
      ],
      "payable": false,
      "stateMutability": "view",
      "type": "function"
    },
    {
      "constant": true,
      "inputs": [
        {
          "name": "keyServer",
          "type": "address"
        }
      ],
      "name": "getCurrentKeyServerIndex",
      "outputs": [
        {
          "name": "",
          "type": "uint8"
        }
      ],
      "payable": false,
      "stateMutability": "view",
      "type": "function"
    },
    {
      "constant": true,
      "inputs": [],
      "name": "getCurrentKeyServersCount",
      "outputs": [
        {
          "name": "",
          "type": "uint8"
        }
      ],
      "payable": false,
      "stateMutability": "view",
      "type": "function"
    },
    {
      "constant": true,
      "inputs": [
        {
          "name": "index",
          "type": "uint8"
        }
      ],
      "name": "getCurrentKeyServer",
      "outputs": [
        {
          "name": "",
          "type": "address"
        }
      ],
      "payable": false,
      "stateMutability": "view",
      "type": "function"
    },
    {
      "constant": true,
      "inputs": [],
      "name": "getCurrentKeyServers",
      "outputs": [
        {
          "name": "",
          "type": "address[]"
        }
      ],
      "payable": false,
      "stateMutability": "view",
      "type": "function"
    },
    {
      "constant": true,
      "inputs": [
        {
          "name": "keyServer",
          "type": "address"
        }
      ],
      "name": "getCurrentKeyServerPublic",
      "outputs": [
        {
          "name": "",
          "type": "bytes"
        }
      ],
      "payable": false,
      "stateMutability": "view",
      "type": "function"
    },
    {
      "constant": true,
      "inputs": [
        {
          "name": "keyServer",
          "type": "address"
        }
      ],
      "name": "getCurrentKeyServerAddress",
      "outputs": [
        {
          "name": "",
          "type": "string"
        }
      ],
      "payable": false,
      "stateMutability": "view",
      "type": "function"
    },
    {
      "constant": true,
      "inputs": [],
      "name": "getMigrationKeyServers",
      "outputs": [
        {
          "name": "",
          "type": "address[]"
        }
      ],
      "payable": false,
      "stateMutability": "view",
      "type": "function"
    },
    {
      "constant": true,
      "inputs": [
        {
          "name": "keyServer",
          "type": "address"
        }
      ],
      "name": "getMigrationKeyServerPublic",
      "outputs": [
        {
          "name": "",
          "type": "bytes"
        }
      ],
      "payable": false,
      "stateMutability": "view",
      "type": "function"
    },
    {
      "constant": true,
      "inputs": [
        {
          "name": "keyServer",
          "type": "address"
        }
      ],
      "name": "getMigrationKeyServerAddress",
      "outputs": [
        {
          "name": "",
          "type": "string"
        }
      ],
      "payable": false,
      "stateMutability": "view",
      "type": "function"
    },
    {
      "constant": true,
      "inputs": [],
      "name": "getNewKeyServers",
      "outputs": [
        {
          "name": "",
          "type": "address[]"
        }
      ],
      "payable": false,
      "stateMutability": "view",
      "type": "function"
    },
    {
      "constant": true,
      "inputs": [
        {
          "name": "keyServer",
          "type": "address"
        }
      ],
      "name": "getNewKeyServerPublic",
      "outputs": [
        {
          "name": "",
          "type": "bytes"
        }
      ],
      "payable": false,
      "stateMutability": "view",
      "type": "function"
    },
    {
      "constant": true,
      "inputs": [
        {
          "name": "keyServer",
          "type": "address"
        }
      ],
      "name": "getNewKeyServerAddress",
      "outputs": [
        {
          "name": "",
          "type": "string"
        }
      ],
      "payable": false,
      "stateMutability": "view",
      "type": "function"
    },
    {
      "constant": true,
      "inputs": [],
      "name": "getMigrationId",
      "outputs": [
        {
          "name": "",
          "type": "bytes32"
        }
      ],
      "payable": false,
      "stateMutability": "view",
      "type": "function"
    },
    {
      "constant": false,
      "inputs": [
        {
          "name": "id",
          "type": "bytes32"
        }
      ],
      "name": "startMigration",
      "outputs": [],
      "payable": false,
      "stateMutability": "nonpayable",
      "type": "function"
    },
    {
      "constant": false,
      "inputs": [
        {
          "name": "id",
          "type": "bytes32"
        }
      ],
      "name": "confirmMigration",
      "outputs": [],
      "payable": false,
      "stateMutability": "nonpayable",
      "type": "function"
    },
    {
      "constant": true,
      "inputs": [],
      "name": "getMigrationMaster",
      "outputs": [
        {
          "name": "",
          "type": "address"
        }
      ],
      "payable": false,
      "stateMutability": "view",
      "type": "function"
    },
    {
      "constant": true,
      "inputs": [
        {
          "name": "keyServer",
          "type": "address"
        }
      ],
      "name": "isMigrationConfirmed",
      "outputs": [
        {
          "name": "",
          "type": "bool"
        }
      ],
      "payable": false,
      "stateMutability": "view",
      "type": "function"
    },
    {
      "constant": false,
      "inputs": [],
      "name": "completeInitialization",
      "outputs": [],
      "payable": false,
      "stateMutability": "nonpayable",
      "type": "function"
    },
    {
      "constant": false,
      "inputs": [
        {
          "name": "keyServerPublic",
          "type": "bytes"
        },
        {
          "name": "keyServerIp",
          "type": "string"
        }
      ],
      "name": "addKeyServer",
      "outputs": [],
      "payable": false,
      "stateMutability": "nonpayable",
      "type": "function"
    },
    {
      "constant": false,
      "inputs": [
        {
          "name": "keyServer",
          "type": "address"
        }
      ],
      "name": "removeKeyServer",
      "outputs": [],
      "payable": false,
      "stateMutability": "nonpayable",
      "type": "function"
    }
  ],
  "bytecode": "0x6080604081905260008054600160a060020a0319163317808255600160a060020a0316917f8be0079c531659141344cd1fd0a4f28419497f9722a3daafe3b4186f6b6457e0908290a3612132806100576000396000f3006080604052600436106101485763ffffffff7c01000000000000000000000000000000000000000000000000000000006000350416630ec71f82811461014d5780631455eb9a1461017e5780631d7f767314610214578063287fb40c1461022e5780632ac4ecd8146102655780632b73af5214610286578063362b282d146102ad5780633a3f720114610312578063447f5b181461032a578063529377d01461033f5780635560c965146103745780635827b250146103895780635e9f171d1461039e5780636452e821146103b3578063715018a6146103c857806375de2a06146103dd5780638416e7c2146103fe5780638da5cb5b1461041f5780638f32d59b14610434578063a86560be14610449578063ab55cb481461046a578063c66198dc1461048b578063eaffb965146104a6578063f2a2a900146104c7578063f2fde38b1461055e575b600080fd5b34801561015957600080fd5b5061016261057f565b60408051600160a060020a039092168252519081900360200190f35b34801561018a57600080fd5b5061019f600160a060020a036004351661058f565b6040805160208082528351818301528351919283929083019185019080838360005b838110156101d95781810151838201526020016101c1565b50505050905090810190601f1680156102065780820380516001836020036101000a031916815260200191505b509250505060405180910390f35b34801561022057600080fd5b5061022c6004356106eb565b005b34801561023a57600080fd5b5061024f600160a060020a03600435166108c2565b6040805160ff9092168252519081900360200190f35b34801561027157600080fd5b5061019f600160a060020a0360043516610976565b34801561029257600080fd5b5061029b610a99565b60408051918252519081900360200190f35b3480156102b957600080fd5b506102c2610ab5565b60408051602080825283518183015283519192839290830191858101910280838360005b838110156102fe5781810151838201526020016102e6565b505050509050019250505060405180910390f35b34801561031e57600080fd5b5061022c600435610b1a565b34801561033657600080fd5b506102c2610d29565b34801561034b57600080fd5b50610360600160a060020a0360043516610d8c565b604080519115158252519081900360200190f35b34801561038057600080fd5b5061024f610efd565b34801561039557600080fd5b5061022c610f03565b3480156103aa57600080fd5b506102c2610f75565b3480156103bf57600080fd5b5061029b610fd8565b3480156103d457600080fd5b5061022c610fde565b3480156103e957600080fd5b5061019f600160a060020a036004351661103b565b34801561040a57600080fd5b5061019f600160a060020a036004351661115f565b34801561042b57600080fd5b50610162611282565b34801561044057600080fd5b50610360611291565b34801561045557600080fd5b5061019f600160a060020a03600435166112a2565b34801561047657600080fd5b5061019f600160a060020a03600435166113c5565b34801561049757600080fd5b5061016260ff600435166114e9565b3480156104b257600080fd5b5061022c600160a060020a0360043516611529565b3480156104d357600080fd5b506040805160206004803580820135601f810184900484028501840190955284845261022c94369492936024939284019190819084018382808284375050604080516020601f89358b018035918201839004830284018301909452808352979a9998810197919650918201945092508291508401838280828437509497506116619650505050505050565b34801561056a57600080fd5b5061022c600160a060020a03600435166117d5565b600854600160a060020a03165b90565b60408051600160a060020a03831660009081526005602052919091206002908101805460609385936000805160206120e7833981519152939282918491610100600182161502600019011604801561061e5780601f106105fc57610100808354040283529182019161061e565b820191906000526020600020905b81548152906001019060200180831161060a575b50509150506040518091039020600019161415151561063c57600080fd5b600160a060020a038316600090815260056020908152604091829020600190810180548451600293821615610100026000190190911692909204601f8101849004840283018401909452838252909290918301828280156106de5780601f106106b3576101008083540402835291602001916106de565b820191906000526020600020905b8154815290600101906020018083116106c157829003601f168201915b5050505050915050919050565b600854600160a060020a03161561070157600080fd5b8080151561070e57600080fd5b61071a600260066117f4565b1561072457600080fd5b60408051336000908152600360205291909120600290810180546000805160206120e783398151915293919282918491610100600183161502600019019091160480156107a85780601f106107865761010080835404028352918201916107a8565b820191906000526020600020905b815481529060010190602001808311610794575b5050915050604051809103902060001916141580610859575060408051336000908152600760205291909120600290810180546000805160206120e783398151915293919282918491610100600183161502600019019091160480156108455780601f10610823576101008083540402835291820191610845565b820191906000526020600020905b815481529060010190602001808311610831575b505091505060405180910390206000191614155b151561086457600080fd5b600654151561087257600080fd5b60088054600160a060020a031916331790556009829055610895600460066119f3565b6040517f882ea0955bd5561a49a52ef27eb0a7b8263561bd890de2ccfbc107df7724f18890600090a15050565b600160a060020a0381166000908152600360205260408082209051600282810180546000805160206120e7833981519152939192829184916101006001831615026000190190911604801561094e5780601f1061092c57610100808354040283529182019161094e565b820191906000526020600020905b81548152906001019060200180831161093a575b50509150506040518091039020600019161415151561096c57600080fd5b5460ff1692915050565b60408051600160a060020a03831660009081526005602052919091206002908101805460609385936000805160206120e78339815191529392829184916101006001821615026000190116048015610a055780601f106109e3576101008083540402835291820191610a05565b820191906000526020600020905b8154815290600101906020018083116109f1575b505091505060405180910390206000191614151515610a2357600080fd5b600160a060020a0383166000908152600560209081526040918290206002908101805484516001821615610100026000190190911692909204601f8101849004840283018401909452838252909290918301828280156106de5780601f106106b3576101008083540402835291602001916106de565b600954600090801515610aab57600080fd5b60095491505b5090565b60606006600001805480602002602001604051908101604052809291908181526020018280548015610b1057602002820191906000526020600020905b8154600160a060020a03168152600190910190602001808311610af2575b5050505050905090565b60008082801515610b2a57600080fd5b60095484908114610b3a57600080fd5b60408051336000818152600560205292909220600290810180546000805160206120e78339815191529391928291849161010060018316150260001901909116048015610bbe5780601f10610b9c576101008083540402835291820191610bbe565b820191906000526020600020905b815481529060010190602001808311610baa575b505091505060405180910390206000191614151515610bdc57600080fd5b336000908152600a602052604090205460ff1615610bf957600080fd5b336000908152600a60205260408120805460ff1916600117905594505b600454851015610c725760048054600a9160009188908110610c3457fe5b6000918252602080832090910154600160a060020a0316835282019290925260400190205460ff161515610c6757610d21565b846001019450610c16565b600093505b600454841015610ccd5760048054600a9160009187908110610c9557fe5b6000918252602080832090910154600160a060020a031683528201929092526040019020805460ff1916905560019390930192610c77565b60088054600160a060020a0319169055610ce9600260046119f3565b610cf36004611b6c565b6040517fd54b6ad1fb1b396d056c6d670ae90d40d49ad3253a6387dc5120c45bfc51453490600090a1436001555b505050505050565b60606004600001805480602002602001604051908101604052809291908181526020018280548015610b1057602002820191906000526020600020908154600160a060020a03168152600190910190602001808311610af2575050505050905090565b60408051600160a060020a038316600090815260036020529182206002908101805485936000805160206120e7833981519152939091829184916101006001821615026000190116048015610e185780601f10610df6576101008083540402835291820191610e18565b820191906000526020600020905b815481529060010190602001808311610e04575b5050915050604051809103902060001916141580610ed2575060408051600160a060020a0383166000908152600560205291909120600290810180546000805160206120e78339815191529391928291849161010060018316150260001901909116048015610ebe5780601f10610e9c576101008083540402835291820191610ebe565b820191906000526020600020905b815481529060010190602001808311610eaa575b505091505060405180910390206000191614155b1515610edd57600080fd5b5050600160a060020a03166000908152600a602052604090205460ff1690565b60025490565b610f0b611291565b1515610f1657600080fd5b60005474010000000000000000000000000000000000000000900460ff1615610f3e57600080fd5b6000805474ff0000000000000000000000000000000000000000191674010000000000000000000000000000000000000000179055565b60606002600001805480602002602001604051908101604052809291908181526020018280548015610b1057602002820191906000526020600020908154600160a060020a03168152600190910190602001808311610af2575050505050905090565b60015490565b610fe6611291565b1515610ff157600080fd5b60008054604051600160a060020a03909116907f8be0079c531659141344cd1fd0a4f28419497f9722a3daafe3b4186f6b6457e0908390a360008054600160a060020a0319169055565b60408051600160a060020a03831660009081526003602052919091206002908101805460609385936000805160206120e783398151915293928291849161010060018216150260001901160480156110ca5780601f106110a85761010080835404028352918201916110ca565b820191906000526020600020905b8154815290600101906020018083116110b6575b5050915050604051809103902060001916141515156110e857600080fd5b600160a060020a038316600090815260036020908152604091829020600190810180548451600293821615610100026000190190911692909204601f8101849004840283018401909452838252909290918301828280156106de5780601f106106b3576101008083540402835291602001916106de565b60408051600160a060020a03831660009081526007602052919091206002908101805460609385936000805160206120e783398151915293928291849161010060018216150260001901160480156111ee5780601f106111cc5761010080835404028352918201916111ee565b820191906000526020600020905b8154815290600101906020018083116111da575b50509150506040518091039020600019161415151561120c57600080fd5b600160a060020a0383166000908152600760209081526040918290206002908101805484516001821615610100026000190190911692909204601f8101849004840283018401909452838252909290918301828280156106de5780601f106106b3576101008083540402835291602001916106de565b600054600160a060020a031690565b600054600160a060020a0316331490565b60408051600160a060020a03831660009081526003602052919091206002908101805460609385936000805160206120e783398151915293928291849161010060018216150260001901160480156113315780601f1061130f576101008083540402835291820191611331565b820191906000526020600020905b81548152906001019060200180831161131d575b50509150506040518091039020600019161415151561134f57600080fd5b600160a060020a0383166000908152600360209081526040918290206002908101805484516001821615610100026000190190911692909204601f8101849004840283018401909452838252909290918301828280156106de5780601f106106b3576101008083540402835291602001916106de565b60408051600160a060020a03831660009081526007602052919091206002908101805460609385936000805160206120e783398151915293928291849161010060018216150260001901160480156114545780601f10611432576101008083540402835291820191611454565b820191906000526020600020905b815481529060010190602001808311611440575b50509150506040518091039020600019161415151561147257600080fd5b600160a060020a038316600090815260076020908152604091829020600190810180548451600293821615610100026000190190911692909204601f8101849004840283018401909452838252909290918301828280156106de5780601f106106b3576101008083540402835291602001916106de565b60025460009060ff8316106114fd57600080fd5b6002805460ff841690811061150e57fe5b600091825260209091200154600160a060020a031692915050565b611531611291565b151561153c57600080fd5b60408051600160a060020a03831660009081526007602052919091206002908101805484936000805160206120e78339815191529390918291849161010060018216150260001901160480156115c95780601f106115a75761010080835404028352918201916115c9565b820191906000526020600020905b8154815290600101906020018083116115b5575b5050915050604051809103902060001916141515156115e757600080fd5b6115f2600683611c2a565b60005474010000000000000000000000000000000000000000900460ff16151561162157611621600283611c2a565b60408051600160a060020a038416815290517f7af0e7a6072f80f6e718184ff67a09d85fb6855266e2317eccbafa9a7fd15b939181900360200190a15050565b600061166b611291565b151561167657600080fd5b815182908190151561168757600080fd5b8461169181611d50565b151561169c57600080fd5b6116a586611d57565b60408051600160a060020a0383166000908152600760205291909120600290810180546000805160206120e783398151915293919282918491610100600183161502600019019091160480156117325780601f10611710576101008083540402835291820191611732565b820191906000526020600020905b81548152906001019060200180831161171e575b505091505060405180910390206000191614151561174f57600080fd5b61175b60068888611dc4565b60005490955074010000000000000000000000000000000000000000900460ff1615156117905761178e60028888611dc4565b505b60408051600160a060020a038716815290517ff7513afac0a2e66c205ba63d0a611b6ba60fbbc861693aa8c5e197aba23eb3e99181900360200190a150505050505050565b6117dd611291565b15156117e857600080fd5b6117f181611e90565b50565b600080805b84548210156118ef5784546000805160206120e783398151915290600186019060009088908690811061182857fe5b9060005260206000200160009054906101000a9004600160a060020a0316600160a060020a0316600160a060020a0316815260200190815260200160002060020160405180828054600181600116156101000203166002900480156118c45780601f106118a25761010080835404028352918201916118c4565b820191906000526020600020905b8154815290600101906020018083116118b0575b505091505060405180910390206000191614156118e457600092506119eb565b8160010191506117f9565b5060005b83548110156119e65783546000805160206120e783398151915290600187019060009087908590811061192257fe5b9060005260206000200160009054906101000a9004600160a060020a0316600160a060020a0316600160a060020a0316815260200190815260200160002060020160405180828054600181600116156101000203166002900480156119be5780601f1061199c5761010080835404028352918201916119be565b820191906000526020600020905b8154815290600101906020018083116119aa575b505091505060405180910390206000191614156119de57600092506119eb565b6001016118f3565b600192505b505092915050565b6000805b8354821015611a6c578360010160008560000184815481101515611a1757fe5b6000918252602080832090910154600160a060020a031683528201929092526040018120805460ff1916815590611a516001830182611f00565b611a5f600283016000611f00565b50508160010191506119f7565b8254611a7b9085908590611f44565b50600090505b8354811015611b66578260010160008560000183815481101515611aa157fe5b6000918252602080832090910154600160a060020a031683528201929092526040018120855490916001870191879085908110611ada57fe5b6000918252602080832090910154600160a060020a0316835282019290925260400190208154815460ff191660ff90911617815560018281018054611b3692848101929160026000199282161561010002929092011604611f90565b5060028281018054611b5b928481019291600019610100600183161502011604611f90565b505050600101611a81565b50505050565b60005b815460001015611c2657815482906000198101908110611b8b57fe5b6000918252602090912001548254600160a060020a03909116915082906000198101908110611bb657fe5b60009182526020909120018054600160a060020a0319169055815460001901611bdf8382612011565b50600160a060020a0381166000908152600180840160205260408220805460ff191681559190611c1190830182611f00565b611c1f600283016000611f00565b5050611b6f565b5050565b600160a060020a0381166000908152600183016020526040812054835460ff91821692600019820192909186918416908110611c6257fe5b6000918252602090912001548554600160a060020a0390911691508190869060ff8616908110611c8e57fe5b60009182526020808320919091018054600160a060020a031916600160a060020a0394851617905591831681526001870190915260409020805460ff191660ff85811691909117909155855486918416908110611ce757fe5b600091825260208083209091018054600160a060020a0319169055600160a060020a0386168252600187810190915260408220805460ff191681559190611d3090830182611f00565b611d3e600283016000611f00565b50508454610d21866000198301612011565b5160401490565b6000816040518082805190602001908083835b60208310611d895780518252601f199092019160209182019101611d6a565b5181516020939093036101000a60001901801990911692169190911790526040519201829003909120600160a060020a031695945050505050565b8254600090819061010011611dd857600080fd5b611de184611d57565b8554600160a060020a0382166000908152600180890160209081526040909220805460ff191660ff9094169390931783558751939450611e27939201919087019061203a565b50600160a060020a038116600090815260018601602090815260409091208451611e599260029092019186019061203a565b508454600181018655600086815260209020018054600160a060020a038316600160a060020a031990911617905590509392505050565b600160a060020a0381161515611ea557600080fd5b60008054604051600160a060020a03808516939216917f8be0079c531659141344cd1fd0a4f28419497f9722a3daafe3b4186f6b6457e091a360008054600160a060020a031916600160a060020a0392909216919091179055565b50805460018160011615610100020316600290046000825580601f10611f2657506117f1565b601f0160209004906000526020600020908101906117f191906120a8565b828054828255906000526020600020908101928215611f845760005260206000209182015b82811115611f84578254825591600101919060010190611f69565b50610ab19291506120c2565b828054600181600116156101000203166002900490600052602060002090601f016020900481019282601f10611fc95780548555612005565b8280016001018555821561200557600052602060002091601f016020900482015b82811115612005578254825591600101919060010190611fea565b50610ab19291506120a8565b815481835581811115612035576000838152602090206120359181019083016120a8565b505050565b828054600181600116156101000203166002900490600052602060002090601f016020900481019282601f1061207b57805160ff1916838001178555612005565b82800160010185558215612005579182015b8281111561200557825182559160200191906001019061208d565b61058c91905b80821115610ab157600081556001016120ae565b61058c91905b80821115610ab1578054600160a060020a03191681556001016120c85600c5d2460186f7233c927e7db2dcc703c0e500b653ca82273b7bfad8045d85a470a165627a7a72305820c70af5900309c8f5f5a541a55e39b055a3a3d953449359d6ac63c820d7adbafb0029",
  "source": "//! The KeyServerSet contract. Owned version with migration support.\n//!\n//! Copyright 2017 Svyatoslav Nikolsky, Parity Technologies Ltd.\n//!\n//! Licensed under the Apache License, Version 2.0 (the \"License\");\n//! you may not use this file except in compliance with the License.\n//! You may obtain a copy of the License at\n//!\n//!     http://www.apache.org/licenses/LICENSE-2.0\n//!\n//! Unless required by applicable law or agreed to in writing, software\n//! distributed under the License is distributed on an \"AS IS\" BASIS,\n//! WITHOUT WARRANTIES OR CONDITIONS OF ANY KIND, either express or implied.\n//! See the License for the specific language governing permissions and\n//! limitations under the License.\n\npragma solidity ^0.4.21;\n\nimport \"openzeppelin-solidity/contracts/ownership/Ownable.sol\";\nimport \"./KeyServerSet.sol\";\n\n\n/// Single-owned KeyServerSet with migration support.\ncontract OwnedKeyServerSetWithMigration is Ownable, KeyServerSetWithMigration {\n\n    struct KeyServer {\n        /// Index in the keyServersList.\n        uint8 index;\n        /// Public key of key server.\n        bytes publicKey;\n        /// IP address of key server.\n        string ip;\n    }\n\n    struct Set {\n        /// Public keys of all active key servers.\n        address[] list;\n        /// Mapping public key => server IP address.\n        mapping(address => KeyServer) map;\n    }\n\n    /// Is initialized.\n    bool isInitialized;\n    /// Block at which current \n    uint256 currentSetChangeBlock;\n    /// Current key servers set.\n    Set currentSet;\n    /// Migration key servers set.\n    Set migrationSet;\n    /// New key servers set.\n    Set newSet;\n    /// Migration master.\n    address migrationMaster;\n    /// Migration id.\n    bytes32 migrationId;\n    /// Required migration confirmations.\n    mapping(address => bool) migrationConfirmations;\n\n    modifier notAnEmptyString(string value) {\n        bytes memory castValue = bytes(value);\n        require(castValue.length != 0);\n        _;\n    }\n\n    /// Only if valid public is passed\n    modifier isValidPublic(bytes keyServerPublic) {\n        require(checkPublic(keyServerPublic));\n        _;\n    }\n\n    /// Only run if server is currently on current set.\n    modifier isOnCurrentSet(address keyServer) {\n        require(keccak256(currentSet.map[keyServer].ip) != keccak256(\"\"));\n        _;\n    }\n\n    /// Only run if server is currently on migration set.\n    modifier isOnMigrationSet(address keyServer) {\n        require(keccak256(migrationSet.map[keyServer].ip) != keccak256(\"\"));\n        _;\n    }\n\n    /// Only run if server is currently on new set.\n    modifier isOnNewSet(address keyServer) {\n        require(keccak256(newSet.map[keyServer].ip) != keccak256(\"\"));\n        _;\n    }\n\n    /// Only run if server is currently on new set.\n    modifier isNotOnNewSet(address keyServer) {\n        require(keccak256(newSet.map[keyServer].ip) == keccak256(\"\"));\n        _;\n    }\n\n    /// Only when no active migration process.\n    modifier noActiveMigration {\n        require(migrationMaster == address(0));\n        _;\n    }\n\n    /// Only when migration with given id is in progress.\n    modifier isActiveMigration(bytes32 id) {\n        require(migrationId == id);\n        _;\n    }\n\n    /// Only when migration id is valid.\n    modifier isValidMigrationId(bytes32 id) {\n        require(id != bytes32(0));\n        _;\n    }\n\n    /// Only when migration is required.\n    modifier whenMigrationRequired {\n        require(!areEqualSets(currentSet, newSet));\n        _;\n    }\n\n    /// Only run when sender is potential participant of migration.\n    modifier isPossibleMigrationParticipant {\n        require(\n            keccak256(currentSet.map[msg.sender].ip) != keccak256(\"\") ||\n            keccak256(newSet.map[msg.sender].ip) != keccak256(\"\"));\n        _;\n    }\n\n    /// Only run when sender is participant of migration.\n    modifier isMigrationParticipant(address keyServer) {\n        require(\n            keccak256(currentSet.map[keyServer].ip) != keccak256(\"\") ||\n            keccak256(migrationSet.map[keyServer].ip) != keccak256(\"\"));\n        _;\n    }\n\n    /// We do not support direct payments.\n    function() public payable {\n        revert();\n    }\n\n    /// Get number of block when current set has been changed last time.\n    function getCurrentLastChange() external view returns (uint256) {\n        return currentSetChangeBlock;\n    }\n\n    /// Get index of given key server in current set.\n    function getCurrentKeyServerIndex(address keyServer) external view returns (uint8) {\n        KeyServer storage entry = currentSet.map[keyServer];\n        require(keccak256(entry.ip) != keccak256(\"\"));\n        return entry.index;\n    }\n\n    /// Get count of key servers in current set.\n    function getCurrentKeyServersCount() external view returns (uint8) {\n        return uint8(currentSet.list.length);\n    }\n\n    /// Get address of key server in current set.\n    function getCurrentKeyServer(uint8 index) external view returns (address) {\n        require(index < currentSet.list.length);\n        return currentSet.list[index];\n    }\n\n    /// Get all current key servers.\n    function getCurrentKeyServers() external view returns (address[]) {\n        return currentSet.list;\n    }\n\n    /// Get current key server public key.\n    function getCurrentKeyServerPublic(address keyServer) external view isOnCurrentSet(keyServer) returns (bytes) {\n        return currentSet.map[keyServer].publicKey;\n    }\n\n    /// Get current key server address.\n    function getCurrentKeyServerAddress(address keyServer) external view isOnCurrentSet(keyServer) returns (string) {\n        return currentSet.map[keyServer].ip;\n    }\n\n    /// Get all migration key servers.\n    function getMigrationKeyServers() external view returns (address[]) {\n        return migrationSet.list;\n    }\n\n    /// Get migration key server public key.\n    function getMigrationKeyServerPublic(address keyServer) external view isOnMigrationSet(keyServer) returns (bytes) {\n        return migrationSet.map[keyServer].publicKey;\n    }\n\n    /// Get migration key server address.\n    function getMigrationKeyServerAddress(address keyServer) external view isOnMigrationSet(keyServer) returns (string) {\n        return migrationSet.map[keyServer].ip;\n    }\n\n    /// Get all new key servers.\n    function getNewKeyServers() external view returns (address[]) {\n        return newSet.list;\n    }\n\n    /// Get new key server public key.\n    function getNewKeyServerPublic(address keyServer) external view isOnNewSet(keyServer) returns (bytes) {\n        return newSet.map[keyServer].publicKey;\n    }\n\n    /// Get new key server address.\n    function getNewKeyServerAddress(address keyServer) external view isOnNewSet(keyServer) returns (string) {\n        return newSet.map[keyServer].ip;\n    }\n\n    /// Get migration id.\n    function getMigrationId() external view isValidMigrationId(migrationId) returns (bytes32) {\n        return migrationId;\n    }\n\n    /// Start migration.\n    function startMigration(bytes32 id) external noActiveMigration isValidMigrationId(id) whenMigrationRequired isPossibleMigrationParticipant {\n        // migration to empty set is impossible\n        require (newSet.list.length != 0);\n\n        migrationMaster = msg.sender;\n        migrationId = id;\n        copySet(migrationSet, newSet);\n        emit MigrationStarted();\n    }\n\n    /// Confirm migration.\n    function confirmMigration(bytes32 id) external isValidMigrationId(id) isActiveMigration(id) isOnMigrationSet(msg.sender) {\n        require(!migrationConfirmations[msg.sender]);\n        migrationConfirmations[msg.sender] = true;\n\n        // check if migration is completed\n        for (uint j = 0; j < migrationSet.list.length; ++j) {\n            if (!migrationConfirmations[migrationSet.list[j]]) {\n                return;\n            }\n        }\n\n        // migration is completed => delete confirmations\n        for (uint m = 0; m < migrationSet.list.length; ++m) {\n            delete migrationConfirmations[migrationSet.list[m]];\n        }\n        delete migrationMaster;\n\n        // ...and copy migration set to current set\n        copySet(currentSet, migrationSet);\n\n        // ...and also delete entries from migration set\n        clearSet(migrationSet);\n\n        // ...and fire completion event\n        emit MigrationCompleted();\n\n        // ...and update current server set change block\n        currentSetChangeBlock = block.number;\n    }\n\n    /// Get migration master.\n    function getMigrationMaster() external view returns (address) {\n        return migrationMaster;\n    }\n\n    /// Is migration confirmed.\n    function isMigrationConfirmed(address keyServer) external view isMigrationParticipant(keyServer) returns (bool) {\n        return migrationConfirmations[keyServer];\n    }\n\n    /// Complete initialization. Before this function is called, all calls to addKeyServer/removeKeyServer\n    /// affect both newSet and currentSet.\n    function completeInitialization() public onlyOwner {\n        require(!isInitialized);\n        isInitialized = true;\n    }\n\n    /// Add new key server to set.\n    function addKeyServer(bytes keyServerPublic, string keyServerIp)\n\t\tpublic\n\t\tonlyOwner\n\t\tnotAnEmptyString(keyServerIp)\n\t\tisValidPublic(keyServerPublic)\n\t\tisNotOnNewSet(computeAddress(keyServerPublic))\n\t{\n        // append to the new set\n        address keyServer = appendToSet(newSet, keyServerPublic, keyServerIp);\n        // also append to current set\n        if (!isInitialized) {\n            appendToSet(currentSet, keyServerPublic, keyServerIp);\n        }\n        // fire event\n        emit KeyServerAdded(keyServer);\n    }\n\n    /// Remove key server from set.\n    function removeKeyServer(address keyServer) public onlyOwner isOnNewSet(keyServer) {\n        // remove element from the new set\n        removeFromSet(newSet, keyServer);\n        // also remove from the current set\n        if (!isInitialized) {\n            removeFromSet(currentSet, keyServer);\n        }\n        // fire event\n        emit KeyServerRemoved(keyServer);\n    }\n\n    /// Compute address from public key.\n    function computeAddress(bytes keyServerPublic) private pure returns (address) {\n        return address(uint(keccak256(keyServerPublic)) & 0x00FFFFFFFFFFFFFFFFFFFFFFFFFFFFFFFFFFFFFFFF);\n    }\n\n    /// 'Check' public key.\n    function checkPublic(bytes keyServerPublic) private pure returns (bool) {\n        return keyServerPublic.length == 64;\n    }\n\n    /// Copy set (assignment operator).\n    function copySet(Set storage set1, Set storage set2) private {\n        for (uint i = 0; i < set1.list.length; ++i) {\n            delete set1.map[set1.list[i]];\n        }\n\n        set1.list = set2.list;\n        for (uint j = 0; j < set1.list.length; ++j) {\n            set1.map[set1.list[j]] = set2.map[set1.list[j]];\n        }\n    }\n\n    /// Clear set.\n    function clearSet(Set storage set) private {\n        while (set.list.length > 0) {\n            address keyServer = set.list[set.list.length - 1];\n            delete set.list[set.list.length - 1];\n            set.list.length = set.list.length - 1;\n            delete set.map[keyServer];\n        }\n    }\n\n    /// Are two sets equal?\n    function areEqualSets(Set storage set1, Set storage set2) private view returns (bool) {\n        for (uint i = 0; i < set1.list.length; ++i) {\n            if (keccak256(set2.map[set1.list[i]].ip) == keccak256(\"\")) {\n                return false;\n            }\n        }\n        for (uint j = 0; j < set2.list.length; ++j) {\n            if (keccak256(set1.map[set2.list[j]].ip) == keccak256(\"\")) {\n                return false;\n            }\n        }\n        return true;\n    }\n\n    /// Append new key serer to set.\n    function appendToSet(Set storage set, bytes keyServerPublic, string keyServerIp) private returns (address) {\n        // we do not support > 256 key servers in the list\n        require(set.list.length < 256);\n\n        address keyServer = computeAddress(keyServerPublic);\n        set.map[keyServer].index = uint8(set.list.length);\n        set.map[keyServer].publicKey = keyServerPublic;\n        set.map[keyServer].ip = keyServerIp;\n        set.list.push(keyServer);\n        return keyServer;\n    }\n\n    /// Remove existing key server set.\n    function removeFromSet(Set storage set, address keyServer) private {\n        // swap list elements (removedIndex, lastIndex)\n        uint8 removedIndex = uint8(set.map[keyServer].index);\n        uint8 lastIndex = uint8(set.list.length) - 1;\n        address lastKeyServer = set.list[lastIndex];\n        set.list[removedIndex] = lastKeyServer;\n        set.map[lastKeyServer].index = removedIndex;\n        // remove element from list and map\n        delete set.list[lastIndex];\n        delete set.map[keyServer];\n        set.list.length--;\n    }\n}\n",
  "sourcePath": "/home/aznagy/work/secretstore/secretstore-contracts/contracts/set/OwnedKeyServerSetWithMigration.sol",
  "compiler": {
    "name": "solc",
    "version": "0.4.24+commit.e67f0147.Emscripten.clang"
  },
  "schemaVersion": "2.0.1",
  "updatedAt": "2019-01-04T14:19:13.103Z"
}