{
  "contractName": "PermissioningDynamic",
  "abi": [
    {
      "anonymous": false,
      "inputs": [
        {
          "indexed": false,
          "internalType": "bytes32",
          "name": "docID",
          "type": "bytes32"
        }
      ],
      "name": "Permission",
      "type": "event"
    },
    {
      "inputs": [
        {
          "internalType": "bytes32",
          "name": "",
          "type": "bytes32"
        },
        {
          "internalType": "uint256",
          "name": "",
          "type": "uint256"
        }
      ],
      "name": "permissions",
      "outputs": [
        {
          "internalType": "address",
          "name": "",
          "type": "address"
        }
      ],
      "stateMutability": "view",
      "type": "function"
    },
    {
      "inputs": [
        {
          "internalType": "bytes32",
          "name": "document",
          "type": "bytes32"
        }
      ],
      "name": "users",
      "outputs": [
        {
          "internalType": "address[]",
          "name": "",
          "type": "address[]"
        }
      ],
      "stateMutability": "view",
      "type": "function"
    },
    {
      "inputs": [
        {
          "internalType": "bytes32",
          "name": "_docID",
          "type": "bytes32"
        },
        {
          "internalType": "address[]",
          "name": "_users",
          "type": "address[]"
        }
      ],
      "name": "addPermission",
      "outputs": [],
      "stateMutability": "nonpayable",
      "type": "function"
    },
    {
      "inputs": [
        {
          "internalType": "address",
          "name": "user",
          "type": "address"
        },
        {
          "internalType": "bytes32",
          "name": "document",
          "type": "bytes32"
        }
      ],
      "name": "checkPermissions",
      "outputs": [
        {
          "internalType": "bool",
          "name": "",
          "type": "bool"
        }
      ],
      "stateMutability": "view",
      "type": "function"
    }
  ],
  "bytecode": "0x608060405234801561001057600080fd5b5061060c806100206000396000f3fe608060405234801561001057600080fd5b506004361061004c5760003560e01c8063047be4a314610051578063924e6afb146100c9578063b36a9a7c1461018b578063cea6ab98146101f1575b600080fd5b6100876004803603604081101561006757600080fd5b810190808035906020019092919080359060200190929190505050610274565b604051808273ffffffffffffffffffffffffffffffffffffffff1673ffffffffffffffffffffffffffffffffffffffff16815260200191505060405180910390f35b610189600480360360408110156100df57600080fd5b81019080803590602001909291908035906020019064010000000081111561010657600080fd5b82018360208201111561011857600080fd5b8035906020019184602083028401116401000000008311171561013a57600080fd5b919080806020026020016040519081016040528093929190818152602001838360200280828437600081840152601f19601f8201169050808301925050505050505091929192905050506102bf565b005b6101d7600480360360408110156101a157600080fd5b81019080803573ffffffffffffffffffffffffffffffffffffffff1690602001909291908035906020019092919050505061038f565b604051808215151515815260200191505060405180910390f35b61021d6004803603602081101561020757600080fd5b8101908080359060200190929190505050610447565b6040518080602001828103825283818151815260200191508051906020019060200280838360005b83811015610260578082015181840152602081019050610245565b505050509050019250505060405180910390f35b6000602052816000526040600020818154811061028d57fe5b906000526020600020016000915091509054906101000a900473ffffffffffffffffffffffffffffffffffffffff1681565b6000806000848152602001908152602001600020805490501461032d576040517f08c379a00000000000000000000000000000000000000000000000000000000081526004018080602001828103825260228152602001806105b56022913960400191505060405180910390fd5b8060008084815260200190815260200160002090805190602001906103539291906104e7565b507f1cc9fc44b401f3c62bc063fa96b96115b72c6c810c4cb13745eeb6e173d5ffe5826040518082815260200191505060405180910390a15050565b600080600080848152602001908152602001600020905060008090505b818054905081101561043a578473ffffffffffffffffffffffffffffffffffffffff168282815481106103db57fe5b9060005260206000200160009054906101000a900473ffffffffffffffffffffffffffffffffffffffff1673ffffffffffffffffffffffffffffffffffffffff16141561042d57600192505050610441565b80806001019150506103ac565b5060009150505b92915050565b60606000808381526020019081526020016000208054806020026020016040519081016040528092919081815260200182805480156104db57602002820191906000526020600020905b8160009054906101000a900473ffffffffffffffffffffffffffffffffffffffff1673ffffffffffffffffffffffffffffffffffffffff1681526020019060010190808311610491575b50505050509050919050565b828054828255906000526020600020908101928215610560579160200282015b8281111561055f5782518260006101000a81548173ffffffffffffffffffffffffffffffffffffffff021916908373ffffffffffffffffffffffffffffffffffffffff16021790555091602001919060010190610507565b5b50905061056d9190610571565b5090565b6105b191905b808211156105ad57600081816101000a81549073ffffffffffffffffffffffffffffffffffffffff021916905550600101610577565b5090565b9056fe446f63756d656e74206b657920494420697320616c726561647920696e207573652ea26469706673582212207f9575f2275d969bce5e414c0f575a707ea0ea0879088601cfab255727ab4dc364736f6c63430006050033",
  "source": "pragma solidity ^0.6.0;\n\nimport \"../interfaces/ISecretStorePermissioning.sol\";\n\n\n// Permissioning contract to add an arbitrary number of doc keys and users\ncontract PermissioningDynamic is ISecretStorePermissioning {\n\n    mapping(bytes32 => address[]) public permissions;\n\n    event Permission(bytes32 docID);\n\n    // Utility function to return users of a key\n    function users(bytes32 document)\n        external\n        view\n        returns (address[] memory)\n    {\n        return permissions[document];\n    }\n\n    function addPermission(bytes32 _docID, address[] memory _users)\n        public\n    {\n        // if doc ID is already in use, we do not allow to add/modify\n        if (permissions[_docID].length != 0)\n            revert(\"Document key ID is already in use.\");\n        permissions[_docID] = _users;\n        emit Permission(_docID);\n    }\n\n    function checkPermissions(address user, bytes32 document)\n        public\n        view\n        override\n        returns (bool)\n    {\n        address[] storage addresses = permissions[document];\n        for (uint i = 0; i < addresses.length; i++) {\n            if (addresses[i] == user)\n                return true;\n        }\n        return false;\n    }\n}\n",
  "sourcePath": "/home/aznagy/work/secretstore/secretstore-contracts/contracts/simplepermissioning/PermissioningDynamic.sol",
  "compiler": {
    "name": "solc",
    "version": "0.6.5+commit.f956cc89.Emscripten.clang"
  },
  "schemaVersion": "3.0.23",
  "updatedAt": "2020-04-08T13:26:56.091Z",
  "devdoc": {
    "methods": {}
  },
  "userdoc": {
    "methods": {}
  }
}