{
  "contractName": "PermissioningDynamic",
  "abi": [
    {
      "constant": true,
      "inputs": [
        {
          "name": "",
          "type": "bytes32"
        },
        {
          "name": "",
          "type": "uint256"
        }
      ],
      "name": "permissions",
      "outputs": [
        {
          "name": "",
          "type": "address"
        }
      ],
      "payable": false,
      "stateMutability": "view",
      "type": "function"
    },
    {
      "anonymous": false,
      "inputs": [
        {
          "indexed": false,
          "name": "docID",
          "type": "bytes32"
        }
      ],
      "name": "Permission",
      "type": "event"
    },
    {
      "constant": true,
      "inputs": [
        {
          "name": "document",
          "type": "bytes32"
        }
      ],
      "name": "users",
      "outputs": [
        {
          "name": "",
          "type": "address[]"
        }
      ],
      "payable": false,
      "stateMutability": "view",
      "type": "function"
    },
    {
      "constant": false,
      "inputs": [
        {
          "name": "_docID",
          "type": "bytes32"
        },
        {
          "name": "_users",
          "type": "address[]"
        }
      ],
      "name": "addPermission",
      "outputs": [],
      "payable": false,
      "stateMutability": "nonpayable",
      "type": "function"
    },
    {
      "constant": true,
      "inputs": [
        {
          "name": "user",
          "type": "address"
        },
        {
          "name": "document",
          "type": "bytes32"
        }
      ],
      "name": "checkPermissions",
      "outputs": [
        {
          "name": "",
          "type": "bool"
        }
      ],
      "payable": false,
      "stateMutability": "view",
      "type": "function"
    }
  ],
  "bytecode": "0x608060405234801561001057600080fd5b5061046c806100206000396000f3006080604052600436106100615763ffffffff7c0100000000000000000000000000000000000000000000000000000000600035041663047be4a38114610066578063924e6afb1461009d578063b36a9a7c146100f9578063cea6ab9814610131575b600080fd5b34801561007257600080fd5b50610081600435602435610199565b60408051600160a060020a039092168252519081900360200190f35b3480156100a957600080fd5b506040805160206004602480358281013584810280870186019097528086526100f7968435963696604495919490910192918291850190849080828437509497506101d09650505050505050565b005b34801561010557600080fd5b5061011d600160a060020a03600435166024356102c6565b604080519115158252519081900360200190f35b34801561013d57600080fd5b50610149600435610330565b60408051602080825283518183015283519192839290830191858101910280838360005b8381101561018557818101518382015260200161016d565b505050509050019250505060405180910390f35b6000602052816000526040600020818154811015156101b457fe5b600091825260209091200154600160a060020a03169150829050565b6000828152602081905260409020541561027157604080517f08c379a000000000000000000000000000000000000000000000000000000000815260206004820152602260248201527f446f63756d656e74206b657920494420697320616c726561647920696e20757360448201527f652e000000000000000000000000000000000000000000000000000000000000606482015290519081900360840190fd5b600082815260208181526040909120825161028e9284019061039a565b506040805183815290517f1cc9fc44b401f3c62bc063fa96b96115b72c6c810c4cb13745eeb6e173d5ffe59181900360200190a15050565b6000818152602081905260408120815b81548110156103235784600160a060020a031682828154811015156102f757fe5b600091825260209091200154600160a060020a0316141561031b5760019250610328565b6001016102d6565b600092505b505092915050565b6000818152602081815260409182902080548351818402810184019094528084526060939283018282801561038e57602002820191906000526020600020905b8154600160a060020a03168152600190910190602001808311610370575b50505050509050919050565b8280548282559060005260206000209081019282156103fc579160200282015b828111156103fc578251825473ffffffffffffffffffffffffffffffffffffffff1916600160a060020a039091161782556020909201916001909101906103ba565b5061040892915061040c565b5090565b61043d91905b8082111561040857805473ffffffffffffffffffffffffffffffffffffffff19168155600101610412565b905600a165627a7a72305820facf01e5179d12656d4820ae2cb1612d04c09258640118c85b67c61e98f0daf00029",
  "source": "pragma solidity ^0.4.24;\n\nimport \"../interfaces/ISecretStorePermissioning.sol\";\n\n\n// Permissioning contract to add an arbitrary number of doc keys and users\ncontract PermissioningDynamic is ISecretStorePermissioning {\n\n    mapping(bytes32 => address[]) public permissions;\n\n    event Permission(bytes32 docID);\n\n    // Utility function to return users of a key\n    function users(bytes32 document) external view returns (address[] memory) {\n        return permissions[document];\n    }\n\n    function addPermission(bytes32 _docID, address[] memory _users) public {\n        // if doc ID is already in use, we do not allow to add/modify\n        if (permissions[_docID].length != 0)\n            revert(\"Document key ID is already in use.\");\n        permissions[_docID] = _users;\n        emit Permission(_docID);\n    }\n\n    function checkPermissions(address user, bytes32 document) public view returns (bool) {\n        address[] storage addresses = permissions[document];\n        for (uint i = 0; i < addresses.length; i++) {\n            if (addresses[i] == user)\n                return true;\n        }\n        return false;\n    }\n}\n",
  "sourcePath": "/home/aznagy/work/secretstore/secretstore-contracts/contracts/simplepermissioning/PermissioningDynamic.sol",
  "compiler": {
    "name": "solc",
    "version": "0.4.24+commit.e67f0147.Emscripten.clang"
  },
  "schemaVersion": "2.0.1",
  "updatedAt": "2018-12-19T16:07:54.993Z"
}