{
  "contractName": "PermissionerNoDoc",
  "abi": [
    {
      "constant": true,
      "inputs": [
        {
          "name": "",
          "type": "uint256"
        }
      ],
      "name": "addresses",
      "outputs": [
        {
          "name": "",
          "type": "address"
        }
      ],
      "payable": false,
      "stateMutability": "view",
      "type": "function"
    },
    {
      "inputs": [
        {
          "name": "_addresses",
          "type": "address[]"
        }
      ],
      "payable": false,
      "stateMutability": "nonpayable",
      "type": "constructor"
    },
    {
      "constant": true,
      "inputs": [
        {
          "name": "user",
          "type": "address"
        },
        {
          "name": "document",
          "type": "bytes32"
        }
      ],
      "name": "checkPermissions",
      "outputs": [
        {
          "name": "",
          "type": "bool"
        }
      ],
      "payable": false,
      "stateMutability": "view",
      "type": "function"
    }
  ],
  "bytecode": "0x608060405234801561001057600080fd5b5060405161028c38038061028c83398101604052805101805161003a906000906020840190610041565b50506100cd565b828054828255906000526020600020908101928215610096579160200282015b828111156100965782518254600160a060020a031916600160a060020a03909116178255602090920191600190910190610061565b506100a29291506100a6565b5090565b6100ca91905b808211156100a2578054600160a060020a03191681556001016100ac565b90565b6101b0806100dc6000396000f30060806040526004361061004b5763ffffffff7c0100000000000000000000000000000000000000000000000000000000600035041663b36a9a7c8114610050578063edf26d9b14610095575b600080fd5b34801561005c57600080fd5b5061008173ffffffffffffffffffffffffffffffffffffffff600435166024356100d6565b604080519115158252519081900360200190f35b3480156100a157600080fd5b506100ad60043561014f565b6040805173ffffffffffffffffffffffffffffffffffffffff9092168252519081900360200190f35b6000805b600054811015610143578373ffffffffffffffffffffffffffffffffffffffff1660008281548110151561010a57fe5b60009182526020909120015473ffffffffffffffffffffffffffffffffffffffff16141561013b5760019150610148565b6001016100da565b600091505b5092915050565b600080548290811061015d57fe5b60009182526020909120015473ffffffffffffffffffffffffffffffffffffffff169050815600a165627a7a723058209a644e731f00335f66768bdf5779df21023f86e40cf624240521b160a20322870029",
  "source": "pragma solidity ^0.4.24;\n\nimport \"./SecretStorePermissioner.sol\";\n\n// Another fire-and-forget permissioning contract that gives\n// access to any address specified irrespective of the document key\n// Note: this was used in the original Private Transactions tutorial, but not really life-like\ncontract PermissionerNoDoc is SecretStorePermissioner {\n    address[] public addresses;\n\n    constructor(address[] _addresses) public {\n        addresses = _addresses;\n    }\n\n    // We only check users\n    function checkPermissions(address user, bytes32 document) public view returns (bool) {\n        for (uint i = 0; i < addresses.length; i++) {\n            if (addresses[i] == user) return true;\n        }\n        return false;\n    }\n}\n",
  "sourcePath": "/home/aznagy/work/secretstore/secretstore-contracts/contracts/PermissionerNoDoc.sol",
  "compiler": {
    "name": "solc",
    "version": "0.4.24+commit.e67f0147.Emscripten.clang"
  },
  "schemaVersion": "2.0.1",
  "updatedAt": "2018-12-03T12:48:33.904Z"
}