{
  "contractName": "PermissioningStatic",
  "abi": [
    {
      "inputs": [
        {
          "internalType": "address",
          "name": "user",
          "type": "address"
        },
        {
          "internalType": "bytes32",
          "name": "document",
          "type": "bytes32"
        }
      ],
      "name": "checkPermissions",
      "outputs": [
        {
          "internalType": "bool",
          "name": "",
          "type": "bool"
        }
      ],
      "stateMutability": "view",
      "type": "function"
    }
  ],
  "bytecode": "0x60806040527f45ce99addb0f8385bd24f30da619ddcc0cadadab73e2a4ffb7801083086b3fc260001b600055733144de21da6de18061f818836fa3db8f3d6b6989600160006101000a81548173ffffffffffffffffffffffffffffffffffffffff021916908373ffffffffffffffffffffffffffffffffffffffff160217905550736c4b8b199a41b721e0a95df9860cf0a18732e76d600260006101000a81548173ffffffffffffffffffffffffffffffffffffffff021916908373ffffffffffffffffffffffffffffffffffffffff1602179055503480156100e157600080fd5b5061019c806100f16000396000f3fe608060405234801561001057600080fd5b506004361061002b5760003560e01c8063b36a9a7c14610030575b600080fd5b61007c6004803603604081101561004657600080fd5b81019080803573ffffffffffffffffffffffffffffffffffffffff16906020019092919080359060200190929190505050610096565b604051808215151515815260200191505060405180910390f35b600080548214801561014d5750600160009054906101000a900473ffffffffffffffffffffffffffffffffffffffff1673ffffffffffffffffffffffffffffffffffffffff168373ffffffffffffffffffffffffffffffffffffffff16148061014c5750600260009054906101000a900473ffffffffffffffffffffffffffffffffffffffff1673ffffffffffffffffffffffffffffffffffffffff168373ffffffffffffffffffffffffffffffffffffffff16145b5b1561015b5760019050610160565b600090505b9291505056fea26469706673582212201a85f1a49a721da7fea157f1aaa0c048d041ef04967b154ecd1f19bc7ef4c53d64736f6c63430006050033",
  "source": "pragma solidity ^0.6.0;\n\nimport \"../interfaces/ISecretStorePermissioning.sol\";\n\n\n// Needed if you want burned-in values that cannot be changed afterwards\n// and have a closed set of users/doc keys. Feel free to replace or add new fields.\n// Note: this is not really life-like\ncontract PermissioningStatic is ISecretStorePermissioning {\n    bytes32 documentKeyId = 0x45ce99addb0f8385bd24f30da619ddcc0cadadab73e2a4ffb7801083086b3fc2;\n    address alice = 0x3144de21dA6De18061f818836Fa3db8F3D6b6989;\n    address bob = 0x6C4B8B199A41B721e0a95dF9860CF0A18732e76D;\n\n    /// Both Alice and Bob can access the specified document\n    function checkPermissions(address user, bytes32 document)\n        public\n        view\n        override\n        returns (bool)\n    {\n        if (document == documentKeyId && (user == alice || user == bob) )\n            return true;\n        return false;\n    }\n}\n",
  "sourcePath": "/home/aznagy/work/secretstore/secretstore-contracts/contracts/simplepermissioning/PermissioningStatic.sol",
  "compiler": {
    "name": "solc",
    "version": "0.6.5+commit.f956cc89.Emscripten.clang"
  },
  "schemaVersion": "3.0.23",
  "updatedAt": "2020-04-08T13:26:56.098Z",
  "devdoc": {
    "methods": {}
  },
  "userdoc": {
    "methods": {
      "checkPermissions(address,bytes32)": {
        "notice": "Both Alice and Bob can access the specified document"
      }
    }
  }
}