{
  "contractName": "PermissionerStatic",
  "abi": [
    {
      "constant": true,
      "inputs": [
        {
          "name": "user",
          "type": "address"
        },
        {
          "name": "document",
          "type": "bytes32"
        }
      ],
      "name": "checkPermissions",
      "outputs": [
        {
          "name": "",
          "type": "bool"
        }
      ],
      "payable": false,
      "stateMutability": "view",
      "type": "function"
    }
  ],
  "bytecode": "0x60806040527f45ce99addb0f8385bd24f30da619ddcc0cadadab73e2a4ffb7801083086b3fc260005560018054600160a060020a0319908116733144de21da6de18061f818836fa3db8f3d6b69891790915560028054909116736c4b8b199a41b721e0a95df9860cf0a18732e76d17905534801561007c57600080fd5b506101148061008c6000396000f300608060405260043610603e5763ffffffff7c0100000000000000000000000000000000000000000000000000000000600035041663b36a9a7c81146043575b600080fd5b348015604e57600080fd5b50607173ffffffffffffffffffffffffffffffffffffffff600435166024356085565b604080519115158252519081900360200190f35b600080548214801560d3575060015473ffffffffffffffffffffffffffffffffffffffff8481169116148060d3575060025473ffffffffffffffffffffffffffffffffffffffff8481169116145b1560de5750600160e2565b5060005b929150505600a165627a7a72305820a6404e76c486d5601126e7134accdacc97d442991d9a013a4faa7f94dd4d30540029",
  "source": "pragma solidity ^0.4.21;\n\nimport \"./SecretStorePermissioner.sol\";\n\n// Needed if you want burned-in values that cannot be changed afterwards\n// and have a closed set of users/doc keys. Feel free to replace or add new fields.\n// Note: this is not really life-like\ncontract PermissionerStatic is SecretStorePermissioner {\n    bytes32 documentKeyId = 0x45ce99addb0f8385bd24f30da619ddcc0cadadab73e2a4ffb7801083086b3fc2;\n    address alice = 0x3144de21dA6De18061f818836Fa3db8F3D6b6989;\n    address bob = 0x6C4B8B199A41B721e0a95dF9860CF0A18732e76D;\n\n    /// Both Alice and Bob can access the specified document\n    function checkPermissions(address user, bytes32 document) public view returns (bool) {\n        if (document == documentKeyId && (user == alice || user == bob) ) return true;\n        return false; \n    }\n}",
  "sourcePath": "/home/aznagy/work/secretstore/secretstore-contracts/contracts/PermissionerStatic.sol",
  "compiler": {
    "name": "solc",
    "version": "0.4.24+commit.e67f0147.Emscripten.clang"
  },
  "schemaVersion": "2.0.1",
  "updatedAt": "2018-12-03T12:48:33.904Z"
}