{
  "contractName": "PermissioningRegistry",
  "abi": [
    {
      "inputs": [],
      "stateMutability": "nonpayable",
      "type": "constructor"
    },
    {
      "anonymous": false,
      "inputs": [
        {
          "indexed": true,
          "internalType": "bytes32",
          "name": "document",
          "type": "bytes32"
        }
      ],
      "name": "NewAdmin",
      "type": "event"
    },
    {
      "anonymous": false,
      "inputs": [
        {
          "indexed": true,
          "internalType": "address",
          "name": "previousOwner",
          "type": "address"
        },
        {
          "indexed": true,
          "internalType": "address",
          "name": "newOwner",
          "type": "address"
        }
      ],
      "name": "OwnershipTransferred",
      "type": "event"
    },
    {
      "anonymous": false,
      "inputs": [
        {
          "indexed": true,
          "internalType": "bytes32",
          "name": "document",
          "type": "bytes32"
        }
      ],
      "name": "Permission",
      "type": "event"
    },
    {
      "inputs": [],
      "name": "owner",
      "outputs": [
        {
          "internalType": "address",
          "name": "",
          "type": "address"
        }
      ],
      "stateMutability": "view",
      "type": "function",
      "constant": true
    },
    {
      "inputs": [
        {
          "internalType": "bytes32",
          "name": "",
          "type": "bytes32"
        }
      ],
      "name": "permissions",
      "outputs": [
        {
          "internalType": "address",
          "name": "admin",
          "type": "address"
        },
        {
          "internalType": "bool",
          "name": "exposed",
          "type": "bool"
        }
      ],
      "stateMutability": "view",
      "type": "function",
      "constant": true
    },
    {
      "inputs": [],
      "name": "renounceOwnership",
      "outputs": [],
      "stateMutability": "nonpayable",
      "type": "function"
    },
    {
      "inputs": [
        {
          "internalType": "bytes4",
          "name": "interfaceId",
          "type": "bytes4"
        }
      ],
      "name": "supportsInterface",
      "outputs": [
        {
          "internalType": "bool",
          "name": "",
          "type": "bool"
        }
      ],
      "stateMutability": "view",
      "type": "function",
      "constant": true
    },
    {
      "inputs": [
        {
          "internalType": "address",
          "name": "newOwner",
          "type": "address"
        }
      ],
      "name": "transferOwnership",
      "outputs": [],
      "stateMutability": "nonpayable",
      "type": "function"
    },
    {
      "inputs": [
        {
          "internalType": "bytes32",
          "name": "document",
          "type": "bytes32"
        },
        {
          "internalType": "address",
          "name": "newAdmin",
          "type": "address"
        }
      ],
      "name": "setAdmin",
      "outputs": [
        {
          "internalType": "bool",
          "name": "",
          "type": "bool"
        }
      ],
      "stateMutability": "nonpayable",
      "type": "function"
    },
    {
      "inputs": [
        {
          "internalType": "bytes32",
          "name": "document",
          "type": "bytes32"
        },
        {
          "internalType": "address[]",
          "name": "_users",
          "type": "address[]"
        }
      ],
      "name": "setUsers",
      "outputs": [
        {
          "internalType": "bool",
          "name": "",
          "type": "bool"
        }
      ],
      "stateMutability": "nonpayable",
      "type": "function"
    },
    {
      "inputs": [
        {
          "internalType": "bytes32",
          "name": "document",
          "type": "bytes32"
        },
        {
          "internalType": "bool",
          "name": "_exposed",
          "type": "bool"
        }
      ],
      "name": "setExposed",
      "outputs": [
        {
          "internalType": "bool",
          "name": "",
          "type": "bool"
        }
      ],
      "stateMutability": "nonpayable",
      "type": "function"
    },
    {
      "inputs": [
        {
          "internalType": "bytes32",
          "name": "document",
          "type": "bytes32"
        },
        {
          "internalType": "address",
          "name": "newUser",
          "type": "address"
        }
      ],
      "name": "addUser",
      "outputs": [
        {
          "internalType": "bool",
          "name": "",
          "type": "bool"
        }
      ],
      "stateMutability": "nonpayable",
      "type": "function"
    },
    {
      "inputs": [
        {
          "internalType": "bytes32",
          "name": "document",
          "type": "bytes32"
        }
      ],
      "name": "removePermission",
      "outputs": [
        {
          "internalType": "bool",
          "name": "",
          "type": "bool"
        }
      ],
      "stateMutability": "nonpayable",
      "type": "function"
    },
    {
      "inputs": [
        {
          "internalType": "bytes32",
          "name": "document",
          "type": "bytes32"
        },
        {
          "internalType": "address[]",
          "name": "_users",
          "type": "address[]"
        }
      ],
      "name": "permission",
      "outputs": [
        {
          "internalType": "bool",
          "name": "",
          "type": "bool"
        }
      ],
      "stateMutability": "nonpayable",
      "type": "function"
    },
    {
      "inputs": [
        {
          "internalType": "address",
          "name": "user",
          "type": "address"
        },
        {
          "internalType": "bytes32",
          "name": "document",
          "type": "bytes32"
        }
      ],
      "name": "checkPermissions",
      "outputs": [
        {
          "internalType": "bool",
          "name": "",
          "type": "bool"
        }
      ],
      "stateMutability": "view",
      "type": "function",
      "constant": true
    },
    {
      "inputs": [
        {
          "internalType": "bytes32",
          "name": "document",
          "type": "bytes32"
        }
      ],
      "name": "getAdmin",
      "outputs": [
        {
          "internalType": "address",
          "name": "",
          "type": "address"
        }
      ],
      "stateMutability": "view",
      "type": "function",
      "constant": true
    },
    {
      "inputs": [
        {
          "internalType": "bytes32",
          "name": "document",
          "type": "bytes32"
        }
      ],
      "name": "getUsers",
      "outputs": [
        {
          "internalType": "address[]",
          "name": "",
          "type": "address[]"
        }
      ],
      "stateMutability": "view",
      "type": "function",
      "constant": true
    },
    {
      "inputs": [
        {
          "internalType": "bytes32",
          "name": "document",
          "type": "bytes32"
        }
      ],
      "name": "isExposed",
      "outputs": [
        {
          "internalType": "bool",
          "name": "",
          "type": "bool"
        }
      ],
      "stateMutability": "view",
      "type": "function",
      "constant": true
    }
  ],
  "bytecode": "0x60806040523480156200001157600080fd5b506000620000246200012260201b60201c565b9050806000806101000a81548173ffffffffffffffffffffffffffffffffffffffff021916908373ffffffffffffffffffffffffffffffffffffffff1602179055508073ffffffffffffffffffffffffffffffffffffffff16600073ffffffffffffffffffffffffffffffffffffffff167f8be0079c531659141344cd1fd0a4f28419497f9722a3daafe3b4186f6b6457e060405160405180910390a350620000da6301ffc9a760e01b6200012a60201b60201c565b620000f263b36a9a7c60e01b6200012a60201b60201c565b6200011c63f2fde38b60e01b63715018a660e01b638da5cb5b60e01b18186200012a60201b60201c565b62000233565b600033905090565b63ffffffff60e01b817bffffffffffffffffffffffffffffffffffffffffffffffffffffffff19161415620001c7576040517f08c379a000000000000000000000000000000000000000000000000000000000815260040180806020018281038252601c8152602001807f4552433136353a20696e76616c696420696e746572666163652069640000000081525060200191505060405180910390fd5b6001806000837bffffffffffffffffffffffffffffffffffffffffffffffffffffffff19167bffffffffffffffffffffffffffffffffffffffffffffffffffffffff1916815260200190815260200160002060006101000a81548160ff02191690831515021790555050565b6116f080620002436000396000f3fe608060405234801561001057600080fd5b50600436106100f55760003560e01c80638170d83911610097578063b4d2388f11610066578063b4d2388f14610532578063c2929747146105ab578063ee4024db146105fd578063f2fde38b14610663576100f5565b80638170d839146103815780638da5cb5b1461041c578063aa9c542614610466578063b36a9a7c146104cc576100f5565b806365923cd1116100d357806365923cd11461027d578063715018a6146102c35780637ffb5473146102cd57806380c6e70a14610313576100f5565b806301ffc9a7146100fa5780630f039de81461015f5780634ccea526146101fa575b600080fd5b6101456004803603602081101561011057600080fd5b8101908080357bffffffffffffffffffffffffffffffffffffffffffffffffffffffff191690602001909291905050506106a7565b604051808215151515815260200191505060405180910390f35b6101e06004803603604081101561017557600080fd5b81019080803590602001909291908035906020019064010000000081111561019c57600080fd5b8201836020820111156101ae57600080fd5b803590602001918460208302840111640100000000831117156101d057600080fd5b909192939192939050505061070f565b604051808215151515815260200191505060405180910390f35b6102266004803603602081101561021057600080fd5b8101908080359060200190929190505050610895565b6040518080602001828103825283818151815260200191508051906020019060200280838360005b8381101561026957808201518184015260208101905061024e565b505050509050019250505060405180910390f35b6102a96004803603602081101561029357600080fd5b8101908080359060200190929190505050610939565b604051808215151515815260200191505060405180910390f35b6102cb610a32565b005b6102f9600480360360208110156102e357600080fd5b8101908080359060200190929190505050610bba565b604051808215151515815260200191505060405180910390f35b61033f6004803603602081101561032957600080fd5b8101908080359060200190929190505050610be7565b604051808273ffffffffffffffffffffffffffffffffffffffff1673ffffffffffffffffffffffffffffffffffffffff16815260200191505060405180910390f35b6104026004803603604081101561039757600080fd5b8101908080359060200190929190803590602001906401000000008111156103be57600080fd5b8201836020820111156103d057600080fd5b803590602001918460208302840111640100000000831117156103f257600080fd5b9091929391929390505050610c27565b604051808215151515815260200191505060405180910390f35b610424610ce7565b604051808273ffffffffffffffffffffffffffffffffffffffff1673ffffffffffffffffffffffffffffffffffffffff16815260200191505060405180910390f35b6104b26004803603604081101561047c57600080fd5b8101908080359060200190929190803573ffffffffffffffffffffffffffffffffffffffff169060200190929190505050610d10565b604051808215151515815260200191505060405180910390f35b610518600480360360408110156104e257600080fd5b81019080803573ffffffffffffffffffffffffffffffffffffffff16906020019092919080359060200190929190505050610e20565b604051808215151515815260200191505060405180910390f35b61055e6004803603602081101561054857600080fd5b8101908080359060200190929190505050610f25565b604051808373ffffffffffffffffffffffffffffffffffffffff1673ffffffffffffffffffffffffffffffffffffffff168152602001821515151581526020019250505060405180910390f35b6105e3600480360360408110156105c157600080fd5b8101908080359060200190929190803515159060200190929190505050610f76565b604051808215151515815260200191505060405180910390f35b6106496004803603604081101561061357600080fd5b8101908080359060200190929190803573ffffffffffffffffffffffffffffffffffffffff16906020019092919050505061103d565b604051808215151515815260200191505060405180910390f35b6106a56004803603602081101561067957600080fd5b81019080803573ffffffffffffffffffffffffffffffffffffffff1690602001909291905050506111ce565b005b600060016000837bffffffffffffffffffffffffffffffffffffffffffffffffffffffff19167bffffffffffffffffffffffffffffffffffffffffffffffffffffffff1916815260200190815260200160002060009054906101000a900460ff169050919050565b60008073ffffffffffffffffffffffffffffffffffffffff166002600086815260200190815260200160002060010160009054906101000a900473ffffffffffffffffffffffffffffffffffffffff1673ffffffffffffffffffffffffffffffffffffffff1614806107865750610785846113db565b5b6107db576040517f08c379a00000000000000000000000000000000000000000000000000000000081526004018080602001828103825260348152602001806116876034913960400191505060405180910390fd5b6107e3611494565b6002600086815260200190815260200160002060010160006101000a81548173ffffffffffffffffffffffffffffffffffffffff021916908373ffffffffffffffffffffffffffffffffffffffff160217905550828260026000878152602001908152602001600020600001919061085c92919061150b565b50837f1cc9fc44b401f3c62bc063fa96b96115b72c6c810c4cb13745eeb6e173d5ffe560405160405180910390a2600190509392505050565b60606002600083815260200190815260200160002060000180548060200260200160405190810160405280929190818152602001828054801561092d57602002820191906000526020600020905b8160009054906101000a900473ffffffffffffffffffffffffffffffffffffffff1673ffffffffffffffffffffffffffffffffffffffff16815260200190600101908083116108e3575b50505050509050919050565b600081610945816113db565b61099a576040517f08c379a000000000000000000000000000000000000000000000000000000000815260040180806020018281038252602c81526020018061165b602c913960400191505060405180910390fd5b60026000848152602001908152602001600020600080820160006109be91906115ab565b6001820160006101000a81549073ffffffffffffffffffffffffffffffffffffffff02191690556001820160146101000a81549060ff02191690555050827f1cc9fc44b401f3c62bc063fa96b96115b72c6c810c4cb13745eeb6e173d5ffe560405160405180910390a26001915050919050565b610a3a611494565b73ffffffffffffffffffffffffffffffffffffffff166000809054906101000a900473ffffffffffffffffffffffffffffffffffffffff1673ffffffffffffffffffffffffffffffffffffffff1614610afb576040517f08c379a00000000000000000000000000000000000000000000000000000000081526004018080602001828103825260208152602001807f4f776e61626c653a2063616c6c6572206973206e6f7420746865206f776e657281525060200191505060405180910390fd5b600073ffffffffffffffffffffffffffffffffffffffff166000809054906101000a900473ffffffffffffffffffffffffffffffffffffffff1673ffffffffffffffffffffffffffffffffffffffff167f8be0079c531659141344cd1fd0a4f28419497f9722a3daafe3b4186f6b6457e060405160405180910390a360008060006101000a81548173ffffffffffffffffffffffffffffffffffffffff021916908373ffffffffffffffffffffffffffffffffffffffff160217905550565b60006002600083815260200190815260200160002060010160149054906101000a900460ff169050919050565b60006002600083815260200190815260200160002060010160009054906101000a900473ffffffffffffffffffffffffffffffffffffffff169050919050565b600083610c33816113db565b610c88576040517f08c379a000000000000000000000000000000000000000000000000000000000815260040180806020018281038252602c81526020018061165b602c913960400191505060405180910390fd5b8383600260008881526020019081526020016000206000019190610cad92919061150b565b50847f1cc9fc44b401f3c62bc063fa96b96115b72c6c810c4cb13745eeb6e173d5ffe560405160405180910390a260019150509392505050565b60008060009054906101000a900473ffffffffffffffffffffffffffffffffffffffff16905090565b600082610d1c816113db565b610d71576040517f08c379a000000000000000000000000000000000000000000000000000000000815260040180806020018281038252602c81526020018061165b602c913960400191505060405180910390fd5b60026000858152602001908152602001600020600001839080600181540180825580915050600190039060005260206000200160009091909190916101000a81548173ffffffffffffffffffffffffffffffffffffffff021916908373ffffffffffffffffffffffffffffffffffffffff160217905550837f1cc9fc44b401f3c62bc063fa96b96115b72c6c810c4cb13745eeb6e173d5ffe560405160405180910390a2600191505092915050565b6000610e2b8261149c565b610e385760009050610f1f565b6002600083815260200190815260200160002060010160149054906101000a900460ff1615610e6a5760019050610f1f565b600060026000848152602001908152602001600020600001905060008090505b8180549050811015610f18578473ffffffffffffffffffffffffffffffffffffffff16828281548110610eb957fe5b9060005260206000200160009054906101000a900473ffffffffffffffffffffffffffffffffffffffff1673ffffffffffffffffffffffffffffffffffffffff161415610f0b57600192505050610f1f565b8080600101915050610e8a565b5060009150505b92915050565b60026020528060005260406000206000915090508060010160009054906101000a900473ffffffffffffffffffffffffffffffffffffffff16908060010160149054906101000a900460ff16905082565b600082610f82816113db565b610fd7576040517f08c379a000000000000000000000000000000000000000000000000000000000815260040180806020018281038252602c81526020018061165b602c913960400191505060405180910390fd5b826002600086815260200190815260200160002060010160146101000a81548160ff021916908315150217905550837f1cc9fc44b401f3c62bc063fa96b96115b72c6c810c4cb13745eeb6e173d5ffe560405160405180910390a2600191505092915050565b600082611049816113db565b61109e576040517f08c379a000000000000000000000000000000000000000000000000000000000815260040180806020018281038252602c81526020018061165b602c913960400191505060405180910390fd5b600073ffffffffffffffffffffffffffffffffffffffff168373ffffffffffffffffffffffffffffffffffffffff161415611141576040517f08c379a00000000000000000000000000000000000000000000000000000000081526004018080602001828103825260208152602001807f4e65772061646d696e20616464726573732063616e6e6f74206265203078302e81525060200191505060405180910390fd5b826002600086815260200190815260200160002060010160006101000a81548173ffffffffffffffffffffffffffffffffffffffff021916908373ffffffffffffffffffffffffffffffffffffffff160217905550837f9c38d9bf66f47815dd90b1c5c80b0138365b0f232c260374041f97909b70146560405160405180910390a2600191505092915050565b6111d6611494565b73ffffffffffffffffffffffffffffffffffffffff166000809054906101000a900473ffffffffffffffffffffffffffffffffffffffff1673ffffffffffffffffffffffffffffffffffffffff1614611297576040517f08c379a00000000000000000000000000000000000000000000000000000000081526004018080602001828103825260208152602001807f4f776e61626c653a2063616c6c6572206973206e6f7420746865206f776e657281525060200191505060405180910390fd5b600073ffffffffffffffffffffffffffffffffffffffff168173ffffffffffffffffffffffffffffffffffffffff16141561131d576040517f08c379a00000000000000000000000000000000000000000000000000000000081526004018080602001828103825260268152602001806116356026913960400191505060405180910390fd5b8073ffffffffffffffffffffffffffffffffffffffff166000809054906101000a900473ffffffffffffffffffffffffffffffffffffffff1673ffffffffffffffffffffffffffffffffffffffff167f8be0079c531659141344cd1fd0a4f28419497f9722a3daafe3b4186f6b6457e060405160405180910390a3806000806101000a81548173ffffffffffffffffffffffffffffffffffffffff021916908373ffffffffffffffffffffffffffffffffffffffff16021790555050565b60006113e5611494565b73ffffffffffffffffffffffffffffffffffffffff166002600084815260200190815260200160002060010160009054906101000a900473ffffffffffffffffffffffffffffffffffffffff1673ffffffffffffffffffffffffffffffffffffffff16148061148d5750611457611494565b73ffffffffffffffffffffffffffffffffffffffff16611475610ce7565b73ffffffffffffffffffffffffffffffffffffffff16145b9050919050565b600033905090565b60008073ffffffffffffffffffffffffffffffffffffffff166002600084815260200190815260200160002060010160009054906101000a900473ffffffffffffffffffffffffffffffffffffffff1673ffffffffffffffffffffffffffffffffffffffff1614159050919050565b82805482825590600052602060002090810192821561159a579160200282015b8281111561159957823573ffffffffffffffffffffffffffffffffffffffff168260006101000a81548173ffffffffffffffffffffffffffffffffffffffff021916908373ffffffffffffffffffffffffffffffffffffffff1602179055509160200191906001019061152b565b5b5090506115a791906115cc565b5090565b50805460008255906000526020600020908101906115c9919061160f565b50565b61160c91905b8082111561160857600081816101000a81549073ffffffffffffffffffffffffffffffffffffffff0219169055506001016115d2565b5090565b90565b61163191905b8082111561162d576000816000905550600101611615565b5090565b9056fe4f776e61626c653a206e6577206f776e657220697320746865207a65726f206164647265737343616c6c65722068617320746f206265207468652063757272656e742061646d696e206f72206f776e65722e596f75206861766520746f2062652061646d696e206f72206f776e657220746f206368616e6765207065726d697373696f6e732ea26469706673582212202dd4745278ea81d316e75bea65e5cfe22331371a626f4157d798cf48448a35a164736f6c63430006050033",
  "source": "pragma solidity ^0.6.0;\n\nimport \"./interfaces/ISecretStorePermissioning.sol\";\nimport \"@openzeppelin/contracts/access/Ownable.sol\";\nimport \"@openzeppelin/contracts/introspection/ERC165.sol\";\n\n\ncontract PermissioningRegistry is ISecretStorePermissioning, Ownable, ERC165 {\n\n    struct PermissionEntry {\n        address[] users;\n        address admin;\n        bool exposed;\n    }\n\n    mapping(bytes32 => PermissionEntry) public permissions;\n\n    event NewAdmin(bytes32 indexed document);\n    event Permission(bytes32 indexed document);\n\n    modifier onlyAdmins(bytes32 document) {\n        require(\n            _isAdmin(document),\n            \"Caller has to be the current admin or owner.\"\n        );\n        _;\n    }\n\n    constructor() public {\n        // ERC 165 support\n        _registerInterface(this.checkPermissions.selector);\n        _registerInterface(\n            this.owner.selector ^\n            this.renounceOwnership.selector ^\n            this.transferOwnership.selector\n        );\n    }\n\n    function setAdmin(bytes32 document, address newAdmin)\n        external\n        onlyAdmins(document)\n        returns (bool)\n    {\n        require(newAdmin != address(0), \"New admin address cannot be 0x0.\");\n        permissions[document].admin = newAdmin;\n        emit NewAdmin(document);\n        return true;\n    }\n\n    function setUsers(bytes32 document, address[] calldata _users)\n        external\n        onlyAdmins(document)\n        returns (bool)\n    {\n        permissions[document].users = _users;\n        emit Permission(document);\n        return true;\n    }\n\n    function setExposed(bytes32 document, bool _exposed)\n        external\n        onlyAdmins(document)\n        returns (bool)\n    {\n        permissions[document].exposed = _exposed;\n        emit Permission(document);\n        return true;\n    }\n\n    function addUser(bytes32 document, address newUser)\n        external\n        onlyAdmins(document)\n        returns (bool)\n    {\n        permissions[document].users.push(newUser);\n        emit Permission(document);\n        return true;\n    }\n\n    function removePermission(bytes32 document)\n        external\n        onlyAdmins(document)\n        returns (bool)\n    {\n        delete permissions[document];\n        emit Permission(document);\n        return true;\n    }\n\n    function permission(bytes32 document, address[] calldata _users)\n        external\n        returns (bool)\n    {\n        require(\n            permissions[document].admin == address(0) || _isAdmin(document),\n            \"You have to be admin or owner to change permissions.\"\n        );\n        permissions[document].admin = _msgSender();\n        permissions[document].users = _users;\n        emit Permission(document);\n        return true;\n    }\n\n    function checkPermissions(address user, bytes32 document)\n        public\n        view\n        override\n        returns (bool)\n    {\n        if (!_isInitialized(document)) {\n            return false;\n        }\n        \n        if (permissions[document].exposed) {\n            return true;\n        }\n\n        address[] storage users = permissions[document].users;\n        for (uint i = 0; i < users.length; i++) {\n            if (users[i] == user)\n                return true;\n        }\n        return false;\n    }\n\n    function getAdmin(bytes32 document) public view returns (address) {\n        return permissions[document].admin;\n    }\n\n    function getUsers(bytes32 document) public view returns (address[] memory) {\n        return permissions[document].users;\n    }\n\n    function isExposed(bytes32 document) public view returns (bool) {\n        return permissions[document].exposed;\n    }\n\n    function _isAdmin(bytes32 document) internal view returns (bool) {\n        return (permissions[document].admin == _msgSender() || owner() == _msgSender());\n    }\n\n    function _isInitialized(bytes32 document) internal view returns (bool) {\n        return (permissions[document].admin != address(0));\n    }\n}\n",
  "sourcePath": "/home/aznagy/work/secretstore/secretstore-contracts/contracts/PermissioningRegistry.sol",
  "compiler": {
    "name": "solc",
    "version": "0.6.5+commit.f956cc89.Emscripten.clang"
  },
  "schemaVersion": "3.0.23",
  "updatedAt": "2020-05-05T10:05:20.718Z",
  "networkType": "ethereum",
  "devdoc": {
    "methods": {
      "owner()": {
        "details": "Returns the address of the current owner."
      },
      "renounceOwnership()": {
        "details": "Leaves the contract without owner. It will not be possible to call `onlyOwner` functions anymore. Can only be called by the current owner.     * NOTE: Renouncing ownership will leave the contract without an owner, thereby removing any functionality that is only available to the owner."
      },
      "supportsInterface(bytes4)": {
        "details": "See {IERC165-supportsInterface}.     * Time complexity O(1), guaranteed to always use less than 30 000 gas."
      },
      "transferOwnership(address)": {
        "details": "Transfers ownership of the contract to a new account (`newOwner`). Can only be called by the current owner."
      }
    }
  },
  "userdoc": {
    "methods": {}
  }
}