{
  "contractName": "PermissioningNoDoc",
  "abi": [
    {
      "inputs": [
        {
          "internalType": "address[]",
          "name": "_addresses",
          "type": "address[]"
        }
      ],
      "stateMutability": "nonpayable",
      "type": "constructor"
    },
    {
      "inputs": [
        {
          "internalType": "uint256",
          "name": "",
          "type": "uint256"
        }
      ],
      "name": "addresses",
      "outputs": [
        {
          "internalType": "address",
          "name": "",
          "type": "address"
        }
      ],
      "stateMutability": "view",
      "type": "function"
    },
    {
      "inputs": [
        {
          "internalType": "address",
          "name": "user",
          "type": "address"
        },
        {
          "internalType": "bytes32",
          "name": "document",
          "type": "bytes32"
        }
      ],
      "name": "checkPermissions",
      "outputs": [
        {
          "internalType": "bool",
          "name": "",
          "type": "bool"
        }
      ],
      "stateMutability": "view",
      "type": "function"
    }
  ],
  "bytecode": "0x608060405234801561001057600080fd5b506040516103e73803806103e78339818101604052602081101561003357600080fd5b810190808051604051939291908464010000000082111561005357600080fd5b8382019150602082018581111561006957600080fd5b825186602082028301116401000000008211171561008657600080fd5b8083526020830192505050908051906020019060200280838360005b838110156100bd5780820151818401526020810190506100a2565b5050505090500160405250505080600090805190602001906100e09291906100e7565b50506101b4565b828054828255906000526020600020908101928215610160579160200282015b8281111561015f5782518260006101000a81548173ffffffffffffffffffffffffffffffffffffffff021916908373ffffffffffffffffffffffffffffffffffffffff16021790555091602001919060010190610107565b5b50905061016d9190610171565b5090565b6101b191905b808211156101ad57600081816101000a81549073ffffffffffffffffffffffffffffffffffffffff021916905550600101610177565b5090565b90565b610224806101c36000396000f3fe608060405234801561001057600080fd5b50600436106100365760003560e01c8063b36a9a7c1461003b578063edf26d9b146100a1575b600080fd5b6100876004803603604081101561005157600080fd5b81019080803573ffffffffffffffffffffffffffffffffffffffff1690602001909291908035906020019092919050505061010f565b604051808215151515815260200191505060405180910390f35b6100cd600480360360208110156100b757600080fd5b81019080803590602001909291905050506101b2565b604051808273ffffffffffffffffffffffffffffffffffffffff1673ffffffffffffffffffffffffffffffffffffffff16815260200191505060405180910390f35b600080600090505b6000805490508110156101a6578373ffffffffffffffffffffffffffffffffffffffff166000828154811061014857fe5b9060005260206000200160009054906101000a900473ffffffffffffffffffffffffffffffffffffffff1673ffffffffffffffffffffffffffffffffffffffff1614156101995760019150506101ac565b8080600101915050610117565b50600090505b92915050565b600081815481106101bf57fe5b906000526020600020016000915054906101000a900473ffffffffffffffffffffffffffffffffffffffff168156fea26469706673582212203a77e03af261419193d5ad56c686bd0b7888122691db4ff2eeb30b859729376564736f6c63430006050033",
  "source": "pragma solidity ^0.6.0;\n\nimport \"../interfaces/ISecretStorePermissioning.sol\";\n\n\n// Another fire-and-forget permissioning contract that gives\n// access to any address specified irrespective of the document key\n// Note: this was used in the original Private Transactions tutorial, but not really life-like\ncontract PermissioningNoDoc is ISecretStorePermissioning {\n    address[] public addresses;\n\n    constructor(address[] memory _addresses) public {\n        addresses = _addresses;\n    }\n\n    // We only check users\n    function checkPermissions(address user, bytes32 document)\n        public\n        view\n        override\n        returns (bool)\n    {\n        for (uint i = 0; i < addresses.length; i++) {\n            if (addresses[i] == user) {\n                return true;\n            }\n        }\n        return false;\n    }\n}\n",
  "sourcePath": "/home/aznagy/work/secretstore/secretstore-contracts/contracts/simplepermissioning/PermissioningNoDoc.sol",
  "compiler": {
    "name": "solc",
    "version": "0.6.5+commit.f956cc89.Emscripten.clang"
  },
  "schemaVersion": "3.0.23",
  "updatedAt": "2020-04-08T13:26:56.097Z",
  "devdoc": {
    "methods": {}
  },
  "userdoc": {
    "methods": {}
  }
}