{
  "contractName": "PermissionerFireAndForget",
  "abi": [
    {
      "constant": true,
      "inputs": [],
      "name": "documentKeyId",
      "outputs": [
        {
          "name": "",
          "type": "bytes32"
        }
      ],
      "payable": false,
      "stateMutability": "view",
      "type": "function"
    },
    {
      "constant": true,
      "inputs": [
        {
          "name": "",
          "type": "uint256"
        }
      ],
      "name": "addresses",
      "outputs": [
        {
          "name": "",
          "type": "address"
        }
      ],
      "payable": false,
      "stateMutability": "view",
      "type": "function"
    },
    {
      "inputs": [
        {
          "name": "docKeyId",
          "type": "bytes32"
        },
        {
          "name": "_addresses",
          "type": "address[]"
        }
      ],
      "payable": false,
      "stateMutability": "nonpayable",
      "type": "constructor"
    },
    {
      "constant": true,
      "inputs": [
        {
          "name": "user",
          "type": "address"
        },
        {
          "name": "document",
          "type": "bytes32"
        }
      ],
      "name": "checkPermissions",
      "outputs": [
        {
          "name": "",
          "type": "bool"
        }
      ],
      "payable": false,
      "stateMutability": "view",
      "type": "function"
    }
  ],
  "bytecode": "0x608060405234801561001057600080fd5b506040516102ea3803806102ea833981016040528051602080830151600083905590920180519192909161004a9160019190840190610052565b5050506100de565b8280548282559060005260206000209081019282156100a7579160200282015b828111156100a75782518254600160a060020a031916600160a060020a03909116178255602090920191600190910190610072565b506100b39291506100b7565b5090565b6100db91905b808211156100b3578054600160a060020a03191681556001016100bd565b90565b6101fd806100ed6000396000f3006080604052600436106100565763ffffffff7c010000000000000000000000000000000000000000000000000000000060003504166346af6cb2811461005b578063b36a9a7c14610082578063edf26d9b146100c7575b600080fd5b34801561006757600080fd5b50610070610108565b60408051918252519081900360200190f35b34801561008e57600080fd5b506100b373ffffffffffffffffffffffffffffffffffffffff6004351660243561010e565b604080519115158252519081900360200190f35b3480156100d357600080fd5b506100df60043561019c565b6040805173ffffffffffffffffffffffffffffffffffffffff9092168252519081900360200190f35b60005481565b60008054819083146101235760009150610195565b5060005b600154811015610190578373ffffffffffffffffffffffffffffffffffffffff1660018281548110151561015757fe5b60009182526020909120015473ffffffffffffffffffffffffffffffffffffffff1614156101885760019150610195565b600101610127565b600091505b5092915050565b60018054829081106101aa57fe5b60009182526020909120015473ffffffffffffffffffffffffffffffffffffffff169050815600a165627a7a72305820b2c1d482c77ea15117637d1fe8dbe45dca80b4e2b28c62e3d77827be2c0767af0029",
  "source": "pragma solidity ^0.4.24;\n\nimport \"./SecretStorePermissioner.sol\";\n\n// FIre-and-forget permissioning contract for one document key\n// Allows you to specify a doc key and permitted addresses in the constructor\ncontract PermissionerFireAndForget is SecretStorePermissioner {\n    bytes32 public documentKeyId;\n    address[] public addresses;\n\n    constructor(bytes32 docKeyId, address[] _addresses) public {\n        documentKeyId = docKeyId;\n        addresses = _addresses;\n    }\n\n    function checkPermissions(address user, bytes32 document) public view returns (bool) {\n        if (document != documentKeyId) return false;\n\n        for (uint i = 0; i < addresses.length; i++) {\n            if (addresses[i] == user) return true;\n        }\n        \n        return false;\n    }\n}",
  "sourcePath": "/home/aznagy/work/secretstore/secretstore-contracts/contracts/PermissionerFireAndForget.sol",
  "compiler": {
    "name": "solc",
    "version": "0.4.24+commit.e67f0147.Emscripten.clang"
  },
  "schemaVersion": "2.0.1",
  "updatedAt": "2018-12-03T12:48:33.903Z"
}