{
  "contractName": "PermissioningRegistry",
  "abi": [
    {
      "constant": true,
      "inputs": [
        {
          "name": "interfaceId",
          "type": "bytes4"
        }
      ],
      "name": "supportsInterface",
      "outputs": [
        {
          "name": "",
          "type": "bool"
        }
      ],
      "payable": false,
      "stateMutability": "view",
      "type": "function"
    },
    {
      "constant": false,
      "inputs": [],
      "name": "renounceOwnership",
      "outputs": [],
      "payable": false,
      "stateMutability": "nonpayable",
      "type": "function"
    },
    {
      "constant": true,
      "inputs": [],
      "name": "owner",
      "outputs": [
        {
          "name": "",
          "type": "address"
        }
      ],
      "payable": false,
      "stateMutability": "view",
      "type": "function"
    },
    {
      "constant": true,
      "inputs": [],
      "name": "isOwner",
      "outputs": [
        {
          "name": "",
          "type": "bool"
        }
      ],
      "payable": false,
      "stateMutability": "view",
      "type": "function"
    },
    {
      "constant": true,
      "inputs": [
        {
          "name": "",
          "type": "bytes32"
        }
      ],
      "name": "permissions",
      "outputs": [
        {
          "name": "admin",
          "type": "address"
        },
        {
          "name": "exposed",
          "type": "bool"
        }
      ],
      "payable": false,
      "stateMutability": "view",
      "type": "function"
    },
    {
      "constant": false,
      "inputs": [
        {
          "name": "newOwner",
          "type": "address"
        }
      ],
      "name": "transferOwnership",
      "outputs": [],
      "payable": false,
      "stateMutability": "nonpayable",
      "type": "function"
    },
    {
      "inputs": [],
      "payable": false,
      "stateMutability": "nonpayable",
      "type": "constructor"
    },
    {
      "anonymous": false,
      "inputs": [
        {
          "indexed": false,
          "name": "document",
          "type": "bytes32"
        }
      ],
      "name": "NewAdmin",
      "type": "event"
    },
    {
      "anonymous": false,
      "inputs": [
        {
          "indexed": false,
          "name": "document",
          "type": "bytes32"
        }
      ],
      "name": "Permission",
      "type": "event"
    },
    {
      "anonymous": false,
      "inputs": [
        {
          "indexed": true,
          "name": "previousOwner",
          "type": "address"
        },
        {
          "indexed": true,
          "name": "newOwner",
          "type": "address"
        }
      ],
      "name": "OwnershipTransferred",
      "type": "event"
    },
    {
      "constant": false,
      "inputs": [
        {
          "name": "document",
          "type": "bytes32"
        },
        {
          "name": "newAdmin",
          "type": "address"
        }
      ],
      "name": "setAdmin",
      "outputs": [
        {
          "name": "",
          "type": "bool"
        }
      ],
      "payable": false,
      "stateMutability": "nonpayable",
      "type": "function"
    },
    {
      "constant": false,
      "inputs": [
        {
          "name": "document",
          "type": "bytes32"
        },
        {
          "name": "_users",
          "type": "address[]"
        }
      ],
      "name": "setUsers",
      "outputs": [
        {
          "name": "",
          "type": "bool"
        }
      ],
      "payable": false,
      "stateMutability": "nonpayable",
      "type": "function"
    },
    {
      "constant": false,
      "inputs": [
        {
          "name": "document",
          "type": "bytes32"
        },
        {
          "name": "_exposed",
          "type": "bool"
        }
      ],
      "name": "setExposed",
      "outputs": [
        {
          "name": "",
          "type": "bool"
        }
      ],
      "payable": false,
      "stateMutability": "nonpayable",
      "type": "function"
    },
    {
      "constant": false,
      "inputs": [
        {
          "name": "document",
          "type": "bytes32"
        },
        {
          "name": "newUser",
          "type": "address"
        }
      ],
      "name": "addUser",
      "outputs": [
        {
          "name": "",
          "type": "bool"
        }
      ],
      "payable": false,
      "stateMutability": "nonpayable",
      "type": "function"
    },
    {
      "constant": false,
      "inputs": [
        {
          "name": "document",
          "type": "bytes32"
        }
      ],
      "name": "removePermission",
      "outputs": [
        {
          "name": "",
          "type": "bool"
        }
      ],
      "payable": false,
      "stateMutability": "nonpayable",
      "type": "function"
    },
    {
      "constant": false,
      "inputs": [
        {
          "name": "document",
          "type": "bytes32"
        },
        {
          "name": "_users",
          "type": "address[]"
        }
      ],
      "name": "permission",
      "outputs": [
        {
          "name": "",
          "type": "bool"
        }
      ],
      "payable": false,
      "stateMutability": "nonpayable",
      "type": "function"
    },
    {
      "constant": true,
      "inputs": [
        {
          "name": "user",
          "type": "address"
        },
        {
          "name": "document",
          "type": "bytes32"
        }
      ],
      "name": "checkPermissions",
      "outputs": [
        {
          "name": "",
          "type": "bool"
        }
      ],
      "payable": false,
      "stateMutability": "view",
      "type": "function"
    },
    {
      "constant": true,
      "inputs": [
        {
          "name": "document",
          "type": "bytes32"
        }
      ],
      "name": "getAdmin",
      "outputs": [
        {
          "name": "",
          "type": "address"
        }
      ],
      "payable": false,
      "stateMutability": "view",
      "type": "function"
    },
    {
      "constant": true,
      "inputs": [
        {
          "name": "document",
          "type": "bytes32"
        }
      ],
      "name": "getUsers",
      "outputs": [
        {
          "name": "",
          "type": "address[]"
        }
      ],
      "payable": false,
      "stateMutability": "view",
      "type": "function"
    },
    {
      "constant": true,
      "inputs": [
        {
          "name": "document",
          "type": "bytes32"
        }
      ],
      "name": "isExposed",
      "outputs": [
        {
          "name": "",
          "type": "bool"
        }
      ],
      "payable": false,
      "stateMutability": "view",
      "type": "function"
    }
  ],
  "bytecode": "0x608060405234801561001057600080fd5b5060008054600160a060020a0319163317808255604051600160a060020a039190911691907f8be0079c531659141344cd1fd0a4f28419497f9722a3daafe3b4186f6b6457e0908290a361008c7f01ffc9a7000000000000000000000000000000000000000000000000000000006401000000006100f5810204565b6100be7fb36a9a7c000000000000000000000000000000000000000000000000000000006401000000006100f5810204565b6100f07f813ae5ed000000000000000000000000000000000000000000000000000000006401000000006100f5810204565b610164565b7fffffffff00000000000000000000000000000000000000000000000000000000808216141561012457600080fd5b7fffffffff00000000000000000000000000000000000000000000000000000000166000908152600160208190526040909120805460ff19169091179055565b610d45806101736000396000f3006080604052600436106100e55763ffffffff7c010000000000000000000000000000000000000000000000000000000060003504166301ffc9a781146100ea5780630f039de8146101355780634ccea5261461015957806365923cd1146101c1578063715018a6146101d95780637ffb5473146101f057806380c6e70a146102085780638170d8391461023c5780638da5cb5b146102605780638f32d59b14610275578063aa9c54261461028a578063b36a9a7c146102ae578063b4d2388f146102d2578063c29297471461030d578063ee4024db1461032a578063f2fde38b1461034e575b600080fd5b3480156100f657600080fd5b506101217bffffffffffffffffffffffffffffffffffffffffffffffffffffffff196004351661036f565b604080519115158252519081900360200190f35b34801561014157600080fd5b506101216004803590602480359081019101356103a3565b34801561016557600080fd5b506101716004356104a3565b60408051602080825283518183015283519192839290830191858101910280838360005b838110156101ad578181015183820152602001610195565b505050509050019250505060405180910390f35b3480156101cd57600080fd5b5061012160043561050f565b3480156101e557600080fd5b506101ee6105d6565b005b3480156101fc57600080fd5b50610121600435610633565b34801561021457600080fd5b50610220600435610663565b60408051600160a060020a039092168252519081900360200190f35b34801561024857600080fd5b50610121600480359060248035908101910135610681565b34801561026c57600080fd5b5061022061072b565b34801561028157600080fd5b5061012161073b565b34801561029657600080fd5b50610121600435600160a060020a036024351661074c565b3480156102ba57600080fd5b50610121600160a060020a0360043516602435610815565b3480156102de57600080fd5b506102ea6004356108d9565b60408051600160a060020a03909316835290151560208301528051918290030190f35b34801561031957600080fd5b506101216004356024351515610914565b34801561033657600080fd5b50610121600435600160a060020a03602435166109ed565b34801561035a57600080fd5b506101ee600160a060020a0360043516610b1a565b7bffffffffffffffffffffffffffffffffffffffffffffffffffffffff191660009081526001602052604090205460ff1690565b600083815260026020526040812060010154600160a060020a031615806103ce57506103ce84610b39565b151561044a576040805160e560020a62461bcd02815260206004820152603460248201527f596f75206861766520746f2062652061646d696e206f72206f776e657220746f60448201527f206368616e6765207065726d697373696f6e732e000000000000000000000000606482015290519081900360840190fd5b6000848152600260205260409020600181018054600160a060020a03191633179055610477908484610bfa565b50604080518581529051600080516020610cda8339815191529181900360200190a15060019392505050565b60008181526002602090815260409182902080548351818402810184019094528084526060939283018282801561050357602002820191906000526020600020905b8154600160a060020a031681526001909101906020018083116104e5575b50505050509050919050565b60008161051b81610b39565b1515610573576040805160e560020a62461bcd02815260206004820152602c6024820152600080516020610cfa8339815191526044820152600080516020610cba833981519152606482015290519081900360840190fd5b60008381526002602052604081209061058c8282610c5d565b50600101805474ffffffffffffffffffffffffffffffffffffffffff19169055604080518481529051600080516020610cda8339815191529181900360200190a150600192915050565b6105de61073b565b15156105e957600080fd5b60008054604051600160a060020a03909116907f8be0079c531659141344cd1fd0a4f28419497f9722a3daafe3b4186f6b6457e0908390a360008054600160a060020a0319169055565b60009081526002602052604090206001015474010000000000000000000000000000000000000000900460ff1690565b600090815260026020526040902060010154600160a060020a031690565b60008361068d81610b39565b15156106e5576040805160e560020a62461bcd02815260206004820152602c6024820152600080516020610cfa8339815191526044820152600080516020610cba833981519152606482015290519081900360840190fd5b60008581526002602052604090206106fe908585610bfa565b50604080518681529051600080516020610cda8339815191529181900360200190a1506001949350505050565b600054600160a060020a03165b90565b600054600160a060020a0316331490565b60008261075881610b39565b15156107b0576040805160e560020a62461bcd02815260206004820152602c6024820152600080516020610cfa8339815191526044820152600080516020610cba833981519152606482015290519081900360840190fd5b60008481526002602090815260408083208054600181018255908452928290209092018054600160a060020a031916600160a060020a03871617905581518681529151600080516020610cda8339815191529281900390910190a15060019392505050565b600080600061082384610b6a565b151561083257600092506108d1565b60008481526002602052604090206001015474010000000000000000000000000000000000000000900460ff161561086d57600192506108d1565b50506000828152600260205260408120905b81548110156108cc5784600160a060020a031682828154811015156108a057fe5b600091825260209091200154600160a060020a031614156108c457600192506108d1565b60010161087f565b600092505b505092915050565b600260205260009081526040902060010154600160a060020a0381169074010000000000000000000000000000000000000000900460ff1682565b60008261092081610b39565b1515610978576040805160e560020a62461bcd02815260206004820152602c6024820152600080516020610cfa8339815191526044820152600080516020610cba833981519152606482015290519081900360840190fd5b600084815260026020908152604091829020600101805474ff00000000000000000000000000000000000000001916740100000000000000000000000000000000000000008715150217905581518681529151600080516020610cda8339815191529281900390910190a15060019392505050565b6000826109f981610b39565b1515610a51576040805160e560020a62461bcd02815260206004820152602c6024820152600080516020610cfa8339815191526044820152600080516020610cba833981519152606482015290519081900360840190fd5b600160a060020a0383161515610ab1576040805160e560020a62461bcd02815260206004820181905260248201527f4e65772061646d696e20616464726573732063616e6e6f74206265203078302e604482015290519081900360640190fd5b6000848152600260209081526040918290206001018054600160a060020a031916600160a060020a038716179055815186815291517f9c38d9bf66f47815dd90b1c5c80b0138365b0f232c260374041f97909b7014659281900390910190a15060019392505050565b610b2261073b565b1515610b2d57600080fd5b610b3681610b8a565b50565b600081815260026020526040812060010154600160a060020a0316331480610b645750610b6461073b565b92915050565b600090815260026020526040902060010154600160a060020a0316151590565b600160a060020a0381161515610b9f57600080fd5b60008054604051600160a060020a03808516939216917f8be0079c531659141344cd1fd0a4f28419497f9722a3daafe3b4186f6b6457e091a360008054600160a060020a031916600160a060020a0392909216919091179055565b828054828255906000526020600020908101928215610c4d579160200282015b82811115610c4d578154600160a060020a031916600160a060020a03843516178255602090920191600190910190610c1a565b50610c59929150610c7b565b5090565b5080546000825590600052602060002090810190610b369190610c9f565b61073891905b80821115610c59578054600160a060020a0319168155600101610c81565b61073891905b80821115610c595760008155600101610ca55600696e206f72206f776e65722e00000000000000000000000000000000000000001cc9fc44b401f3c62bc063fa96b96115b72c6c810c4cb13745eeb6e173d5ffe543616c6c65722068617320746f206265207468652063757272656e742061646da165627a7a723058208dc184619031cf566f6563ea178e1edfcf785c55f73f2204c64ef11c416535bb0029",
  "source": "pragma solidity ^0.4.24;\n\nimport \"./interfaces/ISecretStorePermissioning.sol\";\nimport \"openzeppelin-solidity/contracts/ownership/Ownable.sol\";\nimport \"openzeppelin-solidity/contracts/introspection/ERC165.sol\";\n\n\ncontract PermissioningRegistry is ISecretStorePermissioning, Ownable, ERC165 {\n\n    struct PermissionEntry {\n        address[] users;\n        address admin;\n        bool exposed;\n    }\n    \n    mapping(bytes32 => PermissionEntry) public permissions;\n\n    event NewAdmin(bytes32 document);\n    event Permission(bytes32 document);\n\n    modifier onlyAdmins(bytes32 document) {\n        require(_isAdmin(document), \"Caller has to be the current admin or owner.\");\n        _;\n    }\n\n    constructor() public {\n        // ERC 165 support\n        _registerInterface(this.checkPermissions.selector);\n        _registerInterface(\n            this.owner.selector\n            ^ this.isOwner.selector\n            ^ this.renounceOwnership.selector\n            ^ this.transferOwnership.selector\n        );\n    }\n\n    function setAdmin(bytes32 document, address newAdmin) external onlyAdmins(document) returns (bool) {\n        require(newAdmin != address(0), \"New admin address cannot be 0x0.\");\n        permissions[document].admin = newAdmin;\n        emit NewAdmin(document);\n        return true;\n    }\n\n    function setUsers(bytes32 document, address[] _users) external onlyAdmins(document) returns (bool) {\n        permissions[document].users = _users;\n        emit Permission(document);\n        return true;\n    }\n\n    function setExposed(bytes32 document, bool _exposed) external onlyAdmins(document) returns (bool) {\n        permissions[document].exposed = _exposed;\n        emit Permission(document);\n        return true;\n    }\n\n    function addUser(bytes32 document, address newUser) external onlyAdmins(document) returns (bool) {\n        permissions[document].users.push(newUser);\n        emit Permission(document);\n        return true;\n    }\n\n    function removePermission(bytes32 document) external onlyAdmins(document) returns (bool) {\n        delete permissions[document];\n        emit Permission(document);\n        return true;\n    }\n\n    function permission(bytes32 document, address[] _users) external returns (bool) {\n        require(\n            permissions[document].admin == address(0) || _isAdmin(document),\n            \"You have to be admin or owner to change permissions.\"\n        );\n        permissions[document].admin = msg.sender;\n        permissions[document].users = _users;\n        emit Permission(document);\n        return true;\n    }\n\n    function checkPermissions(address user, bytes32 document) public view returns (bool) {\n        if (!_isInitialized(document)) {\n            return false;\n        }\n        \n        if (permissions[document].exposed) {\n            return true;\n        }\n\n        address[] storage users = permissions[document].users;\n        for (uint i = 0; i < users.length; i++) {\n            if (users[i] == user)\n                return true;\n        }\n        return false;\n    }\n\n    function getAdmin(bytes32 document) public view returns (address) {\n        return permissions[document].admin;\n    }\n\n    function getUsers(bytes32 document) public view returns (address[]) {\n        return permissions[document].users;\n    }\n\n    function isExposed(bytes32 document) public view returns (bool) {\n        return permissions[document].exposed;\n    }\n\n    function _isAdmin(bytes32 document) internal view returns (bool) {\n        return (permissions[document].admin == msg.sender || isOwner());\n    }\n\n    function _isInitialized(bytes32 document) internal view returns (bool) {\n        return (permissions[document].admin != address(0));\n    }\n}",
  "sourcePath": "/home/aznagy/work/secretstore/secretstore-contracts/contracts/PermissioningRegistry.sol",
  "compiler": {
    "name": "solc",
    "version": "0.4.24+commit.e67f0147.Emscripten.clang"
  },
  "schemaVersion": "2.0.1",
  "updatedAt": "2019-01-17T13:02:00.902Z"
}