{
  "contractName": "PermissioningRelay",
  "abi": [
    {
      "inputs": [
        {
          "internalType": "address",
          "name": "_erc165Query",
          "type": "address"
        },
        {
          "internalType": "address",
          "name": "_permissioningContract",
          "type": "address"
        }
      ],
      "stateMutability": "nonpayable",
      "type": "constructor"
    },
    {
      "anonymous": false,
      "inputs": [
        {
          "indexed": true,
          "internalType": "address",
          "name": "newPermissioningContract",
          "type": "address"
        }
      ],
      "name": "NewPermissioningContract",
      "type": "event"
    },
    {
      "anonymous": false,
      "inputs": [
        {
          "indexed": true,
          "internalType": "address",
          "name": "previousOwner",
          "type": "address"
        },
        {
          "indexed": true,
          "internalType": "address",
          "name": "newOwner",
          "type": "address"
        }
      ],
      "name": "OwnershipTransferred",
      "type": "event"
    },
    {
      "inputs": [],
      "name": "erc165Query",
      "outputs": [
        {
          "internalType": "contract IERC165Query",
          "name": "",
          "type": "address"
        }
      ],
      "stateMutability": "view",
      "type": "function"
    },
    {
      "inputs": [
        {
          "internalType": "uint256",
          "name": "",
          "type": "uint256"
        }
      ],
      "name": "oldPermissioningContracts",
      "outputs": [
        {
          "internalType": "address",
          "name": "",
          "type": "address"
        }
      ],
      "stateMutability": "view",
      "type": "function"
    },
    {
      "inputs": [],
      "name": "owner",
      "outputs": [
        {
          "internalType": "address",
          "name": "",
          "type": "address"
        }
      ],
      "stateMutability": "view",
      "type": "function"
    },
    {
      "inputs": [],
      "name": "permissioningContract",
      "outputs": [
        {
          "internalType": "contract ISecretStorePermissioning",
          "name": "",
          "type": "address"
        }
      ],
      "stateMutability": "view",
      "type": "function"
    },
    {
      "inputs": [],
      "name": "renounceOwnership",
      "outputs": [],
      "stateMutability": "nonpayable",
      "type": "function"
    },
    {
      "inputs": [
        {
          "internalType": "bytes4",
          "name": "interfaceId",
          "type": "bytes4"
        }
      ],
      "name": "supportsInterface",
      "outputs": [
        {
          "internalType": "bool",
          "name": "",
          "type": "bool"
        }
      ],
      "stateMutability": "view",
      "type": "function"
    },
    {
      "inputs": [
        {
          "internalType": "address",
          "name": "newOwner",
          "type": "address"
        }
      ],
      "name": "transferOwnership",
      "outputs": [],
      "stateMutability": "nonpayable",
      "type": "function"
    },
    {
      "inputs": [
        {
          "internalType": "address",
          "name": "user",
          "type": "address"
        },
        {
          "internalType": "bytes32",
          "name": "document",
          "type": "bytes32"
        }
      ],
      "name": "checkPermissions",
      "outputs": [
        {
          "internalType": "bool",
          "name": "",
          "type": "bool"
        }
      ],
      "stateMutability": "view",
      "type": "function"
    },
    {
      "inputs": [
        {
          "internalType": "address",
          "name": "_newContract",
          "type": "address"
        }
      ],
      "name": "setPermissioningContract",
      "outputs": [
        {
          "internalType": "address",
          "name": "",
          "type": "address"
        }
      ],
      "stateMutability": "nonpayable",
      "type": "function"
    },
    {
      "inputs": [
        {
          "internalType": "address",
          "name": "_newContract",
          "type": "address"
        }
      ],
      "name": "setERC165Query",
      "outputs": [
        {
          "internalType": "address",
          "name": "",
          "type": "address"
        }
      ],
      "stateMutability": "nonpayable",
      "type": "function"
    }
  ],
  "bytecode": "0x60806040523480156200001157600080fd5b506040516200179c3803806200179c833981810160405260408110156200003757600080fd5b8101908080519060200190929190805190602001909291905050506000620000646200031960201b60201c565b9050806000806101000a81548173ffffffffffffffffffffffffffffffffffffffff021916908373ffffffffffffffffffffffffffffffffffffffff1602179055508073ffffffffffffffffffffffffffffffffffffffff16600073ffffffffffffffffffffffffffffffffffffffff167f8be0079c531659141344cd1fd0a4f28419497f9722a3daafe3b4186f6b6457e060405160405180910390a3506200011a6301ffc9a760e01b6200032160201b60201c565b600073ffffffffffffffffffffffffffffffffffffffff168273ffffffffffffffffffffffffffffffffffffffff161415620001a2576040517f08c379a000000000000000000000000000000000000000000000000000000000815260040180806020018281038252602d8152602001806200170d602d913960400191505060405180910390fd5b81600460006101000a81548173ffffffffffffffffffffffffffffffffffffffff021916908373ffffffffffffffffffffffffffffffffffffffff160217905550620001f4816200042a60201b60201c565b6200024b576040517f08c379a00000000000000000000000000000000000000000000000000000000081526004018080602001828103825260628152602001806200173a6062913960800191505060405180910390fd5b6200026363b36a9a7c60e01b6200032160201b60201c565b6200028d63f2fde38b60e01b63715018a660e01b638da5cb5b60e01b18186200032160201b60201c565b80600260006101000a81548173ffffffffffffffffffffffffffffffffffffffff021916908373ffffffffffffffffffffffffffffffffffffffff1602179055508073ffffffffffffffffffffffffffffffffffffffff167f22e20df36014b0dba740cae4cec1ad9e418baa8a640398267ab275f9add267b760405160405180910390a250506200055d565b600033905090565b63ffffffff60e01b817bffffffffffffffffffffffffffffffffffffffffffffffffffffffff19161415620003be576040517f08c379a000000000000000000000000000000000000000000000000000000000815260040180806020018281038252601c8152602001807f4552433136353a20696e76616c696420696e746572666163652069640000000081525060200191505060405180910390fd5b6001806000837bffffffffffffffffffffffffffffffffffffffffffffffffffffffff19167bffffffffffffffffffffffffffffffffffffffffffffffffffffffff1916815260200190815260200160002060006101000a81548160ff02191690831515021790555050565b6000600460009054906101000a900473ffffffffffffffffffffffffffffffffffffffff1673ffffffffffffffffffffffffffffffffffffffff1663e9c543848363b36a9a7c60e01b6040518363ffffffff1660e01b8152600401808373ffffffffffffffffffffffffffffffffffffffff1673ffffffffffffffffffffffffffffffffffffffff168152602001827bffffffffffffffffffffffffffffffffffffffffffffffffffffffff19167bffffffffffffffffffffffffffffffffffffffffffffffffffffffff191681526020019250505060206040518083038186803b1580156200051957600080fd5b505afa1580156200052e573d6000803e3d6000fd5b505050506040513d60208110156200054557600080fd5b81019080805190602001909291905050509050919050565b6111a0806200056d6000396000f3fe608060405234801561001057600080fd5b506004361061009e5760003560e01c80638da5cb5b116100665780638da5cb5b1461024e578063b36a9a7c14610298578063cc5f4320146102fe578063ea3d2d7b14610348578063f2fde38b146103cc5761009e565b806301ffc9a7146100a35780633b5d195a146101085780633e707e4714610152578063715018a6146101d657806376bf6030146101e0575b600080fd5b6100ee600480360360208110156100b957600080fd5b8101908080357bffffffffffffffffffffffffffffffffffffffffffffffffffffffff19169060200190929190505050610410565b604051808215151515815260200191505060405180910390f35b610110610478565b604051808273ffffffffffffffffffffffffffffffffffffffff1673ffffffffffffffffffffffffffffffffffffffff16815260200191505060405180910390f35b6101946004803603602081101561016857600080fd5b81019080803573ffffffffffffffffffffffffffffffffffffffff16906020019092919050505061049e565b604051808273ffffffffffffffffffffffffffffffffffffffff1673ffffffffffffffffffffffffffffffffffffffff16815260200191505060405180910390f35b6101de610660565b005b61020c600480360360208110156101f657600080fd5b81019080803590602001909291905050506107e8565b604051808273ffffffffffffffffffffffffffffffffffffffff1673ffffffffffffffffffffffffffffffffffffffff16815260200191505060405180910390f35b610256610824565b604051808273ffffffffffffffffffffffffffffffffffffffff1673ffffffffffffffffffffffffffffffffffffffff16815260200191505060405180910390f35b6102e4600480360360408110156102ae57600080fd5b81019080803573ffffffffffffffffffffffffffffffffffffffff1690602001909291908035906020019092919050505061084d565b604051808215151515815260200191505060405180910390f35b610306610939565b604051808273ffffffffffffffffffffffffffffffffffffffff1673ffffffffffffffffffffffffffffffffffffffff16815260200191505060405180910390f35b61038a6004803603602081101561035e57600080fd5b81019080803573ffffffffffffffffffffffffffffffffffffffff16906020019092919050505061095f565b604051808273ffffffffffffffffffffffffffffffffffffffff1673ffffffffffffffffffffffffffffffffffffffff16815260200191505060405180910390f35b61040e600480360360208110156103e257600080fd5b81019080803573ffffffffffffffffffffffffffffffffffffffff169060200190929190505050610d04565b005b600060016000837bffffffffffffffffffffffffffffffffffffffffffffffffffffffff19167bffffffffffffffffffffffffffffffffffffffffffffffffffffffff1916815260200190815260200160002060009054906101000a900460ff169050919050565b600260009054906101000a900473ffffffffffffffffffffffffffffffffffffffff1681565b60006104a8610f11565b73ffffffffffffffffffffffffffffffffffffffff166000809054906101000a900473ffffffffffffffffffffffffffffffffffffffff1673ffffffffffffffffffffffffffffffffffffffff1614610569576040517f08c379a00000000000000000000000000000000000000000000000000000000081526004018080602001828103825260208152602001807f4f776e61626c653a2063616c6c6572206973206e6f7420746865206f776e657281525060200191505060405180910390fd5b600073ffffffffffffffffffffffffffffffffffffffff168273ffffffffffffffffffffffffffffffffffffffff1614156105ef576040517f08c379a000000000000000000000000000000000000000000000000000000000815260040180806020018281038252602d8152602001806110dc602d913960400191505060405180910390fd5b6000600460009054906101000a900473ffffffffffffffffffffffffffffffffffffffff16905082600460006101000a81548173ffffffffffffffffffffffffffffffffffffffff021916908373ffffffffffffffffffffffffffffffffffffffff16021790555080915050919050565b610668610f11565b73ffffffffffffffffffffffffffffffffffffffff166000809054906101000a900473ffffffffffffffffffffffffffffffffffffffff1673ffffffffffffffffffffffffffffffffffffffff1614610729576040517f08c379a00000000000000000000000000000000000000000000000000000000081526004018080602001828103825260208152602001807f4f776e61626c653a2063616c6c6572206973206e6f7420746865206f776e657281525060200191505060405180910390fd5b600073ffffffffffffffffffffffffffffffffffffffff166000809054906101000a900473ffffffffffffffffffffffffffffffffffffffff1673ffffffffffffffffffffffffffffffffffffffff167f8be0079c531659141344cd1fd0a4f28419497f9722a3daafe3b4186f6b6457e060405160405180910390a360008060006101000a81548173ffffffffffffffffffffffffffffffffffffffff021916908373ffffffffffffffffffffffffffffffffffffffff160217905550565b600381815481106107f557fe5b906000526020600020016000915054906101000a900473ffffffffffffffffffffffffffffffffffffffff1681565b60008060009054906101000a900473ffffffffffffffffffffffffffffffffffffffff16905090565b6000600260009054906101000a900473ffffffffffffffffffffffffffffffffffffffff1673ffffffffffffffffffffffffffffffffffffffff1663b36a9a7c84846040518363ffffffff1660e01b8152600401808373ffffffffffffffffffffffffffffffffffffffff1673ffffffffffffffffffffffffffffffffffffffff1681526020018281526020019250505060206040518083038186803b1580156108f657600080fd5b505afa15801561090a573d6000803e3d6000fd5b505050506040513d602081101561092057600080fd5b8101908080519060200190929190505050905092915050565b600460009054906101000a900473ffffffffffffffffffffffffffffffffffffffff1681565b6000610969610f11565b73ffffffffffffffffffffffffffffffffffffffff166000809054906101000a900473ffffffffffffffffffffffffffffffffffffffff1673ffffffffffffffffffffffffffffffffffffffff1614610a2a576040517f08c379a00000000000000000000000000000000000000000000000000000000081526004018080602001828103825260208152602001807f4f776e61626c653a2063616c6c6572206973206e6f7420746865206f776e657281525060200191505060405180910390fd5b8173ffffffffffffffffffffffffffffffffffffffff16600260009054906101000a900473ffffffffffffffffffffffffffffffffffffffff1673ffffffffffffffffffffffffffffffffffffffff161415610ad1576040517f08c379a000000000000000000000000000000000000000000000000000000000815260040180806020018281038252603e815260200180611070603e913960400191505060405180910390fd5b8173ffffffffffffffffffffffffffffffffffffffff163073ffffffffffffffffffffffffffffffffffffffff161415610b56576040517f08c379a000000000000000000000000000000000000000000000000000000000815260040180806020018281038252602e8152602001806110ae602e913960400191505060405180910390fd5b610b5f82610f19565b610bb4576040517f08c379a00000000000000000000000000000000000000000000000000000000081526004018080602001828103825260628152602001806111096062913960800191505060405180910390fd5b6003600260009054906101000a900473ffffffffffffffffffffffffffffffffffffffff169080600181540180825580915050600190039060005260206000200160009091909190916101000a81548173ffffffffffffffffffffffffffffffffffffffff021916908373ffffffffffffffffffffffffffffffffffffffff16021790555081600260006101000a81548173ffffffffffffffffffffffffffffffffffffffff021916908373ffffffffffffffffffffffffffffffffffffffff1602179055508173ffffffffffffffffffffffffffffffffffffffff167f22e20df36014b0dba740cae4cec1ad9e418baa8a640398267ab275f9add267b760405160405180910390a2600360016003805490500381548110610cd257fe5b9060005260206000200160009054906101000a900473ffffffffffffffffffffffffffffffffffffffff169050919050565b610d0c610f11565b73ffffffffffffffffffffffffffffffffffffffff166000809054906101000a900473ffffffffffffffffffffffffffffffffffffffff1673ffffffffffffffffffffffffffffffffffffffff1614610dcd576040517f08c379a00000000000000000000000000000000000000000000000000000000081526004018080602001828103825260208152602001807f4f776e61626c653a2063616c6c6572206973206e6f7420746865206f776e657281525060200191505060405180910390fd5b600073ffffffffffffffffffffffffffffffffffffffff168173ffffffffffffffffffffffffffffffffffffffff161415610e53576040517f08c379a000000000000000000000000000000000000000000000000000000000815260040180806020018281038252602681526020018061104a6026913960400191505060405180910390fd5b8073ffffffffffffffffffffffffffffffffffffffff166000809054906101000a900473ffffffffffffffffffffffffffffffffffffffff1673ffffffffffffffffffffffffffffffffffffffff167f8be0079c531659141344cd1fd0a4f28419497f9722a3daafe3b4186f6b6457e060405160405180910390a3806000806101000a81548173ffffffffffffffffffffffffffffffffffffffff021916908373ffffffffffffffffffffffffffffffffffffffff16021790555050565b600033905090565b6000600460009054906101000a900473ffffffffffffffffffffffffffffffffffffffff1673ffffffffffffffffffffffffffffffffffffffff1663e9c543848363b36a9a7c60e01b6040518363ffffffff1660e01b8152600401808373ffffffffffffffffffffffffffffffffffffffff1673ffffffffffffffffffffffffffffffffffffffff168152602001827bffffffffffffffffffffffffffffffffffffffffffffffffffffffff19167bffffffffffffffffffffffffffffffffffffffffffffffffffffffff191681526020019250505060206040518083038186803b15801561100757600080fd5b505afa15801561101b573d6000803e3d6000fd5b505050506040513d602081101561103157600080fd5b8101908080519060200190929190505050905091905056fe4f776e61626c653a206e6577206f776e657220697320746865207a65726f20616464726573734e6577207065726d697373696f6e696e6720636f6e74726163742061646472657373206973207468652073616d6520617320746865206f6c64206f6e652e4e6577207065726d697373696f6e696e6720636f6e74726163742063616e6e6f742062652074686973206f6e652e4552432031363520517565727920636f6e747261637420616464726573732063616e6e6f74206265203078302e50726f766964656420636f6e747261637420646f6573206e6f7420696d706c656d656e74207468652027636865636b5065726d697373696f6e73272066756e6374696f6e2c206f7220646f6573206e6f7420737570706f7274204552432d3136352ea264697066735822122096b8afdf8473bb45618ba50b324851618efc0d2a40c3f6c0ae35c8fce8a53ac164736f6c634300060500334552432031363520517565727920636f6e747261637420616464726573732063616e6e6f74206265203078302e50726f766964656420636f6e747261637420646f6573206e6f7420696d706c656d656e74207468652027636865636b5065726d697373696f6e73272066756e6374696f6e2c206f7220646f6573206e6f7420737570706f7274204552432d3136352e",
  "source": "pragma solidity ^0.6.0;\n\nimport \"./ERC165Query.sol\";\nimport \"./interfaces/ISecretStorePermissioning.sol\";\nimport \"./interfaces/IERC165Query.sol\";\nimport \"@openzeppelin/contracts/access/Ownable.sol\";\nimport \"@openzeppelin/contracts/introspection/ERC165.sol\";\n\n\ncontract PermissioningRelay is ISecretStorePermissioning, Ownable, ERC165 {\n\n    ISecretStorePermissioning public permissioningContract;\n    address[] public oldPermissioningContracts;\n\n    IERC165Query public erc165Query;\n\n    event NewPermissioningContract(address indexed newPermissioningContract);\n\n    constructor(address _erc165Query, address _permissioningContract)\n        public\n    {\n        require(_erc165Query != address(0), \"ERC 165 Query contract address cannot be 0x0.\");\n        \n        erc165Query = IERC165Query(_erc165Query);\n\n        require(\n            _isValidPermissioning(_permissioningContract),\n            \"Provided contract does not implement the 'checkPermissions' function, or does not support ERC-165.\"\n        );\n\n        // ERC 165 support\n        _registerInterface(this.checkPermissions.selector);\n        _registerInterface(\n            this.owner.selector ^\n            this.renounceOwnership.selector ^\n            this.transferOwnership.selector\n        );\n\n        permissioningContract = ISecretStorePermissioning(_permissioningContract);\n        emit NewPermissioningContract(_permissioningContract);\n    }\n\n    function checkPermissions(address user, bytes32 document)\n        public\n        view\n        override\n        returns (bool)\n    {\n        return permissioningContract.checkPermissions(user, document);\n    }\n\n    function setPermissioningContract(address _newContract)\n        public\n        onlyOwner\n        returns (address)\n    {\n        require(\n            address(permissioningContract) != _newContract,\n            \"New permissioning contract address is the same as the old one.\"\n        );\n        require(address(this) != _newContract, \"New permissioning contract cannot be this one.\");\n        require(\n            _isValidPermissioning(_newContract),\n            \"Provided contract does not implement the 'checkPermissions' function, or does not support ERC-165.\"\n        );\n\n        oldPermissioningContracts.push(address(permissioningContract));\n        permissioningContract = ISecretStorePermissioning(_newContract);\n\n        emit NewPermissioningContract(_newContract);\n\n        return oldPermissioningContracts[oldPermissioningContracts.length-1];\n    }\n\n    function setERC165Query(address _newContract)\n        public\n        onlyOwner\n        returns (address)\n    {\n        require(_newContract != address(0), \"ERC 165 Query contract address cannot be 0x0.\");\n        address _old = address(erc165Query);\n        erc165Query = IERC165Query(_newContract);\n        return _old;\n    }\n\n    function _isValidPermissioning(address _contract)\n        internal\n        view\n        returns (bool)\n    {\n        return erc165Query.doesContractImplementInterface(\n            _contract,\n            this.checkPermissions.selector\n        );\n    }\n}\n",
  "sourcePath": "/home/aznagy/work/secretstore/secretstore-contracts/contracts/PermissioningRelay.sol",
  "compiler": {
    "name": "solc",
    "version": "0.6.5+commit.f956cc89.Emscripten.clang"
  },
  "schemaVersion": "3.0.23",
  "updatedAt": "2020-04-08T13:26:55.903Z",
  "devdoc": {
    "methods": {
      "owner()": {
        "details": "Returns the address of the current owner."
      },
      "renounceOwnership()": {
        "details": "Leaves the contract without owner. It will not be possible to call `onlyOwner` functions anymore. Can only be called by the current owner.     * NOTE: Renouncing ownership will leave the contract without an owner, thereby removing any functionality that is only available to the owner."
      },
      "supportsInterface(bytes4)": {
        "details": "See {IERC165-supportsInterface}.     * Time complexity O(1), guaranteed to always use less than 30 000 gas."
      },
      "transferOwnership(address)": {
        "details": "Transfers ownership of the contract to a new account (`newOwner`). Can only be called by the current owner."
      }
    }
  },
  "userdoc": {
    "methods": {}
  }
}