{
  "contractName": "PermissioningFireAndForget",
  "abi": [
    {
      "inputs": [
        {
          "internalType": "bytes32",
          "name": "docKeyId",
          "type": "bytes32"
        },
        {
          "internalType": "address[]",
          "name": "_addresses",
          "type": "address[]"
        }
      ],
      "stateMutability": "nonpayable",
      "type": "constructor"
    },
    {
      "inputs": [
        {
          "internalType": "uint256",
          "name": "",
          "type": "uint256"
        }
      ],
      "name": "addresses",
      "outputs": [
        {
          "internalType": "address",
          "name": "",
          "type": "address"
        }
      ],
      "stateMutability": "view",
      "type": "function"
    },
    {
      "inputs": [],
      "name": "documentKeyId",
      "outputs": [
        {
          "internalType": "bytes32",
          "name": "",
          "type": "bytes32"
        }
      ],
      "stateMutability": "view",
      "type": "function"
    },
    {
      "inputs": [
        {
          "internalType": "address",
          "name": "user",
          "type": "address"
        },
        {
          "internalType": "bytes32",
          "name": "document",
          "type": "bytes32"
        }
      ],
      "name": "checkPermissions",
      "outputs": [
        {
          "internalType": "bool",
          "name": "",
          "type": "bool"
        }
      ],
      "stateMutability": "view",
      "type": "function"
    }
  ],
  "bytecode": "0x608060405234801561001057600080fd5b506040516104393803806104398339818101604052604081101561003357600080fd5b81019080805190602001909291908051604051939291908464010000000082111561005d57600080fd5b8382019150602082018581111561007357600080fd5b825186602082028301116401000000008211171561009057600080fd5b8083526020830192505050908051906020019060200280838360005b838110156100c75780820151818401526020810190506100ac565b505050509050016040525050508160008190555080600190805190602001906100f19291906100f9565b5050506101c6565b828054828255906000526020600020908101928215610172579160200282015b828111156101715782518260006101000a81548173ffffffffffffffffffffffffffffffffffffffff021916908373ffffffffffffffffffffffffffffffffffffffff16021790555091602001919060010190610119565b5b50905061017f9190610183565b5090565b6101c391905b808211156101bf57600081816101000a81549073ffffffffffffffffffffffffffffffffffffffff021916905550600101610189565b5090565b90565b610264806101d56000396000f3fe608060405234801561001057600080fd5b50600436106100415760003560e01c806346af6cb214610046578063b36a9a7c14610064578063edf26d9b146100ca575b600080fd5b61004e610138565b6040518082815260200191505060405180910390f35b6100b06004803603604081101561007a57600080fd5b81019080803573ffffffffffffffffffffffffffffffffffffffff1690602001909291908035906020019092919050505061013e565b604051808215151515815260200191505060405180910390f35b6100f6600480360360208110156100e057600080fd5b81019080803590602001909291905050506101f2565b604051808273ffffffffffffffffffffffffffffffffffffffff1673ffffffffffffffffffffffffffffffffffffffff16815260200191505060405180910390f35b60005481565b60008054821461015157600090506101ec565b60008090505b6001805490508110156101e6578373ffffffffffffffffffffffffffffffffffffffff166001828154811061018857fe5b9060005260206000200160009054906101000a900473ffffffffffffffffffffffffffffffffffffffff1673ffffffffffffffffffffffffffffffffffffffff1614156101d95760019150506101ec565b8080600101915050610157565b50600090505b92915050565b600181815481106101ff57fe5b906000526020600020016000915054906101000a900473ffffffffffffffffffffffffffffffffffffffff168156fea26469706673582212206d004c8e8ebfcdc85331678897a1851fc907fb06fd85490086ed097709b3034b64736f6c63430006050033",
  "source": "pragma solidity ^0.6.0;\n\nimport \"../interfaces/ISecretStorePermissioning.sol\";\n\n\n// FIre-and-forget permissioning contract for one document key\n// Allows you to specify a doc key and permitted addresses in the constructor\ncontract PermissioningFireAndForget is ISecretStorePermissioning {\n    bytes32 public documentKeyId;\n    address[] public addresses;\n\n    constructor(bytes32 docKeyId, address[] memory _addresses)\n        public\n    {\n        documentKeyId = docKeyId;\n        addresses = _addresses;\n    }\n\n    function checkPermissions(address user, bytes32 document)\n        public\n        view\n        override\n        returns (bool) \n    {\n        if (document != documentKeyId)\n            return false;\n\n        for (uint i = 0; i < addresses.length; i++) {\n            if (addresses[i] == user)\n                return true;\n        }\n\n        return false;\n    }\n}\n",
  "sourcePath": "/home/aznagy/work/secretstore/secretstore-contracts/contracts/simplepermissioning/PermissioningFireAndForget.sol",
  "compiler": {
    "name": "solc",
    "version": "0.6.5+commit.f956cc89.Emscripten.clang"
  },
  "schemaVersion": "3.0.23",
  "updatedAt": "2020-04-08T13:26:56.095Z",
  "devdoc": {
    "methods": {}
  },
  "userdoc": {
    "methods": {}
  }
}