{
  "contractName": "PermissioningRegistryExtended",
  "abi": [
    {
      "inputs": [],
      "stateMutability": "nonpayable",
      "type": "constructor"
    },
    {
      "anonymous": false,
      "inputs": [
        {
          "indexed": true,
          "internalType": "bytes32",
          "name": "document",
          "type": "bytes32"
        }
      ],
      "name": "NewAdmin",
      "type": "event"
    },
    {
      "anonymous": false,
      "inputs": [
        {
          "indexed": true,
          "internalType": "address",
          "name": "previousOwner",
          "type": "address"
        },
        {
          "indexed": true,
          "internalType": "address",
          "name": "newOwner",
          "type": "address"
        }
      ],
      "name": "OwnershipTransferred",
      "type": "event"
    },
    {
      "anonymous": false,
      "inputs": [
        {
          "indexed": true,
          "internalType": "bytes32",
          "name": "document",
          "type": "bytes32"
        }
      ],
      "name": "Permission",
      "type": "event"
    },
    {
      "inputs": [
        {
          "internalType": "uint256",
          "name": "",
          "type": "uint256"
        }
      ],
      "name": "documents",
      "outputs": [
        {
          "internalType": "bytes32",
          "name": "",
          "type": "bytes32"
        }
      ],
      "stateMutability": "view",
      "type": "function"
    },
    {
      "inputs": [],
      "name": "owner",
      "outputs": [
        {
          "internalType": "address",
          "name": "",
          "type": "address"
        }
      ],
      "stateMutability": "view",
      "type": "function"
    },
    {
      "inputs": [
        {
          "internalType": "bytes32",
          "name": "",
          "type": "bytes32"
        }
      ],
      "name": "permissions",
      "outputs": [
        {
          "internalType": "uint256",
          "name": "id",
          "type": "uint256"
        },
        {
          "internalType": "address",
          "name": "admin",
          "type": "address"
        },
        {
          "internalType": "bool",
          "name": "exposed",
          "type": "bool"
        }
      ],
      "stateMutability": "view",
      "type": "function"
    },
    {
      "inputs": [],
      "name": "renounceOwnership",
      "outputs": [],
      "stateMutability": "nonpayable",
      "type": "function"
    },
    {
      "inputs": [
        {
          "internalType": "bytes4",
          "name": "interfaceId",
          "type": "bytes4"
        }
      ],
      "name": "supportsInterface",
      "outputs": [
        {
          "internalType": "bool",
          "name": "",
          "type": "bool"
        }
      ],
      "stateMutability": "view",
      "type": "function"
    },
    {
      "inputs": [
        {
          "internalType": "address",
          "name": "newOwner",
          "type": "address"
        }
      ],
      "name": "transferOwnership",
      "outputs": [],
      "stateMutability": "nonpayable",
      "type": "function"
    },
    {
      "inputs": [
        {
          "internalType": "bytes32",
          "name": "document",
          "type": "bytes32"
        },
        {
          "internalType": "address",
          "name": "newAdmin",
          "type": "address"
        }
      ],
      "name": "setAdmin",
      "outputs": [
        {
          "internalType": "bool",
          "name": "",
          "type": "bool"
        }
      ],
      "stateMutability": "nonpayable",
      "type": "function"
    },
    {
      "inputs": [
        {
          "internalType": "bytes32",
          "name": "document",
          "type": "bytes32"
        },
        {
          "internalType": "address[]",
          "name": "_users",
          "type": "address[]"
        }
      ],
      "name": "setUsers",
      "outputs": [
        {
          "internalType": "bool",
          "name": "",
          "type": "bool"
        }
      ],
      "stateMutability": "nonpayable",
      "type": "function"
    },
    {
      "inputs": [
        {
          "internalType": "bytes32",
          "name": "document",
          "type": "bytes32"
        },
        {
          "internalType": "bool",
          "name": "_exposed",
          "type": "bool"
        }
      ],
      "name": "setExposed",
      "outputs": [
        {
          "internalType": "bool",
          "name": "",
          "type": "bool"
        }
      ],
      "stateMutability": "nonpayable",
      "type": "function"
    },
    {
      "inputs": [
        {
          "internalType": "bytes32",
          "name": "document",
          "type": "bytes32"
        },
        {
          "internalType": "address",
          "name": "newUser",
          "type": "address"
        }
      ],
      "name": "addUser",
      "outputs": [
        {
          "internalType": "bool",
          "name": "",
          "type": "bool"
        }
      ],
      "stateMutability": "nonpayable",
      "type": "function"
    },
    {
      "inputs": [
        {
          "internalType": "bytes32",
          "name": "document",
          "type": "bytes32"
        }
      ],
      "name": "removePermission",
      "outputs": [
        {
          "internalType": "bool",
          "name": "",
          "type": "bool"
        }
      ],
      "stateMutability": "nonpayable",
      "type": "function"
    },
    {
      "inputs": [
        {
          "internalType": "bytes32",
          "name": "document",
          "type": "bytes32"
        },
        {
          "internalType": "address[]",
          "name": "_users",
          "type": "address[]"
        }
      ],
      "name": "permission",
      "outputs": [
        {
          "internalType": "bool",
          "name": "",
          "type": "bool"
        }
      ],
      "stateMutability": "nonpayable",
      "type": "function"
    },
    {
      "inputs": [
        {
          "internalType": "address",
          "name": "user",
          "type": "address"
        },
        {
          "internalType": "bytes32",
          "name": "document",
          "type": "bytes32"
        }
      ],
      "name": "checkPermissions",
      "outputs": [
        {
          "internalType": "bool",
          "name": "",
          "type": "bool"
        }
      ],
      "stateMutability": "view",
      "type": "function"
    },
    {
      "inputs": [
        {
          "internalType": "address",
          "name": "user",
          "type": "address"
        }
      ],
      "name": "availableKeys",
      "outputs": [
        {
          "internalType": "bytes32[]",
          "name": "",
          "type": "bytes32[]"
        }
      ],
      "stateMutability": "view",
      "type": "function"
    },
    {
      "inputs": [
        {
          "internalType": "bytes32",
          "name": "document",
          "type": "bytes32"
        }
      ],
      "name": "getAdmin",
      "outputs": [
        {
          "internalType": "address",
          "name": "",
          "type": "address"
        }
      ],
      "stateMutability": "view",
      "type": "function"
    },
    {
      "inputs": [
        {
          "internalType": "bytes32",
          "name": "document",
          "type": "bytes32"
        }
      ],
      "name": "getUsers",
      "outputs": [
        {
          "internalType": "address[]",
          "name": "",
          "type": "address[]"
        }
      ],
      "stateMutability": "view",
      "type": "function"
    },
    {
      "inputs": [
        {
          "internalType": "bytes32",
          "name": "document",
          "type": "bytes32"
        }
      ],
      "name": "isExposed",
      "outputs": [
        {
          "internalType": "bool",
          "name": "",
          "type": "bool"
        }
      ],
      "stateMutability": "view",
      "type": "function"
    }
  ],
  "bytecode": "0x60806040523480156200001157600080fd5b506000620000246200012b60201b60201c565b9050806000806101000a81548173ffffffffffffffffffffffffffffffffffffffff021916908373ffffffffffffffffffffffffffffffffffffffff1602179055508073ffffffffffffffffffffffffffffffffffffffff16600073ffffffffffffffffffffffffffffffffffffffff167f8be0079c531659141344cd1fd0a4f28419497f9722a3daafe3b4186f6b6457e060405160405180910390a350620000da6301ffc9a760e01b6200013360201b60201c565b620000fb63ac3188d260e01b63b36a9a7c60e01b186200013360201b60201c565b6200012563f2fde38b60e01b63715018a660e01b638da5cb5b60e01b18186200013360201b60201c565b6200023c565b600033905090565b63ffffffff60e01b817bffffffffffffffffffffffffffffffffffffffffffffffffffffffff19161415620001d0576040517f08c379a000000000000000000000000000000000000000000000000000000000815260040180806020018281038252601c8152602001807f4552433136353a20696e76616c696420696e746572666163652069640000000081525060200191505060405180910390fd5b6001806000837bffffffffffffffffffffffffffffffffffffffffffffffffffffffff19167bffffffffffffffffffffffffffffffffffffffffffffffffffffffff1916815260200190815260200160002060006101000a81548160ff02191690831515021790555050565b611ad6806200024c6000396000f3fe608060405234801561001057600080fd5b506004361061010b5760003560e01c80638da5cb5b116100a2578063b4d2388f11610071578063b4d2388f146105e1578063c292974714610661578063c2ed2b05146106b3578063ee4024db146106f5578063f2fde38b1461075b5761010b565b80638da5cb5b14610432578063aa9c54261461047c578063ac3188d2146104e2578063b36a9a7c1461057b5761010b565b8063715018a6116100de578063715018a6146102d95780637ffb5473146102e357806380c6e70a146103295780638170d839146103975761010b565b806301ffc9a7146101105780630f039de8146101755780634ccea5261461021057806365923cd114610293575b600080fd5b61015b6004803603602081101561012657600080fd5b8101908080357bffffffffffffffffffffffffffffffffffffffffffffffffffffffff1916906020019092919050505061079f565b604051808215151515815260200191505060405180910390f35b6101f66004803603604081101561018b57600080fd5b8101908080359060200190929190803590602001906401000000008111156101b257600080fd5b8201836020820111156101c457600080fd5b803590602001918460208302840111640100000000831117156101e657600080fd5b9091929391929390505050610807565b604051808215151515815260200191505060405180910390f35b61023c6004803603602081101561022657600080fd5b8101908080359060200190929190505050610a1c565b6040518080602001828103825283818151815260200191508051906020019060200280838360005b8381101561027f578082015181840152602081019050610264565b505050509050019250505060405180910390f35b6102bf600480360360208110156102a957600080fd5b8101908080359060200190929190505050610ac0565b604051808215151515815260200191505060405180910390f35b6102e1610c6b565b005b61030f600480360360208110156102f957600080fd5b8101908080359060200190929190505050610df3565b604051808215151515815260200191505060405180910390f35b6103556004803603602081101561033f57600080fd5b8101908080359060200190929190505050610e20565b604051808273ffffffffffffffffffffffffffffffffffffffff1673ffffffffffffffffffffffffffffffffffffffff16815260200191505060405180910390f35b610418600480360360408110156103ad57600080fd5b8101908080359060200190929190803590602001906401000000008111156103d457600080fd5b8201836020820111156103e657600080fd5b8035906020019184602083028401116401000000008311171561040857600080fd5b9091929391929390505050610e60565b604051808215151515815260200191505060405180910390f35b61043a610f20565b604051808273ffffffffffffffffffffffffffffffffffffffff1673ffffffffffffffffffffffffffffffffffffffff16815260200191505060405180910390f35b6104c86004803603604081101561049257600080fd5b8101908080359060200190929190803573ffffffffffffffffffffffffffffffffffffffff169060200190929190505050610f49565b604051808215151515815260200191505060405180910390f35b610524600480360360208110156104f857600080fd5b81019080803573ffffffffffffffffffffffffffffffffffffffff169060200190929190505050611059565b6040518080602001828103825283818151815260200191508051906020019060200280838360005b8381101561056757808201518184015260208101905061054c565b505050509050019250505060405180910390f35b6105c76004803603604081101561059157600080fd5b81019080803573ffffffffffffffffffffffffffffffffffffffff16906020019092919080359060200190929190505050611189565b604051808215151515815260200191505060405180910390f35b61060d600480360360208110156105f757600080fd5b810190808035906020019092919050505061128e565b604051808481526020018373ffffffffffffffffffffffffffffffffffffffff1673ffffffffffffffffffffffffffffffffffffffff16815260200182151515158152602001935050505060405180910390f35b6106996004803603604081101561067757600080fd5b81019080803590602001909291908035151590602001909291905050506112e5565b604051808215151515815260200191505060405180910390f35b6106df600480360360208110156106c957600080fd5b81019080803590602001909291905050506113ac565b6040518082815260200191505060405180910390f35b6107416004803603604081101561070b57600080fd5b8101908080359060200190929190803573ffffffffffffffffffffffffffffffffffffffff1690602001909291905050506113cd565b604051808215151515815260200191505060405180910390f35b61079d6004803603602081101561077157600080fd5b81019080803573ffffffffffffffffffffffffffffffffffffffff16906020019092919050505061155e565b005b600060016000837bffffffffffffffffffffffffffffffffffffffffffffffffffffffff19167bffffffffffffffffffffffffffffffffffffffffffffffffffffffff1916815260200190815260200160002060009054906101000a900460ff169050919050565b6000836108138161176b565b15610886576040517f08c379a00000000000000000000000000000000000000000000000000000000081526004018080602001828103825260208152602001807f5065726d697373696f6e20656e74727920616c7265616479206578697374732e81525060200191505060405180910390fd5b6002859080600181540180825580915050600190039060005260206000200160009091909190915055600060016002805490500390506040518060800160405280828152602001868680806020026020016040519081016040528093929190818152602001838360200280828437600081840152601f19601f82011690508083019250505050505050815260200161091c6117da565b73ffffffffffffffffffffffffffffffffffffffff168152602001600015158152506003600088815260200190815260200160002060008201518160000155602082015181600101908051906020019061097792919061189b565b5060408201518160020160006101000a81548173ffffffffffffffffffffffffffffffffffffffff021916908373ffffffffffffffffffffffffffffffffffffffff16021790555060608201518160020160146101000a81548160ff021916908315150217905550905050857f1cc9fc44b401f3c62bc063fa96b96115b72c6c810c4cb13745eeb6e173d5ffe560405160405180910390a26001925050509392505050565b606060036000838152602001908152602001600020600101805480602002602001604051908101604052809291908181526020018280548015610ab457602002820191906000526020600020905b8160009054906101000a900473ffffffffffffffffffffffffffffffffffffffff1673ffffffffffffffffffffffffffffffffffffffff1681526020019060010190808311610a6a575b50505050509050919050565b600081610acc816117e2565b610b21576040517f08c379a000000000000000000000000000000000000000000000000000000000815260040180806020018281038252602c815260200180611a75602c913960400191505060405180910390fd5b60006003600085815260200190815260200160002060000154905060036000858152602001908152602001600020600080820160009055600182016000610b689190611925565b6002820160006101000a81549073ffffffffffffffffffffffffffffffffffffffff02191690556002820160146101000a81549060ff02191690555050600260016002805490500381548110610bba57fe5b906000526020600020015460028281548110610bd257fe5b9060005260206000200181905550806003600060028481548110610bf257fe5b90600052602060002001548152602001908152602001600020600001819055506002805480610c1d57fe5b60019003818190600052602060002001600090559055837f1cc9fc44b401f3c62bc063fa96b96115b72c6c810c4cb13745eeb6e173d5ffe560405160405180910390a2600192505050919050565b610c736117da565b73ffffffffffffffffffffffffffffffffffffffff166000809054906101000a900473ffffffffffffffffffffffffffffffffffffffff1673ffffffffffffffffffffffffffffffffffffffff1614610d34576040517f08c379a00000000000000000000000000000000000000000000000000000000081526004018080602001828103825260208152602001807f4f776e61626c653a2063616c6c6572206973206e6f7420746865206f776e657281525060200191505060405180910390fd5b600073ffffffffffffffffffffffffffffffffffffffff166000809054906101000a900473ffffffffffffffffffffffffffffffffffffffff1673ffffffffffffffffffffffffffffffffffffffff167f8be0079c531659141344cd1fd0a4f28419497f9722a3daafe3b4186f6b6457e060405160405180910390a360008060006101000a81548173ffffffffffffffffffffffffffffffffffffffff021916908373ffffffffffffffffffffffffffffffffffffffff160217905550565b60006003600083815260200190815260200160002060020160149054906101000a900460ff169050919050565b60006003600083815260200190815260200160002060020160009054906101000a900473ffffffffffffffffffffffffffffffffffffffff169050919050565b600083610e6c816117e2565b610ec1576040517f08c379a000000000000000000000000000000000000000000000000000000000815260040180806020018281038252602c815260200180611a75602c913960400191505060405180910390fd5b8383600360008881526020019081526020016000206001019190610ee6929190611946565b50847f1cc9fc44b401f3c62bc063fa96b96115b72c6c810c4cb13745eeb6e173d5ffe560405160405180910390a260019150509392505050565b60008060009054906101000a900473ffffffffffffffffffffffffffffffffffffffff16905090565b600082610f55816117e2565b610faa576040517f08c379a000000000000000000000000000000000000000000000000000000000815260040180806020018281038252602c815260200180611a75602c913960400191505060405180910390fd5b60036000858152602001908152602001600020600101839080600181540180825580915050600190039060005260206000200160009091909190916101000a81548173ffffffffffffffffffffffffffffffffffffffff021916908373ffffffffffffffffffffffffffffffffffffffff160217905550837f1cc9fc44b401f3c62bc063fa96b96115b72c6c810c4cb13745eeb6e173d5ffe560405160405180910390a2600191505092915050565b6060600080905060008090505b6002805490508110156110af57611094846002838154811061108457fe5b9060005260206000200154611189565b156110a25781806001019250505b8080600101915050611066565b5060608167ffffffffffffffff811180156110c957600080fd5b506040519080825280602002602001820160405280156110f85781602001602082028036833780820191505090505b5090506000915060008090505b60028054905081101561117e57611133856002838154811061112357fe5b9060005260206000200154611189565b15611171576002818154811061114557fe5b906000526020600020015482848151811061115c57fe5b60200260200101818152505082806001019350505b8080600101915050611105565b508092505050919050565b60006111948261176b565b6111a15760009050611288565b6003600083815260200190815260200160002060020160149054906101000a900460ff16156111d35760019050611288565b600060036000848152602001908152602001600020600101905060008090505b8180549050811015611281578473ffffffffffffffffffffffffffffffffffffffff1682828154811061122257fe5b9060005260206000200160009054906101000a900473ffffffffffffffffffffffffffffffffffffffff1673ffffffffffffffffffffffffffffffffffffffff16141561127457600192505050611288565b80806001019150506111f3565b5060009150505b92915050565b60036020528060005260406000206000915090508060000154908060020160009054906101000a900473ffffffffffffffffffffffffffffffffffffffff16908060020160149054906101000a900460ff16905083565b6000826112f1816117e2565b611346576040517f08c379a000000000000000000000000000000000000000000000000000000000815260040180806020018281038252602c815260200180611a75602c913960400191505060405180910390fd5b826003600086815260200190815260200160002060020160146101000a81548160ff021916908315150217905550837f1cc9fc44b401f3c62bc063fa96b96115b72c6c810c4cb13745eeb6e173d5ffe560405160405180910390a2600191505092915050565b600281815481106113b957fe5b906000526020600020016000915090505481565b6000826113d9816117e2565b61142e576040517f08c379a000000000000000000000000000000000000000000000000000000000815260040180806020018281038252602c815260200180611a75602c913960400191505060405180910390fd5b600073ffffffffffffffffffffffffffffffffffffffff168373ffffffffffffffffffffffffffffffffffffffff1614156114d1576040517f08c379a00000000000000000000000000000000000000000000000000000000081526004018080602001828103825260208152602001807f4e65772061646d696e20616464726573732063616e6e6f74206265203078302e81525060200191505060405180910390fd5b826003600086815260200190815260200160002060020160006101000a81548173ffffffffffffffffffffffffffffffffffffffff021916908373ffffffffffffffffffffffffffffffffffffffff160217905550837f9c38d9bf66f47815dd90b1c5c80b0138365b0f232c260374041f97909b70146560405160405180910390a2600191505092915050565b6115666117da565b73ffffffffffffffffffffffffffffffffffffffff166000809054906101000a900473ffffffffffffffffffffffffffffffffffffffff1673ffffffffffffffffffffffffffffffffffffffff1614611627576040517f08c379a00000000000000000000000000000000000000000000000000000000081526004018080602001828103825260208152602001807f4f776e61626c653a2063616c6c6572206973206e6f7420746865206f776e657281525060200191505060405180910390fd5b600073ffffffffffffffffffffffffffffffffffffffff168173ffffffffffffffffffffffffffffffffffffffff1614156116ad576040517f08c379a0000000000000000000000000000000000000000000000000000000008152600401808060200182810382526026815260200180611a4f6026913960400191505060405180910390fd5b8073ffffffffffffffffffffffffffffffffffffffff166000809054906101000a900473ffffffffffffffffffffffffffffffffffffffff1673ffffffffffffffffffffffffffffffffffffffff167f8be0079c531659141344cd1fd0a4f28419497f9722a3daafe3b4186f6b6457e060405160405180910390a3806000806101000a81548173ffffffffffffffffffffffffffffffffffffffff021916908373ffffffffffffffffffffffffffffffffffffffff16021790555050565b60008073ffffffffffffffffffffffffffffffffffffffff166003600084815260200190815260200160002060020160009054906101000a900473ffffffffffffffffffffffffffffffffffffffff1673ffffffffffffffffffffffffffffffffffffffff1614159050919050565b600033905090565b60006117ec6117da565b73ffffffffffffffffffffffffffffffffffffffff166003600084815260200190815260200160002060020160009054906101000a900473ffffffffffffffffffffffffffffffffffffffff1673ffffffffffffffffffffffffffffffffffffffff161480611894575061185e6117da565b73ffffffffffffffffffffffffffffffffffffffff1661187c610f20565b73ffffffffffffffffffffffffffffffffffffffff16145b9050919050565b828054828255906000526020600020908101928215611914579160200282015b828111156119135782518260006101000a81548173ffffffffffffffffffffffffffffffffffffffff021916908373ffffffffffffffffffffffffffffffffffffffff160217905550916020019190600101906118bb565b5b50905061192191906119e6565b5090565b50805460008255906000526020600020908101906119439190611a29565b50565b8280548282559060005260206000209081019282156119d5579160200282015b828111156119d457823573ffffffffffffffffffffffffffffffffffffffff168260006101000a81548173ffffffffffffffffffffffffffffffffffffffff021916908373ffffffffffffffffffffffffffffffffffffffff16021790555091602001919060010190611966565b5b5090506119e291906119e6565b5090565b611a2691905b80821115611a2257600081816101000a81549073ffffffffffffffffffffffffffffffffffffffff0219169055506001016119ec565b5090565b90565b611a4b91905b80821115611a47576000816000905550600101611a2f565b5090565b9056fe4f776e61626c653a206e6577206f776e657220697320746865207a65726f206164647265737343616c6c65722068617320746f206265207468652063757272656e742061646d696e206f72206f776e65722ea2646970667358221220ee46cc2f95a0ac599eb39a39caddbc45aab08ba587ef0f6d8fd9c79f445e6da564736f6c63430006050033",
  "source": "pragma solidity ^0.6.0;\n\nimport \"./interfaces/ISecretStorePermissioning.sol\";\nimport \"@openzeppelin/contracts/access/Ownable.sol\";\nimport \"@openzeppelin/contracts/introspection/ERC165.sol\";\n\n\ncontract PermissioningRegistryExtended is ISecretStorePermissioningExtended, Ownable, ERC165 {\n\n    struct PermissionEntry {\n        uint256 id;\n        address[] users;\n        address admin;\n        bool exposed;\n    }\n\n    bytes32[] public documents;\n    mapping(bytes32 => PermissionEntry) public permissions;\n\n    event NewAdmin(bytes32 indexed document);\n    event Permission(bytes32 indexed document);\n\n    modifier onlyAdmins(bytes32 document) {\n        require(\n            _isAdmin(document),\n            \"Caller has to be the current admin or owner.\"\n        );\n        _;\n    }\n\n    modifier notInitialized(bytes32 document) {\n        require(\n            !_isInitialized(document),\n            \"Permission entry already exists.\"\n        );\n        _;\n    }\n\n    constructor() public {\n        // ERC 165 support\n        _registerInterface(\n            this.checkPermissions.selector ^\n            this.availableKeys.selector\n        );\n        _registerInterface(\n            this.owner.selector ^\n            this.renounceOwnership.selector ^\n            this.transferOwnership.selector\n        );\n    }\n\n    function setAdmin(bytes32 document, address newAdmin)\n        external\n        onlyAdmins(document)\n        returns (bool)\n    {\n        require(newAdmin != address(0), \"New admin address cannot be 0x0.\");\n        permissions[document].admin = newAdmin;\n        emit NewAdmin(document);\n        return true;\n    }\n\n    function setUsers(bytes32 document, address[] calldata _users)\n        external\n        onlyAdmins(document)\n        returns (bool)\n    {\n        permissions[document].users = _users;\n        emit Permission(document);\n        return true;\n    }\n\n    function setExposed(bytes32 document, bool _exposed)\n        external\n        onlyAdmins(document)\n        returns (bool)\n    {\n        permissions[document].exposed = _exposed;\n        emit Permission(document);\n        return true;\n    }\n\n    function addUser(bytes32 document, address newUser)\n        external\n        onlyAdmins(document)\n        returns (bool)\n    {\n        permissions[document].users.push(newUser);\n        emit Permission(document);\n        return true;\n    }\n\n    function removePermission(bytes32 document)\n        external\n        onlyAdmins(document)\n        returns (bool)\n    {   \n        \n        uint256 _oldId = permissions[document].id;\n        delete permissions[document];\n        documents[_oldId] = documents[documents.length - 1];\n        permissions[documents[_oldId]].id = _oldId;\n        documents.pop();\n\n        emit Permission(document);\n        return true;\n    }\n\n    function permission(bytes32 document, address[] calldata _users)\n        external\n        notInitialized(document)\n        returns (bool)\n    {\n        documents.push(document);\n        uint256 _id = documents.length - 1;\n        permissions[document] = PermissionEntry(_id, _users, _msgSender(), false);\n        emit Permission(document);\n        return true;\n    }\n\n    function checkPermissions(address user, bytes32 document)\n        public\n        view\n        override\n        returns (bool)\n    {\n        if (!_isInitialized(document)) {\n            return false;\n        }\n        \n        if (permissions[document].exposed) {\n            return true;\n        }\n\n        address[] storage users = permissions[document].users;\n        for (uint i = 0; i < users.length; i++) {\n            if (users[i] == user)\n                return true;\n        }\n        return false;\n    }\n\n    function availableKeys(address user)\n        public\n        view\n        override\n        returns (bytes32[] memory)\n    {\n        /*\n        bytes32[] memory _keys;\n        for (uint i = 0; i < documents.length; i++) {\n            if (checkPermissions(user, documents[i])) {\n                bytes32 _t = documents[i];\n                _keys.push(_t);\n            }\n        }\n        return _keys;\n        */\n\n        uint256 _ctr = 0;\n\n        for (uint i = 0; i < documents.length; i++) {\n            if (checkPermissions(user, documents[i])) {\n                _ctr++;\n            }\n        }\n\n        bytes32[] memory _keys = new bytes32[](_ctr);\n        _ctr = 0;\n\n        for (uint i = 0; i < documents.length; i++) {\n            if (checkPermissions(user, documents[i])) {\n                _keys[_ctr] = documents[i];\n                _ctr++;\n            }\n        }\n\n        return _keys;\n    }\n\n    function getAdmin(bytes32 document) public view returns (address) {\n        return permissions[document].admin;\n    }\n\n    function getUsers(bytes32 document) public view returns (address[] memory) {\n        return permissions[document].users;\n    }\n\n    function isExposed(bytes32 document) public view returns (bool) {\n        return permissions[document].exposed;\n    }\n\n    function _isAdmin(bytes32 document) internal view returns (bool) {\n        return (permissions[document].admin == _msgSender() || owner() == _msgSender());\n    }\n\n    function _isInitialized(bytes32 document) internal view returns (bool) {\n        return (permissions[document].admin != address(0));\n    }\n}\n",
  "sourcePath": "/home/aznagy/work/secretstore/secretstore-contracts/contracts/PermissioningRegistryExtended.sol",
  "compiler": {
    "name": "solc",
    "version": "0.6.5+commit.f956cc89.Emscripten.clang"
  },
  "schemaVersion": "3.0.23",
  "updatedAt": "2020-04-08T13:26:55.891Z",
  "devdoc": {
    "methods": {
      "owner()": {
        "details": "Returns the address of the current owner."
      },
      "renounceOwnership()": {
        "details": "Leaves the contract without owner. It will not be possible to call `onlyOwner` functions anymore. Can only be called by the current owner.     * NOTE: Renouncing ownership will leave the contract without an owner, thereby removing any functionality that is only available to the owner."
      },
      "supportsInterface(bytes4)": {
        "details": "See {IERC165-supportsInterface}.     * Time complexity O(1), guaranteed to always use less than 30 000 gas."
      },
      "transferOwnership(address)": {
        "details": "Transfers ownership of the contract to a new account (`newOwner`). Can only be called by the current owner."
      }
    }
  },
  "userdoc": {
    "methods": {}
  }
}