{
  "contractName": "PermissioningRegistry",
  "abi": [
    {
      "constant": true,
      "inputs": [
        {
          "name": "interfaceId",
          "type": "bytes4"
        }
      ],
      "name": "supportsInterface",
      "outputs": [
        {
          "name": "",
          "type": "bool"
        }
      ],
      "payable": false,
      "stateMutability": "view",
      "type": "function"
    },
    {
      "constant": false,
      "inputs": [],
      "name": "renounceOwnership",
      "outputs": [],
      "payable": false,
      "stateMutability": "nonpayable",
      "type": "function"
    },
    {
      "constant": true,
      "inputs": [],
      "name": "owner",
      "outputs": [
        {
          "name": "",
          "type": "address"
        }
      ],
      "payable": false,
      "stateMutability": "view",
      "type": "function"
    },
    {
      "constant": true,
      "inputs": [],
      "name": "isOwner",
      "outputs": [
        {
          "name": "",
          "type": "bool"
        }
      ],
      "payable": false,
      "stateMutability": "view",
      "type": "function"
    },
    {
      "constant": true,
      "inputs": [
        {
          "name": "",
          "type": "bytes32"
        }
      ],
      "name": "permissions",
      "outputs": [
        {
          "name": "admin",
          "type": "address"
        }
      ],
      "payable": false,
      "stateMutability": "view",
      "type": "function"
    },
    {
      "constant": false,
      "inputs": [
        {
          "name": "newOwner",
          "type": "address"
        }
      ],
      "name": "transferOwnership",
      "outputs": [],
      "payable": false,
      "stateMutability": "nonpayable",
      "type": "function"
    },
    {
      "inputs": [],
      "payable": false,
      "stateMutability": "nonpayable",
      "type": "constructor"
    },
    {
      "anonymous": false,
      "inputs": [
        {
          "indexed": false,
          "name": "document",
          "type": "bytes32"
        }
      ],
      "name": "NewAdmin",
      "type": "event"
    },
    {
      "anonymous": false,
      "inputs": [
        {
          "indexed": false,
          "name": "document",
          "type": "bytes32"
        }
      ],
      "name": "Permission",
      "type": "event"
    },
    {
      "anonymous": false,
      "inputs": [
        {
          "indexed": true,
          "name": "previousOwner",
          "type": "address"
        },
        {
          "indexed": true,
          "name": "newOwner",
          "type": "address"
        }
      ],
      "name": "OwnershipTransferred",
      "type": "event"
    },
    {
      "constant": false,
      "inputs": [
        {
          "name": "document",
          "type": "bytes32"
        },
        {
          "name": "newAdmin",
          "type": "address"
        }
      ],
      "name": "setAdmin",
      "outputs": [
        {
          "name": "",
          "type": "bool"
        }
      ],
      "payable": false,
      "stateMutability": "nonpayable",
      "type": "function"
    },
    {
      "constant": false,
      "inputs": [
        {
          "name": "document",
          "type": "bytes32"
        },
        {
          "name": "_users",
          "type": "address[]"
        }
      ],
      "name": "setUsers",
      "outputs": [
        {
          "name": "",
          "type": "bool"
        }
      ],
      "payable": false,
      "stateMutability": "nonpayable",
      "type": "function"
    },
    {
      "constant": false,
      "inputs": [
        {
          "name": "document",
          "type": "bytes32"
        },
        {
          "name": "newUser",
          "type": "address"
        }
      ],
      "name": "addUser",
      "outputs": [
        {
          "name": "",
          "type": "bool"
        }
      ],
      "payable": false,
      "stateMutability": "nonpayable",
      "type": "function"
    },
    {
      "constant": false,
      "inputs": [
        {
          "name": "document",
          "type": "bytes32"
        }
      ],
      "name": "removePermission",
      "outputs": [
        {
          "name": "",
          "type": "bool"
        }
      ],
      "payable": false,
      "stateMutability": "nonpayable",
      "type": "function"
    },
    {
      "constant": false,
      "inputs": [
        {
          "name": "document",
          "type": "bytes32"
        },
        {
          "name": "_users",
          "type": "address[]"
        }
      ],
      "name": "permission",
      "outputs": [
        {
          "name": "",
          "type": "bool"
        }
      ],
      "payable": false,
      "stateMutability": "nonpayable",
      "type": "function"
    },
    {
      "constant": true,
      "inputs": [
        {
          "name": "user",
          "type": "address"
        },
        {
          "name": "document",
          "type": "bytes32"
        }
      ],
      "name": "checkPermissions",
      "outputs": [
        {
          "name": "",
          "type": "bool"
        }
      ],
      "payable": false,
      "stateMutability": "view",
      "type": "function"
    },
    {
      "constant": true,
      "inputs": [
        {
          "name": "document",
          "type": "bytes32"
        }
      ],
      "name": "getAdmin",
      "outputs": [
        {
          "name": "",
          "type": "address"
        }
      ],
      "payable": false,
      "stateMutability": "view",
      "type": "function"
    },
    {
      "constant": true,
      "inputs": [
        {
          "name": "document",
          "type": "bytes32"
        }
      ],
      "name": "getUsers",
      "outputs": [
        {
          "name": "",
          "type": "address[]"
        }
      ],
      "payable": false,
      "stateMutability": "view",
      "type": "function"
    }
  ],
  "bytecode": "0x608060405234801561001057600080fd5b5060008054600160a060020a0319163317808255604051600160a060020a039190911691907f8be0079c531659141344cd1fd0a4f28419497f9722a3daafe3b4186f6b6457e0908290a361008c7f01ffc9a7000000000000000000000000000000000000000000000000000000006401000000006100f5810204565b6100be7fb36a9a7c000000000000000000000000000000000000000000000000000000006401000000006100f5810204565b6100f07f813ae5ed000000000000000000000000000000000000000000000000000000006401000000006100f5810204565b610164565b7fffffffff00000000000000000000000000000000000000000000000000000000808216141561012457600080fd5b7fffffffff00000000000000000000000000000000000000000000000000000000166000908152600160208190526040909120805460ff19169091179055565b610b29806101736000396000f3006080604052600436106100cf5763ffffffff7c010000000000000000000000000000000000000000000000000000000060003504166301ffc9a781146100d45780630f039de81461011f5780634ccea5261461014357806365923cd1146101ab578063715018a6146101c357806380c6e70a146101da5780638170d8391461020e5780638da5cb5b146102325780638f32d59b14610247578063aa9c54261461025c578063b36a9a7c14610280578063b4d2388f146102a4578063ee4024db146102bc578063f2fde38b146102e0575b600080fd5b3480156100e057600080fd5b5061010b7bffffffffffffffffffffffffffffffffffffffffffffffffffffffff1960043516610301565b604080519115158252519081900360200190f35b34801561012b57600080fd5b5061010b600480359060248035908101910135610335565b34801561014f57600080fd5b5061015b600435610435565b60408051602080825283518183015283519192839290830191858101910280838360005b8381101561019757818101518382015260200161017f565b505050509050019250505060405180910390f35b3480156101b757600080fd5b5061010b6004356104a1565b3480156101cf57600080fd5b506101d861055a565b005b3480156101e657600080fd5b506101f26004356105b7565b60408051600160a060020a039092168252519081900360200190f35b34801561021a57600080fd5b5061010b6004803590602480359081019101356105d5565b34801561023e57600080fd5b506101f261067f565b34801561025357600080fd5b5061010b61068f565b34801561026857600080fd5b5061010b600435600160a060020a03602435166106a0565b34801561028c57600080fd5b5061010b600160a060020a0360043516602435610769565b3480156102b057600080fd5b506101f26004356107d3565b3480156102c857600080fd5b5061010b600435600160a060020a03602435166107f1565b3480156102ec57600080fd5b506101d8600160a060020a036004351661091e565b7bffffffffffffffffffffffffffffffffffffffffffffffffffffffff191660009081526001602052604090205460ff1690565b600083815260026020526040812060010154600160a060020a0316158061036057506103608461093d565b15156103dc576040805160e560020a62461bcd02815260206004820152603460248201527f596f75206861766520746f2062652061646d696e206f72206f776e657220746f60448201527f206368616e6765207065726d697373696f6e732e000000000000000000000000606482015290519081900360840190fd5b6000848152600260205260409020600181018054600160a060020a031916331790556104099084846109de565b50604080518581529051600080516020610abe8339815191529181900360200190a15060019392505050565b60008181526002602090815260409182902080548351818402810184019094528084526060939283018282801561049557602002820191906000526020600020905b8154600160a060020a03168152600190910190602001808311610477575b50505050509050919050565b6000816104ad8161093d565b1515610505576040805160e560020a62461bcd02815260206004820152602c6024820152600080516020610ade8339815191526044820152600080516020610a9e833981519152606482015290519081900360840190fd5b60008381526002602052604081209061051e8282610a41565b506001018054600160a060020a0319169055604080518481529051600080516020610abe8339815191529181900360200190a150600192915050565b61056261068f565b151561056d57600080fd5b60008054604051600160a060020a03909116907f8be0079c531659141344cd1fd0a4f28419497f9722a3daafe3b4186f6b6457e0908390a360008054600160a060020a0319169055565b600090815260026020526040902060010154600160a060020a031690565b6000836105e18161093d565b1515610639576040805160e560020a62461bcd02815260206004820152602c6024820152600080516020610ade8339815191526044820152600080516020610a9e833981519152606482015290519081900360840190fd5b60008581526002602052604090206106529085856109de565b50604080518681529051600080516020610abe8339815191529181900360200190a1506001949350505050565b600054600160a060020a03165b90565b600054600160a060020a0316331490565b6000826106ac8161093d565b1515610704576040805160e560020a62461bcd02815260206004820152602c6024820152600080516020610ade8339815191526044820152600080516020610a9e833981519152606482015290519081900360840190fd5b60008481526002602090815260408083208054600181018255908452928290209092018054600160a060020a031916600160a060020a03871617905581518681529151600080516020610abe8339815191529281900390910190a15060019392505050565b6000818152600260205260408120815b81548110156107c65784600160a060020a0316828281548110151561079a57fe5b600091825260209091200154600160a060020a031614156107be57600192506107cb565b600101610779565b600092505b505092915050565b600260205260009081526040902060010154600160a060020a031681565b6000826107fd8161093d565b1515610855576040805160e560020a62461bcd02815260206004820152602c6024820152600080516020610ade8339815191526044820152600080516020610a9e833981519152606482015290519081900360840190fd5b600160a060020a03831615156108b5576040805160e560020a62461bcd02815260206004820181905260248201527f4e65772061646d696e20616464726573732063616e6e6f74206265203078302e604482015290519081900360640190fd5b6000848152600260209081526040918290206001018054600160a060020a031916600160a060020a038716179055815186815291517f9c38d9bf66f47815dd90b1c5c80b0138365b0f232c260374041f97909b7014659281900390910190a15060019392505050565b61092661068f565b151561093157600080fd5b61093a8161096e565b50565b600081815260026020526040812060010154600160a060020a0316331480610968575061096861068f565b92915050565b600160a060020a038116151561098357600080fd5b60008054604051600160a060020a03808516939216917f8be0079c531659141344cd1fd0a4f28419497f9722a3daafe3b4186f6b6457e091a360008054600160a060020a031916600160a060020a0392909216919091179055565b828054828255906000526020600020908101928215610a31579160200282015b82811115610a31578154600160a060020a031916600160a060020a038435161782556020909201916001909101906109fe565b50610a3d929150610a5f565b5090565b508054600082559060005260206000209081019061093a9190610a83565b61068c91905b80821115610a3d578054600160a060020a0319168155600101610a65565b61068c91905b80821115610a3d5760008155600101610a895600696e206f72206f776e65722e00000000000000000000000000000000000000001cc9fc44b401f3c62bc063fa96b96115b72c6c810c4cb13745eeb6e173d5ffe543616c6c65722068617320746f206265207468652063757272656e742061646da165627a7a7230582010b62cbcace3dec3e6999dfbdff0fcdc54f6c81d37664d7f2d7ecad0d8f18c450029",
  "source": "pragma solidity ^0.4.24;\n\nimport \"./interfaces/ISecretStorePermissioning.sol\";\nimport \"openzeppelin-solidity/contracts/ownership/Ownable.sol\";\nimport \"openzeppelin-solidity/contracts/introspection/ERC165.sol\";\n\n\ncontract PermissioningRegistry is ISecretStorePermissioning, Ownable, ERC165 {\n\n    struct PermissionEntry {\n        address[] users;\n        address admin;\n    }\n    \n    mapping(bytes32 => PermissionEntry) public permissions;\n\n    event NewAdmin(bytes32 document);\n    event Permission(bytes32 document);\n\n    modifier onlyAdmins(bytes32 document) {\n        require(_onlyAdmins(document), \"Caller has to be the current admin or owner.\");\n        _;\n    }\n\n    constructor() public {\n        // ERC 165 support\n        _registerInterface(this.checkPermissions.selector);\n        _registerInterface(\n            this.owner.selector\n            ^ this.isOwner.selector\n            ^ this.renounceOwnership.selector\n            ^ this.transferOwnership.selector\n        );\n    }\n\n    function setAdmin(bytes32 document, address newAdmin) external onlyAdmins(document) returns (bool) {\n        require(newAdmin != address(0), \"New admin address cannot be 0x0.\");\n        permissions[document].admin = newAdmin;\n        emit NewAdmin(document);\n        return true;\n    }\n\n    function setUsers(bytes32 document, address[] _users) external onlyAdmins(document) returns (bool) {\n        permissions[document].users = _users;\n        emit Permission(document);\n        return true;\n    }\n\n    function addUser(bytes32 document, address newUser) external onlyAdmins(document) returns (bool) {\n        permissions[document].users.push(newUser);\n        emit Permission(document);\n        return true;\n    }\n\n    function removePermission(bytes32 document) external onlyAdmins(document) returns (bool) {\n        delete permissions[document];\n        emit Permission(document);\n        return true;\n    }\n\n    function permission(bytes32 document, address[] _users) external returns (bool) {\n        require(\n            permissions[document].admin == address(0) || _onlyAdmins(document),\n            \"You have to be admin or owner to change permissions.\"\n        );\n        permissions[document].admin = msg.sender;\n        permissions[document].users = _users;\n        emit Permission(document);\n        return true;\n    }\n\n    function checkPermissions(address user, bytes32 document) public view returns (bool) {\n        address[] storage users = permissions[document].users;\n        for (uint i = 0; i < users.length; i++) {\n            if (users[i] == user)\n                return true;\n        }\n        return false;\n    }\n\n    function getAdmin(bytes32 document) public view returns (address) {\n        return permissions[document].admin;\n    }\n\n    function getUsers(bytes32 document) public view returns (address[]) {\n        return permissions[document].users;\n    }\n\n    function _onlyAdmins(bytes32 document) internal view returns (bool) {\n        return (permissions[document].admin == msg.sender || isOwner());\n    }\n}",
  "sourcePath": "/home/aznagy/work/secretstore/secretstore-contracts/contracts/PermissioningRegistry.sol",
  "compiler": {
    "name": "solc",
    "version": "0.4.24+commit.e67f0147.Emscripten.clang"
  },
  "schemaVersion": "2.0.1",
  "updatedAt": "2019-01-02T14:43:39.296Z"
}