{
  "contractName": "PermissioningRegistry",
  "abi": [
    {
      "constant": true,
      "inputs": [
        {
          "name": "interfaceId",
          "type": "bytes4"
        }
      ],
      "name": "supportsInterface",
      "outputs": [
        {
          "name": "",
          "type": "bool"
        }
      ],
      "payable": false,
      "stateMutability": "view",
      "type": "function"
    },
    {
      "constant": false,
      "inputs": [],
      "name": "renounceOwnership",
      "outputs": [],
      "payable": false,
      "stateMutability": "nonpayable",
      "type": "function"
    },
    {
      "constant": true,
      "inputs": [],
      "name": "owner",
      "outputs": [
        {
          "name": "",
          "type": "address"
        }
      ],
      "payable": false,
      "stateMutability": "view",
      "type": "function"
    },
    {
      "constant": true,
      "inputs": [],
      "name": "isOwner",
      "outputs": [
        {
          "name": "",
          "type": "bool"
        }
      ],
      "payable": false,
      "stateMutability": "view",
      "type": "function"
    },
    {
      "constant": true,
      "inputs": [
        {
          "name": "",
          "type": "bytes32"
        }
      ],
      "name": "permissions",
      "outputs": [
        {
          "name": "admin",
          "type": "address"
        },
        {
          "name": "exposed",
          "type": "bool"
        }
      ],
      "payable": false,
      "stateMutability": "view",
      "type": "function"
    },
    {
      "constant": false,
      "inputs": [
        {
          "name": "newOwner",
          "type": "address"
        }
      ],
      "name": "transferOwnership",
      "outputs": [],
      "payable": false,
      "stateMutability": "nonpayable",
      "type": "function"
    },
    {
      "inputs": [],
      "payable": false,
      "stateMutability": "nonpayable",
      "type": "constructor"
    },
    {
      "anonymous": false,
      "inputs": [
        {
          "indexed": true,
          "name": "document",
          "type": "bytes32"
        }
      ],
      "name": "NewAdmin",
      "type": "event"
    },
    {
      "anonymous": false,
      "inputs": [
        {
          "indexed": true,
          "name": "document",
          "type": "bytes32"
        }
      ],
      "name": "Permission",
      "type": "event"
    },
    {
      "anonymous": false,
      "inputs": [
        {
          "indexed": true,
          "name": "previousOwner",
          "type": "address"
        },
        {
          "indexed": true,
          "name": "newOwner",
          "type": "address"
        }
      ],
      "name": "OwnershipTransferred",
      "type": "event"
    },
    {
      "constant": false,
      "inputs": [
        {
          "name": "document",
          "type": "bytes32"
        },
        {
          "name": "newAdmin",
          "type": "address"
        }
      ],
      "name": "setAdmin",
      "outputs": [
        {
          "name": "",
          "type": "bool"
        }
      ],
      "payable": false,
      "stateMutability": "nonpayable",
      "type": "function"
    },
    {
      "constant": false,
      "inputs": [
        {
          "name": "document",
          "type": "bytes32"
        },
        {
          "name": "_users",
          "type": "address[]"
        }
      ],
      "name": "setUsers",
      "outputs": [
        {
          "name": "",
          "type": "bool"
        }
      ],
      "payable": false,
      "stateMutability": "nonpayable",
      "type": "function"
    },
    {
      "constant": false,
      "inputs": [
        {
          "name": "document",
          "type": "bytes32"
        },
        {
          "name": "_exposed",
          "type": "bool"
        }
      ],
      "name": "setExposed",
      "outputs": [
        {
          "name": "",
          "type": "bool"
        }
      ],
      "payable": false,
      "stateMutability": "nonpayable",
      "type": "function"
    },
    {
      "constant": false,
      "inputs": [
        {
          "name": "document",
          "type": "bytes32"
        },
        {
          "name": "newUser",
          "type": "address"
        }
      ],
      "name": "addUser",
      "outputs": [
        {
          "name": "",
          "type": "bool"
        }
      ],
      "payable": false,
      "stateMutability": "nonpayable",
      "type": "function"
    },
    {
      "constant": false,
      "inputs": [
        {
          "name": "document",
          "type": "bytes32"
        }
      ],
      "name": "removePermission",
      "outputs": [
        {
          "name": "",
          "type": "bool"
        }
      ],
      "payable": false,
      "stateMutability": "nonpayable",
      "type": "function"
    },
    {
      "constant": false,
      "inputs": [
        {
          "name": "document",
          "type": "bytes32"
        },
        {
          "name": "_users",
          "type": "address[]"
        }
      ],
      "name": "permission",
      "outputs": [
        {
          "name": "",
          "type": "bool"
        }
      ],
      "payable": false,
      "stateMutability": "nonpayable",
      "type": "function"
    },
    {
      "constant": true,
      "inputs": [
        {
          "name": "user",
          "type": "address"
        },
        {
          "name": "document",
          "type": "bytes32"
        }
      ],
      "name": "checkPermissions",
      "outputs": [
        {
          "name": "",
          "type": "bool"
        }
      ],
      "payable": false,
      "stateMutability": "view",
      "type": "function"
    },
    {
      "constant": true,
      "inputs": [
        {
          "name": "document",
          "type": "bytes32"
        }
      ],
      "name": "getAdmin",
      "outputs": [
        {
          "name": "",
          "type": "address"
        }
      ],
      "payable": false,
      "stateMutability": "view",
      "type": "function"
    },
    {
      "constant": true,
      "inputs": [
        {
          "name": "document",
          "type": "bytes32"
        }
      ],
      "name": "getUsers",
      "outputs": [
        {
          "name": "",
          "type": "address[]"
        }
      ],
      "payable": false,
      "stateMutability": "view",
      "type": "function"
    },
    {
      "constant": true,
      "inputs": [
        {
          "name": "document",
          "type": "bytes32"
        }
      ],
      "name": "isExposed",
      "outputs": [
        {
          "name": "",
          "type": "bool"
        }
      ],
      "payable": false,
      "stateMutability": "view",
      "type": "function"
    }
  ],
  "bytecode": "0x608060405234801561001057600080fd5b5060008054600160a060020a0319163317808255604051600160a060020a039190911691907f8be0079c531659141344cd1fd0a4f28419497f9722a3daafe3b4186f6b6457e0908290a361008c7f01ffc9a7000000000000000000000000000000000000000000000000000000006401000000006100f5810204565b6100be7fb36a9a7c000000000000000000000000000000000000000000000000000000006401000000006100f5810204565b6100f07f813ae5ed000000000000000000000000000000000000000000000000000000006401000000006100f5810204565b610164565b7fffffffff00000000000000000000000000000000000000000000000000000000808216141561012457600080fd5b7fffffffff00000000000000000000000000000000000000000000000000000000166000908152600160208190526040909120805460ff19169091179055565b610d05806101736000396000f3006080604052600436106100e55763ffffffff7c010000000000000000000000000000000000000000000000000000000060003504166301ffc9a781146100ea5780630f039de8146101355780634ccea5261461015957806365923cd1146101c1578063715018a6146101d95780637ffb5473146101f057806380c6e70a146102085780638170d8391461023c5780638da5cb5b146102605780638f32d59b14610275578063aa9c54261461028a578063b36a9a7c146102ae578063b4d2388f146102d2578063c29297471461030d578063ee4024db1461032a578063f2fde38b1461034e575b600080fd5b3480156100f657600080fd5b506101217bffffffffffffffffffffffffffffffffffffffffffffffffffffffff196004351661036f565b604080519115158252519081900360200190f35b34801561014157600080fd5b506101216004803590602480359081019101356103a3565b34801561016557600080fd5b5061017160043561049b565b60408051602080825283518183015283519192839290830191858101910280838360005b838110156101ad578181015183820152602001610195565b505050509050019250505060405180910390f35b3480156101cd57600080fd5b50610121600435610507565b3480156101e557600080fd5b506101ee6105c6565b005b3480156101fc57600080fd5b50610121600435610623565b34801561021457600080fd5b50610220600435610653565b60408051600160a060020a039092168252519081900360200190f35b34801561024857600080fd5b50610121600480359060248035908101910135610671565b34801561026c57600080fd5b50610220610713565b34801561028157600080fd5b50610121610723565b34801561029657600080fd5b50610121600435600160a060020a0360243516610734565b3480156102ba57600080fd5b50610121600160a060020a03600435166024356107f1565b3480156102de57600080fd5b506102ea6004356108b5565b60408051600160a060020a03909316835290151560208301528051918290030190f35b34801561031957600080fd5b5061012160043560243515156108f0565b34801561033657600080fd5b50610121600435600160a060020a03602435166109bb565b34801561035a57600080fd5b506101ee600160a060020a0360043516610ada565b7bffffffffffffffffffffffffffffffffffffffffffffffffffffffff191660009081526001602052604090205460ff1690565b600083815260026020526040812060010154600160a060020a031615806103ce57506103ce84610af9565b151561044a576040805160e560020a62461bcd02815260206004820152603460248201527f596f75206861766520746f2062652061646d696e206f72206f776e657220746f60448201527f206368616e6765207065726d697373696f6e732e000000000000000000000000606482015290519081900360840190fd5b6000848152600260205260409020600181018054600160a060020a03191633179055610477908484610bba565b506040518490600080516020610c9a83398151915290600090a25060019392505050565b6000818152600260209081526040918290208054835181840281018401909452808452606093928301828280156104fb57602002820191906000526020600020905b8154600160a060020a031681526001909101906020018083116104dd575b50505050509050919050565b60008161051381610af9565b151561056b576040805160e560020a62461bcd02815260206004820152602c6024820152600080516020610cba8339815191526044820152600080516020610c7a833981519152606482015290519081900360840190fd5b6000838152600260205260408120906105848282610c1d565b50600101805474ffffffffffffffffffffffffffffffffffffffffff191690556040518390600080516020610c9a83398151915290600090a250600192915050565b6105ce610723565b15156105d957600080fd5b60008054604051600160a060020a03909116907f8be0079c531659141344cd1fd0a4f28419497f9722a3daafe3b4186f6b6457e0908390a360008054600160a060020a0319169055565b60009081526002602052604090206001015474010000000000000000000000000000000000000000900460ff1690565b600090815260026020526040902060010154600160a060020a031690565b60008361067d81610af9565b15156106d5576040805160e560020a62461bcd02815260206004820152602c6024820152600080516020610cba8339815191526044820152600080516020610c7a833981519152606482015290519081900360840190fd5b60008581526002602052604090206106ee908585610bba565b506040518590600080516020610c9a83398151915290600090a2506001949350505050565b600054600160a060020a03165b90565b600054600160a060020a0316331490565b60008261074081610af9565b1515610798576040805160e560020a62461bcd02815260206004820152602c6024820152600080516020610cba8339815191526044820152600080516020610c7a833981519152606482015290519081900360840190fd5b600084815260026020908152604080832080546001810182559084529183209091018054600160a060020a031916600160a060020a038716179055518591600080516020610c9a83398151915291a25060019392505050565b60008060006107ff84610b2a565b151561080e57600092506108ad565b60008481526002602052604090206001015474010000000000000000000000000000000000000000900460ff161561084957600192506108ad565b50506000828152600260205260408120905b81548110156108a85784600160a060020a0316828281548110151561087c57fe5b600091825260209091200154600160a060020a031614156108a057600192506108ad565b60010161085b565b600092505b505092915050565b600260205260009081526040902060010154600160a060020a0381169074010000000000000000000000000000000000000000900460ff1682565b6000826108fc81610af9565b1515610954576040805160e560020a62461bcd02815260206004820152602c6024820152600080516020610cba8339815191526044820152600080516020610c7a833981519152606482015290519081900360840190fd5b600084815260026020526040808220600101805474ff000000000000000000000000000000000000000019167401000000000000000000000000000000000000000087151502179055518591600080516020610c9a83398151915291a25060019392505050565b6000826109c781610af9565b1515610a1f576040805160e560020a62461bcd02815260206004820152602c6024820152600080516020610cba8339815191526044820152600080516020610c7a833981519152606482015290519081900360840190fd5b600160a060020a0383161515610a7f576040805160e560020a62461bcd02815260206004820181905260248201527f4e65772061646d696e20616464726573732063616e6e6f74206265203078302e604482015290519081900360640190fd5b6000848152600260205260408082206001018054600160a060020a031916600160a060020a0387161790555185917f9c38d9bf66f47815dd90b1c5c80b0138365b0f232c260374041f97909b70146591a25060019392505050565b610ae2610723565b1515610aed57600080fd5b610af681610b4a565b50565b600081815260026020526040812060010154600160a060020a0316331480610b245750610b24610723565b92915050565b600090815260026020526040902060010154600160a060020a0316151590565b600160a060020a0381161515610b5f57600080fd5b60008054604051600160a060020a03808516939216917f8be0079c531659141344cd1fd0a4f28419497f9722a3daafe3b4186f6b6457e091a360008054600160a060020a031916600160a060020a0392909216919091179055565b828054828255906000526020600020908101928215610c0d579160200282015b82811115610c0d578154600160a060020a031916600160a060020a03843516178255602090920191600190910190610bda565b50610c19929150610c3b565b5090565b5080546000825590600052602060002090810190610af69190610c5f565b61072091905b80821115610c19578054600160a060020a0319168155600101610c41565b61072091905b80821115610c195760008155600101610c655600696e206f72206f776e65722e00000000000000000000000000000000000000001cc9fc44b401f3c62bc063fa96b96115b72c6c810c4cb13745eeb6e173d5ffe543616c6c65722068617320746f206265207468652063757272656e742061646da165627a7a723058201b24d5a1dc3a1a39107664101d37a560ae8d5d5099ccf4c328ccabd15e5432320029",
  "source": "pragma solidity ^0.4.24;\n\nimport \"./interfaces/ISecretStorePermissioning.sol\";\nimport \"openzeppelin-solidity/contracts/ownership/Ownable.sol\";\nimport \"openzeppelin-solidity/contracts/introspection/ERC165.sol\";\n\n\ncontract PermissioningRegistry is ISecretStorePermissioning, Ownable, ERC165 {\n\n    struct PermissionEntry {\n        address[] users;\n        address admin;\n        bool exposed;\n    }\n    \n    mapping(bytes32 => PermissionEntry) public permissions;\n\n    event NewAdmin(bytes32 indexed document);\n    event Permission(bytes32 indexed document);\n\n    modifier onlyAdmins(bytes32 document) {\n        require(_isAdmin(document), \"Caller has to be the current admin or owner.\");\n        _;\n    }\n\n    constructor() public {\n        // ERC 165 support\n        _registerInterface(this.checkPermissions.selector);\n        _registerInterface(\n            this.owner.selector\n            ^ this.isOwner.selector\n            ^ this.renounceOwnership.selector\n            ^ this.transferOwnership.selector\n        );\n    }\n\n    function setAdmin(bytes32 document, address newAdmin) external onlyAdmins(document) returns (bool) {\n        require(newAdmin != address(0), \"New admin address cannot be 0x0.\");\n        permissions[document].admin = newAdmin;\n        emit NewAdmin(document);\n        return true;\n    }\n\n    function setUsers(bytes32 document, address[] _users) external onlyAdmins(document) returns (bool) {\n        permissions[document].users = _users;\n        emit Permission(document);\n        return true;\n    }\n\n    function setExposed(bytes32 document, bool _exposed) external onlyAdmins(document) returns (bool) {\n        permissions[document].exposed = _exposed;\n        emit Permission(document);\n        return true;\n    }\n\n    function addUser(bytes32 document, address newUser) external onlyAdmins(document) returns (bool) {\n        permissions[document].users.push(newUser);\n        emit Permission(document);\n        return true;\n    }\n\n    function removePermission(bytes32 document) external onlyAdmins(document) returns (bool) {\n        delete permissions[document];\n        emit Permission(document);\n        return true;\n    }\n\n    function permission(bytes32 document, address[] _users) external returns (bool) {\n        require(\n            permissions[document].admin == address(0) || _isAdmin(document),\n            \"You have to be admin or owner to change permissions.\"\n        );\n        permissions[document].admin = msg.sender;\n        permissions[document].users = _users;\n        emit Permission(document);\n        return true;\n    }\n\n    function checkPermissions(address user, bytes32 document) public view returns (bool) {\n        if (!_isInitialized(document)) {\n            return false;\n        }\n        \n        if (permissions[document].exposed) {\n            return true;\n        }\n\n        address[] storage users = permissions[document].users;\n        for (uint i = 0; i < users.length; i++) {\n            if (users[i] == user)\n                return true;\n        }\n        return false;\n    }\n\n    function getAdmin(bytes32 document) public view returns (address) {\n        return permissions[document].admin;\n    }\n\n    function getUsers(bytes32 document) public view returns (address[]) {\n        return permissions[document].users;\n    }\n\n    function isExposed(bytes32 document) public view returns (bool) {\n        return permissions[document].exposed;\n    }\n\n    function _isAdmin(bytes32 document) internal view returns (bool) {\n        return (permissions[document].admin == msg.sender || isOwner());\n    }\n\n    function _isInitialized(bytes32 document) internal view returns (bool) {\n        return (permissions[document].admin != address(0));\n    }\n}",
  "sourcePath": "/home/aznagy/work/secretstore/secretstore-contracts/contracts/PermissioningRegistry.sol",
  "compiler": {
    "name": "solc",
    "version": "0.4.24+commit.e67f0147.Emscripten.clang"
  },
  "schemaVersion": "2.0.1",
  "updatedAt": "2019-01-21T13:36:25.131Z"
}