{
  "contractName": "PermissioningRelay",
  "abi": [
    {
      "constant": true,
      "inputs": [
        {
          "name": "interfaceId",
          "type": "bytes4"
        }
      ],
      "name": "supportsInterface",
      "outputs": [
        {
          "name": "",
          "type": "bool"
        }
      ],
      "payable": false,
      "stateMutability": "view",
      "type": "function"
    },
    {
      "constant": true,
      "inputs": [],
      "name": "permissioningContract",
      "outputs": [
        {
          "name": "",
          "type": "address"
        }
      ],
      "payable": false,
      "stateMutability": "view",
      "type": "function"
    },
    {
      "constant": false,
      "inputs": [],
      "name": "renounceOwnership",
      "outputs": [],
      "payable": false,
      "stateMutability": "nonpayable",
      "type": "function"
    },
    {
      "constant": true,
      "inputs": [
        {
          "name": "",
          "type": "uint256"
        }
      ],
      "name": "oldPermissioningContracts",
      "outputs": [
        {
          "name": "",
          "type": "address"
        }
      ],
      "payable": false,
      "stateMutability": "view",
      "type": "function"
    },
    {
      "constant": true,
      "inputs": [],
      "name": "owner",
      "outputs": [
        {
          "name": "",
          "type": "address"
        }
      ],
      "payable": false,
      "stateMutability": "view",
      "type": "function"
    },
    {
      "constant": true,
      "inputs": [],
      "name": "isOwner",
      "outputs": [
        {
          "name": "",
          "type": "bool"
        }
      ],
      "payable": false,
      "stateMutability": "view",
      "type": "function"
    },
    {
      "constant": true,
      "inputs": [],
      "name": "erc165Query",
      "outputs": [
        {
          "name": "",
          "type": "address"
        }
      ],
      "payable": false,
      "stateMutability": "view",
      "type": "function"
    },
    {
      "constant": false,
      "inputs": [
        {
          "name": "newOwner",
          "type": "address"
        }
      ],
      "name": "transferOwnership",
      "outputs": [],
      "payable": false,
      "stateMutability": "nonpayable",
      "type": "function"
    },
    {
      "inputs": [
        {
          "name": "_erc165Query",
          "type": "address"
        },
        {
          "name": "_permissioningContract",
          "type": "address"
        }
      ],
      "payable": false,
      "stateMutability": "nonpayable",
      "type": "constructor"
    },
    {
      "anonymous": false,
      "inputs": [
        {
          "indexed": true,
          "name": "newPermissioningContract",
          "type": "address"
        }
      ],
      "name": "NewPermissioningContract",
      "type": "event"
    },
    {
      "anonymous": false,
      "inputs": [
        {
          "indexed": true,
          "name": "previousOwner",
          "type": "address"
        },
        {
          "indexed": true,
          "name": "newOwner",
          "type": "address"
        }
      ],
      "name": "OwnershipTransferred",
      "type": "event"
    },
    {
      "constant": true,
      "inputs": [
        {
          "name": "user",
          "type": "address"
        },
        {
          "name": "document",
          "type": "bytes32"
        }
      ],
      "name": "checkPermissions",
      "outputs": [
        {
          "name": "",
          "type": "bool"
        }
      ],
      "payable": false,
      "stateMutability": "view",
      "type": "function"
    },
    {
      "constant": false,
      "inputs": [
        {
          "name": "_newContract",
          "type": "address"
        }
      ],
      "name": "setPermissioningContract",
      "outputs": [
        {
          "name": "",
          "type": "address"
        }
      ],
      "payable": false,
      "stateMutability": "nonpayable",
      "type": "function"
    },
    {
      "constant": false,
      "inputs": [
        {
          "name": "_newContract",
          "type": "address"
        }
      ],
      "name": "setERC165Query",
      "outputs": [
        {
          "name": "",
          "type": "address"
        }
      ],
      "payable": false,
      "stateMutability": "nonpayable",
      "type": "function"
    }
  ],
  "bytecode": "0x608060405234801561001057600080fd5b50604051604080610d22833981016040819052815160209092015160008054600160a060020a03191633178082559192600160a060020a0392909216917f8be0079c531659141344cd1fd0a4f28419497f9722a3daafe3b4186f6b6457e0908290a36100a47f01ffc9a7000000000000000000000000000000000000000000000000000000006401000000006102ff810204565b600160a060020a038216151561014157604080517f08c379a000000000000000000000000000000000000000000000000000000000815260206004820152602d60248201527f4552432031363520517565727920636f6e74726163742061646472657373206360448201527f616e6e6f74206265203078302e00000000000000000000000000000000000000606482015290519081900360840190fd5b60048054600160a060020a031916600160a060020a03841617905561016e8164010000000061036e810204565b151561024d57604080517f08c379a000000000000000000000000000000000000000000000000000000000815260206004820152606260248201527f50726f766964656420636f6e747261637420646f6573206e6f7420696d706c6560448201527f6d656e74207468652027636865636b5065726d697373696f6e73272066756e6360648201527f74696f6e2c206f7220646f6573206e6f7420737570706f7274204552432d313660848201527f352e00000000000000000000000000000000000000000000000000000000000060a482015290519081900360c40190fd5b61027f7fb36a9a7c000000000000000000000000000000000000000000000000000000006401000000006102ff810204565b6102b17f813ae5ed000000000000000000000000000000000000000000000000000000006401000000006102ff810204565b60028054600160a060020a031916600160a060020a0383169081179091556040517f22e20df36014b0dba740cae4cec1ad9e418baa8a640398267ab275f9add267b790600090a25050610433565b7fffffffff00000000000000000000000000000000000000000000000000000000808216141561032e57600080fd5b7fffffffff00000000000000000000000000000000000000000000000000000000166000908152600160208190526040909120805460ff19169091179055565b60048054604080517fe9c54384000000000000000000000000000000000000000000000000000000008152600160a060020a03858116948201949094527fb36a9a7c00000000000000000000000000000000000000000000000000000000602482015290516000939092169163e9c543849160448082019260209290919082900301818787803b15801561040157600080fd5b505af1158015610415573d6000803e3d6000fd5b505050506040513d602081101561042b57600080fd5b505192915050565b6108e0806104426000396000f3006080604052600436106100ae5763ffffffff7c010000000000000000000000000000000000000000000000000000000060003504166301ffc9a781146100b35780633b5d195a146100fe5780633e707e471461012f578063715018a61461015057806376bf6030146101675780638da5cb5b1461017f5780638f32d59b14610194578063b36a9a7c146101a9578063cc5f4320146101cd578063ea3d2d7b146101e2578063f2fde38b14610203575b600080fd5b3480156100bf57600080fd5b506100ea7bffffffffffffffffffffffffffffffffffffffffffffffffffffffff1960043516610224565b604080519115158252519081900360200190f35b34801561010a57600080fd5b50610113610258565b60408051600160a060020a039092168252519081900360200190f35b34801561013b57600080fd5b50610113600160a060020a0360043516610267565b34801561015c57600080fd5b50610165610334565b005b34801561017357600080fd5b5061011360043561039e565b34801561018b57600080fd5b506101136103c6565b3480156101a057600080fd5b506100ea6103d5565b3480156101b557600080fd5b506100ea600160a060020a03600435166024356103e6565b3480156101d957600080fd5b5061011361048b565b3480156101ee57600080fd5b50610113600160a060020a036004351661049a565b34801561020f57600080fd5b50610165600160a060020a0360043516610753565b7bffffffffffffffffffffffffffffffffffffffffffffffffffffffff191660009081526001602052604090205460ff1690565b600254600160a060020a031681565b6000806102726103d5565b151561027d57600080fd5b600160a060020a0383161515610303576040805160e560020a62461bcd02815260206004820152602d60248201527f4552432031363520517565727920636f6e74726163742061646472657373206360448201527f616e6e6f74206265203078302e00000000000000000000000000000000000000606482015290519081900360840190fd5b50506004805473ffffffffffffffffffffffffffffffffffffffff198116600160a060020a03938416179091551690565b61033c6103d5565b151561034757600080fd5b60008054604051600160a060020a03909116907f8be0079c531659141344cd1fd0a4f28419497f9722a3daafe3b4186f6b6457e0908390a36000805473ffffffffffffffffffffffffffffffffffffffff19169055565b60038054829081106103ac57fe5b600091825260209091200154600160a060020a0316905081565b600054600160a060020a031690565b600054600160a060020a0316331490565b600254604080517fb36a9a7c000000000000000000000000000000000000000000000000000000008152600160a060020a038581166004830152602482018590529151600093929092169163b36a9a7c9160448082019260209290919082900301818787803b15801561045857600080fd5b505af115801561046c573d6000803e3d6000fd5b505050506040513d602081101561048257600080fd5b50519392505050565b600454600160a060020a031681565b60006104a46103d5565b15156104af57600080fd5b600254600160a060020a038381169116141561053b576040805160e560020a62461bcd02815260206004820152603e60248201527f4e6577207065726d697373696f6e696e6720636f6e747261637420616464726560448201527f7373206973207468652073616d6520617320746865206f6c64206f6e652e0000606482015290519081900360840190fd5b30600160a060020a03831614156105c2576040805160e560020a62461bcd02815260206004820152602e60248201527f4e6577207065726d697373696f6e696e6720636f6e74726163742063616e6e6f60448201527f742062652074686973206f6e652e000000000000000000000000000000000000606482015290519081900360840190fd5b6105cb82610772565b1515610693576040805160e560020a62461bcd02815260206004820152606260248201527f50726f766964656420636f6e747261637420646f6573206e6f7420696d706c6560448201527f6d656e74207468652027636865636b5065726d697373696f6e73272066756e6360648201527f74696f6e2c206f7220646f6573206e6f7420737570706f7274204552432d313660848201527f352e00000000000000000000000000000000000000000000000000000000000060a482015290519081900360c40190fd5b600280546003805460018101825560009182527fc2575a0e9e593c00f959f8c92f12db2869c3395a3b0502d05e2516446f71f85b01805473ffffffffffffffffffffffffffffffffffffffff19908116600160a060020a039485161790915583549286169216821790925560405190917f22e20df36014b0dba740cae4cec1ad9e418baa8a640398267ab275f9add267b791a260038054600019810190811061073857fe5b600091825260209091200154600160a060020a031692915050565b61075b6103d5565b151561076657600080fd5b61076f81610837565b50565b60048054604080517fe9c54384000000000000000000000000000000000000000000000000000000008152600160a060020a03858116948201949094527fb36a9a7c00000000000000000000000000000000000000000000000000000000602482015290516000939092169163e9c543849160448082019260209290919082900301818787803b15801561080557600080fd5b505af1158015610819573d6000803e3d6000fd5b505050506040513d602081101561082f57600080fd5b505192915050565b600160a060020a038116151561084c57600080fd5b60008054604051600160a060020a03808516939216917f8be0079c531659141344cd1fd0a4f28419497f9722a3daafe3b4186f6b6457e091a36000805473ffffffffffffffffffffffffffffffffffffffff1916600160a060020a03929092169190911790555600a165627a7a723058209b619e4e3b04d35158ff0aaaec757a010d09cd1de105fd99a1484a420108e55a0029",
  "source": "pragma solidity ^0.4.24;\n\nimport \"./ERC165Query.sol\";\nimport \"./interfaces/ISecretStorePermissioning.sol\";\nimport \"./interfaces/IERC165Query.sol\";\nimport \"openzeppelin-solidity/contracts/ownership/Ownable.sol\";\nimport \"openzeppelin-solidity/contracts/introspection/ERC165.sol\";\n\n\ncontract PermissioningRelay is ISecretStorePermissioning, Ownable, ERC165 {\n\n    ISecretStorePermissioning public permissioningContract;\n    address[] public oldPermissioningContracts;\n\n    IERC165Query public erc165Query;\n\n    event NewPermissioningContract(address indexed newPermissioningContract);\n\n    constructor(address _erc165Query, address _permissioningContract) public {\n        require(_erc165Query != address(0), \"ERC 165 Query contract address cannot be 0x0.\");\n        \n        erc165Query = IERC165Query(_erc165Query);\n\n        require(\n            _isValidPermissioning(_permissioningContract),\n            \"Provided contract does not implement the 'checkPermissions' function, or does not support ERC-165.\"\n        );\n\n        // ERC 165 support\n        _registerInterface(this.checkPermissions.selector);\n        _registerInterface(\n            this.owner.selector\n            ^ this.isOwner.selector\n            ^ this.renounceOwnership.selector\n            ^ this.transferOwnership.selector\n        );\n        \n        permissioningContract = ISecretStorePermissioning(_permissioningContract);\n        emit NewPermissioningContract(_permissioningContract);\n    }\n\n    function checkPermissions(address user, bytes32 document) public view returns (bool) {\n        return permissioningContract.checkPermissions(user, document);\n    }\n\n    function setPermissioningContract(address _newContract) public onlyOwner returns (address) {\n        require(address(permissioningContract) != _newContract, \"New permissioning contract address is the same as the old one.\");\n        require(address(this) != _newContract, \"New permissioning contract cannot be this one.\");\n        require(\n            _isValidPermissioning(_newContract),\n            \"Provided contract does not implement the 'checkPermissions' function, or does not support ERC-165.\"\n        );\n\n        oldPermissioningContracts.push(address(permissioningContract));\n        permissioningContract = ISecretStorePermissioning(_newContract);\n\n        emit NewPermissioningContract(_newContract);\n        \n        return oldPermissioningContracts[oldPermissioningContracts.length-1];\n    }\n\n    function setERC165Query(address _newContract) public onlyOwner returns (address) {\n        require(_newContract != address(0), \"ERC 165 Query contract address cannot be 0x0.\");\n        address _old = address(erc165Query);\n        erc165Query = IERC165Query(_newContract);\n        return _old;\n    }\n\n    function _isValidPermissioning(address _contract) internal view returns (bool) {\n        return erc165Query.doesContractImplementInterface(\n            _contract,\n            this.checkPermissions.selector\n        );\n    }\n}\n",
  "sourcePath": "/home/aznagy/work/secretstore/secretstore-contracts/contracts/PermissioningRelay.sol",
  "compiler": {
    "name": "solc",
    "version": "0.4.24+commit.e67f0147.Emscripten.clang"
  },
  "schemaVersion": "2.0.1",
  "updatedAt": "2019-01-21T13:36:25.110Z"
}