{
  "contractName": "SecretStoreServerKeyGenerationService",
  "abi": [
    {
      "constant": true,
      "inputs": [],
      "name": "maxServerKeyGenerationRequests",
      "outputs": [
        {
          "name": "",
          "type": "uint256"
        }
      ],
      "payable": false,
      "stateMutability": "view",
      "type": "function"
    },
    {
      "constant": true,
      "inputs": [
        {
          "name": "keyServer",
          "type": "address"
        }
      ],
      "name": "requireKeyServer",
      "outputs": [
        {
          "name": "",
          "type": "uint8"
        }
      ],
      "payable": false,
      "stateMutability": "view",
      "type": "function"
    },
    {
      "constant": true,
      "inputs": [],
      "name": "serverKeyGenerationFee",
      "outputs": [
        {
          "name": "",
          "type": "uint256"
        }
      ],
      "payable": false,
      "stateMutability": "view",
      "type": "function"
    },
    {
      "constant": true,
      "inputs": [],
      "name": "keyServersCount",
      "outputs": [
        {
          "name": "",
          "type": "uint8"
        }
      ],
      "payable": false,
      "stateMutability": "view",
      "type": "function"
    },
    {
      "constant": false,
      "inputs": [],
      "name": "renounceOwnership",
      "outputs": [],
      "payable": false,
      "stateMutability": "nonpayable",
      "type": "function"
    },
    {
      "constant": true,
      "inputs": [],
      "name": "owner",
      "outputs": [
        {
          "name": "",
          "type": "address"
        }
      ],
      "payable": false,
      "stateMutability": "view",
      "type": "function"
    },
    {
      "constant": true,
      "inputs": [],
      "name": "isOwner",
      "outputs": [
        {
          "name": "",
          "type": "bool"
        }
      ],
      "payable": false,
      "stateMutability": "view",
      "type": "function"
    },
    {
      "constant": false,
      "inputs": [],
      "name": "drain",
      "outputs": [],
      "payable": false,
      "stateMutability": "nonpayable",
      "type": "function"
    },
    {
      "constant": false,
      "inputs": [
        {
          "name": "newOwner",
          "type": "address"
        }
      ],
      "name": "transferOwnership",
      "outputs": [],
      "payable": false,
      "stateMutability": "nonpayable",
      "type": "function"
    },
    {
      "inputs": [
        {
          "name": "keyServerSetAddressInit",
          "type": "address"
        }
      ],
      "payable": false,
      "stateMutability": "nonpayable",
      "type": "constructor"
    },
    {
      "payable": true,
      "stateMutability": "payable",
      "type": "fallback"
    },
    {
      "anonymous": false,
      "inputs": [
        {
          "indexed": false,
          "name": "serverKeyId",
          "type": "bytes32"
        },
        {
          "indexed": false,
          "name": "author",
          "type": "address"
        },
        {
          "indexed": false,
          "name": "threshold",
          "type": "uint8"
        }
      ],
      "name": "ServerKeyGenerationRequested",
      "type": "event"
    },
    {
      "anonymous": false,
      "inputs": [
        {
          "indexed": true,
          "name": "serverKeyId",
          "type": "bytes32"
        },
        {
          "indexed": false,
          "name": "serverKeyPublic",
          "type": "bytes"
        }
      ],
      "name": "ServerKeyGenerated",
      "type": "event"
    },
    {
      "anonymous": false,
      "inputs": [
        {
          "indexed": true,
          "name": "serverKeyId",
          "type": "bytes32"
        }
      ],
      "name": "ServerKeyGenerationError",
      "type": "event"
    },
    {
      "anonymous": false,
      "inputs": [
        {
          "indexed": true,
          "name": "previousOwner",
          "type": "address"
        },
        {
          "indexed": true,
          "name": "newOwner",
          "type": "address"
        }
      ],
      "name": "OwnershipTransferred",
      "type": "event"
    },
    {
      "constant": false,
      "inputs": [
        {
          "name": "serverKeyId",
          "type": "bytes32"
        },
        {
          "name": "threshold",
          "type": "uint8"
        }
      ],
      "name": "generateServerKey",
      "outputs": [],
      "payable": true,
      "stateMutability": "payable",
      "type": "function"
    },
    {
      "constant": false,
      "inputs": [
        {
          "name": "serverKeyId",
          "type": "bytes32"
        },
        {
          "name": "serverKeyPublic",
          "type": "bytes"
        }
      ],
      "name": "serverKeyGenerated",
      "outputs": [],
      "payable": false,
      "stateMutability": "nonpayable",
      "type": "function"
    },
    {
      "constant": false,
      "inputs": [
        {
          "name": "serverKeyId",
          "type": "bytes32"
        }
      ],
      "name": "serverKeyGenerationError",
      "outputs": [],
      "payable": false,
      "stateMutability": "nonpayable",
      "type": "function"
    },
    {
      "constant": true,
      "inputs": [],
      "name": "serverKeyGenerationRequestsCount",
      "outputs": [
        {
          "name": "",
          "type": "uint256"
        }
      ],
      "payable": false,
      "stateMutability": "view",
      "type": "function"
    },
    {
      "constant": true,
      "inputs": [
        {
          "name": "index",
          "type": "uint256"
        }
      ],
      "name": "getServerKeyGenerationRequest",
      "outputs": [
        {
          "name": "",
          "type": "bytes32"
        },
        {
          "name": "",
          "type": "address"
        },
        {
          "name": "",
          "type": "uint256"
        }
      ],
      "payable": false,
      "stateMutability": "view",
      "type": "function"
    },
    {
      "constant": true,
      "inputs": [
        {
          "name": "serverKeyId",
          "type": "bytes32"
        },
        {
          "name": "keyServer",
          "type": "address"
        }
      ],
      "name": "isServerKeyGenerationResponseRequired",
      "outputs": [
        {
          "name": "",
          "type": "bool"
        }
      ],
      "payable": false,
      "stateMutability": "view",
      "type": "function"
    },
    {
      "constant": false,
      "inputs": [
        {
          "name": "newFee",
          "type": "uint256"
        }
      ],
      "name": "setServerKeyGenerationFee",
      "outputs": [],
      "payable": false,
      "stateMutability": "nonpayable",
      "type": "function"
    },
    {
      "constant": false,
      "inputs": [
        {
          "name": "newLimit",
          "type": "uint256"
        }
      ],
      "name": "setMaxServerKeyGenerationRequests",
      "outputs": [],
      "payable": false,
      "stateMutability": "nonpayable",
      "type": "function"
    },
    {
      "constant": false,
      "inputs": [
        {
          "name": "serverKeyId",
          "type": "bytes32"
        }
      ],
      "name": "deleteServerKeyGenerationRequest",
      "outputs": [],
      "payable": false,
      "stateMutability": "nonpayable",
      "type": "function"
    }
  ],
  "bytecode": "0x608060405234801561001057600080fd5b50604051602080611346833981016040819052905160008054600160a060020a031916331780825591928392600160a060020a031691907f8be0079c531659141344cd1fd0a4f28419497f9722a3daafe3b4186f6b6457e0908290a360018054600160a060020a031916600160a060020a0392909216919091179055506702c68af0bb1400006004908155600555611299806100ad6000396000f3006080604052600436106100e25763ffffffff60e060020a60003504166317dd3d88811461015857806318c296e814610172578063195a40f2146101995780632b4f030a146101ae5780633eaf9b28146101e55780633fbd7ecd146101fa578063410021f3146102125780635aa8404c1461022a57806364124c861461023f578063715018a61461027d5780638da5cb5b146102925780638f32d59b146102c35780639890220b146102ec578063b8020be514610301578063e54dcfff14610312578063ebbcc2e11461032a578063ec6b03601461034e578063f2fde38b14610372575b6040805160e560020a62461bcd02815260206004820152602260248201527f446972656374207061796d656e747320617265206e6f7420737570706f72746560448201527f642e000000000000000000000000000000000000000000000000000000000000606482015290519081900360840190fd5b34801561016457600080fd5b50610170600435610393565b005b34801561017e57600080fd5b506101876103f0565b60408051918252519081900360200190f35b3480156101a557600080fd5b506101876103f6565b3480156101ba57600080fd5b506101cf600160a060020a03600435166103fd565b6040805160ff9092168252519081900360200190f35b3480156101f157600080fd5b5061018761049a565b34801561020657600080fd5b506101706004356104a0565b34801561021e57600080fd5b506101706004356104df565b34801561023657600080fd5b506101cf6104f7565b34801561024b57600080fd5b50610257600435610587565b60408051938452600160a060020a03909216602084015282820152519081900360600190f35b34801561028957600080fd5b506101706105db565b34801561029e57600080fd5b506102a7610645565b60408051600160a060020a039092168252519081900360200190f35b3480156102cf57600080fd5b506102d8610654565b604080519115158252519081900360200190f35b3480156102f857600080fd5b50610170610665565b61017060043560ff60243516610707565b34801561031e57600080fd5b50610170600435610993565b34801561033657600080fd5b506101706004803590602480359081019101356109ab565b34801561035a57600080fd5b506102d8600435600160a060020a0360243516610b6c565b34801561037e57600080fd5b50610170600160a060020a0360043516610ba5565b600061039d610654565b15156103a857600080fd5b5060008181526006602052604090206103c18282610bc4565b60405182907fc79a8674b4a757f1b4372e9f51be17ee6d43b631ca0a97b477580f18fc76e1b890600090a25050565b60055481565b6007545b90565b600154604080517f287fb40c000000000000000000000000000000000000000000000000000000008152600160a060020a0384811660048301529151600093929092169163287fb40c9160248082019260209290919082900301818787803b15801561046857600080fd5b505af115801561047c573d6000803e3d6000fd5b505050506040513d602081101561049257600080fd5b505192915050565b60045481565b60006104ab336103fd565b505060008181526006602052604090208054600160a060020a031615156104d1576104db565b6103c18282610bc4565b5050565b6104e7610654565b15156104f257600080fd5b600455565b600154604080517f5560c9650000000000000000000000000000000000000000000000000000000081529051600092600160a060020a031691635560c96591600480830192602092919082900301818787803b15801561055657600080fd5b505af115801561056a573d6000803e3d6000fd5b505050506040513d602081101561058057600080fd5b5051905090565b600080600080600060078681548110151561059e57fe5b6000918252602080832091909101548083526006909152604090912080546001909101549198600160a060020a0390911697509095509350505050565b6105e3610654565b15156105ee57600080fd5b60008054604051600160a060020a03909116907f8be0079c531659141344cd1fd0a4f28419497f9722a3daafe3b4186f6b6457e0908390a36000805473ffffffffffffffffffffffffffffffffffffffff19169055565b600054600160a060020a031690565b600054600160a060020a0316331490565b336000908152600260205260409020548015156106cc576040805160e560020a62461bcd02815260206004820152600d60248201527f42616c616e636520697320302e00000000000000000000000000000000000000604482015290519081900360640190fd5b336000818152600260205260408082208290555183156108fc0291849190818181858888f193505050501580156104db573d6000803e3d6000fd5b6000600454803410151515610766576040805160e560020a62461bcd02815260206004820181905260248201527f5472616e73616374696f6e2076616c7565206973206e6f7420656e6f7567682e604482015290519081900360640190fd5b61076e6104f7565b60ff168360010160ff16111515156107d0576040805160e560020a62461bcd02815260206004820152601560248201527f5468726573686f6c6420697320696e76616c69642e0000000000000000000000604482015290519081900360640190fd5b60055460075410610851576040805160e560020a62461bcd02815260206004820152602360248201527f4d6178696d756d206e756d626572206f6620726571756573747320726561636860448201527f65642e0000000000000000000000000000000000000000000000000000000000606482015290519081900360840190fd5b60008481526006602052604090208054909250600160a060020a0316156108e8576040805160e560020a62461bcd02815260206004820152602560248201527f5265717565737420617574686f7220616464726573732063616e6e6f7420626560448201527f203078302e000000000000000000000000000000000000000000000000000000606482015290519081900360840190fd5b6108f0610c49565b815473ffffffffffffffffffffffffffffffffffffffff191633908117835560ff841660018085018290556007805491820181556000527fa66cc928b5edb82af9bd49922954155ab7b0942694bea4ce44661d9a8736c6880186905560408051878152602081019390935282810191909152517f7e7d18cca7d509b32b27d10d4c0f1dfed4d779294388818f23941d13450dacb19181900360600190a150505050565b61099b610654565b15156109a657600080fd5b600555565b60008060008085858080601f016020809104026020016040519081016040528093929190818152602001838380828437505084516040149350610a3c92505050576040805160e560020a62461bcd02815260206004820152601860248201527f5075626c6963206b6579206973206e6f742076616c69642e0000000000000000604482015290519081900360640190fd5b60008881526006602052604090208054909550600160a060020a03161515610a6357610b62565b610a6c336103fd565b935086866040518083838082843782019150509250505060405180910390209250610aa685600201856001610a9f6104f7565b0386610e0b565b91506001826002811115610ab657fe5b1415610ac157610b62565b610acb8886610bc4565b6000826002811115610ad957fe5b1415610b3657604080516020808252810188905289917f20da9149b09a59e39dbfed5cfa1e68c9d9984736b0f73a0b1d9f7a063f093fc5918a918a91908190810184848082843760405192018290039550909350505050a2610b62565b60405188907fc79a8674b4a757f1b4372e9f51be17ee6d43b631ca0a97b477580f18fc76e1b890600090a25b5050505050505050565b6000806000610b7a846103fd565b60008681526006602052604090209092509050610b9a6002820183610fd0565b92505b505092915050565b610bad610654565b1515610bb857600080fd5b610bc18161107f565b50565b610bd0816002016110fc565b60008281526006602081905260408220805473ffffffffffffffffffffffffffffffffffffffff1916815560018101839055600281018381556003820184905560048201805460ff199081169091559282018054909316909255919081610c3a6007850182611211565b505050506104db60078361114d565b600080600080600080610c5a6104f7565b95503494508560ff1685811515610c6d57fe5b049350600092505b6001860360ff168360ff161015610d4c57600154604080517fc66198dc00000000000000000000000000000000000000000000000000000000815260ff861660048201529051600160a060020a039092169163c66198dc916024808201926020929091908290030181600087803b158015610cef57600080fd5b505af1158015610d03573d6000803e3d6000fd5b505050506040513d6020811015610d1957600080fd5b5051600160a060020a03811660009081526002602052604090208054860190559484900394600193909301929150610c75565b600154604080517fc66198dc00000000000000000000000000000000000000000000000000000000815260ff6000198a011660048201529051600160a060020a039092169163c66198dc916024808201926020929091908290030181600087803b158015610db957600080fd5b505af1158015610dcd573d6000803e3d6000fd5b505050506040513d6020811015610de357600080fd5b5051600160a060020a0316600090815260026020526040902080549095019094555050505050565b6000806000806000600160009054906101000a9004600160a060020a0316600160a060020a0316636452e8216040518163ffffffff1660e060020a028152600401602060405180830381600087803b158015610e6657600080fd5b505af1158015610e7a573d6000803e3d6000fd5b505050506040513d6020811015610e9057600080fd5b505160028a015490945060ff161515610eab57838955610ebd565b88548414610ebd57610ebd89856111d5565b600189015460ff891660020a9350831615610edb5760019450610fc4565b600086815260038a016020526040902080546001808c0180548717905560028c01805460ff8181168401811660ff199283161790925584549382168301918216931683179093559193501415610f465760058901805460018101825560009182526020909120018690555b600489015460ff90811690831610610f865760048901805460ff191660ff848116919091179091556000198301811690881611610f865760009450610fc4565b600289015460ff16610f966104f7565b60048b0154919003915060001960ff91821683010181169088161115610fbf5760029450610fc4565b600194505b50505050949350505050565b6000806000600160009054906101000a9004600160a060020a0316600160a060020a0316636452e8216040518163ffffffff1660e060020a028152600401602060405180830381600087803b15801561102857600080fd5b505af115801561103c573d6000803e3d6000fd5b505050506040513d602081101561105257600080fd5b5051855490925082146110685760019250610b9d565b5050506001919091015460ff90911660020a161590565b600160a060020a038116151561109457600080fd5b60008054604051600160a060020a03808516939216917f8be0079c531659141344cd1fd0a4f28419497f9722a3daafe3b4186f6b6457e091a36000805473ffffffffffffffffffffffffffffffffffffffff1916600160a060020a0392909216919091179055565b60005b60058201548110156104db57816003016000836005018381548110151561112257fe5b600091825260208083209091015483528201929092526040019020805460ff191690556001016110ff565b60005b82548110156111d0578254829084908390811061116957fe5b60009182526020909120015414156111c85782548390600019810190811061118d57fe5b906000526020600020015483828154811015156111a657fe5b6000918252602090912001558254600019016111c2848261122f565b506111d0565b600101611150565b505050565b6111de826110fc565b80825560006001830181905560028301805460ff1990811690915560048401805490911690556111d0600584018261122f565b5080546000825590600052602060002090810190610bc1919061124f565b8154818355818111156111d0576000838152602090206111d09181019083015b6103fa91905b808211156112695760008155600101611255565b50905600a165627a7a7230582079f88406ec5bdf83bdc93db125d72c738e4a32d498e2db3b3129d67fc4af02df0029",
  "source": "//! The Secret Store server key generation service contract.\n//!\n//! Copyright 2017 Svyatoslav Nikolsky, Parity Technologies Ltd.\n//!\n//! Licensed under the Apache License, Version 2.0 (the \"License\");\n//! you may not use this file except in compliance with the License.\n//! You may obtain a copy of the License at\n//!\n//!     http://www.apache.org/licenses/LICENSE-2.0\n//!\n//! Unless required by applicable law or agreed to in writing, software\n//! distributed under the License is distributed on an \"AS IS\" BASIS,\n//! WITHOUT WARRANTIES OR CONDITIONS OF ANY KIND, either express or implied.\n//! See the License for the specific language governing permissions and\n//! limitations under the License.\n\npragma solidity ^0.4.24;\n\nimport \"../interfaces/SecretStoreService.sol\";\nimport \"./SecretStoreServiceBase.sol\";\n\n\n/// Server Key generation service contract.\n/* solium-disable-next-line */\ncontract SecretStoreServerKeyGenerationService is SecretStoreServiceBase, ServerKeyGenerationServiceClientApi, ServerKeyGenerationServiceKeyServerApi {\n    /// Server key generation request.\n    struct ServerKeyGenerationRequest {\n        address author;\n        uint256 threshold;\n        RequestResponses responses;\n    }\n\n    /// When sever key generation request is received.\n    event ServerKeyGenerationRequested(bytes32 serverKeyId, address author, uint8 threshold);\n    /// When server key is generated.\n    event ServerKeyGenerated(bytes32 indexed serverKeyId, bytes serverKeyPublic);\n    /// When error occurs during server key generation.\n    event ServerKeyGenerationError(bytes32 indexed serverKeyId);\n\n    /// Constructor.\n    constructor(address keyServerSetAddressInit) SecretStoreServiceBase(keyServerSetAddressInit) public {\n        serverKeyGenerationFee = 200 finney;\n        maxServerKeyGenerationRequests = 4;\n    }\n\n    // === Interface methods ===\n\n    /// We do not support direct payments.\n    function() public payable {\n        revert(\"Direct payments are not supported.\");\n    }\n\n    /// Request new server key generation. Generated key will be published via ServerKeyGenerated event when available.\n    function generateServerKey(bytes32 serverKeyId, uint8 threshold) external payable\n        whenFeePaid(serverKeyGenerationFee)\n    {\n        // we can't process requests with invalid threshold\n        require(threshold + 1 <= keyServersCount(), \"Threshold is invalid.\");\n        // check maximum number of requests\n        require(serverKeyGenerationRequestsKeys.length < maxServerKeyGenerationRequests, \"Maximum number of requests reached.\");\n\n        ServerKeyGenerationRequest storage request = serverKeyGenerationRequests[serverKeyId];\n        require(request.author == address(0), \"Request author address cannot be 0x0.\");\n        deposit();\n\n        request.author = msg.sender;\n        request.threshold = threshold;\n        serverKeyGenerationRequestsKeys.push(serverKeyId);\n\n        emit ServerKeyGenerationRequested(serverKeyId, msg.sender, threshold);\n    }\n\n    /// Called when generation is reported by key server.\n    function serverKeyGenerated(bytes32 serverKeyId, bytes serverKeyPublic) external validPublic(serverKeyPublic) {\n        // check if request still active\n        ServerKeyGenerationRequest storage request = serverKeyGenerationRequests[serverKeyId];\n        if (request.author == address(0)) {\n            return;\n        }\n\n        // insert response (we're waiting for responses from all authorities here)\n        uint8 keyServerIndex = requireKeyServer(msg.sender);\n        bytes32 response = keccak256(serverKeyPublic);\n        ResponseSupport responseSupport = insertResponse(\n            request.responses,\n            keyServerIndex,\n            keyServersCount() - 1,\n            response);\n\n        // ...and check if there are enough support\n        if (responseSupport == ResponseSupport.Unconfirmed) { // not confirmed (yet)\n            return;\n        }\n\n        // delete request and fire event\n        clearServerKeyGenerationRequest(serverKeyId, request);\n        if (responseSupport == ResponseSupport.Confirmed) { // confirmed\n            emit ServerKeyGenerated(serverKeyId, serverKeyPublic);\n        } else { // no consensus possible at all\n            emit ServerKeyGenerationError(serverKeyId);\n        }\n    }\n\n    /// Called when error occurs during server key generation.\n    function serverKeyGenerationError(bytes32 serverKeyId) external {\n        // check that it is called by key server\n        requireKeyServer(msg.sender);\n\n        // check if request still active\n        ServerKeyGenerationRequest storage request = serverKeyGenerationRequests[serverKeyId];\n        if (request.author == address(0)) {\n            return;\n        }\n\n        // any error in key generation is fatal, because we need all key servers to participate in generation\n        // => delete request and fire event\n        clearServerKeyGenerationRequest(serverKeyId, request);\n        emit ServerKeyGenerationError(serverKeyId);\n    }\n\n    /// Get count of pending server key generation requests.\n    function serverKeyGenerationRequestsCount() external view returns (uint256) {\n        return serverKeyGenerationRequestsKeys.length;\n    }\n\n    /// Get server key generation request with given index.\n    /// Returns: (serverKeyId, author, threshold)\n    function getServerKeyGenerationRequest(uint256 index) external view returns (bytes32, address, uint256) {\n        bytes32 serverKeyId = serverKeyGenerationRequestsKeys[index];\n        ServerKeyGenerationRequest storage request = serverKeyGenerationRequests[serverKeyId];\n        return (\n            serverKeyId,\n            request.author,\n            request.threshold\n        );\n    }\n\n    /// Returs true if response from given keyServer is required.\n    function isServerKeyGenerationResponseRequired(bytes32 serverKeyId, address keyServer) external view returns (bool) {\n        uint8 keyServerIndex = requireKeyServer(keyServer);\n        ServerKeyGenerationRequest storage request = serverKeyGenerationRequests[serverKeyId];\n        return isResponseRequired(request.responses, keyServerIndex);\n    }\n\n    // === Administrative methods ===\n\n    /// Set server key generation fee.\n    function setServerKeyGenerationFee(uint256 newFee)\n        public\n        onlyOwner\n    {\n        serverKeyGenerationFee = newFee;\n    }\n\n    /// Set server key generation requests limit.\n    function setMaxServerKeyGenerationRequests(uint256 newLimit)\n        public\n        onlyOwner\n    {\n        maxServerKeyGenerationRequests = newLimit;\n    }\n\n    /// Delete server key generation request.\n    function deleteServerKeyGenerationRequest(bytes32 serverKeyId)\n        public\n        onlyOwner\n    {\n        ServerKeyGenerationRequest storage request = serverKeyGenerationRequests[serverKeyId];\n        clearServerKeyGenerationRequest(serverKeyId, request);\n\n        emit ServerKeyGenerationError(serverKeyId);\n    }\n\n    // === Internal methods ===\n\n    /// Clear server key generation request traces.\n    function clearServerKeyGenerationRequest(bytes32 serverKeyId, ServerKeyGenerationRequest storage request) private {\n        clearResponses(request.responses);\n        delete serverKeyGenerationRequests[serverKeyId];\n\n        removeRequestKey(serverKeyGenerationRequestsKeys, serverKeyId);\n    }\n\n    /// Server key generation fee.\n    uint256 public serverKeyGenerationFee;\n    /// Maximal number of active server key generation requests. We're limiting this number to avoid\n    /// infinite gas costs of some functions.\n    uint256 public maxServerKeyGenerationRequests;\n\n    /// Pending generation requests.\n    mapping (bytes32 => ServerKeyGenerationRequest) private serverKeyGenerationRequests;\n    /// Pending generation requests keys.\n    bytes32[] private serverKeyGenerationRequestsKeys;\n}\n",
  "sourcePath": "/home/aznagy/work/secretstore/secretstore-contracts/contracts/service/SecretStoreServerKeyGenerationService.sol",
  "compiler": {
    "name": "solc",
    "version": "0.4.25+commit.59dbf8f1.Emscripten.clang"
  },
  "schemaVersion": "2.0.2",
  "updatedAt": "2019-01-23T09:53:59.500Z"
}