{
  "contractName": "SecretStoreDocumentKeyStoreService",
  "abi": [
    {
      "inputs": [
        {
          "internalType": "address",
          "name": "keyServerSetAddressInit",
          "type": "address"
        }
      ],
      "stateMutability": "nonpayable",
      "type": "constructor"
    },
    {
      "anonymous": false,
      "inputs": [
        {
          "indexed": true,
          "internalType": "bytes32",
          "name": "serverKeyId",
          "type": "bytes32"
        }
      ],
      "name": "DocumentKeyStoreError",
      "type": "event"
    },
    {
      "anonymous": false,
      "inputs": [
        {
          "indexed": false,
          "internalType": "bytes32",
          "name": "serverKeyId",
          "type": "bytes32"
        },
        {
          "indexed": false,
          "internalType": "address",
          "name": "author",
          "type": "address"
        },
        {
          "indexed": false,
          "internalType": "bytes",
          "name": "commonPoint",
          "type": "bytes"
        },
        {
          "indexed": false,
          "internalType": "bytes",
          "name": "encryptedPoint",
          "type": "bytes"
        }
      ],
      "name": "DocumentKeyStoreRequested",
      "type": "event"
    },
    {
      "anonymous": false,
      "inputs": [
        {
          "indexed": true,
          "internalType": "bytes32",
          "name": "serverKeyId",
          "type": "bytes32"
        }
      ],
      "name": "DocumentKeyStored",
      "type": "event"
    },
    {
      "anonymous": false,
      "inputs": [
        {
          "indexed": true,
          "internalType": "address",
          "name": "previousOwner",
          "type": "address"
        },
        {
          "indexed": true,
          "internalType": "address",
          "name": "newOwner",
          "type": "address"
        }
      ],
      "name": "OwnershipTransferred",
      "type": "event"
    },
    {
      "inputs": [],
      "name": "documentKeyStoreFee",
      "outputs": [
        {
          "internalType": "uint256",
          "name": "",
          "type": "uint256"
        }
      ],
      "stateMutability": "view",
      "type": "function"
    },
    {
      "inputs": [],
      "name": "drain",
      "outputs": [],
      "stateMutability": "nonpayable",
      "type": "function"
    },
    {
      "inputs": [],
      "name": "keyServersCount",
      "outputs": [
        {
          "internalType": "uint8",
          "name": "",
          "type": "uint8"
        }
      ],
      "stateMutability": "view",
      "type": "function"
    },
    {
      "inputs": [],
      "name": "maxDocumentKeyStoreRequests",
      "outputs": [
        {
          "internalType": "uint256",
          "name": "",
          "type": "uint256"
        }
      ],
      "stateMutability": "view",
      "type": "function"
    },
    {
      "inputs": [],
      "name": "owner",
      "outputs": [
        {
          "internalType": "address",
          "name": "",
          "type": "address"
        }
      ],
      "stateMutability": "view",
      "type": "function"
    },
    {
      "inputs": [],
      "name": "renounceOwnership",
      "outputs": [],
      "stateMutability": "nonpayable",
      "type": "function"
    },
    {
      "inputs": [
        {
          "internalType": "address",
          "name": "keyServer",
          "type": "address"
        }
      ],
      "name": "requireKeyServer",
      "outputs": [
        {
          "internalType": "uint8",
          "name": "",
          "type": "uint8"
        }
      ],
      "stateMutability": "view",
      "type": "function"
    },
    {
      "inputs": [
        {
          "internalType": "address",
          "name": "newOwner",
          "type": "address"
        }
      ],
      "name": "transferOwnership",
      "outputs": [],
      "stateMutability": "nonpayable",
      "type": "function"
    },
    {
      "stateMutability": "payable",
      "type": "receive"
    },
    {
      "inputs": [
        {
          "internalType": "bytes32",
          "name": "serverKeyId",
          "type": "bytes32"
        },
        {
          "internalType": "bytes",
          "name": "commonPoint",
          "type": "bytes"
        },
        {
          "internalType": "bytes",
          "name": "encryptedPoint",
          "type": "bytes"
        }
      ],
      "name": "storeDocumentKey",
      "outputs": [],
      "stateMutability": "payable",
      "type": "function"
    },
    {
      "inputs": [
        {
          "internalType": "bytes32",
          "name": "serverKeyId",
          "type": "bytes32"
        }
      ],
      "name": "documentKeyStored",
      "outputs": [],
      "stateMutability": "nonpayable",
      "type": "function"
    },
    {
      "inputs": [
        {
          "internalType": "bytes32",
          "name": "serverKeyId",
          "type": "bytes32"
        }
      ],
      "name": "documentKeyStoreError",
      "outputs": [],
      "stateMutability": "nonpayable",
      "type": "function"
    },
    {
      "inputs": [],
      "name": "documentKeyStoreRequestsCount",
      "outputs": [
        {
          "internalType": "uint256",
          "name": "",
          "type": "uint256"
        }
      ],
      "stateMutability": "view",
      "type": "function"
    },
    {
      "inputs": [
        {
          "internalType": "uint256",
          "name": "index",
          "type": "uint256"
        }
      ],
      "name": "getDocumentKeyStoreRequest",
      "outputs": [
        {
          "internalType": "bytes32",
          "name": "",
          "type": "bytes32"
        },
        {
          "internalType": "address",
          "name": "",
          "type": "address"
        },
        {
          "internalType": "bytes",
          "name": "",
          "type": "bytes"
        },
        {
          "internalType": "bytes",
          "name": "",
          "type": "bytes"
        }
      ],
      "stateMutability": "view",
      "type": "function"
    },
    {
      "inputs": [
        {
          "internalType": "bytes32",
          "name": "serverKeyId",
          "type": "bytes32"
        },
        {
          "internalType": "address",
          "name": "keyServer",
          "type": "address"
        }
      ],
      "name": "isDocumentKeyStoreResponseRequired",
      "outputs": [
        {
          "internalType": "bool",
          "name": "",
          "type": "bool"
        }
      ],
      "stateMutability": "view",
      "type": "function"
    },
    {
      "inputs": [
        {
          "internalType": "uint256",
          "name": "newFee",
          "type": "uint256"
        }
      ],
      "name": "setDocumentKeyStoreFee",
      "outputs": [],
      "stateMutability": "nonpayable",
      "type": "function"
    },
    {
      "inputs": [
        {
          "internalType": "uint256",
          "name": "newLimit",
          "type": "uint256"
        }
      ],
      "name": "setMaxDocumentKeyStoreRequests",
      "outputs": [],
      "stateMutability": "nonpayable",
      "type": "function"
    },
    {
      "inputs": [
        {
          "internalType": "bytes32",
          "name": "serverKeyId",
          "type": "bytes32"
        }
      ],
      "name": "deleteDocumentKeyStoreRequest",
      "outputs": [],
      "stateMutability": "nonpayable",
      "type": "function"
    }
  ],
  "bytecode": "0x608060405234801561001057600080fd5b506040516124383803806124388339818101604052602081101561003357600080fd5b810190808051906020019092919050505080600061005561015260201b60201c565b9050806000806101000a81548173ffffffffffffffffffffffffffffffffffffffff021916908373ffffffffffffffffffffffffffffffffffffffff1602179055508073ffffffffffffffffffffffffffffffffffffffff16600073ffffffffffffffffffffffffffffffffffffffff167f8be0079c531659141344cd1fd0a4f28419497f9722a3daafe3b4186f6b6457e060405160405180910390a35080600160006101000a81548173ffffffffffffffffffffffffffffffffffffffff021916908373ffffffffffffffffffffffffffffffffffffffff1602179055505067016345785d8a000060048190555060086005819055505061015a565b600033905090565b6122cf806101696000396000f3fe6080604052600436106101025760003560e01c80638b97496711610095578063a020846a11610064578063a020846a146104d0578063c0332ca1146104fb578063d413995b14610536578063f2fde38b14610571578063fb2f439b146105c257610158565b80638b974967146103b45780638ba9e398146103ef5780638da5cb5b146104625780639890220b146104b957610158565b8063663c87cd116100d1578063663c87cd146102fc578063715018a61461032757806387f76b1a1461033e5780638a9a9a0f1461037957610158565b80630fe7db4a1461015d5780632b4f030a146102355780634bcdff5e146102a05780635aa8404c146102cb57610158565b36610158576040517f08c379a000000000000000000000000000000000000000000000000000000000815260040180806020018281038252602281526020018061222f6022913960400191505060405180910390fd5b600080fd5b6102336004803603606081101561017357600080fd5b81019080803590602001909291908035906020019064010000000081111561019a57600080fd5b8201836020820111156101ac57600080fd5b803590602001918460018302840111640100000000831117156101ce57600080fd5b9091929391929390803590602001906401000000008111156101ef57600080fd5b82018360208201111561020157600080fd5b8035906020019184600183028401116401000000008311171561022357600080fd5b909192939192939050505061071c565b005b34801561024157600080fd5b506102846004803603602081101561025857600080fd5b81019080803573ffffffffffffffffffffffffffffffffffffffff169060200190929190505050610bc3565b604051808260ff1660ff16815260200191505060405180910390f35b3480156102ac57600080fd5b506102b5610ca6565b6040518082815260200191505060405180910390f35b3480156102d757600080fd5b506102e0610cac565b604051808260ff1660ff16815260200191505060405180910390f35b34801561030857600080fd5b50610311610d56565b6040518082815260200191505060405180910390f35b34801561033357600080fd5b5061033c610d63565b005b34801561034a57600080fd5b506103776004803603602081101561036157600080fd5b8101908080359060200190929190505050610eeb565b005b34801561038557600080fd5b506103b26004803603602081101561039c57600080fd5b8101908080359060200190929190505050610fa7565b005b3480156103c057600080fd5b506103ed600480360360208110156103d757600080fd5b81019080803590602001909291905050506110b6565b005b3480156103fb57600080fd5b506104486004803603604081101561041257600080fd5b8101908080359060200190929190803573ffffffffffffffffffffffffffffffffffffffff169060200190929190505050611189565b604051808215151515815260200191505060405180910390f35b34801561046e57600080fd5b506104776111c5565b604051808273ffffffffffffffffffffffffffffffffffffffff1673ffffffffffffffffffffffffffffffffffffffff16815260200191505060405180910390f35b3480156104c557600080fd5b506104ce6111ee565b005b3480156104dc57600080fd5b506104e5611338565b6040518082815260200191505060405180910390f35b34801561050757600080fd5b506105346004803603602081101561051e57600080fd5b810190808035906020019092919050505061133e565b005b34801561054257600080fd5b5061056f6004803603602081101561055957600080fd5b8101908080359060200190929190505050611459565b005b34801561057d57600080fd5b506105c06004803603602081101561059457600080fd5b81019080803573ffffffffffffffffffffffffffffffffffffffff16906020019092919050505061152c565b005b3480156105ce57600080fd5b506105fb600480360360208110156105e557600080fd5b8101908080359060200190929190505050611739565b604051808581526020018473ffffffffffffffffffffffffffffffffffffffff1673ffffffffffffffffffffffffffffffffffffffff1681526020018060200180602001838103835285818151815260200191508051906020019080838360005b8381101561067757808201518184015260208101905061065c565b50505050905090810190601f1680156106a45780820380516001836020036101000a031916815260200191505b50838103825284818151815260200191508051906020019080838360005b838110156106dd5780820151818401526020810190506106c2565b50505050905090810190601f16801561070a5780820380516001836020036101000a031916815260200191505b50965050505050505060405180910390f35b60045480341015610795576040517f08c379a00000000000000000000000000000000000000000000000000000000081526004018080602001828103825260208152602001807f5472616e73616374696f6e2076616c7565206973206e6f7420656e6f7567682e81525060200191505060405180910390fd5b84848080601f016020809104026020016040519081016040528093929190818152602001838380828437600081840152601f19601f820116905080830192505050505050506040815114610851576040517f08c379a00000000000000000000000000000000000000000000000000000000081526004018080602001828103825260188152602001807f5075626c6963206b6579206973206e6f742076616c69642e000000000000000081525060200191505060405180910390fd5b83838080601f016020809104026020016040519081016040528093929190818152602001838380828437600081840152601f19601f82011690508083019250505050505050604081511461090d576040517f08c379a00000000000000000000000000000000000000000000000000000000081526004018080602001828103825260188152602001807f5075626c6963206b6579206973206e6f742076616c69642e000000000000000081525060200191505060405180910390fd5b6005546007805490501061096c576040517f08c379a00000000000000000000000000000000000000000000000000000000081526004018080602001828103825260238152602001806122776023913960400191505060405180910390fd5b6000600660008a81526020019081526020016000209050600073ffffffffffffffffffffffffffffffffffffffff168160000160009054906101000a900473ffffffffffffffffffffffffffffffffffffffff1673ffffffffffffffffffffffffffffffffffffffff1614610a49576040517f08c379a000000000000000000000000000000000000000000000000000000000815260040180806020018281038252601e8152602001807f5265717565737420617574686f722061646472657373206973203078302e000081525060200191505060405180910390fd5b610a516118e9565b338160000160006101000a81548173ffffffffffffffffffffffffffffffffffffffff021916908373ffffffffffffffffffffffffffffffffffffffff1602179055508787826001019190610aa79291906120fb565b508585826002019190610abb9291906120fb565b5060078990806001815401808255809150506001900390600052602060002001600090919091909150557fadc87e5ceadda3a573403a1ad2d7e815d4482b89ea2034e49d188de6843ee43d89338a8a8a8a604051808781526020018673ffffffffffffffffffffffffffffffffffffffff1673ffffffffffffffffffffffffffffffffffffffff16815260200180602001806020018381038352878782818152602001925080828437600081840152601f19601f8201169050808301925050508381038252858582818152602001925080828437600081840152601f19601f8201169050808301925050509850505050505050505060405180910390a1505050505050505050565b6000600160009054906101000a900473ffffffffffffffffffffffffffffffffffffffff1673ffffffffffffffffffffffffffffffffffffffff1663287fb40c836040518263ffffffff1660e01b8152600401808273ffffffffffffffffffffffffffffffffffffffff1673ffffffffffffffffffffffffffffffffffffffff16815260200191505060206040518083038186803b158015610c6457600080fd5b505afa158015610c78573d6000803e3d6000fd5b505050506040513d6020811015610c8e57600080fd5b81019080805190602001909291905050509050919050565b60055481565b6000600160009054906101000a900473ffffffffffffffffffffffffffffffffffffffff1673ffffffffffffffffffffffffffffffffffffffff16635560c9656040518163ffffffff1660e01b815260040160206040518083038186803b158015610d1657600080fd5b505afa158015610d2a573d6000803e3d6000fd5b505050506040513d6020811015610d4057600080fd5b8101908080519060200190929190505050905090565b6000600780549050905090565b610d6b611b49565b73ffffffffffffffffffffffffffffffffffffffff166000809054906101000a900473ffffffffffffffffffffffffffffffffffffffff1673ffffffffffffffffffffffffffffffffffffffff1614610e2c576040517f08c379a00000000000000000000000000000000000000000000000000000000081526004018080602001828103825260208152602001807f4f776e61626c653a2063616c6c6572206973206e6f7420746865206f776e657281525060200191505060405180910390fd5b600073ffffffffffffffffffffffffffffffffffffffff166000809054906101000a900473ffffffffffffffffffffffffffffffffffffffff1673ffffffffffffffffffffffffffffffffffffffff167f8be0079c531659141344cd1fd0a4f28419497f9722a3daafe3b4186f6b6457e060405160405180910390a360008060006101000a81548173ffffffffffffffffffffffffffffffffffffffff021916908373ffffffffffffffffffffffffffffffffffffffff160217905550565b6000600660008381526020019081526020016000209050600073ffffffffffffffffffffffffffffffffffffffff168160000160009054906101000a900473ffffffffffffffffffffffffffffffffffffffff1673ffffffffffffffffffffffffffffffffffffffff161415610f615750610fa4565b610f6a33610bc3565b50610f758282611b51565b817f1accba7cc95d8cf1f4f927b53957972a0d92aa6f96636f1fd988dad93d263e9760405160405180910390a2505b50565b6000600660008381526020019081526020016000209050600073ffffffffffffffffffffffffffffffffffffffff168160000160009054906101000a900473ffffffffffffffffffffffffffffffffffffffff1673ffffffffffffffffffffffffffffffffffffffff16141561101d57506110b3565b600061102833610bc3565b905060008060001b9050600061104d84600301846001611046610cac565b0385611c18565b90506001600281111561105c57fe5b81600281111561106857fe5b141561107757505050506110b3565b6110818585611b51565b847ff97081917a769be6d07eefdd63666c32b011f9dba0bb0eed6cf1b9c9b987461c60405160405180910390a2505050505b50565b6110be611b49565b73ffffffffffffffffffffffffffffffffffffffff166000809054906101000a900473ffffffffffffffffffffffffffffffffffffffff1673ffffffffffffffffffffffffffffffffffffffff161461117f576040517f08c379a00000000000000000000000000000000000000000000000000000000081526004018080602001828103825260208152602001807f4f776e61626c653a2063616c6c6572206973206e6f7420746865206f776e657281525060200191505060405180910390fd5b8060048190555050565b60008061119583610bc3565b905060006006600086815260200190815260200160002090506111bb8160030183611eb2565b9250505092915050565b60008060009054906101000a900473ffffffffffffffffffffffffffffffffffffffff16905090565b6000600260003373ffffffffffffffffffffffffffffffffffffffff1673ffffffffffffffffffffffffffffffffffffffff16815260200190815260200160002054905060008114156112a9576040517f08c379a000000000000000000000000000000000000000000000000000000000815260040180806020018281038252600d8152602001807f42616c616e636520697320302e0000000000000000000000000000000000000081525060200191505060405180910390fd5b6000600260003373ffffffffffffffffffffffffffffffffffffffff1673ffffffffffffffffffffffffffffffffffffffff168152602001908152602001600020819055503373ffffffffffffffffffffffffffffffffffffffff166108fc829081150290604051600060405180830381858888f19350505050158015611334573d6000803e3d6000fd5b5050565b60045481565b611346611b49565b73ffffffffffffffffffffffffffffffffffffffff166000809054906101000a900473ffffffffffffffffffffffffffffffffffffffff1673ffffffffffffffffffffffffffffffffffffffff1614611407576040517f08c379a00000000000000000000000000000000000000000000000000000000081526004018080602001828103825260208152602001807f4f776e61626c653a2063616c6c6572206973206e6f7420746865206f776e657281525060200191505060405180910390fd5b60006006600083815260200190815260200160002090506114288282611b51565b817f1accba7cc95d8cf1f4f927b53957972a0d92aa6f96636f1fd988dad93d263e9760405160405180910390a25050565b611461611b49565b73ffffffffffffffffffffffffffffffffffffffff166000809054906101000a900473ffffffffffffffffffffffffffffffffffffffff1673ffffffffffffffffffffffffffffffffffffffff1614611522576040517f08c379a00000000000000000000000000000000000000000000000000000000081526004018080602001828103825260208152602001807f4f776e61626c653a2063616c6c6572206973206e6f7420746865206f776e657281525060200191505060405180910390fd5b8060058190555050565b611534611b49565b73ffffffffffffffffffffffffffffffffffffffff166000809054906101000a900473ffffffffffffffffffffffffffffffffffffffff1673ffffffffffffffffffffffffffffffffffffffff16146115f5576040517f08c379a00000000000000000000000000000000000000000000000000000000081526004018080602001828103825260208152602001807f4f776e61626c653a2063616c6c6572206973206e6f7420746865206f776e657281525060200191505060405180910390fd5b600073ffffffffffffffffffffffffffffffffffffffff168173ffffffffffffffffffffffffffffffffffffffff16141561167b576040517f08c379a00000000000000000000000000000000000000000000000000000000081526004018080602001828103825260268152602001806122516026913960400191505060405180910390fd5b8073ffffffffffffffffffffffffffffffffffffffff166000809054906101000a900473ffffffffffffffffffffffffffffffffffffffff1673ffffffffffffffffffffffffffffffffffffffff167f8be0079c531659141344cd1fd0a4f28419497f9722a3daafe3b4186f6b6457e060405160405180910390a3806000806101000a81548173ffffffffffffffffffffffffffffffffffffffff021916908373ffffffffffffffffffffffffffffffffffffffff16021790555050565b60008060608060006007868154811061174e57fe5b906000526020600020015490506000600660008381526020019081526020016000209050818160000160009054906101000a900473ffffffffffffffffffffffffffffffffffffffff168260010183600201818054600181600116156101000203166002900480601f0160208091040260200160405190810160405280929190818152602001828054600181600116156101000203166002900480156118355780601f1061180a57610100808354040283529160200191611835565b820191906000526020600020905b81548152906001019060200180831161181857829003601f168201915b50505050509150808054600181600116156101000203166002900480601f0160208091040260200160405190810160405280929190818152602001828054600181600116156101000203166002900480156118d15780601f106118a6576101008083540402835291602001916118d1565b820191906000526020600020905b8154815290600101906020018083116118b457829003601f168201915b50505050509050955095509550955050509193509193565b60006118f3610cac565b9050600034905060008260ff16828161190857fe5b04905060008090505b6001840360ff168160ff161015611a3a576000600160009054906101000a900473ffffffffffffffffffffffffffffffffffffffff1673ffffffffffffffffffffffffffffffffffffffff1663c66198dc836040518263ffffffff1660e01b8152600401808260ff1660ff16815260200191505060206040518083038186803b15801561199d57600080fd5b505afa1580156119b1573d6000803e3d6000fd5b505050506040513d60208110156119c757600080fd5b8101908080519060200190929190505050905082600260008373ffffffffffffffffffffffffffffffffffffffff1673ffffffffffffffffffffffffffffffffffffffff168152602001908152602001600020600082825401925050819055508284039350508080600101915050611911565b506000600160009054906101000a900473ffffffffffffffffffffffffffffffffffffffff1673ffffffffffffffffffffffffffffffffffffffff1663c66198dc600186036040518263ffffffff1660e01b8152600401808260ff1660ff16815260200191505060206040518083038186803b158015611ab957600080fd5b505afa158015611acd573d6000803e3d6000fd5b505050506040513d6020811015611ae357600080fd5b8101908080519060200190929190505050905082600260008373ffffffffffffffffffffffffffffffffffffffff1673ffffffffffffffffffffffffffffffffffffffff1681526020019081526020016000206000828254019250508190555050505050565b600033905090565b611b5d81600301611f90565b60066000838152602001908152602001600020600080820160006101000a81549073ffffffffffffffffffffffffffffffffffffffff0219169055600182016000611ba8919061217b565b600282016000611bb8919061217b565b6003820160008082016000905560018201600090556002820160006101000a81549060ff02191690556004820160006101000a81549060ff0219169055600582016000611c0591906121c3565b50505050611c14600783611ff2565b5050565b600080600160009054906101000a900473ffffffffffffffffffffffffffffffffffffffff1673ffffffffffffffffffffffffffffffffffffffff16636452e8216040518163ffffffff1660e01b815260040160206040518083038186803b158015611c8357600080fd5b505afa158015611c97573d6000803e3d6000fd5b505050506040513d6020811015611cad57600080fd5b8101908080519060200190929190505050905060008660020160009054906101000a900460ff1660ff161415611ceb57808660000181905550611d02565b80866000015414611d0157611d00868261208f565b5b5b60008560ff166001901b905060008188600101541614611d2757600192505050611eaa565b6000600188600301600087815260200190815260200160002060009054906101000a900460ff1601905081886001016000828254179250508190555060018860020160008282829054906101000a900460ff160192506101000a81548160ff021916908360ff1602179055508088600301600087815260200190815260200160002060006101000a81548160ff021916908360ff16021790555060018160ff161415611df957876005018590806001815401808255809150506001900390600052602060002001600090919091909150555b8760040160009054906101000a900460ff1660ff168160ff1610611e5157808860040160006101000a81548160ff021916908360ff1602179055506001810360ff168660ff1611611e505760009350505050611eaa565b5b60008860020160009054906101000a900460ff16611e6d610cac565b0390506001818a60040160009054906101000a900460ff16010360ff168760ff161115611ea1576002945050505050611eaa565b60019450505050505b949350505050565b600080600160009054906101000a900473ffffffffffffffffffffffffffffffffffffffff1673ffffffffffffffffffffffffffffffffffffffff16636452e8216040518163ffffffff1660e01b815260040160206040518083038186803b158015611f1d57600080fd5b505afa158015611f31573d6000803e3d6000fd5b505050506040513d6020811015611f4757600080fd5b8101908080519060200190929190505050905083600001548114611f6f576001915050611f8a565b60008360ff166001901b905060008186600101541614925050505b92915050565b60008090505b8160050180549050811015611fee57816003016000836005018381548110611fba57fe5b9060005260206000200154815260200190815260200160002060006101000a81549060ff0219169055806001019050611f96565b5050565b60008090505b828054905081101561208a578183828154811061201157fe5b9060005260206000200154141561207f578260018480549050038154811061203557fe5b906000526020600020015483828154811061204c57fe5b90600052602060002001819055508280548061206457fe5b6001900381819060005260206000200160009055905561208a565b806001019050611ff8565b505050565b61209882611f90565b8082600001819055506000826001018190555060008260020160006101000a81548160ff021916908360ff16021790555060008260040160006101000a81548160ff021916908360ff1602179055508160050160006120f791906121c3565b5050565b828054600181600116156101000203166002900490600052602060002090601f016020900481019282601f1061213c57803560ff191683800117855561216a565b8280016001018555821561216a579182015b8281111561216957823582559160200191906001019061214e565b5b50905061217791906121e4565b5090565b50805460018160011615610100020316600290046000825580601f106121a157506121c0565b601f0160209004906000526020600020908101906121bf91906121e4565b5b50565b50805460008255906000526020600020908101906121e19190612209565b50565b61220691905b808211156122025760008160009055506001016121ea565b5090565b90565b61222b91905b8082111561222757600081600090555060010161220f565b5090565b9056fe446972656374207061796d656e747320617265206e6f7420737570706f727465642e4f776e61626c653a206e6577206f776e657220697320746865207a65726f20616464726573734d6178696d756d206e756d626572206f6620726571756573747320726561636865642ea2646970667358221220d545f77ead13359ff22b9cec025784688ad3436ab72b88fae9867ff774f3792064736f6c63430006050033",
  "source": "//! The Secret Store document key store service contract.\n//!\n//! Copyright 2017 Svyatoslav Nikolsky, Parity Technologies Ltd.\n//!\n//! Licensed under the Apache License, Version 2.0 (the \"License\");\n//! you may not use this file except in compliance with the License.\n//! You may obtain a copy of the License at\n//!\n//!     http://www.apache.org/licenses/LICENSE-2.0\n//!\n//! Unless required by applicable law or agreed to in writing, software\n//! distributed under the License is distributed on an \"AS IS\" BASIS,\n//! WITHOUT WARRANTIES OR CONDITIONS OF ANY KIND, either express or implied.\n//! See the License for the specific language governing permissions and\n//! limitations under the License.\n\npragma solidity ^0.6.0;\n\nimport \"../interfaces/SecretStoreService.sol\";\nimport \"./SecretStoreServiceBase.sol\";\n\n\n/// Document Key store service contract\ncontract SecretStoreDocumentKeyStoreService is\n    SecretStoreServiceBase,\n    DocumentKeyStoreServiceClientApi,\n    DocumentKeyStoreServiceKeyServerApi\n{\n    /// Document key store request\n    struct DocumentKeyStoreRequest {\n        address author;\n        bytes commonPoint;\n        bytes encryptedPoint;\n        RequestResponses responses;\n    }\n\n    /// When document key store request is received.\n    event DocumentKeyStoreRequested(bytes32 serverKeyId, address author, bytes commonPoint, bytes encryptedPoint);\n\n    /// When document key is stored.\n    event DocumentKeyStored(bytes32 indexed serverKeyId);\n\n    /// When error occurs during document key store.\n    event DocumentKeyStoreError(bytes32 indexed serverKeyId);\n\n    /// Constructor.\n    constructor(address keyServerSetAddressInit)\n        public\n        SecretStoreServiceBase(keyServerSetAddressInit)\n    {\n        documentKeyStoreFee = 100 finney;\n        maxDocumentKeyStoreRequests = 8;\n    }\n\n    // === Interface methods ===\n\n    /// We do not support direct payments.\n    receive() external payable {\n        revert(\"Direct payments are not supported.\");\n    }\n\n    /// Request document key store. Use `secretstore_generateDocumentKey` RPC to generate both\n    /// `commonPoint` and `encryptedPoint`.\n    function storeDocumentKey(\n        bytes32 serverKeyId,\n        bytes calldata commonPoint,\n        bytes calldata encryptedPoint\n    )\n        external\n        payable\n        override\n        whenFeePaid(documentKeyStoreFee)\n        validPublic(commonPoint)\n        validPublic(encryptedPoint)\n    {\n        // check maximum number of requests\n        require(\n            documentKeyStoreRequestsKeys.length < maxDocumentKeyStoreRequests,\n            \"Maximum number of requests reached.\"\n        );\n\n        DocumentKeyStoreRequest storage request = documentKeyStoreRequests[serverKeyId];\n        require(request.author == address(0), \"Request author address is 0x0.\");\n        deposit();\n\n        request.author = msg.sender;\n        request.commonPoint = commonPoint;\n        request.encryptedPoint = encryptedPoint;\n        documentKeyStoreRequestsKeys.push(serverKeyId);\n\n        emit DocumentKeyStoreRequested(\n            serverKeyId,\n            msg.sender,\n            commonPoint,\n            encryptedPoint);\n    }\n\n    /// Called when store is reported by key server.\n    function documentKeyStored(bytes32 serverKeyId)\n        external\n        override\n    {\n        // check if request still active\n        DocumentKeyStoreRequest storage request = documentKeyStoreRequests[serverKeyId];\n        if (request.author == address(0)) {\n            return;\n        }\n\n        // insert response (we're waiting for responses from all authorities here)\n        uint8 keyServerIndex = requireKeyServer(msg.sender);\n        bytes32 response = bytes32(0);\n        ResponseSupport responseSupport = insertResponse(\n            request.responses,\n            keyServerIndex,\n            keyServersCount() - 1,\n            response);\n\n        // ...and check if there are enough support\n        if (responseSupport == ResponseSupport.Unconfirmed) { // not confirmed (yet)\n            return;\n        }\n\n        // delete request and fire event\n        // there's always consensus, because key servers are only reporting the fact that they've stored the key\n        clearDocumentKeyStoreRequest(serverKeyId, request);\n        emit DocumentKeyStored(serverKeyId);\n    }\n\n    /// Called when error occurs during document key store.\n    function documentKeyStoreError(bytes32 serverKeyId)\n        external\n        override\n    {\n        // check if request still active\n        DocumentKeyStoreRequest storage request = documentKeyStoreRequests[serverKeyId];\n        if (request.author == address(0)) {\n            return;\n        }\n\n        // check that it is called by key server\n        requireKeyServer(msg.sender);\n\n        // any error in key store is fatal, because we need all key servers to participate in store\n        // => delete request and fire event\n        clearDocumentKeyStoreRequest(serverKeyId, request);\n        emit DocumentKeyStoreError(serverKeyId);\n    }\n\n    /// Get count of pending document key store requests.\n    function documentKeyStoreRequestsCount()\n        external\n        view\n        override\n        returns (uint256)\n    {\n        return documentKeyStoreRequestsKeys.length;\n    }\n\n    /// Get document key store request with given index.\n    /// Returns: (serverKeyId, author, commonPoint, encryptedPoint)\n    function getDocumentKeyStoreRequest(uint256 index)\n        external\n        view\n        override\n        returns (bytes32, address, bytes memory, bytes memory)\n    {\n        bytes32 serverKeyId = documentKeyStoreRequestsKeys[index];\n        DocumentKeyStoreRequest storage request = documentKeyStoreRequests[serverKeyId];\n        return (\n            serverKeyId,\n            request.author,\n            request.commonPoint,\n            request.encryptedPoint\n        );\n    }\n\n    /// Returs true if response from given keyServer is required.\n    function isDocumentKeyStoreResponseRequired(bytes32 serverKeyId, address keyServer)\n        external\n        view\n        override\n        returns (bool)\n    {\n        uint8 keyServerIndex = requireKeyServer(keyServer);\n        DocumentKeyStoreRequest storage request = documentKeyStoreRequests[serverKeyId];\n        return isResponseRequired(request.responses, keyServerIndex);\n    }\n\n    // === Administrative methods ===\n\n    /// Set document key store fee.\n    function setDocumentKeyStoreFee(uint256 newFee)\n        public\n        onlyOwner\n    {\n        documentKeyStoreFee = newFee;\n    }\n\n    /// Set document key store requests limit.\n    function setMaxDocumentKeyStoreRequests(uint256 newLimit)\n        public\n        onlyOwner\n    {\n        maxDocumentKeyStoreRequests = newLimit;\n    }\n\n    /// Delete document key store request.\n    function deleteDocumentKeyStoreRequest(bytes32 serverKeyId)\n        public\n        onlyOwner\n    {\n        DocumentKeyStoreRequest storage request = documentKeyStoreRequests[serverKeyId];\n        clearDocumentKeyStoreRequest(serverKeyId, request);\n\n        emit DocumentKeyStoreError(serverKeyId);\n    }\n\n    // === Internal methods ===\n\n    /// Clear document key store request traces.\n    function clearDocumentKeyStoreRequest(bytes32 serverKeyId, DocumentKeyStoreRequest storage request)\n        private\n    {\n        clearResponses(request.responses);\n        delete documentKeyStoreRequests[serverKeyId];\n\n        removeRequestKey(documentKeyStoreRequestsKeys, serverKeyId);\n    }\n\n    /// Document key store fee.\n    uint256 public documentKeyStoreFee;\n    /// Maximal number of active document key store requests. We're limiting this number to avoid\n    /// infinite gas costs of some functions.\n    uint256 public maxDocumentKeyStoreRequests;\n\n    /// Pending store requests.\n    mapping (bytes32 => DocumentKeyStoreRequest) private documentKeyStoreRequests;\n    /// Pending store requests keys.\n    bytes32[] private documentKeyStoreRequestsKeys;\n}\n",
  "sourcePath": "/home/aznagy/work/secretstore/secretstore-contracts/contracts/service/SecretStoreDocumentKeyStoreService.sol",
  "compiler": {
    "name": "solc",
    "version": "0.6.5+commit.f956cc89.Emscripten.clang"
  },
  "schemaVersion": "3.0.23",
  "updatedAt": "2020-04-08T13:26:56.013Z",
  "devdoc": {
    "methods": {
      "owner()": {
        "details": "Returns the address of the current owner."
      },
      "renounceOwnership()": {
        "details": "Leaves the contract without owner. It will not be possible to call `onlyOwner` functions anymore. Can only be called by the current owner.     * NOTE: Renouncing ownership will leave the contract without an owner, thereby removing any functionality that is only available to the owner."
      },
      "transferOwnership(address)": {
        "details": "Transfers ownership of the contract to a new account (`newOwner`). Can only be called by the current owner."
      }
    }
  },
  "userdoc": {
    "methods": {
      "constructor": "Constructor.",
      "deleteDocumentKeyStoreRequest(bytes32)": {
        "notice": "Delete document key store request."
      },
      "documentKeyStoreError(bytes32)": {
        "notice": "Called when error occurs during document key store."
      },
      "documentKeyStoreRequestsCount()": {
        "notice": "Get count of pending document key store requests."
      },
      "documentKeyStored(bytes32)": {
        "notice": "Called when store is reported by key server."
      },
      "drain()": {
        "notice": "Drain balance of sender key server."
      },
      "getDocumentKeyStoreRequest(uint256)": {
        "notice": "Get document key store request with given index. Returns: (serverKeyId, author, commonPoint, encryptedPoint)"
      },
      "isDocumentKeyStoreResponseRequired(bytes32,address)": {
        "notice": "Returs true if response from given keyServer is required."
      },
      "keyServersCount()": {
        "notice": "Return number of key servers."
      },
      "requireKeyServer(address)": {
        "notice": "Return index of key server at given address."
      },
      "setDocumentKeyStoreFee(uint256)": {
        "notice": "Set document key store fee."
      },
      "setMaxDocumentKeyStoreRequests(uint256)": {
        "notice": "Set document key store requests limit."
      },
      "storeDocumentKey(bytes32,bytes,bytes)": {
        "notice": "Request document key store. Use `secretstore_generateDocumentKey` RPC to generate both `commonPoint` and `encryptedPoint`."
      }
    },
    "notice": "Document Key store service contract"
  }
}