{
  "contractName": "SecretStoreServerKeyGenerationService",
  "abi": [
    {
      "inputs": [
        {
          "internalType": "address",
          "name": "keyServerSetAddressInit",
          "type": "address"
        }
      ],
      "stateMutability": "nonpayable",
      "type": "constructor"
    },
    {
      "anonymous": false,
      "inputs": [
        {
          "indexed": true,
          "internalType": "address",
          "name": "previousOwner",
          "type": "address"
        },
        {
          "indexed": true,
          "internalType": "address",
          "name": "newOwner",
          "type": "address"
        }
      ],
      "name": "OwnershipTransferred",
      "type": "event"
    },
    {
      "anonymous": false,
      "inputs": [
        {
          "indexed": true,
          "internalType": "bytes32",
          "name": "serverKeyId",
          "type": "bytes32"
        },
        {
          "indexed": false,
          "internalType": "bytes",
          "name": "serverKeyPublic",
          "type": "bytes"
        }
      ],
      "name": "ServerKeyGenerated",
      "type": "event"
    },
    {
      "anonymous": false,
      "inputs": [
        {
          "indexed": true,
          "internalType": "bytes32",
          "name": "serverKeyId",
          "type": "bytes32"
        }
      ],
      "name": "ServerKeyGenerationError",
      "type": "event"
    },
    {
      "anonymous": false,
      "inputs": [
        {
          "indexed": false,
          "internalType": "bytes32",
          "name": "serverKeyId",
          "type": "bytes32"
        },
        {
          "indexed": false,
          "internalType": "address",
          "name": "author",
          "type": "address"
        },
        {
          "indexed": false,
          "internalType": "uint8",
          "name": "threshold",
          "type": "uint8"
        }
      ],
      "name": "ServerKeyGenerationRequested",
      "type": "event"
    },
    {
      "inputs": [],
      "name": "drain",
      "outputs": [],
      "stateMutability": "nonpayable",
      "type": "function"
    },
    {
      "inputs": [],
      "name": "keyServersCount",
      "outputs": [
        {
          "internalType": "uint8",
          "name": "",
          "type": "uint8"
        }
      ],
      "stateMutability": "view",
      "type": "function"
    },
    {
      "inputs": [],
      "name": "maxServerKeyGenerationRequests",
      "outputs": [
        {
          "internalType": "uint256",
          "name": "",
          "type": "uint256"
        }
      ],
      "stateMutability": "view",
      "type": "function"
    },
    {
      "inputs": [],
      "name": "owner",
      "outputs": [
        {
          "internalType": "address",
          "name": "",
          "type": "address"
        }
      ],
      "stateMutability": "view",
      "type": "function"
    },
    {
      "inputs": [],
      "name": "renounceOwnership",
      "outputs": [],
      "stateMutability": "nonpayable",
      "type": "function"
    },
    {
      "inputs": [
        {
          "internalType": "address",
          "name": "keyServer",
          "type": "address"
        }
      ],
      "name": "requireKeyServer",
      "outputs": [
        {
          "internalType": "uint8",
          "name": "",
          "type": "uint8"
        }
      ],
      "stateMutability": "view",
      "type": "function"
    },
    {
      "inputs": [],
      "name": "serverKeyGenerationFee",
      "outputs": [
        {
          "internalType": "uint256",
          "name": "",
          "type": "uint256"
        }
      ],
      "stateMutability": "view",
      "type": "function"
    },
    {
      "inputs": [
        {
          "internalType": "address",
          "name": "newOwner",
          "type": "address"
        }
      ],
      "name": "transferOwnership",
      "outputs": [],
      "stateMutability": "nonpayable",
      "type": "function"
    },
    {
      "stateMutability": "payable",
      "type": "receive"
    },
    {
      "inputs": [
        {
          "internalType": "bytes32",
          "name": "serverKeyId",
          "type": "bytes32"
        },
        {
          "internalType": "uint8",
          "name": "threshold",
          "type": "uint8"
        }
      ],
      "name": "generateServerKey",
      "outputs": [],
      "stateMutability": "payable",
      "type": "function"
    },
    {
      "inputs": [
        {
          "internalType": "bytes32",
          "name": "serverKeyId",
          "type": "bytes32"
        },
        {
          "internalType": "bytes",
          "name": "serverKeyPublic",
          "type": "bytes"
        }
      ],
      "name": "serverKeyGenerated",
      "outputs": [],
      "stateMutability": "nonpayable",
      "type": "function"
    },
    {
      "inputs": [
        {
          "internalType": "bytes32",
          "name": "serverKeyId",
          "type": "bytes32"
        }
      ],
      "name": "serverKeyGenerationError",
      "outputs": [],
      "stateMutability": "nonpayable",
      "type": "function"
    },
    {
      "inputs": [],
      "name": "serverKeyGenerationRequestsCount",
      "outputs": [
        {
          "internalType": "uint256",
          "name": "",
          "type": "uint256"
        }
      ],
      "stateMutability": "view",
      "type": "function"
    },
    {
      "inputs": [
        {
          "internalType": "uint256",
          "name": "index",
          "type": "uint256"
        }
      ],
      "name": "getServerKeyGenerationRequest",
      "outputs": [
        {
          "internalType": "bytes32",
          "name": "",
          "type": "bytes32"
        },
        {
          "internalType": "address",
          "name": "",
          "type": "address"
        },
        {
          "internalType": "uint256",
          "name": "",
          "type": "uint256"
        }
      ],
      "stateMutability": "view",
      "type": "function"
    },
    {
      "inputs": [
        {
          "internalType": "bytes32",
          "name": "serverKeyId",
          "type": "bytes32"
        },
        {
          "internalType": "address",
          "name": "keyServer",
          "type": "address"
        }
      ],
      "name": "isServerKeyGenerationResponseRequired",
      "outputs": [
        {
          "internalType": "bool",
          "name": "",
          "type": "bool"
        }
      ],
      "stateMutability": "view",
      "type": "function"
    },
    {
      "inputs": [
        {
          "internalType": "uint256",
          "name": "newFee",
          "type": "uint256"
        }
      ],
      "name": "setServerKeyGenerationFee",
      "outputs": [],
      "stateMutability": "nonpayable",
      "type": "function"
    },
    {
      "inputs": [
        {
          "internalType": "uint256",
          "name": "newLimit",
          "type": "uint256"
        }
      ],
      "name": "setMaxServerKeyGenerationRequests",
      "outputs": [],
      "stateMutability": "nonpayable",
      "type": "function"
    },
    {
      "inputs": [
        {
          "internalType": "bytes32",
          "name": "serverKeyId",
          "type": "bytes32"
        }
      ],
      "name": "deleteServerKeyGenerationRequest",
      "outputs": [],
      "stateMutability": "nonpayable",
      "type": "function"
    }
  ],
  "bytecode": "0x608060405234801561001057600080fd5b506040516120d93803806120d98339818101604052602081101561003357600080fd5b810190808051906020019092919050505080600061005561015260201b60201c565b9050806000806101000a81548173ffffffffffffffffffffffffffffffffffffffff021916908373ffffffffffffffffffffffffffffffffffffffff1602179055508073ffffffffffffffffffffffffffffffffffffffff16600073ffffffffffffffffffffffffffffffffffffffff167f8be0079c531659141344cd1fd0a4f28419497f9722a3daafe3b4186f6b6457e060405160405180910390a35080600160006101000a81548173ffffffffffffffffffffffffffffffffffffffff021916908373ffffffffffffffffffffffffffffffffffffffff160217905550506702c68af0bb14000060048190555060046005819055505061015a565b600033905090565b611f70806101696000396000f3fe6080604052600436106101025760003560e01c806364124c8611610095578063b8020be511610064578063b8020be514610439578063e54dcfff14610474578063ebbcc2e1146104af578063ec6b03601461053f578063f2fde38b146105b257610158565b806364124c861461032b578063715018a6146103b45780638da5cb5b146103cb5780639890220b1461042257610158565b80633eaf9b28116100d15780633eaf9b28146102595780633fbd7ecd14610284578063410021f3146102bf5780635aa8404c146102fa57610158565b806317dd3d881461015d57806318c296e814610198578063195a40f2146101c35780632b4f030a146101ee57610158565b36610158576040517f08c379a0000000000000000000000000000000000000000000000000000000008152600401808060200182810382526022815260200180611eab6022913960400191505060405180910390fd5b600080fd5b34801561016957600080fd5b506101966004803603602081101561018057600080fd5b8101908080359060200190929190505050610603565b005b3480156101a457600080fd5b506101ad61071e565b6040518082815260200191505060405180910390f35b3480156101cf57600080fd5b506101d8610724565b6040518082815260200191505060405180910390f35b3480156101fa57600080fd5b5061023d6004803603602081101561021157600080fd5b81019080803573ffffffffffffffffffffffffffffffffffffffff169060200190929190505050610731565b604051808260ff1660ff16815260200191505060405180910390f35b34801561026557600080fd5b5061026e610814565b6040518082815260200191505060405180910390f35b34801561029057600080fd5b506102bd600480360360208110156102a757600080fd5b810190808035906020019092919050505061081a565b005b3480156102cb57600080fd5b506102f8600480360360208110156102e257600080fd5b81019080803590602001909291905050506108d6565b005b34801561030657600080fd5b5061030f6109a9565b604051808260ff1660ff16815260200191505060405180910390f35b34801561033757600080fd5b506103646004803603602081101561034e57600080fd5b8101908080359060200190929190505050610a53565b604051808481526020018373ffffffffffffffffffffffffffffffffffffffff1673ffffffffffffffffffffffffffffffffffffffff168152602001828152602001935050505060405180910390f35b3480156103c057600080fd5b506103c9610ac4565b005b3480156103d757600080fd5b506103e0610c4c565b604051808273ffffffffffffffffffffffffffffffffffffffff1673ffffffffffffffffffffffffffffffffffffffff16815260200191505060405180910390f35b34801561042e57600080fd5b50610437610c75565b005b6104726004803603604081101561044f57600080fd5b8101908080359060200190929190803560ff169060200190929190505050610dbf565b005b34801561048057600080fd5b506104ad6004803603602081101561049757600080fd5b81019080803590602001909291905050506110dc565b005b3480156104bb57600080fd5b5061053d600480360360408110156104d257600080fd5b8101908080359060200190929190803590602001906401000000008111156104f957600080fd5b82018360208201111561050b57600080fd5b8035906020019184600183028401116401000000008311171561052d57600080fd5b90919293919293905050506111af565b005b34801561054b57600080fd5b506105986004803603604081101561056257600080fd5b8101908080359060200190929190803573ffffffffffffffffffffffffffffffffffffffff169060200190929190505050611421565b604051808215151515815260200191505060405180910390f35b3480156105be57600080fd5b50610601600480360360208110156105d557600080fd5b81019080803573ffffffffffffffffffffffffffffffffffffffff16906020019092919050505061145d565b005b61060b61166a565b73ffffffffffffffffffffffffffffffffffffffff166000809054906101000a900473ffffffffffffffffffffffffffffffffffffffff1673ffffffffffffffffffffffffffffffffffffffff16146106cc576040517f08c379a00000000000000000000000000000000000000000000000000000000081526004018080602001828103825260208152602001807f4f776e61626c653a2063616c6c6572206973206e6f7420746865206f776e657281525060200191505060405180910390fd5b60006006600083815260200190815260200160002090506106ed8282611672565b817fc79a8674b4a757f1b4372e9f51be17ee6d43b631ca0a97b477580f18fc76e1b860405160405180910390a25050565b60055481565b6000600780549050905090565b6000600160009054906101000a900473ffffffffffffffffffffffffffffffffffffffff1673ffffffffffffffffffffffffffffffffffffffff1663287fb40c836040518263ffffffff1660e01b8152600401808273ffffffffffffffffffffffffffffffffffffffff1673ffffffffffffffffffffffffffffffffffffffff16815260200191505060206040518083038186803b1580156107d257600080fd5b505afa1580156107e6573d6000803e3d6000fd5b505050506040513d60208110156107fc57600080fd5b81019080805190602001909291905050509050919050565b60045481565b61082333610731565b506000600660008381526020019081526020016000209050600073ffffffffffffffffffffffffffffffffffffffff168160000160009054906101000a900473ffffffffffffffffffffffffffffffffffffffff1673ffffffffffffffffffffffffffffffffffffffff16141561089a57506108d3565b6108a48282611672565b817fc79a8674b4a757f1b4372e9f51be17ee6d43b631ca0a97b477580f18fc76e1b860405160405180910390a2505b50565b6108de61166a565b73ffffffffffffffffffffffffffffffffffffffff166000809054906101000a900473ffffffffffffffffffffffffffffffffffffffff1673ffffffffffffffffffffffffffffffffffffffff161461099f576040517f08c379a00000000000000000000000000000000000000000000000000000000081526004018080602001828103825260208152602001807f4f776e61626c653a2063616c6c6572206973206e6f7420746865206f776e657281525060200191505060405180910390fd5b8060048190555050565b6000600160009054906101000a900473ffffffffffffffffffffffffffffffffffffffff1673ffffffffffffffffffffffffffffffffffffffff16635560c9656040518163ffffffff1660e01b815260040160206040518083038186803b158015610a1357600080fd5b505afa158015610a27573d6000803e3d6000fd5b505050506040513d6020811015610a3d57600080fd5b8101908080519060200190929190505050905090565b60008060008060078581548110610a6657fe5b906000526020600020015490506000600660008381526020019081526020016000209050818160000160009054906101000a900473ffffffffffffffffffffffffffffffffffffffff16826001015494509450945050509193909250565b610acc61166a565b73ffffffffffffffffffffffffffffffffffffffff166000809054906101000a900473ffffffffffffffffffffffffffffffffffffffff1673ffffffffffffffffffffffffffffffffffffffff1614610b8d576040517f08c379a00000000000000000000000000000000000000000000000000000000081526004018080602001828103825260208152602001807f4f776e61626c653a2063616c6c6572206973206e6f7420746865206f776e657281525060200191505060405180910390fd5b600073ffffffffffffffffffffffffffffffffffffffff166000809054906101000a900473ffffffffffffffffffffffffffffffffffffffff1673ffffffffffffffffffffffffffffffffffffffff167f8be0079c531659141344cd1fd0a4f28419497f9722a3daafe3b4186f6b6457e060405160405180910390a360008060006101000a81548173ffffffffffffffffffffffffffffffffffffffff021916908373ffffffffffffffffffffffffffffffffffffffff160217905550565b60008060009054906101000a900473ffffffffffffffffffffffffffffffffffffffff16905090565b6000600260003373ffffffffffffffffffffffffffffffffffffffff1673ffffffffffffffffffffffffffffffffffffffff1681526020019081526020016000205490506000811415610d30576040517f08c379a000000000000000000000000000000000000000000000000000000000815260040180806020018281038252600d8152602001807f42616c616e636520697320302e0000000000000000000000000000000000000081525060200191505060405180910390fd5b6000600260003373ffffffffffffffffffffffffffffffffffffffff1673ffffffffffffffffffffffffffffffffffffffff168152602001908152602001600020819055503373ffffffffffffffffffffffffffffffffffffffff166108fc829081150290604051600060405180830381858888f19350505050158015610dbb573d6000803e3d6000fd5b5050565b60045480341015610e38576040517f08c379a00000000000000000000000000000000000000000000000000000000081526004018080602001828103825260208152602001807f5472616e73616374696f6e2076616c7565206973206e6f7420656e6f7567682e81525060200191505060405180910390fd5b610e406109a9565b60ff166001830160ff161115610ebe576040517f08c379a00000000000000000000000000000000000000000000000000000000081526004018080602001828103825260158152602001807f5468726573686f6c6420697320696e76616c69642e000000000000000000000081525060200191505060405180910390fd5b60055460078054905010610f1d576040517f08c379a0000000000000000000000000000000000000000000000000000000008152600401808060200182810382526023815260200180611ef36023913960400191505060405180910390fd5b6000600660008581526020019081526020016000209050600073ffffffffffffffffffffffffffffffffffffffff168160000160009054906101000a900473ffffffffffffffffffffffffffffffffffffffff1673ffffffffffffffffffffffffffffffffffffffff1614610fdd576040517f08c379a0000000000000000000000000000000000000000000000000000000008152600401808060200182810382526025815260200180611f166025913960400191505060405180910390fd5b610fe5611721565b338160000160006101000a81548173ffffffffffffffffffffffffffffffffffffffff021916908373ffffffffffffffffffffffffffffffffffffffff1602179055508260ff16816001018190555060078490806001815401808255809150506001900390600052602060002001600090919091909150557f7e7d18cca7d509b32b27d10d4c0f1dfed4d779294388818f23941d13450dacb1843385604051808481526020018373ffffffffffffffffffffffffffffffffffffffff1673ffffffffffffffffffffffffffffffffffffffff1681526020018260ff1660ff168152602001935050505060405180910390a150505050565b6110e461166a565b73ffffffffffffffffffffffffffffffffffffffff166000809054906101000a900473ffffffffffffffffffffffffffffffffffffffff1673ffffffffffffffffffffffffffffffffffffffff16146111a5576040517f08c379a00000000000000000000000000000000000000000000000000000000081526004018080602001828103825260208152602001807f4f776e61626c653a2063616c6c6572206973206e6f7420746865206f776e657281525060200191505060405180910390fd5b8060058190555050565b81818080601f016020809104026020016040519081016040528093929190818152602001838380828437600081840152601f19601f82011690508083019250505050505050604081511461126b576040517f08c379a00000000000000000000000000000000000000000000000000000000081526004018080602001828103825260188152602001807f5075626c6963206b6579206973206e6f742076616c69642e000000000000000081525060200191505060405180910390fd5b6000600660008681526020019081526020016000209050600073ffffffffffffffffffffffffffffffffffffffff168160000160009054906101000a900473ffffffffffffffffffffffffffffffffffffffff1673ffffffffffffffffffffffffffffffffffffffff1614156112e1575061141b565b60006112ec33610731565b90506000858560405180838380828437808301925050509250505060405180910390209050600061132c846002018460016113256109a9565b0385611981565b90506001600281111561133b57fe5b81600281111561134757fe5b1415611356575050505061141b565b6113608885611672565b6000600281111561136d57fe5b81600281111561137957fe5b14156113e857877f20da9149b09a59e39dbfed5cfa1e68c9d9984736b0f73a0b1d9f7a063f093fc5888860405180806020018281038252848482818152602001925080828437600081840152601f19601f820116905080830192505050935050505060405180910390a2611416565b877fc79a8674b4a757f1b4372e9f51be17ee6d43b631ca0a97b477580f18fc76e1b860405160405180910390a25b505050505b50505050565b60008061142d83610731565b905060006006600086815260200190815260200160002090506114538160020183611c1b565b9250505092915050565b61146561166a565b73ffffffffffffffffffffffffffffffffffffffff166000809054906101000a900473ffffffffffffffffffffffffffffffffffffffff1673ffffffffffffffffffffffffffffffffffffffff1614611526576040517f08c379a00000000000000000000000000000000000000000000000000000000081526004018080602001828103825260208152602001807f4f776e61626c653a2063616c6c6572206973206e6f7420746865206f776e657281525060200191505060405180910390fd5b600073ffffffffffffffffffffffffffffffffffffffff168173ffffffffffffffffffffffffffffffffffffffff1614156115ac576040517f08c379a0000000000000000000000000000000000000000000000000000000008152600401808060200182810382526026815260200180611ecd6026913960400191505060405180910390fd5b8073ffffffffffffffffffffffffffffffffffffffff166000809054906101000a900473ffffffffffffffffffffffffffffffffffffffff1673ffffffffffffffffffffffffffffffffffffffff167f8be0079c531659141344cd1fd0a4f28419497f9722a3daafe3b4186f6b6457e060405160405180910390a3806000806101000a81548173ffffffffffffffffffffffffffffffffffffffff021916908373ffffffffffffffffffffffffffffffffffffffff16021790555050565b600033905090565b61167e81600201611cf9565b60066000838152602001908152602001600020600080820160006101000a81549073ffffffffffffffffffffffffffffffffffffffff021916905560018201600090556002820160008082016000905560018201600090556002820160006101000a81549060ff02191690556004820160006101000a81549060ff021916905560058201600061170e9190611e64565b5050505061171d600783611d5b565b5050565b600061172b6109a9565b9050600034905060008260ff16828161174057fe5b04905060008090505b6001840360ff168160ff161015611872576000600160009054906101000a900473ffffffffffffffffffffffffffffffffffffffff1673ffffffffffffffffffffffffffffffffffffffff1663c66198dc836040518263ffffffff1660e01b8152600401808260ff1660ff16815260200191505060206040518083038186803b1580156117d557600080fd5b505afa1580156117e9573d6000803e3d6000fd5b505050506040513d60208110156117ff57600080fd5b8101908080519060200190929190505050905082600260008373ffffffffffffffffffffffffffffffffffffffff1673ffffffffffffffffffffffffffffffffffffffff168152602001908152602001600020600082825401925050819055508284039350508080600101915050611749565b506000600160009054906101000a900473ffffffffffffffffffffffffffffffffffffffff1673ffffffffffffffffffffffffffffffffffffffff1663c66198dc600186036040518263ffffffff1660e01b8152600401808260ff1660ff16815260200191505060206040518083038186803b1580156118f157600080fd5b505afa158015611905573d6000803e3d6000fd5b505050506040513d602081101561191b57600080fd5b8101908080519060200190929190505050905082600260008373ffffffffffffffffffffffffffffffffffffffff1673ffffffffffffffffffffffffffffffffffffffff1681526020019081526020016000206000828254019250508190555050505050565b600080600160009054906101000a900473ffffffffffffffffffffffffffffffffffffffff1673ffffffffffffffffffffffffffffffffffffffff16636452e8216040518163ffffffff1660e01b815260040160206040518083038186803b1580156119ec57600080fd5b505afa158015611a00573d6000803e3d6000fd5b505050506040513d6020811015611a1657600080fd5b8101908080519060200190929190505050905060008660020160009054906101000a900460ff1660ff161415611a5457808660000181905550611a6b565b80866000015414611a6a57611a698682611df8565b5b5b60008560ff166001901b905060008188600101541614611a9057600192505050611c13565b6000600188600301600087815260200190815260200160002060009054906101000a900460ff1601905081886001016000828254179250508190555060018860020160008282829054906101000a900460ff160192506101000a81548160ff021916908360ff1602179055508088600301600087815260200190815260200160002060006101000a81548160ff021916908360ff16021790555060018160ff161415611b6257876005018590806001815401808255809150506001900390600052602060002001600090919091909150555b8760040160009054906101000a900460ff1660ff168160ff1610611bba57808860040160006101000a81548160ff021916908360ff1602179055506001810360ff168660ff1611611bb95760009350505050611c13565b5b60008860020160009054906101000a900460ff16611bd66109a9565b0390506001818a60040160009054906101000a900460ff16010360ff168760ff161115611c0a576002945050505050611c13565b60019450505050505b949350505050565b600080600160009054906101000a900473ffffffffffffffffffffffffffffffffffffffff1673ffffffffffffffffffffffffffffffffffffffff16636452e8216040518163ffffffff1660e01b815260040160206040518083038186803b158015611c8657600080fd5b505afa158015611c9a573d6000803e3d6000fd5b505050506040513d6020811015611cb057600080fd5b8101908080519060200190929190505050905083600001548114611cd8576001915050611cf3565b60008360ff166001901b905060008186600101541614925050505b92915050565b60008090505b8160050180549050811015611d5757816003016000836005018381548110611d2357fe5b9060005260206000200154815260200190815260200160002060006101000a81549060ff0219169055806001019050611cff565b5050565b60008090505b8280549050811015611df35781838281548110611d7a57fe5b90600052602060002001541415611de85782600184805490500381548110611d9e57fe5b9060005260206000200154838281548110611db557fe5b906000526020600020018190555082805480611dcd57fe5b60019003818190600052602060002001600090559055611df3565b806001019050611d61565b505050565b611e0182611cf9565b8082600001819055506000826001018190555060008260020160006101000a81548160ff021916908360ff16021790555060008260040160006101000a81548160ff021916908360ff160217905550816005016000611e609190611e64565b5050565b5080546000825590600052602060002090810190611e829190611e85565b50565b611ea791905b80821115611ea3576000816000905550600101611e8b565b5090565b9056fe446972656374207061796d656e747320617265206e6f7420737570706f727465642e4f776e61626c653a206e6577206f776e657220697320746865207a65726f20616464726573734d6178696d756d206e756d626572206f6620726571756573747320726561636865642e5265717565737420617574686f7220616464726573732063616e6e6f74206265203078302ea264697066735822122021a0c908510b3ac396e4a9f8dade346f3d6cbec3ad4ca01663e424ab83963ae664736f6c63430006050033",
  "source": "//! The Secret Store server key generation service contract.\n//!\n//! Copyright 2017 Svyatoslav Nikolsky, Parity Technologies Ltd.\n//!\n//! Licensed under the Apache License, Version 2.0 (the \"License\");\n//! you may not use this file except in compliance with the License.\n//! You may obtain a copy of the License at\n//!\n//!     http://www.apache.org/licenses/LICENSE-2.0\n//!\n//! Unless required by applicable law or agreed to in writing, software\n//! distributed under the License is distributed on an \"AS IS\" BASIS,\n//! WITHOUT WARRANTIES OR CONDITIONS OF ANY KIND, either express or implied.\n//! See the License for the specific language governing permissions and\n//! limitations under the License.\n\npragma solidity ^0.6.0;\n\nimport \"../interfaces/SecretStoreService.sol\";\nimport \"./SecretStoreServiceBase.sol\";\n\n\n/// Server Key generation service contract.\n/* solium-disable-next-line */\ncontract SecretStoreServerKeyGenerationService is\n    SecretStoreServiceBase,\n    ServerKeyGenerationServiceClientApi,\n    ServerKeyGenerationServiceKeyServerApi\n{\n    /// Server key generation request.\n    struct ServerKeyGenerationRequest {\n        address author;\n        uint256 threshold;\n        RequestResponses responses;\n    }\n\n    /// When sever key generation request is received.\n    event ServerKeyGenerationRequested(bytes32 serverKeyId, address author, uint8 threshold);\n\n    /// When server key is generated.\n    event ServerKeyGenerated(bytes32 indexed serverKeyId, bytes serverKeyPublic);\n\n    /// When error occurs during server key generation.\n    event ServerKeyGenerationError(bytes32 indexed serverKeyId);\n\n    /// Constructor.\n    constructor(address keyServerSetAddressInit) SecretStoreServiceBase(keyServerSetAddressInit) public {\n        serverKeyGenerationFee = 200 finney;\n        maxServerKeyGenerationRequests = 4;\n    }\n\n    // === Interface methods ===\n\n    /// We do not support direct payments.\n    receive() external payable {\n        revert(\"Direct payments are not supported.\");\n    }\n\n    /// Request new server key generation. Generated key will be published via ServerKeyGenerated event when available.\n    function generateServerKey(bytes32 serverKeyId, uint8 threshold)\n        external\n        payable\n        override\n        whenFeePaid(serverKeyGenerationFee)\n    {\n        // we can't process requests with invalid threshold\n        require(threshold + 1 <= keyServersCount(), \"Threshold is invalid.\");\n        // check maximum number of requests\n        require(\n            serverKeyGenerationRequestsKeys.length < maxServerKeyGenerationRequests,\n            \"Maximum number of requests reached.\"\n        );\n\n        ServerKeyGenerationRequest storage request = serverKeyGenerationRequests[serverKeyId];\n        require(request.author == address(0), \"Request author address cannot be 0x0.\");\n        deposit();\n\n        request.author = msg.sender;\n        request.threshold = threshold;\n        serverKeyGenerationRequestsKeys.push(serverKeyId);\n\n        emit ServerKeyGenerationRequested(serverKeyId, msg.sender, threshold);\n    }\n\n    /// Called when generation is reported by key server.\n    function serverKeyGenerated(bytes32 serverKeyId, bytes calldata serverKeyPublic)\n        external\n        override\n        validPublic(serverKeyPublic)\n    {\n        // check if request still active\n        ServerKeyGenerationRequest storage request = serverKeyGenerationRequests[serverKeyId];\n        if (request.author == address(0)) {\n            return;\n        }\n\n        // insert response (we're waiting for responses from all authorities here)\n        uint8 keyServerIndex = requireKeyServer(msg.sender);\n        bytes32 response = keccak256(serverKeyPublic);\n        ResponseSupport responseSupport = insertResponse(\n            request.responses,\n            keyServerIndex,\n            keyServersCount() - 1,\n            response);\n\n        // ...and check if there are enough support\n        if (responseSupport == ResponseSupport.Unconfirmed) { // not confirmed (yet)\n            return;\n        }\n\n        // delete request and fire event\n        clearServerKeyGenerationRequest(serverKeyId, request);\n        if (responseSupport == ResponseSupport.Confirmed) { // confirmed\n            emit ServerKeyGenerated(serverKeyId, serverKeyPublic);\n        } else { // no consensus possible at all\n            emit ServerKeyGenerationError(serverKeyId);\n        }\n    }\n\n    /// Called when error occurs during server key generation.\n    function serverKeyGenerationError(bytes32 serverKeyId)\n        external\n        override\n    {\n        // check that it is called by key server\n        requireKeyServer(msg.sender);\n\n        // check if request still active\n        ServerKeyGenerationRequest storage request = serverKeyGenerationRequests[serverKeyId];\n        if (request.author == address(0)) {\n            return;\n        }\n\n        // any error in key generation is fatal, because we need all key servers to participate in generation\n        // => delete request and fire event\n        clearServerKeyGenerationRequest(serverKeyId, request);\n        emit ServerKeyGenerationError(serverKeyId);\n    }\n\n    /// Get count of pending server key generation requests.\n    function serverKeyGenerationRequestsCount()\n        external\n        view\n        override\n        returns (uint256)\n    {\n        return serverKeyGenerationRequestsKeys.length;\n    }\n\n    /// Get server key generation request with given index.\n    /// Returns: (serverKeyId, author, threshold)\n    function getServerKeyGenerationRequest(uint256 index)\n        external\n        view\n        override\n        returns (bytes32, address, uint256)\n    {\n        bytes32 serverKeyId = serverKeyGenerationRequestsKeys[index];\n        ServerKeyGenerationRequest storage request = serverKeyGenerationRequests[serverKeyId];\n        return (\n            serverKeyId,\n            request.author,\n            request.threshold\n        );\n    }\n\n    /// Returs true if response from given keyServer is required.\n    function isServerKeyGenerationResponseRequired(\n        bytes32 serverKeyId,\n        address keyServer\n    )\n        external\n        view\n        override\n        returns (bool)\n    {\n        uint8 keyServerIndex = requireKeyServer(keyServer);\n        ServerKeyGenerationRequest storage request = serverKeyGenerationRequests[serverKeyId];\n        return isResponseRequired(request.responses, keyServerIndex);\n    }\n\n    // === Administrative methods ===\n\n    /// Set server key generation fee.\n    function setServerKeyGenerationFee(uint256 newFee)\n        public\n        onlyOwner\n    {\n        serverKeyGenerationFee = newFee;\n    }\n\n    /// Set server key generation requests limit.\n    function setMaxServerKeyGenerationRequests(uint256 newLimit)\n        public\n        onlyOwner\n    {\n        maxServerKeyGenerationRequests = newLimit;\n    }\n\n    /// Delete server key generation request.\n    function deleteServerKeyGenerationRequest(bytes32 serverKeyId)\n        public\n        onlyOwner\n    {\n        ServerKeyGenerationRequest storage request = serverKeyGenerationRequests[serverKeyId];\n        clearServerKeyGenerationRequest(serverKeyId, request);\n\n        emit ServerKeyGenerationError(serverKeyId);\n    }\n\n    // === Internal methods ===\n\n    /// Clear server key generation request traces.\n    function clearServerKeyGenerationRequest(bytes32 serverKeyId, ServerKeyGenerationRequest storage request) private {\n        clearResponses(request.responses);\n        delete serverKeyGenerationRequests[serverKeyId];\n\n        removeRequestKey(serverKeyGenerationRequestsKeys, serverKeyId);\n    }\n\n    /// Server key generation fee.\n    uint256 public serverKeyGenerationFee;\n    /// Maximal number of active server key generation requests. We're limiting this number to avoid\n    /// infinite gas costs of some functions.\n    uint256 public maxServerKeyGenerationRequests;\n\n    /// Pending generation requests.\n    mapping (bytes32 => ServerKeyGenerationRequest) private serverKeyGenerationRequests;\n    /// Pending generation requests keys.\n    bytes32[] private serverKeyGenerationRequestsKeys;\n}\n",
  "sourcePath": "/home/aznagy/work/secretstore/secretstore-contracts/contracts/service/SecretStoreServerKeyGenerationService.sol",
  "compiler": {
    "name": "solc",
    "version": "0.6.5+commit.f956cc89.Emscripten.clang"
  },
  "schemaVersion": "3.0.23",
  "updatedAt": "2020-04-08T13:26:56.024Z",
  "devdoc": {
    "methods": {
      "owner()": {
        "details": "Returns the address of the current owner."
      },
      "renounceOwnership()": {
        "details": "Leaves the contract without owner. It will not be possible to call `onlyOwner` functions anymore. Can only be called by the current owner.     * NOTE: Renouncing ownership will leave the contract without an owner, thereby removing any functionality that is only available to the owner."
      },
      "transferOwnership(address)": {
        "details": "Transfers ownership of the contract to a new account (`newOwner`). Can only be called by the current owner."
      }
    }
  },
  "userdoc": {
    "methods": {
      "constructor": "Constructor.",
      "deleteServerKeyGenerationRequest(bytes32)": {
        "notice": "Delete server key generation request."
      },
      "drain()": {
        "notice": "Drain balance of sender key server."
      },
      "generateServerKey(bytes32,uint8)": {
        "notice": "Request new server key generation. Generated key will be published via ServerKeyGenerated event when available."
      },
      "getServerKeyGenerationRequest(uint256)": {
        "notice": "Get server key generation request with given index. Returns: (serverKeyId, author, threshold)"
      },
      "isServerKeyGenerationResponseRequired(bytes32,address)": {
        "notice": "Returs true if response from given keyServer is required."
      },
      "keyServersCount()": {
        "notice": "Return number of key servers."
      },
      "requireKeyServer(address)": {
        "notice": "Return index of key server at given address."
      },
      "serverKeyGenerated(bytes32,bytes)": {
        "notice": "Called when generation is reported by key server."
      },
      "serverKeyGenerationError(bytes32)": {
        "notice": "Called when error occurs during server key generation."
      },
      "serverKeyGenerationRequestsCount()": {
        "notice": "Get count of pending server key generation requests."
      },
      "setMaxServerKeyGenerationRequests(uint256)": {
        "notice": "Set server key generation requests limit."
      },
      "setServerKeyGenerationFee(uint256)": {
        "notice": "Set server key generation fee."
      }
    },
    "notice": "Server Key generation service contract."
  }
}