{
  "contractName": "SecretStoreDocumentKeyShadowRetrievalService",
  "abi": [
    {
      "inputs": [
        {
          "internalType": "address",
          "name": "keyServerSetAddressInit",
          "type": "address"
        }
      ],
      "stateMutability": "nonpayable",
      "type": "constructor"
    },
    {
      "anonymous": false,
      "inputs": [
        {
          "indexed": false,
          "internalType": "bytes32",
          "name": "serverKeyId",
          "type": "bytes32"
        },
        {
          "indexed": false,
          "internalType": "address",
          "name": "requester",
          "type": "address"
        }
      ],
      "name": "DocumentKeyCommonRetrievalRequested",
      "type": "event"
    },
    {
      "anonymous": false,
      "inputs": [
        {
          "indexed": true,
          "internalType": "bytes32",
          "name": "serverKeyId",
          "type": "bytes32"
        },
        {
          "indexed": true,
          "internalType": "address",
          "name": "requester",
          "type": "address"
        },
        {
          "indexed": false,
          "internalType": "bytes",
          "name": "commonPoint",
          "type": "bytes"
        },
        {
          "indexed": false,
          "internalType": "uint8",
          "name": "threshold",
          "type": "uint8"
        }
      ],
      "name": "DocumentKeyCommonRetrieved",
      "type": "event"
    },
    {
      "anonymous": false,
      "inputs": [
        {
          "indexed": false,
          "internalType": "bytes32",
          "name": "serverKeyId",
          "type": "bytes32"
        },
        {
          "indexed": false,
          "internalType": "bytes",
          "name": "requesterPublic",
          "type": "bytes"
        }
      ],
      "name": "DocumentKeyPersonalRetrievalRequested",
      "type": "event"
    },
    {
      "anonymous": false,
      "inputs": [
        {
          "indexed": true,
          "internalType": "bytes32",
          "name": "serverKeyId",
          "type": "bytes32"
        },
        {
          "indexed": true,
          "internalType": "address",
          "name": "requester",
          "type": "address"
        },
        {
          "indexed": false,
          "internalType": "bytes",
          "name": "decryptedSecret",
          "type": "bytes"
        },
        {
          "indexed": false,
          "internalType": "bytes",
          "name": "shadow",
          "type": "bytes"
        }
      ],
      "name": "DocumentKeyPersonalRetrieved",
      "type": "event"
    },
    {
      "anonymous": false,
      "inputs": [
        {
          "indexed": true,
          "internalType": "bytes32",
          "name": "serverKeyId",
          "type": "bytes32"
        },
        {
          "indexed": true,
          "internalType": "address",
          "name": "requester",
          "type": "address"
        }
      ],
      "name": "DocumentKeyShadowRetrievalError",
      "type": "event"
    },
    {
      "anonymous": false,
      "inputs": [
        {
          "indexed": true,
          "internalType": "address",
          "name": "previousOwner",
          "type": "address"
        },
        {
          "indexed": true,
          "internalType": "address",
          "name": "newOwner",
          "type": "address"
        }
      ],
      "name": "OwnershipTransferred",
      "type": "event"
    },
    {
      "inputs": [],
      "name": "documentKeyShadowRetrievalFee",
      "outputs": [
        {
          "internalType": "uint256",
          "name": "",
          "type": "uint256"
        }
      ],
      "stateMutability": "view",
      "type": "function"
    },
    {
      "inputs": [],
      "name": "drain",
      "outputs": [],
      "stateMutability": "nonpayable",
      "type": "function"
    },
    {
      "inputs": [],
      "name": "keyServersCount",
      "outputs": [
        {
          "internalType": "uint8",
          "name": "",
          "type": "uint8"
        }
      ],
      "stateMutability": "view",
      "type": "function"
    },
    {
      "inputs": [],
      "name": "maxDocumentKeyShadowRetrievalRequests",
      "outputs": [
        {
          "internalType": "uint256",
          "name": "",
          "type": "uint256"
        }
      ],
      "stateMutability": "view",
      "type": "function"
    },
    {
      "inputs": [],
      "name": "owner",
      "outputs": [
        {
          "internalType": "address",
          "name": "",
          "type": "address"
        }
      ],
      "stateMutability": "view",
      "type": "function"
    },
    {
      "inputs": [],
      "name": "renounceOwnership",
      "outputs": [],
      "stateMutability": "nonpayable",
      "type": "function"
    },
    {
      "inputs": [
        {
          "internalType": "address",
          "name": "keyServer",
          "type": "address"
        }
      ],
      "name": "requireKeyServer",
      "outputs": [
        {
          "internalType": "uint8",
          "name": "",
          "type": "uint8"
        }
      ],
      "stateMutability": "view",
      "type": "function"
    },
    {
      "inputs": [
        {
          "internalType": "address",
          "name": "newOwner",
          "type": "address"
        }
      ],
      "name": "transferOwnership",
      "outputs": [],
      "stateMutability": "nonpayable",
      "type": "function"
    },
    {
      "stateMutability": "payable",
      "type": "receive"
    },
    {
      "inputs": [
        {
          "internalType": "bytes32",
          "name": "serverKeyId",
          "type": "bytes32"
        },
        {
          "internalType": "bytes",
          "name": "requesterPublic",
          "type": "bytes"
        }
      ],
      "name": "retrieveDocumentKeyShadow",
      "outputs": [],
      "stateMutability": "payable",
      "type": "function"
    },
    {
      "inputs": [
        {
          "internalType": "bytes32",
          "name": "serverKeyId",
          "type": "bytes32"
        },
        {
          "internalType": "address",
          "name": "requester",
          "type": "address"
        },
        {
          "internalType": "bytes",
          "name": "commonPoint",
          "type": "bytes"
        },
        {
          "internalType": "uint8",
          "name": "threshold",
          "type": "uint8"
        }
      ],
      "name": "documentKeyCommonRetrieved",
      "outputs": [],
      "stateMutability": "nonpayable",
      "type": "function"
    },
    {
      "inputs": [
        {
          "internalType": "bytes32",
          "name": "serverKeyId",
          "type": "bytes32"
        },
        {
          "internalType": "address",
          "name": "requester",
          "type": "address"
        },
        {
          "internalType": "uint256",
          "name": "participants",
          "type": "uint256"
        },
        {
          "internalType": "bytes",
          "name": "decryptedSecret",
          "type": "bytes"
        },
        {
          "internalType": "bytes",
          "name": "shadow",
          "type": "bytes"
        }
      ],
      "name": "documentKeyPersonalRetrieved",
      "outputs": [],
      "stateMutability": "nonpayable",
      "type": "function"
    },
    {
      "inputs": [
        {
          "internalType": "bytes32",
          "name": "serverKeyId",
          "type": "bytes32"
        },
        {
          "internalType": "address",
          "name": "requester",
          "type": "address"
        }
      ],
      "name": "documentKeyShadowRetrievalError",
      "outputs": [],
      "stateMutability": "nonpayable",
      "type": "function"
    },
    {
      "inputs": [],
      "name": "documentKeyShadowRetrievalRequestsCount",
      "outputs": [
        {
          "internalType": "uint256",
          "name": "",
          "type": "uint256"
        }
      ],
      "stateMutability": "view",
      "type": "function"
    },
    {
      "inputs": [
        {
          "internalType": "uint256",
          "name": "index",
          "type": "uint256"
        }
      ],
      "name": "getDocumentKeyShadowRetrievalRequest",
      "outputs": [
        {
          "internalType": "bytes32",
          "name": "",
          "type": "bytes32"
        },
        {
          "internalType": "bytes",
          "name": "",
          "type": "bytes"
        },
        {
          "internalType": "bool",
          "name": "",
          "type": "bool"
        }
      ],
      "stateMutability": "view",
      "type": "function"
    },
    {
      "inputs": [
        {
          "internalType": "bytes32",
          "name": "serverKeyId",
          "type": "bytes32"
        },
        {
          "internalType": "address",
          "name": "requester",
          "type": "address"
        },
        {
          "internalType": "address",
          "name": "keyServer",
          "type": "address"
        }
      ],
      "name": "isDocumentKeyShadowRetrievalResponseRequired",
      "outputs": [
        {
          "internalType": "bool",
          "name": "",
          "type": "bool"
        }
      ],
      "stateMutability": "view",
      "type": "function"
    },
    {
      "inputs": [
        {
          "internalType": "uint256",
          "name": "newFee",
          "type": "uint256"
        }
      ],
      "name": "setDocumentKeyShadowRetrievalFee",
      "outputs": [],
      "stateMutability": "nonpayable",
      "type": "function"
    },
    {
      "inputs": [
        {
          "internalType": "uint256",
          "name": "newLimit",
          "type": "uint256"
        }
      ],
      "name": "setMaxDocumentKeyShadowRetrievalRequests",
      "outputs": [],
      "stateMutability": "nonpayable",
      "type": "function"
    },
    {
      "inputs": [
        {
          "internalType": "bytes32",
          "name": "serverKeyId",
          "type": "bytes32"
        },
        {
          "internalType": "address",
          "name": "requester",
          "type": "address"
        }
      ],
      "name": "deleteDocumentKeyShadowRetrievalRequest",
      "outputs": [],
      "stateMutability": "nonpayable",
      "type": "function"
    }
  ],
  "bytecode": "0x60806040523480156200001157600080fd5b5060405162002fd538038062002fd5833981810160405260208110156200003757600080fd5b81019080805190602001909291905050508060006200005b6200015960201b60201c565b9050806000806101000a81548173ffffffffffffffffffffffffffffffffffffffff021916908373ffffffffffffffffffffffffffffffffffffffff1602179055508073ffffffffffffffffffffffffffffffffffffffff16600073ffffffffffffffffffffffffffffffffffffffff167f8be0079c531659141344cd1fd0a4f28419497f9722a3daafe3b4186f6b6457e060405160405180910390a35080600160006101000a81548173ffffffffffffffffffffffffffffffffffffffff021916908373ffffffffffffffffffffffffffffffffffffffff160217905550506702c68af0bb14000060048190555060046005819055505062000161565b600033905090565b612e6480620001716000396000f3fe60806040526004361061010d5760003560e01c80637b97eecc11610095578063d3cb594f11610064578063d3cb594f14610637578063e2f1d4f914610692578063e3c20cf2146106ed578063f2fde38b14610718578063f3d331711461076957610163565b80637b97eecc146103fd5780638da5cb5b146104ba5780639890220b14610511578063b9b36c421461052857610163565b80633931a756116100dc5780633931a756146102bc57806347f9af49146102f75780635aa8404c14610322578063715018a61461035357806377dc782b1461036a57610163565b806309b203e814610168578063153f333b146101a35780631b1e67aa146102265780632b4f030a1461025157610163565b36610163576040517f08c379a0000000000000000000000000000000000000000000000000000000008152600401808060200182810382526022815260200180612ddb6022913960400191505060405180910390fd5b600080fd5b34801561017457600080fd5b506101a16004803603602081101561018b57600080fd5b810190808035906020019092919050505061082f565b005b610224600480360360408110156101b957600080fd5b8101908080359060200190929190803590602001906401000000008111156101e057600080fd5b8201836020820111156101f257600080fd5b8035906020019184600183028401116401000000008311171561021457600080fd5b9091929391929390505050610902565b005b34801561023257600080fd5b5061023b610d49565b6040518082815260200191505060405180910390f35b34801561025d57600080fd5b506102a06004803603602081101561027457600080fd5b81019080803573ffffffffffffffffffffffffffffffffffffffff169060200190929190505050610d4f565b604051808260ff1660ff16815260200191505060405180910390f35b3480156102c857600080fd5b506102f5600480360360208110156102df57600080fd5b8101908080359060200190929190505050610e32565b005b34801561030357600080fd5b5061030c610f05565b6040518082815260200191505060405180910390f35b34801561032e57600080fd5b50610337610f0b565b604051808260ff1660ff16815260200191505060405180910390f35b34801561035f57600080fd5b50610368610fb5565b005b34801561037657600080fd5b506103e36004803603606081101561038d57600080fd5b8101908080359060200190929190803573ffffffffffffffffffffffffffffffffffffffff169060200190929190803573ffffffffffffffffffffffffffffffffffffffff16906020019092919050505061113d565b604051808215151515815260200191505060405180910390f35b34801561040957600080fd5b506104b86004803603608081101561042057600080fd5b8101908080359060200190929190803573ffffffffffffffffffffffffffffffffffffffff1690602001909291908035906020019064010000000081111561046757600080fd5b82018360208201111561047957600080fd5b8035906020019184600183028401116401000000008311171561049b57600080fd5b9091929391929390803560ff1690602001909291905050506111f6565b005b3480156104c657600080fd5b506104cf611619565b604051808273ffffffffffffffffffffffffffffffffffffffff1673ffffffffffffffffffffffffffffffffffffffff16815260200191505060405180910390f35b34801561051d57600080fd5b50610526611642565b005b34801561053457600080fd5b50610635600480360360a081101561054b57600080fd5b8101908080359060200190929190803573ffffffffffffffffffffffffffffffffffffffff169060200190929190803590602001909291908035906020019064010000000081111561059c57600080fd5b8201836020820111156105ae57600080fd5b803590602001918460018302840111640100000000831117156105d057600080fd5b9091929391929390803590602001906401000000008111156105f157600080fd5b82018360208201111561060357600080fd5b8035906020019184600183028401116401000000008311171561062557600080fd5b909192939192939050505061178c565b005b34801561064357600080fd5b506106906004803603604081101561065a57600080fd5b8101908080359060200190929190803573ffffffffffffffffffffffffffffffffffffffff169060200190929190505050611c26565b005b34801561069e57600080fd5b506106eb600480360360408110156106b557600080fd5b8101908080359060200190929190803573ffffffffffffffffffffffffffffffffffffffff169060200190929190505050611dbc565b005b3480156106f957600080fd5b5061070261204b565b6040518082815260200191505060405180910390f35b34801561072457600080fd5b506107676004803603602081101561073b57600080fd5b81019080803573ffffffffffffffffffffffffffffffffffffffff169060200190929190505050612058565b005b34801561077557600080fd5b506107a26004803603602081101561078c57600080fd5b8101908080359060200190929190505050612265565b604051808481526020018060200183151515158152602001828103825284818151815260200191508051906020019080838360005b838110156107f25780820151818401526020810190506107d7565b50505050905090810190601f16801561081f5780820380516001836020036101000a031916815260200191505b5094505050505060405180910390f35b610837612363565b73ffffffffffffffffffffffffffffffffffffffff166000809054906101000a900473ffffffffffffffffffffffffffffffffffffffff1673ffffffffffffffffffffffffffffffffffffffff16146108f8576040517f08c379a00000000000000000000000000000000000000000000000000000000081526004018080602001828103825260208152602001807f4f776e61626c653a2063616c6c6572206973206e6f7420746865206f776e657281525060200191505060405180910390fd5b8060058190555050565b6004548034101561097b576040517f08c379a00000000000000000000000000000000000000000000000000000000081526004018080602001828103825260208152602001807f5472616e73616374696f6e2076616c7565206973206e6f7420656e6f7567682e81525060200191505060405180910390fd5b82828080601f016020809104026020016040519081016040528093929190818152602001838380828437600081840152601f19601f820116905080830192505050505050506040815114610a37576040517f08c379a00000000000000000000000000000000000000000000000000000000081526004018080602001828103825260188152602001807f5075626c6963206b6579206973206e6f742076616c69642e000000000000000081525060200191505060405180910390fd5b83838080601f016020809104026020016040519081016040528093929190818152602001838380828437600081840152601f19601f820116905080830192505050505050503373ffffffffffffffffffffffffffffffffffffffff1673ffffffffffffffffffffffffffffffffffffffff828051906020012060001c1673ffffffffffffffffffffffffffffffffffffffff1614610b20576040517f08c379a000000000000000000000000000000000000000000000000000000000815260040180806020018281038252602c815260200180612d6a602c913960400191505060405180910390fd5b60055460078054905010610b7f576040517f08c379a0000000000000000000000000000000000000000000000000000000008152600401808060200182810382526023815260200180612db86023913960400191505060405180910390fd5b60008633604051602001808381526020018273ffffffffffffffffffffffffffffffffffffffff1673ffffffffffffffffffffffffffffffffffffffff1660601b815260140192505050604051602081830303815290604052805190602001209050600060066000838152602001908152602001600020905060008160010180546001816001161561010002031660029004905014610c86576040517f08c379a00000000000000000000000000000000000000000000000000000000081526004018080602001828103825260208152602001807f7265717565737465725075626c6963206c656e677468206973206e6f7420302e81525060200191505060405180910390fd5b610c8e61236b565b8781600001819055508686826001019190610caa929190612c10565b5060078290806001815401808255809150506001900390600052602060002001600090919091909150557fcce4f642c73cab3eae4e6ef3d59cc746b5e7d035447b1c226b5aafb4c09157098833604051808381526020018273ffffffffffffffffffffffffffffffffffffffff1673ffffffffffffffffffffffffffffffffffffffff1681526020019250505060405180910390a15050505050505050565b60045481565b6000600160009054906101000a900473ffffffffffffffffffffffffffffffffffffffff1673ffffffffffffffffffffffffffffffffffffffff1663287fb40c836040518263ffffffff1660e01b8152600401808273ffffffffffffffffffffffffffffffffffffffff1673ffffffffffffffffffffffffffffffffffffffff16815260200191505060206040518083038186803b158015610df057600080fd5b505afa158015610e04573d6000803e3d6000fd5b505050506040513d6020811015610e1a57600080fd5b81019080805190602001909291905050509050919050565b610e3a612363565b73ffffffffffffffffffffffffffffffffffffffff166000809054906101000a900473ffffffffffffffffffffffffffffffffffffffff1673ffffffffffffffffffffffffffffffffffffffff1614610efb576040517f08c379a00000000000000000000000000000000000000000000000000000000081526004018080602001828103825260208152602001807f4f776e61626c653a2063616c6c6572206973206e6f7420746865206f776e657281525060200191505060405180910390fd5b8060048190555050565b60055481565b6000600160009054906101000a900473ffffffffffffffffffffffffffffffffffffffff1673ffffffffffffffffffffffffffffffffffffffff16635560c9656040518163ffffffff1660e01b815260040160206040518083038186803b158015610f7557600080fd5b505afa158015610f89573d6000803e3d6000fd5b505050506040513d6020811015610f9f57600080fd5b8101908080519060200190929190505050905090565b610fbd612363565b73ffffffffffffffffffffffffffffffffffffffff166000809054906101000a900473ffffffffffffffffffffffffffffffffffffffff1673ffffffffffffffffffffffffffffffffffffffff161461107e576040517f08c379a00000000000000000000000000000000000000000000000000000000081526004018080602001828103825260208152602001807f4f776e61626c653a2063616c6c6572206973206e6f7420746865206f776e657281525060200191505060405180910390fd5b600073ffffffffffffffffffffffffffffffffffffffff166000809054906101000a900473ffffffffffffffffffffffffffffffffffffffff1673ffffffffffffffffffffffffffffffffffffffff167f8be0079c531659141344cd1fd0a4f28419497f9722a3daafe3b4186f6b6457e060405160405180910390a360008060006101000a81548173ffffffffffffffffffffffffffffffffffffffff021916908373ffffffffffffffffffffffffffffffffffffffff160217905550565b60008061114983610d4f565b905060008585604051602001808381526020018273ffffffffffffffffffffffffffffffffffffffff1673ffffffffffffffffffffffffffffffffffffffff1660601b81526014019250505060405160208183030381529060405280519060200120905060006006600083815260200190815260200160002090508060080160009054906101000a900460ff16806111ea57506111e981600201846125cb565b5b93505050509392505050565b82828080601f016020809104026020016040519081016040528093929190818152602001838380828437600081840152601f19601f8201169050808301925050505050505060408151146112b2576040517f08c379a00000000000000000000000000000000000000000000000000000000081526004018080602001828103825260188152602001807f5075626c6963206b6579206973206e6f742076616c69642e000000000000000081525060200191505060405180910390fd5b60008686604051602001808381526020018273ffffffffffffffffffffffffffffffffffffffff1673ffffffffffffffffffffffffffffffffffffffff1660601b81526014019250505060405160208183030381529060405280519060200120905060006006600083815260200190815260200160002090508060080160009054906101000a900460ff16806113605750600081600101805460018160011615610100020316600290049050145b1561136c575050611611565b600061137733610d4f565b9050600087878760405160200180848480828437808301925050508260ff1660ff1660f81b8152600101935050505060405160208183030381529060405280519060200120905060006113e3846002018460026113d2610f0b565b60ff16816113dc57fe5b04856126a9565b9050600160028111156113f257fe5b8160028111156113fe57fe5b141561140e575050505050611611565b60028081111561141a57fe5b81600281111561142657fe5b1415611484576114368585612943565b8973ffffffffffffffffffffffffffffffffffffffff168b7f0fdd54511745997b3c6f05f62e17c608b6d402b5d02dfa60009997c1ae89edc260405160405180910390a35050505050611611565b60018460080160006101000a81548160ff021916908315150217905550868460080160016101000a81548160ff021916908360ff1602179055508973ffffffffffffffffffffffffffffffffffffffff168b7f72e320c3dc51ffa2396051490d47becef092ea73f671957a2dafda7e567aff518b8b8b60405180806020018360ff1660ff1681526020018281038252858582818152602001925080828437600081840152601f19601f82011690508083019250505094505050505060405180910390a37f1b73b7e683137318af868187d364e5f3d25de1c54913fb552bfbca47d44f33218b8560010160405180838152602001806020018281038252838181546001816001161561010002031660029004815260200191508054600181600116156101000203166002900480156115fc5780601f106115d1576101008083540402835291602001916115fc565b820191906000526020600020905b8154815290600101906020018083116115df57829003601f168201915b5050935050505060405180910390a150505050505b505050505050565b60008060009054906101000a900473ffffffffffffffffffffffffffffffffffffffff16905090565b6000600260003373ffffffffffffffffffffffffffffffffffffffff1673ffffffffffffffffffffffffffffffffffffffff16815260200190815260200160002054905060008114156116fd576040517f08c379a000000000000000000000000000000000000000000000000000000000815260040180806020018281038252600d8152602001807f42616c616e636520697320302e0000000000000000000000000000000000000081525060200191505060405180910390fd5b6000600260003373ffffffffffffffffffffffffffffffffffffffff1673ffffffffffffffffffffffffffffffffffffffff168152602001908152602001600020819055503373ffffffffffffffffffffffffffffffffffffffff166108fc829081150290604051600060405180830381858888f19350505050158015611788573d6000803e3d6000fd5b5050565b83838080601f016020809104026020016040519081016040528093929190818152602001838380828437600081840152601f19601f820116905080830192505050505050506040815114611848576040517f08c379a00000000000000000000000000000000000000000000000000000000081526004018080602001828103825260188152602001807f5075626c6963206b6579206973206e6f742076616c69642e000000000000000081525060200191505060405180910390fd5b60008888604051602001808381526020018273ffffffffffffffffffffffffffffffffffffffff1673ffffffffffffffffffffffffffffffffffffffff1660601b815260140192505050604051602081830303815290604052805190602001209050600060066000838152602001908152602001600020905060008160010180546001816001161561010002031660029004905014156118e9575050611c1c565b8060080160009054906101000a900460ff16611950576040517f08c379a0000000000000000000000000000000000000000000000000000000008152600401808060200182810382526022815260200180612d966022913960400191505060405180910390fd5b600061195b33610d4f565b905060008160ff166001901b90506000818b1614156119c5576040517f08c379a0000000000000000000000000000000000000000000000000000000008152600401808060200182810382526032815260200180612dfd6032913960400191505060405180910390fd5b60008a8a8a60405160200180848152602001838380828437808301925050509350505050604051602081830303815290604052805190602001209050600084600c0160008381526020019081526020016000209050600081600001541415611a605784600b018290806001815401808255809150506001900390600052602060002001600090919091909150558b8160000181905550611add565b60008382600101541614611adc576040517f08c379a000000000000000000000000000000000000000000000000000000000815260040180806020018281038252601e8152602001807f506572736f6e616c2064617461206973206e6f74207265706f727465642e000081525060200191505060405180910390fd5b5b60018160020160008282829054906101000a900460ff160192506101000a81548160ff021916908360ff1602179055508281600101600082825417925050819055508c73ffffffffffffffffffffffffffffffffffffffff168e7f04ad358f86bfdff4535760571ca0e7940d88e47306f2df3fc9ed9247039ecda78d8d8d8d6040518080602001806020018381038352878782818152602001925080828437600081840152601f19601f8201169050808301925050508381038252858582818152602001925080828437600081840152601f19601f820116905080830192505050965050505050505060405180910390a360018160020160009054906101000a900460ff160360ff168560080160019054906101000a900460ff1660ff1614611c0b57505050505050611c1c565b611c158686612943565b5050505050505b5050505050505050565b611c2e612363565b73ffffffffffffffffffffffffffffffffffffffff166000809054906101000a900473ffffffffffffffffffffffffffffffffffffffff1673ffffffffffffffffffffffffffffffffffffffff1614611cef576040517f08c379a00000000000000000000000000000000000000000000000000000000081526004018080602001828103825260208152602001807f4f776e61626c653a2063616c6c6572206973206e6f7420746865206f776e657281525060200191505060405180910390fd5b60008282604051602001808381526020018273ffffffffffffffffffffffffffffffffffffffff1673ffffffffffffffffffffffffffffffffffffffff1660601b8152601401925050506040516020818303038152906040528051906020012090506000600660008381526020019081526020016000209050611d728282612943565b8273ffffffffffffffffffffffffffffffffffffffff16847f0fdd54511745997b3c6f05f62e17c608b6d402b5d02dfa60009997c1ae89edc260405160405180910390a350505050565b60008282604051602001808381526020018273ffffffffffffffffffffffffffffffffffffffff1673ffffffffffffffffffffffffffffffffffffffff1660601b81526014019250505060405160208183030381529060405280519060200120905060006006600083815260200190815260200160002090506000816001018054600181600116156101000203166002900490501415611e5d575050612047565b6000611e6833610d4f565b90508160080160009054906101000a900460ff16611f505760007fffffffffffffffffffffffffffffffffffffffffffffffffffffffffffffffff60001b90506000611ecd84600201846002611ebc610f0b565b60ff1681611ec657fe5b04856126a9565b905060016002811115611edc57fe5b816002811115611ee857fe5b1415611ef8575050505050612047565b611f028585612943565b8573ffffffffffffffffffffffffffffffffffffffff16877f0fdd54511745997b3c6f05f62e17c608b6d402b5d02dfa60009997c1ae89edc260405160405180910390a35050505050612047565b60008160ff166001901b905060008184600901541614611f735750505050612047565b808360090160008282541792505081905550600183600a0160008282829054906101000a900460ff160192506101000a81548160ff021916908360ff16021790555060016002611fc1610f0b565b60ff1681611fcb57fe5b040160ff1683600a0160009054906101000a900460ff1660ff161015611ff45750505050612047565b611ffe8484612943565b8473ffffffffffffffffffffffffffffffffffffffff16867f0fdd54511745997b3c6f05f62e17c608b6d402b5d02dfa60009997c1ae89edc260405160405180910390a3505050505b5050565b6000600780549050905090565b612060612363565b73ffffffffffffffffffffffffffffffffffffffff166000809054906101000a900473ffffffffffffffffffffffffffffffffffffffff1673ffffffffffffffffffffffffffffffffffffffff1614612121576040517f08c379a00000000000000000000000000000000000000000000000000000000081526004018080602001828103825260208152602001807f4f776e61626c653a2063616c6c6572206973206e6f7420746865206f776e657281525060200191505060405180910390fd5b600073ffffffffffffffffffffffffffffffffffffffff168173ffffffffffffffffffffffffffffffffffffffff1614156121a7576040517f08c379a0000000000000000000000000000000000000000000000000000000008152600401808060200182810382526026815260200180612d446026913960400191505060405180910390fd5b8073ffffffffffffffffffffffffffffffffffffffff166000809054906101000a900473ffffffffffffffffffffffffffffffffffffffff1673ffffffffffffffffffffffffffffffffffffffff167f8be0079c531659141344cd1fd0a4f28419497f9722a3daafe3b4186f6b6457e060405160405180910390a3806000806101000a81548173ffffffffffffffffffffffffffffffffffffffff021916908373ffffffffffffffffffffffffffffffffffffffff16021790555050565b600060606000806007858154811061227957fe5b9060005260206000200154905060006006600083815260200190815260200160002090508060000154816001018260080160009054906101000a900460ff16818054600181600116156101000203166002900480601f01602080910402602001604051908101604052809291908181526020018280546001816001161561010002031660029004801561234d5780601f106123225761010080835404028352916020019161234d565b820191906000526020600020905b81548152906001019060200180831161233057829003601f168201915b5050505050915094509450945050509193909250565b600033905090565b6000612375610f0b565b9050600034905060008260ff16828161238a57fe5b04905060008090505b6001840360ff168160ff1610156124bc576000600160009054906101000a900473ffffffffffffffffffffffffffffffffffffffff1673ffffffffffffffffffffffffffffffffffffffff1663c66198dc836040518263ffffffff1660e01b8152600401808260ff1660ff16815260200191505060206040518083038186803b15801561241f57600080fd5b505afa158015612433573d6000803e3d6000fd5b505050506040513d602081101561244957600080fd5b8101908080519060200190929190505050905082600260008373ffffffffffffffffffffffffffffffffffffffff1673ffffffffffffffffffffffffffffffffffffffff168152602001908152602001600020600082825401925050819055508284039350508080600101915050612393565b506000600160009054906101000a900473ffffffffffffffffffffffffffffffffffffffff1673ffffffffffffffffffffffffffffffffffffffff1663c66198dc600186036040518263ffffffff1660e01b8152600401808260ff1660ff16815260200191505060206040518083038186803b15801561253b57600080fd5b505afa15801561254f573d6000803e3d6000fd5b505050506040513d602081101561256557600080fd5b8101908080519060200190929190505050905082600260008373ffffffffffffffffffffffffffffffffffffffff1673ffffffffffffffffffffffffffffffffffffffff1681526020019081526020016000206000828254019250508190555050505050565b600080600160009054906101000a900473ffffffffffffffffffffffffffffffffffffffff1673ffffffffffffffffffffffffffffffffffffffff16636452e8216040518163ffffffff1660e01b815260040160206040518083038186803b15801561263657600080fd5b505afa15801561264a573d6000803e3d6000fd5b505050506040513d602081101561266057600080fd5b81019080805190602001909291905050509050836000015481146126885760019150506126a3565b60008360ff166001901b905060008186600101541614925050505b92915050565b600080600160009054906101000a900473ffffffffffffffffffffffffffffffffffffffff1673ffffffffffffffffffffffffffffffffffffffff16636452e8216040518163ffffffff1660e01b815260040160206040518083038186803b15801561271457600080fd5b505afa158015612728573d6000803e3d6000fd5b505050506040513d602081101561273e57600080fd5b8101908080519060200190929190505050905060008660020160009054906101000a900460ff1660ff16141561277c57808660000181905550612793565b80866000015414612792576127918682612aa5565b5b5b60008560ff166001901b9050600081886001015416146127b85760019250505061293b565b6000600188600301600087815260200190815260200160002060009054906101000a900460ff1601905081886001016000828254179250508190555060018860020160008282829054906101000a900460ff160192506101000a81548160ff021916908360ff1602179055508088600301600087815260200190815260200160002060006101000a81548160ff021916908360ff16021790555060018160ff16141561288a57876005018590806001815401808255809150506001900390600052602060002001600090919091909150555b8760040160009054906101000a900460ff1660ff168160ff16106128e257808860040160006101000a81548160ff021916908360ff1602179055506001810360ff168660ff16116128e1576000935050505061293b565b5b60008860020160009054906101000a900460ff166128fe610f0b565b0390506001818a60040160009054906101000a900460ff16010360ff168760ff16111561293257600294505050505061293b565b60019450505050505b949350505050565b60008090505b81600b01805490508110156129b85781600c01600083600b01838154811061296d57fe5b9060005260206000200154815260200190815260200160002060008082016000905560018201600090556002820160006101000a81549060ff02191690555050806001019050612949565b506129c581600201612b11565b600660008381526020019081526020016000206000808201600090556001820160006129f19190612c90565b6002820160008082016000905560018201600090556002820160006101000a81549060ff02191690556004820160006101000a81549060ff0219169055600582016000612a3e9190612cd8565b50506008820160006101000a81549060ff02191690556008820160016101000a81549060ff02191690556009820160009055600a820160006101000a81549060ff0219169055600b82016000612a949190612cd8565b5050612aa1600783612b73565b5050565b612aae82612b11565b8082600001819055506000826001018190555060008260020160006101000a81548160ff021916908360ff16021790555060008260040160006101000a81548160ff021916908360ff160217905550816005016000612b0d9190612cd8565b5050565b60008090505b8160050180549050811015612b6f57816003016000836005018381548110612b3b57fe5b9060005260206000200154815260200190815260200160002060006101000a81549060ff0219169055806001019050612b17565b5050565b60008090505b8280549050811015612c0b5781838281548110612b9257fe5b90600052602060002001541415612c005782600184805490500381548110612bb657fe5b9060005260206000200154838281548110612bcd57fe5b906000526020600020018190555082805480612be557fe5b60019003818190600052602060002001600090559055612c0b565b806001019050612b79565b505050565b828054600181600116156101000203166002900490600052602060002090601f016020900481019282601f10612c5157803560ff1916838001178555612c7f565b82800160010185558215612c7f579182015b82811115612c7e578235825591602001919060010190612c63565b5b509050612c8c9190612cf9565b5090565b50805460018160011615610100020316600290046000825580601f10612cb65750612cd5565b601f016020900490600052602060002090810190612cd49190612cf9565b5b50565b5080546000825590600052602060002090810190612cf69190612d1e565b50565b612d1b91905b80821115612d17576000816000905550600101612cff565b5090565b90565b612d4091905b80821115612d3c576000816000905550600101612d24565b5090565b9056fe4f776e61626c653a206e6577206f776e657220697320746865207a65726f206164647265737343616c6c6572206973206e6f74206f776e6572206f662074686520676976656e207075626c6963206b65792e436f6d6d6f6e2072657472696576616c206973206e6f7420636f6d706c657465642e4d6178696d756d206e756d626572206f6620726571756573747320726561636865642e446972656374207061796d656e747320617265206e6f7420737570706f72746564214b65792073657276657220646f6573206e6f74206861766520616e20656e74727920696e207061727469636970616e74732ea26469706673582212202a0e5bd8ec147ac939196052e34fa0974caeef52b766ec61ee80643e6b5ec36c64736f6c63430006050033",
  "source": "//! The Secret Store document key shadow retrieval service contract.\n//!\n//! Copyright 2017 Svyatoslav Nikolsky, Parity Technologies Ltd.\n//!\n//! Licensed under the Apache License, Version 2.0 (the \"License\");\n//! you may not use this file except in compliance with the License.\n//! You may obtain a copy of the License at\n//!\n//!     http://www.apache.org/licenses/LICENSE-2.0\n//!\n//! Unless required by applicable law or agreed to in writing, software\n//! distributed under the License is distributed on an \"AS IS\" BASIS,\n//! WITHOUT WARRANTIES OR CONDITIONS OF ANY KIND, either express or implied.\n//! See the License for the specific language governing permissions and\n//! limitations under the License.\n\npragma solidity ^0.6.0;\n\nimport \"../interfaces/SecretStoreService.sol\";\nimport \"./SecretStoreServiceBase.sol\";\n\n\n/// Document Key shadow retrieval service contract.\n/* solium-disable-next-line */\ncontract SecretStoreDocumentKeyShadowRetrievalService is \n    SecretStoreServiceBase,\n    DocumentKeyShadowRetrievalServiceClientApi,\n    DocumentKeyShadowRetrievalServiceKeyServerApi\n{\n    /// Document key shadow retrieval request.\n    struct DocumentKeyShadowRetrievalRequest {\n        // public portion-related data\n        bytes32 serverKeyId;\n        bytes requesterPublic;\n        RequestResponses commonRetrievalResponses;\n        bool isCommonRetrievalCompleted;\n        uint8 threshold;\n        // personal portion-related data\n        uint256 personalRetrievalErrors;\n        uint8 personalRetrievalErrorsCount;\n        bytes32[] personalDataKeys;\n        mapping (bytes32 => DocumentKeyShadowRetrievalData) personalData;\n    }\n\n    /// Document key retrieval data.\n    struct DocumentKeyShadowRetrievalData {\n        uint256 participants;\n        uint256 reported;\n        uint8 reportedCount;\n    }\n\n    //// Only pass when caller is the owner of given public key.\n    modifier onlyPublicOwner(bytes memory publicKey) {\n        require(\n            address(uint(keccak256(publicKey)) & 0x00FFFFFFFFFFFFFFFFFFFFFFFFFFFFFFFFFFFFFFFF) == msg.sender,\n            \"Caller is not owner of the given public key.\"\n        );\n        _;\n    }\n\n    /// When document key common-portion retrieval request is received.\n    event DocumentKeyCommonRetrievalRequested(bytes32 serverKeyId, address requester);\n\n    /// When document key personal-portion retrieval request is received.\n    event DocumentKeyPersonalRetrievalRequested(bytes32 serverKeyId, bytes requesterPublic);\n\n    /// When document key common portion is retrieved. Ater this event s fired, wait for\n    /// exactly `threshold+1` `DocumentKeyPersonalRetrieved` events with the same `decryptedSecret` value.\n    event DocumentKeyCommonRetrieved(\n        bytes32 indexed serverKeyId,\n        address indexed requester,\n        bytes commonPoint,\n        uint8 threshold\n    );\n\n    /// When document key personal portion is retrieved. After enough events are fired, use `secretstore_shadowDecrypt`\n    /// to decrypt document contents.\n    event DocumentKeyPersonalRetrieved(\n        bytes32 indexed serverKeyId,\n        address indexed requester,\n        bytes decryptedSecret,\n        bytes shadow\n    );\n\n    /// When error occurs during document key retrieval.\n    event DocumentKeyShadowRetrievalError(bytes32 indexed serverKeyId, address indexed requester);\n\n    /// Constructor.\n    constructor(address keyServerSetAddressInit) SecretStoreServiceBase(keyServerSetAddressInit) public {\n        documentKeyShadowRetrievalFee = 200 finney;\n        maxDocumentKeyShadowRetrievalRequests = 4;\n    }\n\n    // === Interface methods ===\n\n    /// We do not support direct payments.\n    receive() external payable {\n        revert(\"Direct payments are not supported!\");\n    }\n\n    /// Request document key retrieval.\n    function retrieveDocumentKeyShadow(bytes32 serverKeyId, bytes calldata requesterPublic)\n        external\n        payable\n        override\n        whenFeePaid(documentKeyShadowRetrievalFee)\n        validPublic(requesterPublic)\n        onlyPublicOwner(requesterPublic)\n    {\n        // check maximum number of requests\n        require(\n            documentKeyShadowRetrievalRequestsKeys.length < maxDocumentKeyShadowRetrievalRequests,\n            \"Maximum number of requests reached.\"\n        );\n\n        bytes32 retrievalId = keccak256(abi.encodePacked(serverKeyId, msg.sender));\n        DocumentKeyShadowRetrievalRequest storage request = documentKeyShadowRetrievalRequests[retrievalId];\n        require(request.requesterPublic.length == 0, \"requesterPublic length is not 0.\");\n        deposit();\n\n        // we do not know exact threshold value here && we can not blindly trust the first response\n        // => we should agree upon two values: threshold && document key itself\n        // => assuming that all authorities will eventually respond with value/error, we will wait for:\n        // 1) at least 50% + 1 authorities agreement on the same threshold value\n        // 2) after threshold is agreed, we will wait for threshold + 1 values of document key\n\n        // the data required to compute document key is the triple { commonPoint, encryptedPoint, shadowPoints[] }\n        // this data is computed on threshold + 1 nodes only\n        // retrieval consists of two phases:\n        // 1) every authority that is seeing retrieval request, publishes { commonPoint, encryptedPoint, threshold }\n        // 2) master node starts decryption session\n        // 2.1) every node participating in decryption session publishes { address[], shadow }\n        // 2.2) once there are threshold + 1 confirmations of { address[], shadow } from exactly address[] authorities,\n        //      we are publishing the key\n\n        request.serverKeyId = serverKeyId;\n        request.requesterPublic = requesterPublic;\n        documentKeyShadowRetrievalRequestsKeys.push(retrievalId);\n\n        emit DocumentKeyCommonRetrievalRequested(serverKeyId, msg.sender);\n    }\n\n    /// Called when common data is reported by key server.\n    function documentKeyCommonRetrieved(\n        bytes32 serverKeyId,\n        address requester,\n        bytes calldata commonPoint,\n        uint8 threshold\n    )\n        external\n        override\n        validPublic(commonPoint)\n    {\n        // check if request still active\n        bytes32 retrievalId = keccak256(abi.encodePacked(serverKeyId, requester));\n        DocumentKeyShadowRetrievalRequest storage request = documentKeyShadowRetrievalRequests[retrievalId];\n        if (request.isCommonRetrievalCompleted || request.requesterPublic.length == 0) {\n            return;\n        }\n\n        // insert response\n        uint8 keyServerIndex = requireKeyServer(msg.sender);\n        bytes32 commonResponse = keccak256(abi.encodePacked(commonPoint, threshold));\n        ResponseSupport commonResponseSupport = insertResponse(\n            request.commonRetrievalResponses,\n            keyServerIndex,\n            keyServersCount() / 2,\n            commonResponse);\n\n        // ...and check if there are enough support\n        if (commonResponseSupport == ResponseSupport.Unconfirmed) { // not confirmed (yet)\n            return;\n        }\n\n        // if common consensus isn't possible => personal retrieval is also impossible\n        if (commonResponseSupport == ResponseSupport.Impossible) {\n            clearDocumentKeyShadowRetrievalRequest(retrievalId, request);\n            emit DocumentKeyShadowRetrievalError(serverKeyId, requester);\n            return;\n        }\n\n        // else => remember required data\n        request.isCommonRetrievalCompleted = true;\n        request.threshold = threshold;\n\n        // ...and publish common data (this is also a signal to 'master' key server to start decryption)\n        emit DocumentKeyCommonRetrieved(\n            serverKeyId,\n            requester,\n            commonPoint,\n            threshold);\n        emit DocumentKeyPersonalRetrievalRequested(serverKeyId, request.requesterPublic);\n    }\n\n    /// Called when 'personal' data is reported by key server.\n    function documentKeyPersonalRetrieved(\n        bytes32 serverKeyId,\n        address requester,\n        uint256 participants,\n        bytes calldata decryptedSecret,\n        bytes calldata shadow\n    )\n        external\n        override\n        validPublic(decryptedSecret)\n    {\n        // check if request still active\n        bytes32 retrievalId = keccak256(abi.encodePacked(serverKeyId, requester));\n        DocumentKeyShadowRetrievalRequest storage request = documentKeyShadowRetrievalRequests[retrievalId];\n        if (request.requesterPublic.length == 0) {\n            return;\n        }\n\n        // we do not accept personal data until common is retrieved\n        require(request.isCommonRetrievalCompleted, \"Common retrieval is not completed.\");\n\n        // there must be exactly threshold + 1 participated key servers\n        // TODO: require(request.threshold + 1 == participants.length);\n\n        // key server must have an entry in participants\n        uint8 keyServerIndex = requireKeyServer(msg.sender);\n        uint256 keyServerMask = (uint256(1) << keyServerIndex);\n        require((participants & keyServerMask) != 0, \"Key server does not have an entry in participants.\");\n\n        // insert new personal data\n        bytes32 personalDataId = keccak256(abi.encodePacked(participants, decryptedSecret));\n        DocumentKeyShadowRetrievalData storage personalData = request.personalData[personalDataId];\n        if (personalData.participants == 0) {\n            request.personalDataKeys.push(personalDataId);\n            personalData.participants = participants;\n        } else {\n            require((personalData.reported & keyServerMask) == 0, \"Personal data is not reported.\");\n        }\n\n        // remember result\n        personalData.reportedCount += 1;\n        personalData.reported |= keyServerMask;\n\n        // publish personal portion\n        emit DocumentKeyPersonalRetrieved(\n            serverKeyId,\n            requester,\n            decryptedSecret,\n            shadow);\n\n        // check if all participants have responded\n        if (request.threshold != personalData.reportedCount - 1) {\n            return;\n        }\n\n        // delete request\n        clearDocumentKeyShadowRetrievalRequest(retrievalId, request);\n    }\n\n    /// Called when error occurs during document key shadow retrieval.\n    function documentKeyShadowRetrievalError(bytes32 serverKeyId, address requester)\n        external\n        override\n    {\n        // check if request still active\n        bytes32 retrievalId = keccak256(abi.encodePacked(serverKeyId, requester));\n        DocumentKeyShadowRetrievalRequest storage request = documentKeyShadowRetrievalRequests[retrievalId];\n        if (request.requesterPublic.length == 0) {\n            return;\n        }\n\n        // error on common data retrieval step is treated like a voting for non-existant common data\n        uint8 keyServerIndex = requireKeyServer(msg.sender);\n        if (!request.isCommonRetrievalCompleted) {\n            // insert response\n            bytes32 invalidResponse = bytes32(0xFFFFFFFFFFFFFFFFFFFFFFFFFFFFFFFFFFFFFFFFFFFFFFFFFFFFFFFFFFFFFFFF);\n            ResponseSupport invalidResponseSupport = insertResponse(\n                request.commonRetrievalResponses,\n                keyServerIndex,\n                keyServersCount() / 2,\n                invalidResponse);\n\n            // ...and check if there are enough confirmations for invalid response\n            if (invalidResponseSupport == ResponseSupport.Unconfirmed) {\n                return;\n            }\n\n            // delete request and fire event\n            clearDocumentKeyShadowRetrievalRequest(retrievalId, request);\n            emit DocumentKeyShadowRetrievalError(serverKeyId, requester);\n            return;\n        }\n\n        // else error has occured during personal data retrieval\n        // this could be:\n        // 1) access denied error (because KS is out of sync?)\n        // 2) key has became irrecoverable\n        // 3) key server is cheating\n        // there's currently no strong criteria - when to stop retrying to serve request\n        // stopping it after first error isn't good, because this means that any KS can reject request\n        // waiting for N errors isn't good, because consensus set in decryption session is constructed\n        //   right after t+1 nodes have responded with AGREE => some of nodes (with bad connectivity) might be\n        //   'banned' from this session forever\n        // waiting for any threshold-related errors count will fail if this count is larger than N\n        // => let's wait for N/2+1 errors from different nodes\n        uint256 keyServerMask = uint256(1) << keyServerIndex;\n        if ((request.personalRetrievalErrors & keyServerMask) != 0) {\n            return;\n        }\n        request.personalRetrievalErrors |= keyServerMask;\n        request.personalRetrievalErrorsCount += 1;\n\n        // check if we have enough errors\n        if (request.personalRetrievalErrorsCount < keyServersCount() / 2 + 1) {\n            return;\n        }\n\n        // delete request and fire event\n        clearDocumentKeyShadowRetrievalRequest(retrievalId, request);\n        emit DocumentKeyShadowRetrievalError(serverKeyId, requester);\n    }\n\n    /// Get count of pending document key shadow retrieval requests.\n    function documentKeyShadowRetrievalRequestsCount()\n        external\n        view\n        override\n        returns (uint256) {\n        return documentKeyShadowRetrievalRequestsKeys.length;\n    }\n\n    /// Get document key shadow retrieval request with given index.\n    /// Returns: (serverKeyId, requesterPublic, isCommonRetrievalCompleted)\n    function getDocumentKeyShadowRetrievalRequest(uint256 index)\n        external\n        view\n        override\n        returns (bytes32, bytes memory, bool)\n    {\n        bytes32 retrievalId = documentKeyShadowRetrievalRequestsKeys[index];\n        DocumentKeyShadowRetrievalRequest storage request = documentKeyShadowRetrievalRequests[retrievalId];\n        return (\n            request.serverKeyId,\n            request.requesterPublic,\n            request.isCommonRetrievalCompleted\n        );\n    }\n\n    /// Returs true if response from given keyServer is required.\n    function isDocumentKeyShadowRetrievalResponseRequired(bytes32 serverKeyId, address requester, address keyServer)\n        external\n        view\n        override\n        returns (bool)\n    {\n        uint8 keyServerIndex = requireKeyServer(keyServer);\n        bytes32 retrievalId = keccak256(abi.encodePacked(serverKeyId, requester));\n        DocumentKeyShadowRetrievalRequest storage request = documentKeyShadowRetrievalRequests[retrievalId];\n        // response is always required when personal retrieval is requested\n        return request.isCommonRetrievalCompleted ||\n            isResponseRequired(request.commonRetrievalResponses, keyServerIndex);\n    }\n\n    // === Administrative methods ===\n\n    /// Set document key shadow retrieval fee.\n    function setDocumentKeyShadowRetrievalFee(uint256 newFee)\n        public\n        onlyOwner\n    {\n        documentKeyShadowRetrievalFee = newFee;\n    }\n\n    /// Set document key shadow retrieval requests limit.\n    function setMaxDocumentKeyShadowRetrievalRequests(uint256 newLimit)\n        public\n        onlyOwner\n    {\n        maxDocumentKeyShadowRetrievalRequests = newLimit;\n    }\n\n    /// Delete document key shadow retrieval request.\n    function deleteDocumentKeyShadowRetrievalRequest(bytes32 serverKeyId, address requester)\n        public\n        onlyOwner\n    {\n        bytes32 retrievalId = keccak256(abi.encodePacked(serverKeyId, requester));\n        DocumentKeyShadowRetrievalRequest storage request = documentKeyShadowRetrievalRequests[retrievalId];\n        clearDocumentKeyShadowRetrievalRequest(retrievalId, request);\n\n        emit DocumentKeyShadowRetrievalError(serverKeyId, requester);\n    }\n\n    // === Internal methods ===\n\n    /// Clear document key shadow retrieval request traces.\n    function clearDocumentKeyShadowRetrievalRequest(\n        bytes32 retrievalId,\n        DocumentKeyShadowRetrievalRequest storage request\n    )\n        private\n    {\n        for (uint i = 0; i < request.personalDataKeys.length; ++i) {\n            delete request.personalData[request.personalDataKeys[i]];\n        }\n        clearResponses(request.commonRetrievalResponses);\n        delete documentKeyShadowRetrievalRequests[retrievalId];\n\n        removeRequestKey(documentKeyShadowRetrievalRequestsKeys, retrievalId);\n    }\n\n    /// Document key shadow retrieval fee.\n    uint256 public documentKeyShadowRetrievalFee;\n    /// Maximal number of active document key shadow retrieval requests. We're limiting this number to avoid\n    /// infinite gas costs of some functions.\n    uint256 public maxDocumentKeyShadowRetrievalRequests;\n\n    /// Pending store requests.\n    mapping (bytes32 => DocumentKeyShadowRetrievalRequest) private documentKeyShadowRetrievalRequests;\n    /// Pending store requests keys.\n    bytes32[] private documentKeyShadowRetrievalRequestsKeys;\n}\n",
  "sourcePath": "/home/aznagy/work/secretstore/secretstore-contracts/contracts/service/SecretStoreDocumentKeyShadowRetrievalService.sol",
  "compiler": {
    "name": "solc",
    "version": "0.6.5+commit.f956cc89.Emscripten.clang"
  },
  "schemaVersion": "3.0.23",
  "updatedAt": "2020-04-08T13:26:55.991Z",
  "devdoc": {
    "methods": {
      "owner()": {
        "details": "Returns the address of the current owner."
      },
      "renounceOwnership()": {
        "details": "Leaves the contract without owner. It will not be possible to call `onlyOwner` functions anymore. Can only be called by the current owner.     * NOTE: Renouncing ownership will leave the contract without an owner, thereby removing any functionality that is only available to the owner."
      },
      "transferOwnership(address)": {
        "details": "Transfers ownership of the contract to a new account (`newOwner`). Can only be called by the current owner."
      }
    }
  },
  "userdoc": {
    "methods": {
      "constructor": "Constructor.",
      "deleteDocumentKeyShadowRetrievalRequest(bytes32,address)": {
        "notice": "Delete document key shadow retrieval request."
      },
      "documentKeyCommonRetrieved(bytes32,address,bytes,uint8)": {
        "notice": "Called when common data is reported by key server."
      },
      "documentKeyPersonalRetrieved(bytes32,address,uint256,bytes,bytes)": {
        "notice": "Called when 'personal' data is reported by key server."
      },
      "documentKeyShadowRetrievalError(bytes32,address)": {
        "notice": "Called when error occurs during document key shadow retrieval."
      },
      "documentKeyShadowRetrievalRequestsCount()": {
        "notice": "Get count of pending document key shadow retrieval requests."
      },
      "drain()": {
        "notice": "Drain balance of sender key server."
      },
      "getDocumentKeyShadowRetrievalRequest(uint256)": {
        "notice": "Get document key shadow retrieval request with given index. Returns: (serverKeyId, requesterPublic, isCommonRetrievalCompleted)"
      },
      "isDocumentKeyShadowRetrievalResponseRequired(bytes32,address,address)": {
        "notice": "Returs true if response from given keyServer is required."
      },
      "keyServersCount()": {
        "notice": "Return number of key servers."
      },
      "requireKeyServer(address)": {
        "notice": "Return index of key server at given address."
      },
      "retrieveDocumentKeyShadow(bytes32,bytes)": {
        "notice": "Request document key retrieval."
      },
      "setDocumentKeyShadowRetrievalFee(uint256)": {
        "notice": "Set document key shadow retrieval fee."
      },
      "setMaxDocumentKeyShadowRetrievalRequests(uint256)": {
        "notice": "Set document key shadow retrieval requests limit."
      }
    },
    "notice": "Document Key shadow retrieval service contract."
  }
}