{
  "contractName": "SecretStoreServerKeyRetrievalService",
  "abi": [
    {
      "inputs": [
        {
          "internalType": "address",
          "name": "keyServerSetAddressInit",
          "type": "address"
        }
      ],
      "stateMutability": "nonpayable",
      "type": "constructor"
    },
    {
      "anonymous": false,
      "inputs": [
        {
          "indexed": true,
          "internalType": "address",
          "name": "previousOwner",
          "type": "address"
        },
        {
          "indexed": true,
          "internalType": "address",
          "name": "newOwner",
          "type": "address"
        }
      ],
      "name": "OwnershipTransferred",
      "type": "event"
    },
    {
      "anonymous": false,
      "inputs": [
        {
          "indexed": true,
          "internalType": "bytes32",
          "name": "serverKeyId",
          "type": "bytes32"
        }
      ],
      "name": "ServerKeyRetrievalError",
      "type": "event"
    },
    {
      "anonymous": false,
      "inputs": [
        {
          "indexed": false,
          "internalType": "bytes32",
          "name": "serverKeyId",
          "type": "bytes32"
        }
      ],
      "name": "ServerKeyRetrievalRequested",
      "type": "event"
    },
    {
      "anonymous": false,
      "inputs": [
        {
          "indexed": true,
          "internalType": "bytes32",
          "name": "serverKeyId",
          "type": "bytes32"
        },
        {
          "indexed": false,
          "internalType": "bytes",
          "name": "serverKeyPublic",
          "type": "bytes"
        }
      ],
      "name": "ServerKeyRetrieved",
      "type": "event"
    },
    {
      "anonymous": false,
      "inputs": [
        {
          "indexed": true,
          "internalType": "bytes32",
          "name": "serverKeyId",
          "type": "bytes32"
        },
        {
          "indexed": false,
          "internalType": "bytes",
          "name": "serverKeyPublic",
          "type": "bytes"
        },
        {
          "indexed": false,
          "internalType": "uint256",
          "name": "threshold",
          "type": "uint256"
        }
      ],
      "name": "ServerKeyRetrieved",
      "type": "event"
    },
    {
      "inputs": [],
      "name": "drain",
      "outputs": [],
      "stateMutability": "nonpayable",
      "type": "function"
    },
    {
      "inputs": [],
      "name": "keyServersCount",
      "outputs": [
        {
          "internalType": "uint8",
          "name": "",
          "type": "uint8"
        }
      ],
      "stateMutability": "view",
      "type": "function"
    },
    {
      "inputs": [],
      "name": "maxServerKeyRetrievalRequests",
      "outputs": [
        {
          "internalType": "uint256",
          "name": "",
          "type": "uint256"
        }
      ],
      "stateMutability": "view",
      "type": "function"
    },
    {
      "inputs": [],
      "name": "owner",
      "outputs": [
        {
          "internalType": "address",
          "name": "",
          "type": "address"
        }
      ],
      "stateMutability": "view",
      "type": "function"
    },
    {
      "inputs": [],
      "name": "renounceOwnership",
      "outputs": [],
      "stateMutability": "nonpayable",
      "type": "function"
    },
    {
      "inputs": [
        {
          "internalType": "address",
          "name": "keyServer",
          "type": "address"
        }
      ],
      "name": "requireKeyServer",
      "outputs": [
        {
          "internalType": "uint8",
          "name": "",
          "type": "uint8"
        }
      ],
      "stateMutability": "view",
      "type": "function"
    },
    {
      "inputs": [],
      "name": "serverKeyRetrievalFee",
      "outputs": [
        {
          "internalType": "uint256",
          "name": "",
          "type": "uint256"
        }
      ],
      "stateMutability": "view",
      "type": "function"
    },
    {
      "inputs": [
        {
          "internalType": "address",
          "name": "newOwner",
          "type": "address"
        }
      ],
      "name": "transferOwnership",
      "outputs": [],
      "stateMutability": "nonpayable",
      "type": "function"
    },
    {
      "stateMutability": "payable",
      "type": "receive"
    },
    {
      "inputs": [
        {
          "internalType": "bytes32",
          "name": "serverKeyId",
          "type": "bytes32"
        }
      ],
      "name": "retrieveServerKey",
      "outputs": [],
      "stateMutability": "payable",
      "type": "function"
    },
    {
      "inputs": [
        {
          "internalType": "bytes32",
          "name": "serverKeyId",
          "type": "bytes32"
        },
        {
          "internalType": "bytes",
          "name": "serverKeyPublic",
          "type": "bytes"
        },
        {
          "internalType": "uint8",
          "name": "threshold",
          "type": "uint8"
        }
      ],
      "name": "serverKeyRetrieved",
      "outputs": [],
      "stateMutability": "nonpayable",
      "type": "function"
    },
    {
      "inputs": [
        {
          "internalType": "bytes32",
          "name": "serverKeyId",
          "type": "bytes32"
        }
      ],
      "name": "serverKeyRetrievalError",
      "outputs": [],
      "stateMutability": "nonpayable",
      "type": "function"
    },
    {
      "inputs": [],
      "name": "serverKeyRetrievalRequestsCount",
      "outputs": [
        {
          "internalType": "uint256",
          "name": "",
          "type": "uint256"
        }
      ],
      "stateMutability": "view",
      "type": "function"
    },
    {
      "inputs": [
        {
          "internalType": "uint256",
          "name": "index",
          "type": "uint256"
        }
      ],
      "name": "getServerKeyRetrievalRequest",
      "outputs": [
        {
          "internalType": "bytes32",
          "name": "",
          "type": "bytes32"
        }
      ],
      "stateMutability": "view",
      "type": "function"
    },
    {
      "inputs": [
        {
          "internalType": "bytes32",
          "name": "serverKeyId",
          "type": "bytes32"
        },
        {
          "internalType": "address",
          "name": "keyServer",
          "type": "address"
        }
      ],
      "name": "isServerKeyRetrievalResponseRequired",
      "outputs": [
        {
          "internalType": "bool",
          "name": "",
          "type": "bool"
        }
      ],
      "stateMutability": "view",
      "type": "function"
    },
    {
      "inputs": [
        {
          "internalType": "uint256",
          "name": "newFee",
          "type": "uint256"
        }
      ],
      "name": "setServerKeyRetrievalFee",
      "outputs": [],
      "stateMutability": "nonpayable",
      "type": "function"
    },
    {
      "inputs": [
        {
          "internalType": "uint256",
          "name": "newLimit",
          "type": "uint256"
        }
      ],
      "name": "setMaxServerKeyRetrievalRequests",
      "outputs": [],
      "stateMutability": "nonpayable",
      "type": "function"
    },
    {
      "inputs": [
        {
          "internalType": "bytes32",
          "name": "serverKeyId",
          "type": "bytes32"
        }
      ],
      "name": "deleteServerKeyRetrievalRequest",
      "outputs": [],
      "stateMutability": "nonpayable",
      "type": "function"
    }
  ],
  "bytecode": "0x608060405234801561001057600080fd5b506040516123473803806123478339818101604052602081101561003357600080fd5b810190808051906020019092919050505080600061005561015260201b60201c565b9050806000806101000a81548173ffffffffffffffffffffffffffffffffffffffff021916908373ffffffffffffffffffffffffffffffffffffffff1602179055508073ffffffffffffffffffffffffffffffffffffffff16600073ffffffffffffffffffffffffffffffffffffffff167f8be0079c531659141344cd1fd0a4f28419497f9722a3daafe3b4186f6b6457e060405160405180910390a35080600160006101000a81548173ffffffffffffffffffffffffffffffffffffffff021916908373ffffffffffffffffffffffffffffffffffffffff1602179055505067016345785d8a000060048190555060086005819055505061015a565b600033905090565b6121de806101696000396000f3fe6080604052600436106101025760003560e01c80638da5cb5b11610095578063af538b7111610064578063af538b71146104a9578063d2548ea8146104d4578063e70f14271461050f578063f2fde38b1461054a578063ffaff0f71461059b57610158565b80638da5cb5b146103635780639890220b146103ba5780639f0d6ffd146103d1578063a45362f61461040c57610158565b806350f6a134116100d157806350f6a134146102a15780635aa8404c146102f05780636479c4d114610321578063715018a61461034c57610158565b806315eb53091461015d5780631b544bb0146101985780632b4f030a146101c35780633b68c4271461022e57610158565b36610158576040517f08c379a000000000000000000000000000000000000000000000000000000000815260040180806020018281038252602281526020018061213d6022913960400191505060405180910390fd5b600080fd5b34801561016957600080fd5b506101966004803603602081101561018057600080fd5b81019080803590602001909291905050506105c9565b005b3480156101a457600080fd5b506101ad6106db565b6040518082815260200191505060405180910390f35b3480156101cf57600080fd5b50610212600480360360208110156101e657600080fd5b81019080803573ffffffffffffffffffffffffffffffffffffffff1690602001909291905050506106e8565b604051808260ff1660ff16815260200191505060405180910390f35b34801561023a57600080fd5b506102876004803603604081101561025157600080fd5b8101908080359060200190929190803573ffffffffffffffffffffffffffffffffffffffff1690602001909291905050506107cb565b604051808215151515815260200191505060405180910390f35b3480156102ad57600080fd5b506102da600480360360208110156102c457600080fd5b8101908080359060200190929190505050610807565b6040518082815260200191505060405180910390f35b3480156102fc57600080fd5b5061030561082d565b604051808260ff1660ff16815260200191505060405180910390f35b34801561032d57600080fd5b506103366108d7565b6040518082815260200191505060405180910390f35b34801561035857600080fd5b506103616108dd565b005b34801561036f57600080fd5b50610378610a65565b604051808273ffffffffffffffffffffffffffffffffffffffff1673ffffffffffffffffffffffffffffffffffffffff16815260200191505060405180910390f35b3480156103c657600080fd5b506103cf610a8e565b005b3480156103dd57600080fd5b5061040a600480360360208110156103f457600080fd5b8101908080359060200190929190505050610bd8565b005b34801561041857600080fd5b506104a76004803603606081101561042f57600080fd5b81019080803590602001909291908035906020019064010000000081111561045657600080fd5b82018360208201111561046857600080fd5b8035906020019184600183028401116401000000008311171561048a57600080fd5b9091929391929390803560ff169060200190929190505050610cab565b005b3480156104b557600080fd5b506104be610f30565b6040518082815260200191505060405180910390f35b3480156104e057600080fd5b5061050d600480360360208110156104f757600080fd5b8101908080359060200190929190505050610f36565b005b34801561051b57600080fd5b506105486004803603602081101561053257600080fd5b8101908080359060200190929190505050611009565b005b34801561055657600080fd5b506105996004803603602081101561056d57600080fd5b81019080803573ffffffffffffffffffffffffffffffffffffffff169060200190929190505050611124565b005b6105c7600480360360208110156105b157600080fd5b8101908080359060200190929190505050611331565b005b60006006600083815260200190815260200160002090508060000160009054906101000a900460ff166105fc57506106d8565b6000610607336106e8565b90506060604067ffffffffffffffff8111801561062357600080fd5b506040519080825280601f01601f1916602001820160405280156106565781602001600182028036833780820191505090505b5090506000606061066a85858560ff61152f565b80925081935050506001600281111561067f57fe5b82600281111561068b57fe5b141561069b5750505050506106d8565b6106a586866117cb565b857fd771fa1d962d6d67f55ba82bcac8601cf0bd33cc5680a029b58faa3d2d3d260d60405160405180910390a250505050505b50565b6000600780549050905090565b6000600160009054906101000a900473ffffffffffffffffffffffffffffffffffffffff1673ffffffffffffffffffffffffffffffffffffffff1663287fb40c836040518263ffffffff1660e01b8152600401808273ffffffffffffffffffffffffffffffffffffffff1673ffffffffffffffffffffffffffffffffffffffff16815260200191505060206040518083038186803b15801561078957600080fd5b505afa15801561079d573d6000803e3d6000fd5b505050506040513d60208110156107b357600080fd5b81019080805190602001909291905050509050919050565b6000806107d7836106e8565b905060006006600086815260200190815260200160002090506107fd81600101836118be565b9250505092915050565b6000806007838154811061081757fe5b9060005260206000200154905080915050919050565b6000600160009054906101000a900473ffffffffffffffffffffffffffffffffffffffff1673ffffffffffffffffffffffffffffffffffffffff16635560c9656040518163ffffffff1660e01b815260040160206040518083038186803b15801561089757600080fd5b505afa1580156108ab573d6000803e3d6000fd5b505050506040513d60208110156108c157600080fd5b8101908080519060200190929190505050905090565b60055481565b6108e561199c565b73ffffffffffffffffffffffffffffffffffffffff166000809054906101000a900473ffffffffffffffffffffffffffffffffffffffff1673ffffffffffffffffffffffffffffffffffffffff16146109a6576040517f08c379a00000000000000000000000000000000000000000000000000000000081526004018080602001828103825260208152602001807f4f776e61626c653a2063616c6c6572206973206e6f7420746865206f776e657281525060200191505060405180910390fd5b600073ffffffffffffffffffffffffffffffffffffffff166000809054906101000a900473ffffffffffffffffffffffffffffffffffffffff1673ffffffffffffffffffffffffffffffffffffffff167f8be0079c531659141344cd1fd0a4f28419497f9722a3daafe3b4186f6b6457e060405160405180910390a360008060006101000a81548173ffffffffffffffffffffffffffffffffffffffff021916908373ffffffffffffffffffffffffffffffffffffffff160217905550565b60008060009054906101000a900473ffffffffffffffffffffffffffffffffffffffff16905090565b6000600260003373ffffffffffffffffffffffffffffffffffffffff1673ffffffffffffffffffffffffffffffffffffffff1681526020019081526020016000205490506000811415610b49576040517f08c379a000000000000000000000000000000000000000000000000000000000815260040180806020018281038252600d8152602001807f42616c616e636520697320302e0000000000000000000000000000000000000081525060200191505060405180910390fd5b6000600260003373ffffffffffffffffffffffffffffffffffffffff1673ffffffffffffffffffffffffffffffffffffffff168152602001908152602001600020819055503373ffffffffffffffffffffffffffffffffffffffff166108fc829081150290604051600060405180830381858888f19350505050158015610bd4573d6000803e3d6000fd5b5050565b610be061199c565b73ffffffffffffffffffffffffffffffffffffffff166000809054906101000a900473ffffffffffffffffffffffffffffffffffffffff1673ffffffffffffffffffffffffffffffffffffffff1614610ca1576040517f08c379a00000000000000000000000000000000000000000000000000000000081526004018080602001828103825260208152602001807f4f776e61626c653a2063616c6c6572206973206e6f7420746865206f776e657281525060200191505060405180910390fd5b8060058190555050565b82828080601f016020809104026020016040519081016040528093929190818152602001838380828437600081840152601f19601f820116905080830192505050505050506040815114610d67576040517f08c379a00000000000000000000000000000000000000000000000000000000081526004018080602001828103825260188152602001807f5075626c6963206b6579206973206e6f742076616c69642e000000000000000081525060200191505060405180910390fd5b60006006600087815260200190815260200160002090508060000160009054906101000a900460ff16610d9a5750610f29565b6000610da5336106e8565b905060006060610dfb84848a8a8080601f016020809104026020016040519081016040528093929190818152602001838380828437600081840152601f19601f820116905080830192505050505050508961152f565b809250819350505060016002811115610e1057fe5b826002811115610e1c57fe5b1415610e2b5750505050610f29565b610e3589856117cb565b60006002811115610e4257fe5b826002811115610e4e57fe5b1415610ef657887fbc454e03c5f94d0bd23c53b4fed1f5af23e7cd378eac46203f25d406c4a92118826040518080602001828103825283818151815260200191508051906020019080838360005b83811015610eb7578082015181840152602081019050610e9c565b50505050905090810190601f168015610ee45780820380516001836020036101000a031916815260200191505b509250505060405180910390a2610f24565b887fd771fa1d962d6d67f55ba82bcac8601cf0bd33cc5680a029b58faa3d2d3d260d60405160405180910390a25b505050505b5050505050565b60045481565b610f3e61199c565b73ffffffffffffffffffffffffffffffffffffffff166000809054906101000a900473ffffffffffffffffffffffffffffffffffffffff1673ffffffffffffffffffffffffffffffffffffffff1614610fff576040517f08c379a00000000000000000000000000000000000000000000000000000000081526004018080602001828103825260208152602001807f4f776e61626c653a2063616c6c6572206973206e6f7420746865206f776e657281525060200191505060405180910390fd5b8060048190555050565b61101161199c565b73ffffffffffffffffffffffffffffffffffffffff166000809054906101000a900473ffffffffffffffffffffffffffffffffffffffff1673ffffffffffffffffffffffffffffffffffffffff16146110d2576040517f08c379a00000000000000000000000000000000000000000000000000000000081526004018080602001828103825260208152602001807f4f776e61626c653a2063616c6c6572206973206e6f7420746865206f776e657281525060200191505060405180910390fd5b60006006600083815260200190815260200160002090506110f382826117cb565b817fd771fa1d962d6d67f55ba82bcac8601cf0bd33cc5680a029b58faa3d2d3d260d60405160405180910390a25050565b61112c61199c565b73ffffffffffffffffffffffffffffffffffffffff166000809054906101000a900473ffffffffffffffffffffffffffffffffffffffff1673ffffffffffffffffffffffffffffffffffffffff16146111ed576040517f08c379a00000000000000000000000000000000000000000000000000000000081526004018080602001828103825260208152602001807f4f776e61626c653a2063616c6c6572206973206e6f7420746865206f776e657281525060200191505060405180910390fd5b600073ffffffffffffffffffffffffffffffffffffffff168173ffffffffffffffffffffffffffffffffffffffff161415611273576040517f08c379a000000000000000000000000000000000000000000000000000000000815260040180806020018281038252602681526020018061215f6026913960400191505060405180910390fd5b8073ffffffffffffffffffffffffffffffffffffffff166000809054906101000a900473ffffffffffffffffffffffffffffffffffffffff1673ffffffffffffffffffffffffffffffffffffffff167f8be0079c531659141344cd1fd0a4f28419497f9722a3daafe3b4186f6b6457e060405160405180910390a3806000806101000a81548173ffffffffffffffffffffffffffffffffffffffff021916908373ffffffffffffffffffffffffffffffffffffffff16021790555050565b600454803410156113aa576040517f08c379a00000000000000000000000000000000000000000000000000000000081526004018080602001828103825260208152602001807f5472616e73616374696f6e2076616c7565206973206e6f7420656e6f7567682e81525060200191505060405180910390fd5b60055460078054905010611409576040517f08c379a00000000000000000000000000000000000000000000000000000000081526004018080602001828103825260248152602001806121856024913960400191505060405180910390fd5b60006006600084815260200190815260200160002090508060000160009054906101000a900460ff16156114a5576040517f08c379a00000000000000000000000000000000000000000000000000000000081526004018080602001828103825260128152602001807f52657175657374206973206163746976652e000000000000000000000000000081525060200191505060405180910390fd5b6114ad6119a4565b60018160000160006101000a81548160ff02191690831515021790555060078390806001815401808255809150506001900390600052602060002001600090919091909150557fabca19cd1a35cd8001bfc77e38ae9f56a162e022292a67e1152f1512776d6808836040518082815260200191505060405180910390a1505050565b600060606000839050600061155d8860010188600261154c61082d565b60ff168161155657fe5b0485611c04565b905060028081111561156b57fe5b81600281111561157757fe5b141561158a5780869350935050506117c2565b600086866040516020018083805190602001908083835b602083106115c457805182526020820191506020810190506020830392506115a1565b6001836020036101000a0380198251168184511680821785525050505050509050018260ff1660ff1660f81b81526001019250505060405160208183030381529060405280519060200120905060006116228a6007018a8985611c04565b90506001600281111561163157fe5b83600281111561163d57fe5b14156116c45760ff8760ff1614158015611695575089600701600301600083815260200190815260200160002060009054906101000a900460ff1660ff168a60070160040160009054906101000a900460ff1660ff16145b156116b457878a600d0190805190602001906116b2929190612009565b505b60018895509550505050506117c2565b600160028111156116d157fe5b8160028111156116dd57fe5b14156117b7576001870160ff168a60070160040160009054906101000a900460ff1660ff16106117b65760008a600d01808054600181600116156101000203166002900480601f0160208091040260200160405190810160405280929190818152602001828054600181600116156101000203166002900480156117a25780601f10611777576101008083540402835291602001916117a2565b820191906000526020600020905b81548152906001019060200180831161178557829003601f168201915b5050505050905095509550505050506117c2565b5b808895509550505050505b94509492505050565b6117d781600701611e9e565b60066000838152602001908152602001600020600080820160006101000a81549060ff02191690556001820160008082016000905560018201600090556002820160006101000a81549060ff02191690556004820160006101000a81549060ff021916905560058201600061184c9190612089565b50506007820160008082016000905560018201600090556002820160006101000a81549060ff02191690556004820160006101000a81549060ff021916905560058201600061189b9190612089565b5050600d820160006118ad91906120aa565b50506118ba600783611f00565b5050565b600080600160009054906101000a900473ffffffffffffffffffffffffffffffffffffffff1673ffffffffffffffffffffffffffffffffffffffff16636452e8216040518163ffffffff1660e01b815260040160206040518083038186803b15801561192957600080fd5b505afa15801561193d573d6000803e3d6000fd5b505050506040513d602081101561195357600080fd5b810190808051906020019092919050505090508360000154811461197b576001915050611996565b60008360ff166001901b905060008186600101541614925050505b92915050565b600033905090565b60006119ae61082d565b9050600034905060008260ff1682816119c357fe5b04905060008090505b6001840360ff168160ff161015611af5576000600160009054906101000a900473ffffffffffffffffffffffffffffffffffffffff1673ffffffffffffffffffffffffffffffffffffffff1663c66198dc836040518263ffffffff1660e01b8152600401808260ff1660ff16815260200191505060206040518083038186803b158015611a5857600080fd5b505afa158015611a6c573d6000803e3d6000fd5b505050506040513d6020811015611a8257600080fd5b8101908080519060200190929190505050905082600260008373ffffffffffffffffffffffffffffffffffffffff1673ffffffffffffffffffffffffffffffffffffffff1681526020019081526020016000206000828254019250508190555082840393505080806001019150506119cc565b506000600160009054906101000a900473ffffffffffffffffffffffffffffffffffffffff1673ffffffffffffffffffffffffffffffffffffffff1663c66198dc600186036040518263ffffffff1660e01b8152600401808260ff1660ff16815260200191505060206040518083038186803b158015611b7457600080fd5b505afa158015611b88573d6000803e3d6000fd5b505050506040513d6020811015611b9e57600080fd5b8101908080519060200190929190505050905082600260008373ffffffffffffffffffffffffffffffffffffffff1673ffffffffffffffffffffffffffffffffffffffff1681526020019081526020016000206000828254019250508190555050505050565b600080600160009054906101000a900473ffffffffffffffffffffffffffffffffffffffff1673ffffffffffffffffffffffffffffffffffffffff16636452e8216040518163ffffffff1660e01b815260040160206040518083038186803b158015611c6f57600080fd5b505afa158015611c83573d6000803e3d6000fd5b505050506040513d6020811015611c9957600080fd5b8101908080519060200190929190505050905060008660020160009054906101000a900460ff1660ff161415611cd757808660000181905550611cee565b80866000015414611ced57611cec8682611f9d565b5b5b60008560ff166001901b905060008188600101541614611d1357600192505050611e96565b6000600188600301600087815260200190815260200160002060009054906101000a900460ff1601905081886001016000828254179250508190555060018860020160008282829054906101000a900460ff160192506101000a81548160ff021916908360ff1602179055508088600301600087815260200190815260200160002060006101000a81548160ff021916908360ff16021790555060018160ff161415611de557876005018590806001815401808255809150506001900390600052602060002001600090919091909150555b8760040160009054906101000a900460ff1660ff168160ff1610611e3d57808860040160006101000a81548160ff021916908360ff1602179055506001810360ff168660ff1611611e3c5760009350505050611e96565b5b60008860020160009054906101000a900460ff16611e5961082d565b0390506001818a60040160009054906101000a900460ff16010360ff168760ff161115611e8d576002945050505050611e96565b60019450505050505b949350505050565b60008090505b8160050180549050811015611efc57816003016000836005018381548110611ec857fe5b9060005260206000200154815260200190815260200160002060006101000a81549060ff0219169055806001019050611ea4565b5050565b60008090505b8280549050811015611f985781838281548110611f1f57fe5b90600052602060002001541415611f8d5782600184805490500381548110611f4357fe5b9060005260206000200154838281548110611f5a57fe5b906000526020600020018190555082805480611f7257fe5b60019003818190600052602060002001600090559055611f98565b806001019050611f06565b505050565b611fa682611e9e565b8082600001819055506000826001018190555060008260020160006101000a81548160ff021916908360ff16021790555060008260040160006101000a81548160ff021916908360ff1602179055508160050160006120059190612089565b5050565b828054600181600116156101000203166002900490600052602060002090601f016020900481019282601f1061204a57805160ff1916838001178555612078565b82800160010185558215612078579182015b8281111561207757825182559160200191906001019061205c565b5b50905061208591906120f2565b5090565b50805460008255906000526020600020908101906120a79190612117565b50565b50805460018160011615610100020316600290046000825580601f106120d057506120ef565b601f0160209004906000526020600020908101906120ee91906120f2565b5b50565b61211491905b808211156121105760008160009055506001016120f8565b5090565b90565b61213991905b8082111561213557600081600090555060010161211d565b5090565b9056fe446972656374207061796d656e747320617265206e6f7420737570706f727465642e4f776e61626c653a206e6577206f776e657220697320746865207a65726f20616464726573734d617869756d756d206e756d626572206f6620726571756573747320726561636865642ea26469706673582212207039274f2494caf32cb85d1746877f391c9b4d729dd62205617c7fee0a6717c464736f6c63430006050033",
  "source": "//! The Secret Store server key retrieval service contract.\n//!\n//! Copyright 2017 Svyatoslav Nikolsky, Parity Technologies Ltd.\n//!\n//! Licensed under the Apache License, Version 2.0 (the \"License\");\n//! you may not use this file except in compliance with the License.\n//! You may obtain a copy of the License at\n//!\n//!     http://www.apache.org/licenses/LICENSE-2.0\n//!\n//! Unless required by applicable law or agreed to in writing, software\n//! distributed under the License is distributed on an \"AS IS\" BASIS,\n//! WITHOUT WARRANTIES OR CONDITIONS OF ANY KIND, either express or implied.\n//! See the License for the specific language governing permissions and\n//! limitations under the License.\n\npragma solidity ^0.6.0;\n\nimport \"../interfaces/SecretStoreService.sol\";\nimport \"./SecretStoreServiceBase.sol\";\n\n\n/// Server Key retrieval service contract.\n/* solium-disable-next-line */\ncontract SecretStoreServerKeyRetrievalService is\n    SecretStoreServiceBase,\n    ServerKeyRetrievalServiceClientApi,\n    ServerKeyRetrievalServiceKeyServerApi\n{\n    /// Server key retrieval request.\n    struct ServerKeyRetrievalRequest {\n        bool isActive;\n        RequestResponses thresholdResponses;\n        RequestResponses responses;\n        bytes publicWithMaxThreshold;\n    }\n\n    /// When sever key retrieval request is received.\n    event ServerKeyRetrievalRequested(bytes32 serverKeyId);\n\n    /// When server key is retrieved.\n    event ServerKeyRetrieved(bytes32 indexed serverKeyId, bytes serverKeyPublic);\n\n    /// When error occurs during server key retrieval.\n    event ServerKeyRetrievalError(bytes32 indexed serverKeyId);\n\n    constructor(address keyServerSetAddressInit)\n        public\n        SecretStoreServiceBase(keyServerSetAddressInit)\n    {\n        serverKeyRetrievalFee = 100 finney;\n        maxServerKeyRetrievalRequests = 8;\n    }\n\n    // === Interface methods ===\n\n    /// We do not support direct payments.\n    receive() external payable {\n        revert(\"Direct payments are not supported.\");\n    }\n\n    /// Retrieve existing server key. Retrieved key will\n    /// be published via ServerKeyRetrieved or ServerKeyRetrievalError.\n    function retrieveServerKey(bytes32 serverKeyId)\n        external\n        payable\n        override\n        whenFeePaid(serverKeyRetrievalFee)\n    {\n        // check maximum number of requests\n        require(\n            serverKeyRetrievalRequestsKeys.length < maxServerKeyRetrievalRequests,\n            \"Maxiumum number of requests reached.\"\n        );\n\n        ServerKeyRetrievalRequest storage request = serverKeyRetrievalRequests[serverKeyId];\n        require(!request.isActive, \"Request is active.\");\n        deposit();\n\n        // we do not know exact threshold value here && we can not blindly trust the first response\n        // => we should agree upon two values: threshold && server key itself\n        // => assuming that all authorities will eventually respond with value/error, we will wait for:\n        // 1) at least 50% + 1 authorities agreement on the same threshold value\n        // 2) after threshold is agreed, we will wait for threshold + 1 values of server key\n\n        request.isActive = true;\n        serverKeyRetrievalRequestsKeys.push(serverKeyId);\n\n        emit ServerKeyRetrievalRequested(serverKeyId);\n    }\n\n    /// Called when retrieval is reported by key server.\n    function serverKeyRetrieved(\n        bytes32 serverKeyId,\n        bytes calldata serverKeyPublic,\n        uint8 threshold\n    )\n        external\n        override\n        validPublic(serverKeyPublic)\n    {\n        // check if request still active\n        ServerKeyRetrievalRequest storage request = serverKeyRetrievalRequests[serverKeyId];\n        if (!request.isActive) {\n            return;\n        }\n\n        // insert response (we're waiting for responses from all authorities here)\n        // it checks that tx.origin is actually the key server\n        uint8 keyServerIndex = requireKeyServer(msg.sender);\n\n        ResponseSupport responseSupport;\n        bytes memory finalServerKeyPublic;\n        (responseSupport, finalServerKeyPublic) = insertServerKeyRetrievalResponse(\n            request,\n            keyServerIndex,\n            serverKeyPublic,\n            threshold\n        );\n\n        // ...and check if there are enough support\n        if (responseSupport == ResponseSupport.Unconfirmed) { // not confirmed (yet)\n            return;\n        }\n\n        // delete request and fire event\n        clearServerKeyRetrievalRequest(serverKeyId, request);\n        if (responseSupport == ResponseSupport.Confirmed) { // confirmed\n            emit ServerKeyRetrieved(serverKeyId, finalServerKeyPublic);\n        } else { // no consensus possible at all\n            emit ServerKeyRetrievalError(serverKeyId);\n        }\n    }\n\n    /// Called when error occurs during server key retrieval.\n    function serverKeyRetrievalError(bytes32 serverKeyId)\n        external\n        override\n    {\n        // check if request still active\n        ServerKeyRetrievalRequest storage request = serverKeyRetrievalRequests[serverKeyId];\n        if (!request.isActive) {\n            return;\n        }\n\n        // check that it is called by key server\n        uint8 keyServerIndex = requireKeyServer(msg.sender);\n\n        // all key servers in SS with auto-migration enabled should have a share for every key\n        // => we could make an error fatal, but let's tolerate such issues\n        // => insert invalid response and check if there are enough confirmations\n        bytes memory invalidPublic = new bytes(64);\n\n        ResponseSupport responseSupport;\n        bytes memory _finalServerKeyPublic;\n        (responseSupport, _finalServerKeyPublic) = insertServerKeyRetrievalResponse(\n            request,\n            keyServerIndex,\n            invalidPublic,\n            0xFF);\n        if (responseSupport == ResponseSupport.Unconfirmed) {\n            return;\n        }\n\n        // delete request and fire event\n        clearServerKeyRetrievalRequest(serverKeyId, request);\n        emit ServerKeyRetrievalError(serverKeyId);\n    }\n\n    /// Get count of pending server key retrieval requests.\n    function serverKeyRetrievalRequestsCount()\n        external\n        view\n        override\n        returns (uint256)\n    {\n        return serverKeyRetrievalRequestsKeys.length;\n    }\n\n    /// Get server key retrieval request with given index.\n    /// Returns: (serverKeyId)\n    function getServerKeyRetrievalRequest(uint256 index)\n        external\n        view\n        override\n        returns (bytes32)\n    {\n        bytes32 serverKeyId = serverKeyRetrievalRequestsKeys[index];\n        return serverKeyId;\n    }\n\n    /// Returs true if response from given keyServer is required.\n    function isServerKeyRetrievalResponseRequired(\n        bytes32 serverKeyId,\n        address keyServer\n    )\n        external\n        view\n        override\n        returns (bool)\n    {\n        uint8 keyServerIndex = requireKeyServer(keyServer);\n        ServerKeyRetrievalRequest storage request = serverKeyRetrievalRequests[serverKeyId];\n        return isResponseRequired(request.thresholdResponses, keyServerIndex);\n    }\n\n    // === Administrative methods ===\n\n    /// Set server key retrieval fee.\n    function setServerKeyRetrievalFee(uint256 newFee)\n        public\n        onlyOwner\n    {\n        serverKeyRetrievalFee = newFee;\n    }\n\n    /// Set server key retrieval requests limit.\n    function setMaxServerKeyRetrievalRequests(uint256 newLimit)\n        public\n        onlyOwner\n    {\n        maxServerKeyRetrievalRequests = newLimit;\n    }\n\n    /// Delete server key retrieval request.\n    function deleteServerKeyRetrievalRequest(bytes32 serverKeyId)\n        public\n        onlyOwner\n    {\n        ServerKeyRetrievalRequest storage request = serverKeyRetrievalRequests[serverKeyId];\n        clearServerKeyRetrievalRequest(serverKeyId, request);\n\n        emit ServerKeyRetrievalError(serverKeyId);\n    }\n\n    // === Internal methods ===\n\n    /// Insert both threshold and public response.\n    function insertServerKeyRetrievalResponse(\n        ServerKeyRetrievalRequest storage request,\n        uint8 keyServerIndex,\n        bytes memory serverKeyPublic,\n        uint8 threshold\n    )\n        private\n        returns (ResponseSupport, bytes memory)\n    {\n        // insert threshold response\n        // bytes32 thresholdResponse = bytes32(threshold);\n        bytes32 thresholdResponse;\n        assembly { thresholdResponse := threshold }\n        ResponseSupport thresholdResponseSupport = insertResponse(\n            request.thresholdResponses,\n            keyServerIndex,\n            keyServersCount() / 2,\n            thresholdResponse);\n        if (thresholdResponseSupport == ResponseSupport.Impossible) {\n            return (thresholdResponseSupport, serverKeyPublic);\n        }\n\n        // insert response itself\n        bytes32 response = keccak256(abi.encodePacked(serverKeyPublic, threshold));\n        ResponseSupport responseSupport = insertResponse(\n            request.responses,\n            keyServerIndex,\n            threshold,\n            response\n        );\n        if (thresholdResponseSupport == ResponseSupport.Unconfirmed) {\n            // even though threshold is not yet confirmed, we might want to remember public\n            // to return it in future\n            if (threshold != 0xFF &&\n                request.responses.maxResponseSupport == request.responses.responsesSupport[response]\n            ) {\n                request.publicWithMaxThreshold = serverKeyPublic;\n            }\n\n            // if threshold we have responded with is not confirmed, public is also not confirmed\n            return (ResponseSupport.Unconfirmed, serverKeyPublic);\n        }\n        if (responseSupport == ResponseSupport.Unconfirmed) {\n            // threshold is confirmed and response is unconfirmed\n            // => we might want to check if some other public has enough confirmations already\n            if (request.responses.maxResponseSupport >= threshold + 1) {\n                return (ResponseSupport.Confirmed, request.publicWithMaxThreshold);\n            }\n        }\n\n        return (responseSupport, serverKeyPublic);\n    }\n\n    /// Clear server key retrieval request traces.\n    function clearServerKeyRetrievalRequest(\n        bytes32 serverKeyId,\n        ServerKeyRetrievalRequest storage request\n    )\n        private\n    {\n        clearResponses(request.responses);\n        delete serverKeyRetrievalRequests[serverKeyId];\n\n        removeRequestKey(serverKeyRetrievalRequestsKeys, serverKeyId);\n    }\n\n    /// Server key retrieval fee.\n    uint256 public serverKeyRetrievalFee;\n\n    /// Maximal number of active server key retrieval requests. We're limiting this number to avoid\n    /// infinite gas costs of some functions.\n    uint256 public maxServerKeyRetrievalRequests;\n\n    /// Pending retrieval requests.\n    mapping (bytes32 => ServerKeyRetrievalRequest) private serverKeyRetrievalRequests;\n\n    /// Pending retrieval requests keys.\n    bytes32[] private serverKeyRetrievalRequestsKeys;\n}\n",
  "sourcePath": "/home/aznagy/work/secretstore/secretstore-contracts/contracts/service/SecretStoreServerKeyRetrievalService.sol",
  "compiler": {
    "name": "solc",
    "version": "0.6.5+commit.f956cc89.Emscripten.clang"
  },
  "schemaVersion": "3.0.23",
  "updatedAt": "2020-04-08T13:26:56.037Z",
  "devdoc": {
    "methods": {
      "owner()": {
        "details": "Returns the address of the current owner."
      },
      "renounceOwnership()": {
        "details": "Leaves the contract without owner. It will not be possible to call `onlyOwner` functions anymore. Can only be called by the current owner.     * NOTE: Renouncing ownership will leave the contract without an owner, thereby removing any functionality that is only available to the owner."
      },
      "transferOwnership(address)": {
        "details": "Transfers ownership of the contract to a new account (`newOwner`). Can only be called by the current owner."
      }
    }
  },
  "userdoc": {
    "methods": {
      "deleteServerKeyRetrievalRequest(bytes32)": {
        "notice": "Delete server key retrieval request."
      },
      "drain()": {
        "notice": "Drain balance of sender key server."
      },
      "getServerKeyRetrievalRequest(uint256)": {
        "notice": "Get server key retrieval request with given index. Returns: (serverKeyId)"
      },
      "isServerKeyRetrievalResponseRequired(bytes32,address)": {
        "notice": "Returs true if response from given keyServer is required."
      },
      "keyServersCount()": {
        "notice": "Return number of key servers."
      },
      "requireKeyServer(address)": {
        "notice": "Return index of key server at given address."
      },
      "retrieveServerKey(bytes32)": {
        "notice": "Retrieve existing server key. Retrieved key will be published via ServerKeyRetrieved or ServerKeyRetrievalError."
      },
      "serverKeyRetrievalError(bytes32)": {
        "notice": "Called when error occurs during server key retrieval."
      },
      "serverKeyRetrievalRequestsCount()": {
        "notice": "Get count of pending server key retrieval requests."
      },
      "serverKeyRetrieved(bytes32,bytes,uint8)": {
        "notice": "Called when retrieval is reported by key server."
      },
      "setMaxServerKeyRetrievalRequests(uint256)": {
        "notice": "Set server key retrieval requests limit."
      },
      "setServerKeyRetrievalFee(uint256)": {
        "notice": "Set server key retrieval fee."
      }
    },
    "notice": "Server Key retrieval service contract."
  }
}